:100000000C94F5030C9426040C9426040C942604FA
:100010000C9426040C9426040C9426040C942604B8
:100020000C9426040C9426040C9426040C942604A8
:100030000C9426040C9426040C9426040C94260498
:100040000C9426040C9426040C9426040C94260488
:100050000C9426040C9426040C9426040C94180D7D
:100060000C9426040C94FC110C94C8120C942604D5
:100070000C9426040C9426040C9426040C94260458
:100080000C9426040C9426040C9426040C94260448
:100090000C942F120C9407130C9426040C94260431
:1000A0000C9426040C9426040C9426040C94260428
:1000B0000C9426040C9426040C9426040C94260418
:1000C0000C9426040C9426040C9426040C946212BE
:1000D0000C9446130C9426040C9495120C948513DE
:1000E0000C942604570E5A0E4D0E510E910E5E0EB4
:1000F000620E680E6C0E700E760E7A0E7E0E910EEB
:10010000840E880E8C0E0C9495110C94680E0C9431
:10011000880E0C94A0110C9431170C9448110C9477
:100120007E0E0C94631B0C94441B0C947A1F0C944D
:1001300013170C94201C0C9408160C947E160C9427
:10014000A7170C945A0E0C9475110C9472200C94F1
:10015000620E0C94FE0E0C94910E0C9428160C94C6
:100160008C0E0C9406180C948D060C9459110C945A
:1001700038160C94510E0C9407180C944C140C94D3
:10018000AC1B0C945E0E0C94840E0C944F1B0C94C0
:10019000531A0C9449110C94761B0C9409160C9468
:1001A000700E0C94C2160C945E1C0C944D0E0C94A4
:1001B000E61B0C947A0E0C9439160C94ED200C94DA
:1001C0005F150C940D060C9410160C941C160C94D0
:1001D000760E0C946C0E0C942E1F0C94570E00008F
:1001E000090A02080B0C0D070603040100000000B9
:1001F00000000000000000000000000000000000FF
:100200000000000000000000000011100F000000BE
:1002100000000000000000000000000000000000DE
:1002200000000000010210202008081020401020CB
:1002300040800201020108040201010204081020AA
:1002400040808040201008040201800402018040A8
:100250002010080402010804020101020408102011
:1002600040800102040810204080050505050705AF
:1002700008080808020202020A0A08080404040422
:10028000010101010101010103030303030303034E
:10029000040707070C0C0C0C0C0C0C0C02020202DD
:1002A00006060606060606060B0B0B0B0B0B0B0BC6
:1002B00000002200250028002B002E003100340011
:1002C00002010000050108010B01000021002400CB
:1002D00027002A002D003000330001010000040136
:1002E00007010A0100000000003E5B4F5B3E3E6BD1
:1002F0004F6B3E1C3E7C3E1C183C7E3C181C577DC0
:10030000571C1C5E7F5E1C00183C1800FFE7C3E70B
:10031000FF0018241800FFE7DBE7FF30483A060E1D
:100320002629792926407F050507407F05253F5A64
:100330003CE73C5A7F3E1C1C08081C1C3E7F1422D4
:100340007F22145F5F005F5F06097F017F0066897F
:10035000956A606060606094A2FFA29408047E04C5
:100360000810207E201008082A1C08081C2A0808EB
:100370001E101010100C1E0C1E0C30383E383006AB
:100380000E3E0E06000000000000005F00000007A7
:10039000000700147F147F14242A7F2A12231308D5
:1003A000646236495620500008070300001C2241B1
:1003B000000041221C002A1C7F1C2A08083E080855
:1003C0000080703000080808080800006060002005
:1003D000100804023E5149453E00427F40007249E8
:1003E0004949462141494D331814127F102745458C
:1003F00045393C4A494931412111090736494949A2
:1004000036464949291E000014000000403400000F
:100410000008142241141414141400412214080278
:10042000015909063E415D594E7C1211127C7F49EB
:100430004949363E414141227F4141413E7F494940
:1004400049417F090909013E414151737F0808086C
:100450007F00417F41002040413F017F081422413D
:100460007F404040407F021C027F7F0408107F3E97
:100470004141413E7F090909063E4151215E7F0904
:10048000192946264949493203017F01033F40406B
:10049000403F1F2040201F3F4038403F6314081456
:1004A0006303047804036159494D43007F4141418E
:1004B0000204081020004141417F0402010204406F
:1004C00040404040000307080020545478407F28F3
:1004D0004444383844444428384444287F385454E9
:1004E000541800087E090218A4A49C787F0804040C
:1004F0007800447D40002040403D007F10284400AB
:1005000000417F40007C047804787C08040478383B
:1005100044444438FC1824241818242418FC7C086B
:10052000040408485454542404043F44243C4040E8
:10053000207C1C2040201C3C4030403C442810289B
:10054000444C9090907C4464544C440008364100E4
:100550000000770000004136080002010204023C5E
:100560002623263C1EA1A161123A4040207A38542D
:1005700054555921555579412254547842215554A6
:10058000784020545579400C1E52721239555555F9
:1005900059395454545939555454580000457C41E4
:1005A0000002457D420001457C407D1211127DF024
:1005B000282528F07C545545002054547C547C0A4E
:1005C000097F4932494949323A4444443A324A4817
:1005D00048303A4141217A3A42402078009DA0A01B
:1005E0007D3D4242423D3D4040403D3C24FF24246D
:1005F000487E4943662B2FFC2F2BFF0929F620C08C
:10060000887E090320545479410000447D413048DC
:10061000484A32384040227A007A0A0A727D0D191F
:10062000317D2629292F28262929292630484D4081
:1006300020380808080808080808382F10C8ACBA7D
:100640002F102834FA00007B000008142A142222FC
:10065000142A14085500550055AA55AA55AAFF5545
:10066000FF55FF000000FF00101010FF00141414CD
:10067000FF001010FF00FF1010F010F0141414FC15
:10068000001414F700FF0000FF00FF1414F404FC32
:10069000141417101F10101F101F1414141F001013
:1006A0001010F0000000001F101010101F1010108C
:1006B00010F010000000FF1010101010101010109B
:1006C000FF10000000FF140000FF00FF00001F10DB
:1006D000170000FC04F414141710171414F404F495
:1006E0000000FF00F714141414141414F700F71486
:1006F0001414171410101F101F141414F4141010D5
:10070000F010F000001F101F0000001F1400000078
:10071000FC140000F010F01010FF10FF141414FF70
:10072000141010101F00000000F010FFFFFFFFFF6B
:10073000F0F0F0F0F0FFFFFF0000000000FFFF0FFF
:100740000F0F0F0F3844443844FC4A4A4A347E02A3
:10075000020606027E027E02635549416338444424
:100760003C04407E201E2006027E020299A5E7A5D9
:10077000991C2A492A1C4C7201724C304A4D4D304A
:100780003048784830BC625A463D3E494949007E6F
:100790000101017E2A2A2A2A2A44445F4444405106
:1007A0004A444040444A51400000FF0103E080FFBA
:1007B000000008086B6B083612362436060F090F46
:1007C00006000018180000001010003040FF010162
:1007D000001F01011E00191D1712003C3C3C3C008B
:1007E000000000000D064C148D0611241FBECFEF33
:1007F000D1E2DEBFCDBF00E00CBF13E0A0E0B2E06D
:10080000E6E1F1E500E00BBF02C007900D92A630D3
:10081000B107D9F726E0A6E0B3E001C01D92AE37DC
:10082000B207E1F713E0C4EFD3E000E006C0219780
:100830000109802FFE010E943428C23FD10780E0C9
:100840000807A9F70E94140D0C947A250C94000057
:100850002F923F924F925F926F927F928F929F92D0
:10086000AF92BF92CF92DF92EF92FF920F931F93BE
:10087000CF93DF93CDB7DEB72C970FB6F894DEBFDA
:100880000FBECDBF86E093E00E945C212F833887A6
:1008900049875A876B877C876F80788469857A85DA
:1008A0008B849C84C4010A978F3D934058F010922A
:1008B0004E0310924D031A8219821C821B829E8263
:1008C0008D8243C0072E000C880B990B1F921F923C
:1008D00021E02F9320E42F93A12CB12C650118E97E
:1008E000E12E13E0F12E00E010E024E630E040E0DD
:1008F00050E00E941E151B012C01B301770C880BE0
:10090000990B1F921F921F9220EF2F9310E7E12E59
:1009100013E0F12E00E010E020EA30E040E050E08B
:100920000E941E1521E020934D033A82298220EF78
:1009300030E0C901861B970B9C838B839E828D823E
:100940000FB6F894DEBF0FBECDBF29813A814B812F
:100950005C816D817E8180E090E02C960FB6F894EA
:10096000DEBF0FBECDBFDF91CF911F910F91FF90E2
:10097000EF90DF90CF90BF90AF909F908F907F903F
:100980006F905F904F903F902F9008952F923F92DD
:100990004F925F926F927F928F929F92AF92BF928F
:1009A000CF92DF92EF92FF920F931F93CF93DF933B
:1009B000CDB7DEB727970FB6F894DEBF0FBECDBF19
:1009C00041EC642E43E0742EA12CB12C50E1452E55
:1009D000512C66E0262E312C7AE0D72E8DE30E9432
:1009E0001B0EB2016A197B090E94DF278C018DE37F
:1009F0000E941B0E47E0409F9001419F300D112443
:100A0000F901E85AFC4F4F01B1010E94DF27BC01F8
:100A1000CF010E942511FC01608181E593E00E94D5
:100A2000F2108501037011277501F594E794F59490
:100A3000E794B50181E593E00E94251197012F5FAE
:100A40003F4FD29EA001D39E500D1124F8E2FE9D8F
:100A50009001FF9D300D1124420F531F465F5F4FE1
:100A600098012F5F3F4FD29EB001D39E700D11248D
:100A7000F09F9001F19F300D1124620F731F645F8E
:100A80007F4F23E0C22EEE24EA94FE2C00E010E01B
:100A9000FC0120818AE193E00E943D18B401CE015F
:100AA00001960E94A310B301C4010E948C10BE01E4
:100AB0006F5F7F4FC3010E948C10CE0101960E9490
:100AC0000810FFEFAF1ABF0A47E0641A710850E13F
:100AD000A516B10409F082CF27960FB6F894DEBFB1
:100AE0000FBECDBFDF91CF911F910F91FF90EF907F
:100AF000DF90CF90BF90AF909F908F907F906F903E
:100B00005F904F903F902F900895CF93DF9300D048
:100B100000D0CDB7DEB749835A836B837C8389814C
:100B20009A81EB81FC81823D910544F5E23DF1051E
:100B30002CF58F3C2FEF92074CF0883C910544F444
:100B400062E370E00E94DF27262F03C020E001C08F
:100B500023E0EF3C8FEFF8074CF0E83CF10544F45C
:100B6000CF0162E370E00E94DF2703C060E001C0B4
:100B700063E0862F880F880F820F01C080E12696E0
:100B80000FB6F894DEBF0FBECDBFDF91CF910895B1
:100B9000FC01442309F43FC0DC0150E0CD018E1B71
:100BA0009F0B8417950724F48D916813F7CF31C0FC
:100BB0004E0F5F1FFA0131978081262F237030E09E
:100BC000982F9370291B310937FF03C03195219568
:100BD000310922303105ECF490E0262F2695269538
:100BE00030E0AC015595479555954795F901E41BC3
:100BF000F50BAF0195958795959587951416150674
:100C000024F44130510529F406C0821B930B02974E
:100C100014F080E10895862F0895EF92FF920F93CC
:100C20006BE072E088E593E00E94761062E172E08A
:100C30008FE593E00E94761069E172E086E693E02A
:100C40000E94761060E272E08DE693E00E947610DA
:100C500067E272E084E793E00E9476106EE272E051
:100C60008BE793E00E94761065E372E082E893E000
:100C70000E9476106CE372E089E893E00E9476109F
:100C800063E472E080E993E00E9476106AE472E027
:100C900087E993E00E94761061E572E08EE993E0C7
:100CA0000E94761068E572E085EA93E00E94761073
:100CB0006FE572E08CEA93E00E94761066E672E0DF
:100CC00083EB93E00E9476106DE672E08AEB93E08E
:100CD0000E94761064E772E081EC93E00E94761047
:100CE00066E272E081E593E00E9476102FEF49E022
:100CF0006AE08AE193E00E94771C8CE2E82EFF24F0
:100D0000F39405E029E348E364E086E093E00E9481
:100D1000B6220F91FF90EF900895CF93DF9381E576
:100D200093E00E940810C8ECD3E02797CE010E9400
:100D3000081083E0C835D807C1F7DF91CF91089537
:100D40000E94B90D40E855E260E070E088E394E06D
:100D50000E94C41340E050E0BA018AE193E00E948F
:100D6000381D61E08AE193E00E942E1F60E08AE175
:100D700093E00E94411B63E08AE193E00E942F1BF5
:100D800060E070E08AE193E00C941317AF92BF9299
:100D9000CF92DF92EF92FF920F931F93CF93DF9347
:100DA000EC015B016A0160E070E08AE193E00E947F
:100DB000351BEE24EA94FE2C0EE110E024E630E030
:100DC000A501BE018AE193E00E94201CA5014C5FB1
:100DD0005F4FF6012481358162E1629FC001639F0C
:100DE000900D112424E630E0281B390B3695279509
:100DF000B9016C0F7D1F8AE193E00E94291BB601A7
:100E00008AE193E0DF91CF911F910F91FF90EF90D6
:100E1000DF90CF90BF90AF900C943B0F9F92AF921A
:100E2000BF92CF92DF92EF92FF920F931F93CF93D7
:100E3000DF93982E362F3370832F90E001962AE0AF
:100E4000289FE001299FD00D112488E2389FC00D12
:100E5000D11D112466956695862F90E00196289FF6
:100E60006001299FD00C112488E2689FC00CD11C1E
:100E700011247A0108E210E028E230E0A601BE0168
:100E80008AE193E00E94201CA601465F5F4FBE01ED
:100E9000645F7F4F83E0C82E00E010E0292D8AE1D7
:100EA00093E00E943D18DF91CF911F910F91FF9029
:100EB000EF90DF90CF90BF90AF909F900895EF920A
:100EC000FF920F931F93CF93DF93EC01E12CF12C52
:100ED0000EE511E022ED30E042ED50E060E070E020
:100EE0008AE193E00E94201C42ED50E06AE070E04D
:100EF0008AE193E00E94291BBE018AE193E0DF9121
:100F0000CF911F910F91FF90EF900C943B0F4F9258
:100F10005F926F927F928F929F92AF92BF92CF9289
:100F2000DF92EF92FF920F931F93CF93DF9300D046
:100F30001F92CDB7DEB74B015C010E94620D28EE17
:100F400033E040E050E00E94F327CA01B9010E945B
:100F5000B0262B013C018091000290910102A091EA
:100F60000202B091030289839A83AB83BC83BC01E4
:100F7000CD010E94B0266B017C01C501B4010E9425
:100F8000B0269B01AC01C301B2010E9496259B01D2
:100F9000AC01C701B6010E949625A70196010E94E7
:100FA0000326882309F452C089819A81AB81BC81D0
:100FB0000B97A105B10528F040E550E069EF70E01E
:100FC00012C0E12CF12C00E110E028E130E040E516
:100FD00050E069EF70E08AE193E00E94201C40E558
:100FE00050E06EEF70E08AE193E00E94291BC09010
:100FF0000002D0900102E0900202F09003020E94F1
:10100000620D8C0C9D1CAE1CBF1C28EE33E040E032
:1010100050E00E94F327D501C401821B930BA40B5F
:10102000B50BAC01BD018093000290930102A09327
:101030000202B09303022AE030E08AE193E00E94CA
:10104000F50FC301B2010E94812602C0B401C5019F
:101050000F900F900F900F90DF91CF911F910F91F4
:10106000FF90EF90DF90CF90BF90AF909F908F90C8
:101070007F906F905F904F900895EF92FF920F9343
:101080001F93CF93DF93CDB7DEB727970FB6F894B2
:10109000DEBF0FBECDBFE12CF12C00EF10E024E647
:1010A00030E040E050E062ED70E08AE193E00E94C1
:1010B000201C6BE772E0CE0101960E947610AE0113
:1010C0004F5F5F4F6AE070E082ED90E00E94C606DD
:1010D000CE0101960E94081061E872E0CE010196EF
:1010E0000E947610AE014F5F5F4F60EA70E082EDC4
:1010F00090E00E94C606CE0101960E94081067E8A3
:1011000072E0CE0101960E947610AE014F5F5F4FF4
:1011100068EC70E082ED90E00E94C606CE01019678
:101120000E94081062E08AE193E00E942F1B40E0D9
:1011300050E06FEF7FEF8AE193E00E943B1B4CE3AE
:1011400050E06DEE70E08AE193E00E94291B6DE8AB
:1011500072E08AE193E00E94700F40E550E069EF91
:1011600070E08AE193E00E94291B409100025091B7
:10117000010260910202709103022AE030E08AE1EC
:1011800093E00E94F50F4EE650E061EE70E08AE1D8
:1011900093E00E94291B62E972E08AE193E00E94D9
:1011A000700F42E850E06FEF70E08AE193E00E9438
:1011B000291B60914F03709150034AE050E08AE18F
:1011C00093E00E9402100EE110E066E272E081E519
:1011D00093E00E94AD100E94C60401501109A9F7C6
:1011E00027960FB6F894DEBF0FBECDBFDF91CF912B
:1011F0001F910F91FF90EF900895CF92DF92EF92A1
:10120000FF920F931F93CF93DF932AE0C22ED12C2E
:10121000CAE0D0E0EE24EA94FE2C08E210E028E2D6
:1012200030E0AE01B6018AE193E00E94201CE29614
:10123000C23DD10579F782E3C80ED11C82EDC816F4
:10124000D10431F7EE24EA94FE2C0CED10E024E6F4
:1012500030E04AE050E062ED70E08AE193E00E9405
:10126000201C40E650E06BEE70E08AE193E00E94C3
:10127000291B4FEF5FEF60E070E08AE193E00E948E
:101280003B1B69E972E08AE193E00E94700F44E839
:1012900050E061EE70E08AE193E00E94291B6DE965
:1012A00072E08AE193E0DF91CF911F910F91FF905F
:1012B000EF90DF90CF900C94700F4F925F926F92EF
:1012C0007F928F929F92AF92BF92CF92DF92EF92D6
:1012D000FF920F931F93CF93DF937901A82FA370F1
:1012E000B0E0E62FE370F0E08D01EA17FB070CF4A5
:1012F0008F01382F36953695262F26952695C32FA4
:10130000231708F4C22F68276370D0E0C801019644
:101310006C01611138C0219682E38C9F50018D9F32
:10132000B00C11248AE08C9DB0018D9D700D1124AC
:10133000072E000C880B990B0E94B2262B013C0152
:10134000B801110F880B990B0E94B22620E030E003
:1013500040E05FE30E94972520E030E040E252E465
:101360000E9462279B01AC01C301B2010E94972534
:101370000E947A2687012AE030E0A5018AE193E005
:101380000E94AC1BA4C023133AC0CE0101962AE0F0
:10139000289FB001299F700D1124072E000C880B87
:1013A000990B0E94B2264B015C01BE01DD0F880B38
:1013B000990B0E94B22620E030E040E05FE30E94FB
:1013C000972520E030E040E252E40E9462279B0132
:1013D000AC01C501B4010E9497250E947A2622E340
:1013E0002C9DF0012D9DF00D112487012AE030E0A5
:1013F000AB01BF018AE193E00E94E61B68C0AD012A
:10140000AE17BF070CF4AF01832F321708F4822FF9
:10141000682F70E008E2809FC00111248A010F5FED
:101420001F4F5801EA17FB0714F4231728F0AE17D3
:10143000BF0734F5321720F56F5F7F4F3AE0369FD4
:101440008001379F100D1124080F191F3A9DC0010C
:101450003B9D900D112468E2649F9001659F300DC3
:101460001124280F391F219682E38C9FA0018D9FA4
:10147000500D11248C9DB0018D9D700D112423C041
:101480002196E2E3EC9F8001ED9F100D1124FAE01C
:10149000FA9DD001FB9DB00D1124C8E2C49F9001BC
:1014A000C59F300D11242A0F3B1F6F5F7F4FF69FA2
:1014B000A001F79F500D1124480F591FEC9DB0015A
:1014C000ED9D700D11248AE193E00E943117DF91A8
:1014D000CF911F910F91FF90EF90DF90CF90BF9031
:1014E000AF909F908F907F906F905F904F900895F6
:1014F000AF92BF92CF92DF92EF92FF920F931F9322
:10150000CF93DF93CDB7DEB727970FB6F894DEBF42
:101510000FBECDBF7C018B016A0166E272E00E94C2
:101520007610A12CB12CF801848195810197A81621
:10153000B90668F4B501C8010E942511FC0160815B
:10154000C7010E94F210FFEFAF1ABF0AECCFB7013C
:10155000CE0101960E94A310CE0101960E945F0762
:10156000CE0101960E940810F801648175816150D6
:101570007109F601E60FF71FB080C8010E9425111E
:101580004FEF5FEF6B2DFC0180810E940E07F80189
:10159000448155814230510568F0C601840F951F82
:1015A000FC013197DC01129720E030E060818C91E2
:1015B0000E945D09F80124813581F601E20FF31FD5
:1015C000319780E18083C70127960FB6F894DEBF7C
:1015D0000FBECDBFDF91CF911F910F91FF90EF9084
:1015E000DF90CF90BF90AF900895CF92DF92EF92AF
:1015F000FF920F931F93CF93DF93CDB7DEB72E9754
:101600000FB6F894DEBF0FBECDBF7C018B016A011F
:1016100066E272E0C8010E940611B80181111BC088
:10162000CE0108960E94A310A601BE01685F7F4FFD
:10163000CE0101960E94780ABE016F5F7F4FC801FC
:101640000E948C10CE0101960E940810CE010896CF
:101650000E940810DDCFC7010E94A310C7012E967B
:101660000FB6F894DEBF0FBECDBFDF91CF911F91B3
:101670000F91FF90EF90DF90CF900895CF92DF927F
:10168000EF92FF920F931F93CF93DF93CDB7DEB707
:1016900064970FB6F894DEBF0FBECDBF6C012F87E5
:1016A000388B498B5A8B89899A892F853889233DB4
:1016B00031050CF442C0893C910534F0F801848175
:1016C0009581892B59F403C0813A9105ACF468ECFB
:1016D00070E080E090E00E94930D2FC0B801CE0131
:1016E00008960E94A310A701BE01685F7F4FCE013C
:1016F00001960E94F50A12C0F80184819581892B18
:1017000031F3B801CE0108960E94A310A701BE01D3
:10171000685F7F4FCE0101960E94780ABE016F5F1D
:101720007F4FC8010E948C10CE0101960E940810C4
:10173000CE0108960E940810CACFB801C6010E94C7
:10174000A310C60164960FB6F894DEBF0FBECDBFDE
:10175000DF91CF911F910F91FF90EF90DF90CF908D
:1017600008958F929F92AF92BF92CF92DF92EF92A5
:10177000FF920F931F93CF93DF93482F4695469583
:10178000242F30E02F5F3F4F9AE0929F5001939FAC
:10179000B00C112428E2429FA00CB11C11248370CC
:1017A000282F30E02F5F3F4F929F4001939F900C76
:1017B000112498E2899F800C911C112498E2C92E73
:1017C000D12CC0E0D0E0AE014A0D5B1DBE01680D1A
:1017D000791DE12C88EFF82E860196018AE193E0CD
:1017E0000E94A717219622E0C21AD108C530D10560
:1017F00051F7DF91CF911F910F91FF90EF90DF9004
:10180000CF90BF90AF909F908F9008957F928F92CE
:101810009F92AF92BF92CF92DF92EF92FF920F937F
:101820001F93CF93DF93CDB7DEB7AB970FB6F89486
:10183000DEBF0FBECDBF0E943D0880E19E012F5F3D
:101840003F4F6901F901282F11922A95E9F7898301
:1018500066E272E0CE014F960E9476100E94620D01
:1018600028EE33E040E050E00E94F327CA01B901BE
:101870000E94B0264B015C01809100029091010210
:10188000A0910202B0910302892B8A2B8B2B09F4C1
:1018900099C0C501B4010E9481260E9487070E9459
:1018A000B0264B015C010E942804F42FE52FCB01E8
:1018B0002EA33FA3F8A7E9A76AA79BA740914D03D2
:1018C0004423D1F240914E034111D6CFA9016F2F8D
:1018D0007E2F0E948505782EBE01615E7F4FCE016E
:1018E00048960E94A31076018E01085E1F4F2EA11C
:1018F0003FA148A559A56AA57BA5CE0141960E94A6
:101900003E0BBE016F5E7F4FCE014F960E948C1042
:10191000CE0141960E940810C8010E9408104BA1F8
:10192000672DC6010E94C805182F803108F045C0F8
:10193000682F70E081E593E00E942511FC01608131
:10194000CE014F960E94F210EBA1FCA1EC0FFD1FFF
:101950001083BE01615E7F4FCE0141960E94A310AD
:10196000CE0141960E945F07CE0141960E94081069
:101970008BA19CA1BC0161507109CE014F960E94C0
:10198000251140EE57E0612FFC0180810E940E0777
:101990004BA15CA14230510568F0EFEFFFEFEC0F77
:1019A000FD1FE40FF51F20EE37E0612F80810E94BC
:1019B0005D0903C0812F0E94B10B80914D0380937C
:1019C0004E035ACF62EA72E088E394E00E948D0FE2
:1019D000CE014F960E940810AB960FB6F894DEBF6A
:1019E0000FBECDBFDF91CF911F910F91FF90EF9070
:1019F000DF90CF90BF90AF909F908F907F90089591
:101A0000CF93DF9300D000D0CDB7DEB70E94FD08A2
:101A10000E94280429833A8389819A81833D910514
:101A2000BCF30E94060CF4CF0E94A0060E94000D99
:101A30001F920F920FB60F9211242F933F938F9303
:101A40009F93AF93BF938091C9039091CA03A091D4
:101A5000CB03B091CC033091C80323E0230F2D3783
:101A600020F40196A11DB11D05C026E8230F0296A2
:101A7000A11DB11D2093C8038093C9039093CA038D
:101A8000A093CB03B093CC038091CD039091CE0370
:101A9000A091CF03B091D0030196A11DB11D8093F9
:101AA000CD039093CE03A093CF03B093D003BF9107
:101AB000AF919F918F913F912F910F900FBE0F90FB
:101AC0001F9018952FB7F8946091C9037091CA03BD
:101AD0008091CB039091CC032FBF08953FB7F8942A
:101AE0008091CD039091CE03A091CF03B091D0030C
:101AF00026B5A89B05C02F3F19F00196A11DB11D69
:101B00003FBFBA2FA92F982F8827820F911DA11DA3
:101B1000B11DBC01CD0142E0660F771F881F991FE0
:101B20004A95D1F70895CF92DF92EF92FF92CF932B
:101B3000DF936B017C010E946E0DEB01C114D10497
:101B4000E104F10479F00E946E0D6C1B7D0B683E80
:101B50007340A0F381E0C81AD108E108F108C85128
:101B6000DC4FECCFDF91CF91FF90EF90DF90CF90E3
:101B70000895789484B5826084BD84B5816084BD05
:101B800085B5826085BD85B5816085BDEEE6F0E0F6
:101B9000808181608083E1E8F0E010828081826052
:101BA0008083808181608083E0E8F0E080818160D3
:101BB0008083E1EBF0E0808184608083E0EBF0E003
:101BC000808181608083E1E9F0E0808182608083B0
:101BD000808181608083E0E9F0E0808181608083A2
:101BE000E1EAF0E08081826080838081816080838F
:101BF000E0EAF0E0808181608083E1E2F1E08081D1
:101C000082608083808181608083E0E2F1E0808176
:101C100081608083EAE7F0E0808184608083808156
:101C200082608083808181608083808180688083FE
:101C30001092C1000895863308F0865390917B007E
:101C4000282F2870977F922B90937B00877020918C
:101C5000040290E4299F90011124822B80937C0040
:101C600080917A00806480937A0080917A0086FD6A
:101C7000FCCF809178002091790090E0922B08951C
:101C800090E0FC013197E131F10508F04AC0882766
:101C9000EE58FF4F8F4F0C943428809180008F773F
:101CA00003C0809180008F7D80938000089584B56B
:101CB0008F7702C084B58F7D84BD08958091B00078
:101CC0008F7703C08091B0008F7D8093B00008951E
:101CD000809190008F7707C0809190008F7D03C026
:101CE00080919000877F8093900008958091A0005C
:101CF0008F7707C08091A0008F7D03C08091A000E6
:101D0000877F8093A0000895809120018F7707C07E
:101D1000809120018F7D03C080912001877F809377
:101D200020010895CF93DF9390E0FC01EC5DFD4F1F
:101D30002491FC01E659FD4F8491882361F190E0E4
:101D4000880F991FFC01E653FD4FC591D491FC010A
:101D5000E055FD4FA591B491611109C09FB7F8946A
:101D60008881209582238883EC912E230BC06230DA
:101D700061F49FB7F8943881822F809583238883FC
:101D8000EC912E2B2C939FBF06C08FB7F894E8815F
:101D90002E2B28838FBFDF91CF9108951F93CF9370
:101DA000DF93282F30E0F901E252FE4F8491F901D0
:101DB000EC5DFD4FD491F901E659FD4FC491CC2360
:101DC000C9F0162F81110E94400EEC2FF0E0EE0FAB
:101DD000FF1FE055FD4FA591B4918FB7F8941111F5
:101DE00005C09C91ED2FE095E92302C0EC91ED2B0D
:101DF000EC938FBFDF91CF911F910895CF92DF9227
:101E0000EF92FF920F931F93CF93DF936C01EB013F
:101E10007B01E40EF51E00E010E0CE15DF0561F059
:101E20006991D601ED91FC910190F081E02DC60100
:101E30001995080F191FF1CFC801DF91CF911F919C
:101E40000F91FF90EF90DF90CF900895611571058D
:101E500079F0FB0101900020E9F73197AF01461BB3
:101E6000570BDC01ED91FC910280F381E02D199478
:101E700080E090E00895AF92BF92CF92DF92EF9210
:101E8000FF920F931F93CF93DF936C017B01C0E010
:101E9000D0E000E010E0D70114968D919C91159749
:101EA000C817D90788F4D601ED91FC91A080B180C4
:101EB000BE01C7010E943711682FC601F5011995AF
:101EC000080F191F2196E7CFC801DF91CF911F910D
:101ED0000F91FF90EF90DF90CF90BF90AF9008955B
:101EE0000C94260FDC01ED91FC910190F081E02D26
:101EF00019940F931F93CF93DF93EC016DE00E9431
:101F0000720F8C016AE0CE010E94720F800F911F48
:101F1000DF91CF911F910F9108950F931F93CF934E
:101F2000DF93EC010E94260F8C01CE010E94790FF5
:101F3000800F911FDF91CF911F910F9108958F9284
:101F40009F92AF92BF92CF92DF92EF92FF920F9348
:101F50001F93CF93DF93CDB7DEB7A1970FB6F89459
:101F6000DEBF0FBECDBF6C01142FE52FCB01022FBA
:101F700019A2223008F40AE07E0121E2E20EF11CEF
:101F8000802E912CA12CB12C612F7E2FA5019401C4
:101F90000E94F327029F1019112481E0E81AF1082A
:101FA0001A3014F4105D01C0195CF7011083122F70
:101FB000E32FCA01232B242B252B31F7B701C601B0
:101FC0000E94260FA1960FB6F894DEBF0FBECDBFBC
:101FD000DF91CF911F910F91FF90EF90DF90CF9005
:101FE000BF90AF909F908F9008952115310541F4D7
:101FF000DC01ED91FC910190F081E02D642F1994AA
:102000000C949F0F9A01AB0160E070E00C94F50F07
:10201000FC01808191810C94AF24CF93DF93EC017C
:1020200088819981009711F00E94AF24198218824B
:102030001D821C821B821A82DF91CF9108950F931B
:102040001F93CF93DF93EC018B016F5F7F4F8881EC
:1020500099810E943123009731F0998388831B83F3
:102060000A8381E001C080E0DF91CF911F910F9141
:102070000895CF93DF93EC0188819981892B29F012
:102080008A819B818617970760F4CE010E941F10FA
:10209000882341F08C819D81892B19F4E881F98195
:1020A000108281E0DF91CF910895EF92FF920F931C
:1020B0001F93CF93DF93EC017B018A01BA010E9449
:1020C0003910811104C0CE010E940D1007C01D837C
:1020D0000C83B701888199810E948F25CE01DF9101
:1020E000CF911F910F91FF90EF900895FC01118205
:1020F0001082138212821582148216826115710574
:1021000051F0FB0101900020E9F73197AF01461B28
:10211000570B0C9455100895CF93DF93EC01FB01FE
:102120008617970761F0608171816115710529F04B
:10213000448155810E94551002C00E940D10CE01AD
:10214000DF91CF910895FC011182108213821282D7
:102150001582148216820C948C10CF93DF93EC01BD
:102160006115710559F0FB0101900020E9F73197E5
:10217000AF01461B570B0E94551002C00E940D1064
:10218000CE01DF91CF910895EF92FF920F931F93AD
:10219000CF93DF93FC01248135816115710511F422
:1021A00080E019C041155105A9F07B01EC018A01BD
:1021B000020F131FB8010E943910882389F3288168
:1021C00039818C819D81B701820F931F0E948F25D9
:1021D0001D830C8381E0DF91CF911F910F91FF90C0
:1021E000EF900895CF93DF931F921F92CDB7DEB784
:1021F00069831A8241E050E0BE016F5F7F4F0E9409
:10220000C4100F900F90DF91CF910895FC012481AD
:102210003581232B31F421E061157105A1F0FB011B
:1022200008C0FC01808191816115710531F421E0C4
:10223000FC018081882339F005C00E94862521E0B9
:10224000892B09F020E0822F0895FC01248135813B
:102250006217730720F480819181009729F410920E
:10226000D10381ED93E00895860F971F0895FC0137
:10227000248135816217730748F48081918100972A
:1022800029F0FC01E60FF71F8081089580E0089592
:102290000895FC0124853585F901E05CFF4F8081BC
:1022A0009181329620813181821B930B8F73992704
:1022B0000895DC011C96ED91FC911D97DF01A05C57
:1022C000BF4F2D913C91119712968D919C91119732
:1022D0002817390739F08D919C91E80FF91F8081FB
:1022E00090E008958FEF9FEF0895FC01A485B585D8
:1022F000FD01E05CFF4F2081318132968081918128
:102300002817390779F080819181A80FB91F8C9126
:10231000208131812F5F3F4F2F73332731832083FB
:1023200090E008958FEF9FEF0895FC0181A188232D
:1023300029F0A489B5898C9186FFFBCF11A208955D
:102340000F931F93CF93DF93FC01A685B7858D0173
:10235000005C1F4FE8018881998101968F7399274E
:10236000AD014E5B5F4FEA012881398182179307E7
:10237000D1F3E80128813981A20FB31F6C93A685A0
:10238000B785A05CBF4F11969C938E93A689B789A1
:102390002C9181E090E0078C02C0880F991F0A946D
:1023A000E2F7822B8C9381E081A30488F589E02DEC
:1023B00080818064808381E090E0DF91CF911F91E4
:1023C0000F910895FB01E05CFF4F208131812F5F69
:1023D0003F4F2F733327DB01AE5BBF4F4D915C91B5
:1023E0002417350741F040815181DB01A40FB51F4F
:1023F0008C933183208308951F920F920FB60F9212
:1024000011240BB60F922F933F934F935F936F93CB
:102410007F938F939F93AF93BF93EF93FF9380919D
:10242000C00082FD07C08091C60066E376E00E948E
:10243000E21102C08091C600FF91EF91BF91AF9170
:102440009F918F917F916F915F914F913F912F91CC
:102450000F900BBE0F900FBE0F901F9018951F92FC
:102460000F920FB60F9211240BB60F922F933F933A
:102470004F935F936F937F938F939F93AF93BF938C
:10248000EF93FF938091C80082FD07C08091CE003A
:102490006EEA75E00E94E21102C08091CE00FF91C9
:1024A000EF91BF91AF919F918F917F916F915F91CC
:1024B0004F913F912F910F900BBE0F900FBE0F9039
:1024C0001F9018951F920F920FB60F9211240BB602
:1024D0000F922F933F934F935F936F937F938F93BD
:1024E0009F93AF93BF93EF93FF938091D00082FDB2
:1024F00007C08091D60066E275E00E94E21102C03A
:102500008091D600FF91EF91BF91AF919F918F91F4
:102510007F916F915F914F913F912F910F900BBEE3
:102520000F900FBE0F901F9018951F920F920FB62D
:102530000F9211240BB60F922F933F934F935F93FB
:102540006F937F938F939F93AF93BF93EF93FF937B
:102550008091300182FD07C0809136016EE974E000
:102560000E94E21102C080913601FF91EF91BF916C
:10257000AF919F918F917F916F915F914F913F911B
:102580002F910F900BBE0F900FBE0F901F901895BC
:102590001F920F920FB60F9211240BB60F922F932A
:1025A0003F938F939F93EF93FF9320913206309147
:1025B000330680913406909135062817390731F497
:1025C0008091C1008F7D8093C10014C0E0913406DA
:1025D000F0913506EE50FA4F2081809134069091AB
:1025E000350601968F7399279093350680933406AC
:1025F0002093C600FF91EF919F918F913F912F9172
:102600000F900BBE0F900FBE0F901F9018951F924A
:102610000F920FB60F9211240BB60F922F933F9388
:102620008F939F93EF93FF932091AA053091AB0571
:102630008091AC059091AD052817390731F4809150
:10264000C9008F7D8093C90014C0E091AC05F09162
:10265000AD05E659FA4F20818091AC059091AD050A
:1026600001968F7399279093AD058093AC052093C5
:10267000CE00FF91EF919F918F913F912F910F90FD
:102680000BBE0F900FBE0F901F9018951F920F92C8
:102690000FB60F9211240BB60F922F933F938F9387
:1026A0009F93EF93FF932091220530912305809112
:1026B0002405909125052817390731F48091D10020
:1026C0008F7D8093D10014C0E0912405F091250501
:1026D000EE51FB4F208180912405909125050196B4
:1026E0008F73992790932505809324052093D60016
:1026F000FF91EF919F918F913F912F910F900BBE82
:102700000F900FBE0F901F9018951F920F920FB64B
:102710000F9211240BB60F922F933F938F939F9399
:10272000EF93FF9320919A0430919B0480919C0435
:1027300090919D042817390731F4809131018F7DE4
:102740008093310114C0E0919C04F0919D04E65AFD
:10275000FB4F208180919C0490919D0401968F7382
:10276000992790939D0480939C0420933601FF91B8
:10277000EF919F918F913F912F910F900BBE0F90F2
:102780000FBE0F901F901895CF92DF92EF92FF929D
:102790000F931F93CF93DF93EC016A017B014115E7
:1027A000514E6105710509F1EC89FD8981E090E0E8
:1027B00008A002C0880F991F0A94E2F7808360E0A6
:1027C00079E08DE390E0A70196010E94F32789014B
:1027D0009A0101501109210931093695279517955C
:1027E0000795980101151041A8F0EC89FD89108228
:1027F00060E874E88EE190E0A70196010E94F3275B
:10280000DA01C9010197A109B109B695A795979574
:1028100087959C01E889F9893083EA89FB892083BF
:1028200019A2EE89FF89408181E090E09C010C8C27
:1028300002C0220F331F0A94E2F7242B2083EE8973
:10284000FF8940819C010D8C02C0220F331F0A9426
:10285000E2F7242B2083EE89FF8940819C010E8CB6
:1028600002C0220F331F0A94E2F7242B2083EE8943
:10287000FF8920810F8C02C0880F991F0A94E2F70C
:10288000809582238083DF91CF911F910F91FF90DC
:10289000EF90DF90CF900895CF92DF92EF92FF926A
:1028A000E8E3F4E01382128288EEC82E83E0D82E8B
:1028B000E12CF12CC482D582E682F7826AEA72E0CA
:1028C0007183608386E396E09587848782EF95E045
:1028D0009787868785EC90E0918B808B84EC90E0E5
:1028E000938B828B80EC90E0958B848B81EC90E0D5
:1028F000978B868B82EC90E0918F808F86EC90E0B6
:10290000938F828F44E0448F33E0358F27E0268F0A
:1029100095E0978F81E080A3E6E1F4E013821282D4
:10292000C482D582E682F78271836083AEEAB5E025
:10293000B587A487AAE6B5E0B787A687ADECB0E077
:10294000B18BA08BACECB0E0B38BA28BA8ECB0E069
:10295000B58BA48BA9ECB0E0B78BA68BAAECB0E04A
:10296000B18FA08FAEECB0E0B38FA28F448F358FC4
:10297000268F978F80A3E4EFF3E013821282C48244
:10298000D582E682F78271836083A6E2B5E0B587DF
:10299000A487A2EEB4E0B787A687A5EDB0E0B18B1F
:1029A000A08BA4EDB0E0B38BA28BA0EDB0E0B58B13
:1029B000A48BA1EDB0E0B78BA68BA2EDB0E0B18FF8
:1029C000A08FA6EDB0E0B38FA28F448F358F268FF6
:1029D000978F80A3E2EDF3E013821282C482D58246
:1029E000E682F782718360836EE974E0758764879D
:1029F0006AE574E07787668765E371E0718B608BC9
:102A000064E371E0738B628B60E371E0758B648BC0
:102A100061E371E0778B668B62E371E0718F608FA9
:102A200066E371E0738F628F448F358F268F978FA7
:102A300080A3FF90EF90DF90CF9008954F925F9228
:102A40006F927F92AF92BF92CF92DF92EF92FF92FE
:102A50000F931F93CF93DF93CDB7DEB729013A01D0
:102A60009B01AC0124193509460957098A899B89BC
:102A7000AC89BD89BC01CD016A197B098C099D090E
:102A80000E94CF27A8019701241935094609570943
:102A90000E941528CA01B9016A0D7B1D8C1D9D1D60
:102AA000DF91CF911F910F91FF90EF90DF90CF902A
:102AB000BF90AF907F906F905F904F9008952F924E
:102AC0003F924F925F926F927F928F929F92AF92BE
:102AD000BF92CF92DF92EF92FF920F931F93CF930B
:102AE000DF9300D0CDB7DEB74C017B836A836A01E8
:102AF000590117019801241B350B37FF03C031958D
:102B000021953109C5014A815B81841B950B97FF93
:102B100003C091958195910951E0598382179307DC
:102B200014F019820BC09A2D8B2D5801092F182FE4
:102B30009A818B81DB82CA82C92ED82E8A819B81A1
:102B4000A816B9065CF49C2D8D2D6801092F182F4D
:102B50009A818B81BB82AA82A92EB82E2501AA81D7
:102B6000BB814A1A5B0A38016C187D0877FE03C0E6
:102B7000719461947108720157FE03C0BFEFEB1AA4
:102B8000FB0AF594E794C016D1061CF00FEF1FEF77
:102B90001FC001E010E01CC0D401ED91FC91B9818F
:102BA0000084F185E02D9101BB23C1F04A815B8156
:102BB000B601C4011995E618F708F7FE04C0C00E67
:102BC000D11EE40CF51CEA81FB813196FB83EA837C
:102BD0004A815B81A416B506FCF604C0A6016A8191
:102BE0007B81E7CF0F900F900F90DF91CF911F91D6
:102BF0000F91FF90EF90DF90CF90BF90AF909F909C
:102C00008F907F906F905F904F903F902F9008959E
:102C10000895DC01ED91FC910480F581E02D19947B
:102C20000F931F93DC01ED91FC91008CF18DE02D51
:102C300019951F910F9108950F931F93DC01ED914A
:102C4000FC91028CF38DE02D19951F910F91089541
:102C5000EF92FF920F931F93DC01ED91FC91048C96
:102C6000F58DE02D19951F910F91FF90EF9008952C
:102C70000895AF92BF92CF92DF92EF92FF920F939F
:102C80001F93CF93DF9300D01F92CDB7DEB75C01C7
:102C90006901DC01ED91FC910680F781E02D4B8309
:102CA0005C8369837A831995D501ED91FC914B8101
:102CB0005C81C40ED51EB1E0CB1AD1080088F18921
:102CC000E02D7801860169817A819B01C501199502
:102CD000D501ED91FC910288F389E02DC5010F909B
:102CE0000F900F900F90DF91CF911F910F91FF9058
:102CF000EF90DF90CF90BF90AF901994AF92BF92BA
:102D0000CF92DF92EF92FF920F931F93CF93DF93B7
:102D100000D01F92CDB7DEB75C016901DC01ED91F7
:102D2000FC910680F781E02D4B835C8369837A8375
:102D30001995D501ED91FC9169817A819B012C0D4A
:102D40003D1D215031090088F189E02D78014B812A
:102D50005C818A01C5011995D501ED91FC9102882C
:102D6000F389E02DC5010F900F900F900F90DF9128
:102D7000CF911F910F91FF90EF90DF90CF90BF9078
:102D8000AF9019944F925F926F927F928F929F9221
:102D9000AF92BF92CF92DF92EF92FF920F931F9369
:102DA000CF93DF931F921F92CDB7DEB76C015A010C
:102DB00039014801DC01ED91FC910680F781E02D9D
:102DC00069837A8319956981462E7A81572E640C1E
:102DD000751CD601ED91FC91461457046CF40484E3
:102DE000F585E02D87019401A501B201C601199571
:102DF000BFEF4B1A5B0AEDCF0288F389E02DC601C5
:102E00000F900F90DF91CF911F910F91FF90EF9056
:102E1000DF90CF90BF90AF909F908F907F906F90FA
:102E20005F904F901994EF92FF920F931F93DC01E4
:102E3000ED91FC9111971A960D911C911B97189684
:102E40002D913C911997048CF58DE02D7B0140E08C
:102E500050E060E070E019951F910F91FF90EF90A6
:102E60000895CF92DF92EF92FF920F931F93CF932B
:102E7000DF9300D000D0CDB7DEB76C01DC01ED915F
:102E8000FC916217730789F4041715072CF4942F2B
:102E9000852FA801092F182F041B150B98012F5FF0
:102EA0003F4F008CF18DE02D12C04017510709F5FE
:102EB000261737072CF4962F872FB901292F382F83
:102EC000261B370B2F5F3F4F028CF38DE02D8701C0
:102ED000C601199526960FB6F894DEBF0FBECDBF7A
:102EE000DF91CF911F910F91FF90EF90DF90CF90E6
:102EF00008950680F781E02D2D833E834B835C830C
:102F000069837A831995D601ED91FC910088F18946
:102F1000E02D2D813E814B815C8169817A81C601E2
:102F20001995D601ED91FC910288F389E02DC60137
:102F300026960FB6F894DEBF0FBECDBFDF91CF91BE
:102F40001F910F91FF90EF90DF90CF9019946F92A7
:102F50007F928F929F92AF92BF92CF92DF92EF9229
:102F6000FF920F931F93CF93DF93EC014B015A0114
:102F700069013801E881F9810680F781E02D199512
:102F8000E881F9810684F785E02D87019601A50186
:102F9000B401CE011995E881F981A501460D571DAF
:102FA000415051090684F785E02D9601B401CE0108
:102FB0001995E881F9810484F585E02D9301A50137
:102FC000B401CE011995E881F981C80CD91CB6016C
:102FD000615071090484F585E02D9301A501CE01AE
:102FE0001995E881F9810288F389E02DCE01DF91FE
:102FF000CF911F910F91FF90EF90DF90CF90BF90F6
:10300000AF909F908F907F906F9019940895FC01DE
:103010006370658B8481958126813781613039F0B9
:10302000633029F09187808733872287089531871D
:103030002087938782870895FC01138212828AEB8E
:1030400092E091838083758364835783468371877D
:10305000608753874287158A1586148617861686D9
:1030600081E0848B2FEF3FEF338B228B318B208BD2
:10307000868B178A118E108E08952F923F924F9251
:103080005F926F927F928F929F92AF92BF92CF92F8
:10309000DF92EF92FF920F931F93CF93DF93CDB701
:1030A000DEB76C970FB6F894DEBF0FBECDBF9C8F16
:1030B0008B8F5B011A011F830E833701C982DC01EC
:1030C00058964D915C9159974115510509F0E5C00D
:1030D00018968D919C911997681779070CF0CAC1C1
:1030E0001A968D919C911B97281639060CF0C2C137
:1030F0008C2C912CFB0136E0C39EE00DF11D1124B8
:10310000FB87EA871E161F060CF0B4C1C40133E02A
:10311000880F991F3A95E1F79D878C87820D931D43
:10312000181619060CF0A6C157968C91811103C090
:10313000203B08F02F5FAB8DBC8DED91FC9111977A
:103140000680F781E02DCD012A8F19952A8DB5E0F3
:103150002B9F90011124F5013596FF87EE872501FD
:10316000BB82AA82A9014A195B09598B488BC1010C
:1031700008969B8B8A8BE889F989E40DF51DEC5143
:10318000FD4F949198873D822C826101A885A0FF14
:1031900013C0AB8DBC8DED91FC91B981B13031F490
:1031A0000084F185E02D2E813F8116C00284F385D5
:1031B000E02DEE80FF801AC0EE81FF816E167F0643
:1031C000F1F0AB8DBC8DED91FC91B981B13051F432
:1031D0000084F185E02D9301A601B2018B8D9C8DB9
:1031E00019950DC00284F385E02D730184019401CB
:1031F0004C815D816A817B818B8D9C8D1995E885E1
:10320000E695E8872C813D81280D391D3D832C836F
:103210003FEFC31AD30A4A895B89C416D50609F061
:10322000B5CF8A819B81880D991D9B838A839FEFEF
:10323000491A590AAE85BF854A165B0609F09BCF2D
:10324000EE81FF816E167F0609F4F2C0EB8DFC8DD6
:10325000A081B181F981F13079F4B5016B5F7F4FC5
:103260001C96ED91FC911D97830128E030E0A101AF
:103270008B8D9C8D1995DCC06A857B8568197909D1
:103280001A96ED91FC911B9773010C851D85940195
:10329000A1018B8D9C8D1995CBC0FA013496949128
:1032A000329765917491291BCB01B7E02B9F800D5C
:1032B000911D1124FA01259134913B8B2A8BFC013D
:1032C000459154915B834A83FC013296C4903196B8
:1032D00054915C87329614913196D49089818230D2
:1032E00058F0612E012E000C7708AD2D0D2C000C2E
:1032F000BB0BB987A88704C019861886612C712C6E
:10330000AB8DBC8DED91FC9111970680F781E02D7E
:10331000CD011995B9818B2E912C689CC001699CB7
:10332000900D789C900D1124FC01EA0DFB1DF98B8A
:10333000E88B1C82712C612CE12F110FFF0B950182
:103340002E0F3F1F3B872A87AC0CB11CA5014E0FE7
:103350005F1F5F8B4E8BC1018D0D911DD7FC9A9520
:10336000998F888F4C85641608F062C0862D90E096
:1033700048855985480F591F489D9001499D300D3A
:10338000589D300D1124D901A20DB31DBF87AE8702
:10339000AA84BB8448885988DC80BA85DB1AE88D0A
:1033A000F98DE80FF91FFD8BEC8B8D2D8A0D2E8981
:1033B0003F89A216B306B9F1877061F48A819B81B7
:1033C0000196EA89FB89AA81BB81EA0FFB1F7490F1
:1033D0009B838A8377FE20C0AB8DBC8DED91FC91E1
:1033E000B981B13061F40084F185E02D2E813F81F7
:1033F0004C895D89B5018B8D9C8D19950DC002841A
:10340000F385E02DEE80FF80840194014E855F8579
:10341000B2018B8D9C8D1995770C480C591CEFEFE0
:10342000AE1ABE0AC2CF3C813C0D3C8363949ACF56
:10343000AB8DBC8DED91FC9111970288F389E02D45
:10344000CD016C960FB6F894DEBF0FBECDBFDF91F5
:10345000CF911F910F91FF90EF90DF90CF90BF9091
:10346000AF909F908F907F906F905F904F903F9024
:103470002F9019946C960FB6F894DEBF0FBECDBF97
:10348000DF91CF911F910F91FF90EF90DF90CF9040
:10349000BF90AF909F908F907F906F905F904F9074
:1034A0003F902F900895AF92BF92CF92EF92FF92EC
:1034B0000F931F93CF93DF93EC01262F888D998D67
:1034C000009709F040C06A3059F41D861C862C898B
:1034D0008E859F8538E0239F800D911D112441C06A
:1034E0006D3009F4AAC08E898823C1F03C898C858F
:1034F0009D8546E0349F800D911D11244885598596
:10350000481759075CF41D861C868E859F8548E008
:10351000349F800D911D11249F878E87EA88FB8838
:10352000088919894E855F856C857D85CC88CE019B
:103530000E943D182C898C859D8536E0239F800D47
:10354000911D112442C06A3079F41D861C862C8995
:10355000FC013696E4918E859F852E9F800D911DEE
:1035600011249F878E8769C06D3009F466C0FC0105
:1035700034963491631708F460C03196E491E617ED
:1035800008F45BC0FC013296A590B490462F50E041
:10359000431B510937E0349FB001359F700D112452
:1035A000A60EB71EF501329634913196E49133237D
:1035B00011F0E1110DC0F5013496E4912C898C8550
:1035C0009D85E29F800D911D11249D878C8735C0BC
:1035D000F501359644915E89552311F16C89E32FED
:1035E000F0E0E40FF11D47FDFA956E9FD0016F9F4B
:1035F000B00D11244C855D854A0F5B1FE885F98568
:10360000E417F5076CF41D861C86FC013696E491E0
:103610008E859F856E9F800D911D11249F878E87BB
:10362000EA88FB88088919894E855F856C857D85C8
:10363000CC88CE010E943D18BECF81E090E0DF91A2
:10364000CF911F910F91FF90EF90CF90BF90AF90CF
:103650000895FC017587648757874687089561112F
:1036600001C061E0FC01648B0895FC01738B628BE7
:10367000718B608B0895FC01718B608B538B428B37
:103680000895FC01668B0895DC019C96ED91FC91F8
:103690009D979081D1968C91892B80830895EF928C
:1036A000FF920F931F93DC01ED91FC910284F3854F
:1036B000E02D7801890121E030E019951F910F91EB
:1036C000FF90EF900895EF92FF920F931F93DC010C
:1036D000ED91FC910284F385E02D780101E010E08A
:1036E00019951F910F91FF90EF9008950F931F93DD
:1036F000CF93DF9300D000D0CDB7DEB78C01DC01D3
:10370000ED91FC910680F781E02D2D833E834B8364
:103710005C8369837A831995D801ED91FC910084CB
:10372000F185E02D2D813E814B815C8169817A811B
:10373000C8011995D801ED91FC910288F389E02D1B
:10374000C80126960FB6F894DEBF0FBECDBFDF913D
:10375000CF911F910F911994EF92FF920F931F93A6
:10376000CF93DF9300D000D0CDB7DEB77C01DC0172
:10377000ED91FC910680F781E02D2D833E834B83F4
:103780005C8369837A831995D701ED91FC91048458
:10379000F585E02D2D813E814B815C8169817A81A7
:1037A000C7011995D701ED91FC910288F389E02DAD
:1037B000C70126960FB6F894DEBF0FBECDBFDF91CE
:1037C000CF911F910F91FF90EF901994EF92FF927C
:1037D0000F931F93CF93DF9300D000D0CDB7DEB708
:1037E0007C01DC01ED91FC910680F781E02D2D83B9
:1037F0003E834B835C8369837A831995D701ED916E
:10380000FC910684F785E02D2D813E814B815C8102
:1038100069817A81C7011995D701ED91FC910288E0
:10382000F389E02DC70126960FB6F894DEBF0FBED0
:10383000CDBFDF91CF911F910F91FF90EF90199421
:10384000CF92DF92EF92FF920F931F93CF93DF936C
:1038500000D000D0CDB7DEB76C01DC01ED91FC915A
:103860000680F781E02D2D833E834B835C83698343
:103870007A831995D601ED91FC910284F385E02DB0
:103880002D813E814B815C8169817A81C6011995C8
:10389000D601ED91FC910288F389E02DC6012696B0
:1038A0000FB6F894DEBF0FBECDBFDF91CF911F9151
:1038B0000F91FF90EF90DF90CF901994CF93DF930B
:1038C000EC0189A187FF09C084E00E946B2581E09B
:1038D0000E945D2580E00E946625ECA5FDA59081F3
:1038E00089A9809589238083DF91CF910895EF92F4
:1038F000FF920F931F93CF93DF931F92CDB7DEB745
:103900007C01062F142F40E451E060EF70E0298322
:103910000E941C1882EE92E0D70111969C938E9320
:103920005E960C935E975F961C935F9729819096A5
:103930002C9390978FEF91968C93919792968C936E
:10394000929793968C939397F701128E138E148E01
:10395000158E602F000F770BFB01E659FD4F849108
:10396000E82FF0E0EE0FFF1FE055FD4F8591949199
:103970009D969C938E939C97FB01EC5DFD4FE4918B
:10398000D196EC93D197412F110F550BFA01E659BF
:10399000FD4FE491F0E0EE0FFF1FE055FD4F8591E4
:1039A0009491F70193A782A7FA01EC5DFD4FE49192
:1039B000D296EC93D29799961C921E929897D09695
:1039C0001C92D09795961C921E9294979E961C924C
:1039D0009E9797961C921E9296979F961C920F9078
:1039E000DF91CF911F910F91FF90EF900895FC010F
:1039F00081A187FF05C06EBD0DB407FEFDCF089500
:103A000028E030E090E8A4A1B5A186A5492F46237F
:103A100019F04C91842B03C04C91809584238C9396
:103A2000A0A5B1A54C9180A9809584238C93A0A5D5
:103A3000B1A54C9180A9842B8C9396952150310986
:103A400011F70895CF93DF93EC01EAA5FBA59081D0
:103A50008AA9809589238083CE010E94F71CEAA55C
:103A6000FBA590818AA9892B8083DF91CF9108954E
:103A7000CF93DF93EC01411551056105710521F4E8
:103A800040E052E16AE770E04A8F5B8F6C8F7D8F78
:103A900061E08F8D0E94920E60E08F8D0E94CE0EAD
:103AA00061E08E8D0E94920E61E08E8D0E94CE0E9E
:103AB00089A187FD16C061E08AA10E94920E60E094
:103AC0008AA10E94CE0E61E089A10E94920E61E05F
:103AD00089A10E94CE0E8BA187FD03C060E00E94E9
:103AE000920E89A187FD0E94472588A187FD21C0EC
:103AF00061E00E94920E61E088A10E94CE0E64E611
:103B000070E080E090E00E94930D60E088A10E9448
:103B1000CE0E64E670E080E090E00E94930D61E0DC
:103B200088A10E94CE0E68EC70E080E090E00E94D8
:103B3000930DE881F9810680F781E02DCE0119957A
:103B40006FEECE010E94221D63E0CE010E94F71CA1
:103B500060E8CE010E94F71C62E0CE010E94F71CD3
:103B60006FECCE010E94221D60E0CE010E94F71C86
:103B700061ECCE010E94F71C60E3CE010E94F71CAD
:103B80006DEECE010E94221D64E6CE010E94F71C5C
:103B900063E0CE010E94F71C62E1CE010E94F71C97
:103BA00061E8CE010E94F71C68EECE010E94221D42
:103BB00065E8CE010E94F71C60E0CE010E94F71C70
:103BC00068E7CE010E94F71C6BECCE010E94221D1B
:103BD00069E3CE010E94F71C6CE2CE010E94F71C43
:103BE00060E0CE010E94F71C64E3CE010E94F71C46
:103BF00062E0CE010E94F71C67EFCE010E94221DF9
:103C000060E2CE010E94F71C6AEECE010E94221DE6
:103C100060E0CE010E94F71C60E0CE010E94F71C1C
:103C200060ECCE010E94221D63E2CE010E94F71CCF
:103C300061ECCE010E94221D60E1CE010E94F71CC2
:103C400065ECCE010E94221D6EE3CE010E94F71C9E
:103C500068E2CE010E94F71C67ECCE010E94221D93
:103C600066E8CE010E94F71C66E3CE010E94221D89
:103C700068E4CE010E94F71C67E3CE010E94221D7A
:103C800089A187FF09C01EBC0DB407FEFDCF1EBC75
:103C90000DB407FEFDCF08C060E0CE010E94F71C06
:103CA00060E0CE010E94F71C6AE3CE010E94221D53
:103CB00065E5CE010E94F71C61EBCE010E94221D3A
:103CC00060E0CE010E94F71C68E1CE010E94F71C63
:103CD00066EBCE010E94221D68E0CE010E94F71C17
:103CE00062E8CE010E94F71C67E2CE010E94F71C39
:103CF00062EFCE010E94221D60E0CE010E94F71CFF
:103D000066E2CE010E94221D61E0CE010E94F71CF6
:103D100060EECE010E94221D6FE0CE010E94F71CD2
:103D200061E3CE010E94F71C6BE2CE010E94F71CFA
:103D30006CE0CE010E94F71C6EE0CE010E94F71CE1
:103D400068E0CE010E94F71C6EE4CE010E94F71CD1
:103D500061EFCE010E94F71C67E3CE010E94F71CC1
:103D600067E0CE010E94F71C60E1CE010E94F71CC3
:103D700063E0CE010E94F71C6EE0CE010E94F71CAA
:103D800069E0CE010E94F71C60E0CE010E94F71CA2
:103D900061EECE010E94221D60E0CE010E94F71C60
:103DA0006EE0CE010E94F71C64E1CE010E94F71C78
:103DB00063E0CE010E94F71C61E1CE010E94F71C76
:103DC00067E0CE010E94F71C61E3CE010E94F71C60
:103DD00061ECCE010E94F71C68E4CE010E94F71C42
:103DE00068E0CE010E94F71C6FE0CE010E94F71C34
:103DF0006CE0CE010E94F71C61E3CE010E94F71C2B
:103E000066E3CE010E94F71C6FE0CE010E94F71C12
:103E100061E1CE010E94221D68E770E080E090E041
:103E20000E94930D69E2CE010E94221D68E770E0B6
:103E300080E090E00E94930DE881F9810288F38987
:103E4000E02DCE01199580EF90E09987888780E476
:103E500091E09B878A87DF91CF9108951F93CF933D
:103E6000DF93EC0163706D8B6230C1F0633001F160
:103E7000613051F080EF90E09987888780E491E08D
:103E80009B878A8718E41DC080E491E09987888722
:103E900080EF90E09B878A8718E213C080EF90E064
:103EA0009987888780E491E09B878A8718E809C012
:103EB00080E491E09987888780EF90E09B878A87EC
:103EC00018EEE881F9810680F781E02DCE01199581
:103ED00066E3CE010E94221D612FCE010E94F71CD5
:103EE000E881F9810288F389E02DCE01DF91CF913D
:103EF0001F9119940F931F93CF93DF931F92CDB708
:103F0000DEB78C01DC01ED91FC910680F781E02D9C
:103F1000698319956981611102C060E201C061E2A3
:103F2000C8010E94221DD801ED91FC910288F389FD
:103F3000E02DC8010F90DF91CF911F910F9119943F
:103F40008F929F92AF92BF92CF92DF92EF92FF92A9
:103F50000F931F93CF93DF93EC01490181E0881AFF
:103F60009108860E971EC401A0E0B0E04B01A12C81
:103F7000B12C540199248824882A992AAA2ABB2A78
:103F8000680181E0C81AD108C40ED51EC601A0E0A0
:103F9000B0E06A01E12CF12C7601DD24CC24C82AA2
:103FA000D92AEA2AFB2A6AE2CE010E94221D29A10F
:103FB0006B2D77278827992727FF18C06EBD0DB472
:103FC00007FEFDCFC501AA27BB278EBD0DB407FE96
:103FD000FDCFBB27AB2D9A2D892D8EBD0DB407FECD
:103FE000FDCF8EBC0DB407FEFDCF14C0CE010E94E4
:103FF000F71CB50188279927CE010E94F71C992745
:104000008B2D7A2D692DCE010E94F71C682DCE01D3
:104010000E94F71C6BE2CE010E94221D29A16F2D88
:1040200077278827992727FF18C06EBD0DB407FE94
:10403000FDCFC701AA27BB278EBD0DB407FEFDCF5C
:10404000BB27AF2D9E2D8D2D8EBD0DB407FEFDCF50
:10405000CEBC0DB407FEFDCF14C0CE010E94F71CEC
:10406000B70188279927CE010E94F71C99278F2D29
:104070007E2D6D2DCE010E94F71C6C2DCE010E946D
:10408000F71C6CE2CE01DF91CF911F910F91FF9051
:10409000EF90DF90CF90BF90AF909F908F900C9457
:1040A000221D1F93CF93DF93262FFC0131A137FFF1
:1040B00009C07EBD0DB407FEFDCF2EBD0DB407FEB9
:1040C000FDCF0CC0672F122FEC010E94F71C612F4F
:1040D000CE01DF91CF911F910C94F71CDF91CF910E
:1040E0001F910895EF92FF920F931F93CF93DF9349
:1040F00077FD23C0DC011896ED91FC9119976E179E
:104100007F07DCF457FD19C01A96ED91FC911B97BF
:104110004E175F0794F47901EC0101E010E021E013
:1041200030E00E94A01FB701CE01DF91CF911F9117
:104130000F91FF90EF900C945120DF91CF911F9140
:104140000F91FF90EF900895EF92FF921F93CF93FE
:10415000DF9300D01F921F92CDB7DEB77C01162FE0
:10416000FC0181A187FF12C02115310541055105D0
:1041700049F17EBD0DB407FEFDCF1EBD0DB407FE97
:10418000FDCF2150310941095109EECF21153105EB
:1041900041055105B9F0672FC70129833A834B8345
:1041A0005C837D830E94F71C612FC7010E94F71C6E
:1041B00029813A814B815C812150310941095109A2
:1041C0007D81E4CF0F900F900F900F900F90DF91B3
:1041D000CF911F91FF90EF9008958F929F92AF9291
:1041E000BF92CF92DF92EF92FF920F931F93CF93E4
:1041F000DF935C01FB01E9014701DC0118962D9179
:104200003C911997621773070CF049C01A968D916B
:104210009C911B97481759070CF041C06B01CC0EBD
:10422000DD1ED60111977A01E00EF11EB701615033
:104230007109B7FD34C077FD32C0F7FF03C0E60156
:10424000E0E0F0E057FF03C0870140E050E0A21734
:10425000B3071CF0E901CE1BDF0B681779071CF0D0
:104260008C01041B150B9E01D8010E943C286B0198
:104270007C01BF01C5010E94A01FA7019601B401E6
:10428000C501DF91CF911F910F91FF90EF90DF90CB
:10429000CF90BF90AF909F908F900C94A420DF910F
:1042A000CF911F910F91FF90EF90DF90CF90BF9033
:1042B000AF909F908F9008954F925F926F927F92F0
:1042C0009F92AF92BF92CF92DF92EF92FF920F93A5
:1042D0001F93CF93DF9300D000D0CDB7DEB78C0112
:1042E00060E0DC0112968C910E94920E60E0F80171
:1042F00083810E94920E61E0D80115968C910E94F4
:10430000920E61E0F80184810E94920ED8015096CD
:104310008C9150971896ED91FC9119979081892B6B
:10432000808351969C9151971C96ED91FC911D971D
:104330008081282F30E0892F90E08095909582230E
:104340009323808312968C910E941B0E7C01F801AE
:1043500082810E941B0E9701281B390B2C5F3F4F57
:104360002930310548F4A701480F591FCA01959516
:1043700087959924939401C0912C2FEF33E0790114
:10438000E81AF90A60E0D80115968C910E94920E05
:1043900060E0F80184810E94920E61E0D8011296DB
:1043A0008C910E94920E61E0F80183810E94920E2E
:1043B000D80153969C9153971E96ED91FC911F97AF
:1043C0008081282F30E0892F90E08095909582237E
:1043D0009323808352968C9152971A96ED91FC917B
:1043E0001B979081892B808314968C910E941B0EC1
:1043F0006C01F80184810E941B0EA601481B590B19
:104400004C5F5F4F4930510538F49601280F391F32
:10441000C9019595879501C0912C4FEF53E06A0132
:10442000C81AD90A61E0D80115968C910E94920EA3
:1044300060E0F80182810E94920ED80150969C9112
:1044400050971896ED91FC9119978081282F30E0B4
:10445000892F90E0809590958223932380835396B3
:104460008C9153971E96ED91FC911F979081892B0B
:10447000808314968C910E941B0E5C01F80182814E
:104480000E941B0ED80116960D911C9117970115CD
:10449000110509F43FC0BC01990F880B990B0E94CC
:1044A000B2262B013C01B501BB0C880B990B0E9475
:1044B000B2269B01AC01C301B2010E94082620E094
:1044C00030E040E85FE30E9496252B013C01B701F4
:1044D0000F2C000C880B990B0E94B2269B01AC019B
:1044E000C301B2010E9462272B013C01B80180E0A8
:1044F00090E00E94B0269B01AC01C301B2010E9472
:10450000622720E030E040E85AE30E9462270E94E0
:104510007A2605C0B501681B790B61507C4F91105C
:1045200002C060E070E0FA82E982DC82CB827E83A6
:104530006D832E2D3A814C2D5C817E8180E090E050
:1045400026960FB6F894DEBF0FBECDBFDF91CF9198
:104550001F910F91FF90EF90DF90CF90BF90AF90A1
:104560009F907F906F905F904F900895EF92FF9291
:104570000F931F93DC0112964C93129714962C9371
:10458000149713960C93139715966C93159717968B
:10459000FC92EE92169770E0FB01E659FD4FE49114
:1045A000F0E0EE0FFF1FE055FD4F859194911996B5
:1045B0009C938E93189750E0FA01E659FD4FE491D1
:1045C000F0E0EE0FFF1FE055FD4F859194911B9693
:1045D0009C938E931A9730E0F901E659FD4FE491D0
:1045E000F0E0EE0FFF1FE055FD4F859194911D9671
:1045F0009C938E931C9710E0F801E659FD4F84912F
:1046000090E0880F991F80559D4FFC0185919491F2
:104610001F969C938E931E97FB01EC5DFD4F64915A
:1046200050966C935097FA01EC5DFD4F4491529671
:104630004C935297F901EC5DFD4F249151962C93C8
:104640005197F801EC5DFD4F049153960C935397ED
:104650008AE090E08D939C931F910F91FF90EF90D3
:1046600008956F927F928F929F92AF92BF92CF9256
:10467000DF92EF92FF920F931F93CF93DF93EC01A2
:10468000009789F4CB01DF91CF911F910F91FF909B
:10469000EF90DF90CF90BF90AF909F908F907F90E2
:1046A0006F900C941A24FC01E60FF71F9C01225016
:1046B0003109E217F30708F4ACC0D9010D911C9140
:1046C000119706171707B0F00530110508F49FC0C1
:1046D000C80104978617970708F499C0025011097A
:1046E000061B170B019311936D937C93CF010E94CE
:1046F000AF248DC05B01A01AB10A4C01800E911E3F
:10470000A0917C06B0917D0640E050E0E12CF12CB8
:10471000109709F44AC0A815B905D1F56D907C90A1
:104720001197630182E0C80ED11CCA14DB0480F12A
:10473000A3014A195B096A0182E0C80ED11C1296D6
:10474000BC9012971396AC91B5E0CB16D10440F013
:10475000B282A38351834083D9016D937C930AC0B5
:104760000E5F1F4FC301800F911FF901918380835A
:10477000EB2DFA2FE114F10431F0D7011396FC93DD
:10478000EE93129744C0F0937D06E0937C063FC001
:104790008D919C9111974817590708F4AC017D0140
:1047A00012960D90BC91A02DB3CF80917A06909176
:1047B0007B0688159905E1F446175707C8F48091E0
:1047C000050290910602009741F48DB79EB7409183
:1047D000090250910A02841B950BE817F907C8F4E7
:1047E000F0937B06E0937A06F901718360830FC032
:1047F000CB010E941A247C01009759F0A801BE0148
:104800000E947D25CE010E94AF24C70104C0CE01C5
:1048100002C080E090E0DF91CF911F910F91FF9057
:10482000EF90DF90CF90BF90AF909F908F907F9050
:104830006F900895CF93DF938230910510F482E05A
:1048400090E0E0917C06F0917D0620E030E0C0E051
:10485000D0E0309711F14081518148175907C0F0DD
:104860004817590761F482819381209719F09B833F
:104870008A832BC090937D0680937C0626C02115E9
:10488000310519F04217530718F49A01BE01DF01F0
:10489000EF010280F381E02DDCCF2115310509F114
:1048A000281B390B2430310590F412968D919C9180
:1048B00013976115710521F0FB019383828304C076
:1048C00090937D0680937C06FD01329644C0FD01E5
:1048D000E20FF31F81939193225031092D933C9362
:1048E0003AC020917A0630917B06232B41F4209127
:1048F00007023091080230937B0620937A062091BC
:104900000502309106022115310541F42DB73EB75D
:104910004091090250910A02241B350BE0917A065E
:10492000F0917B06E217F307A0F42E1B3F0B28172C
:10493000390778F0AC014E5F5F4F2417350748F018
:104940004E0F5F1F50937B0640937A06819391939D
:1049500002C0E0E0F0E0CF01DF91CF9108950F9326
:104960001F93CF93DF93009709F48CC0FC0132971B
:104970001382128200917C0610917D0601151105AB
:1049800081F420813181820F931F20917A0630912A
:104990007B062817390779F5F0937B06E0937A06B2
:1049A00071C0D80140E050E0AE17BF0750F4129636
:1049B0002D913C911397AD012115310509F1D901D4
:1049C000F3CF9D01DA013383228360817181860FE9
:1049D000971F8217930769F4EC0128813981260F0C
:1049E000371F2E5F3F4F318320838A819B819383C2
:1049F0008283452B29F4F0937D06E0937C0642C028
:104A00001396FC93EE931297ED01499159919E01F3
:104A1000240F351FE217F30771F480819181840F11
:104A2000951F029611969C938E9382819381139683
:104A30009C938E931297E0E0F0E0D80112968D914E
:104A40009C911397009719F0F8018C01F6CF8D9186
:104A50009C9198012E5F3F4F820F931F20917A0601
:104A600030917B062817390769F4309729F41092A2
:104A70007D0610927C0602C01382128210937B0680
:104A800000937A06DF91CF911F910F91089561E015
:104A900085E30E94CE0E61E085E30E94920E8CB504
:104AA00080618CBD8CB580648CBD61E084E30E9424
:104AB000920E61E083E30C94920E811103C08CB5D9
:104AC000806202C08CB58F7D8CBD08959CB5937FAC
:104AD000892B8CBD08959CB5282F23709C7F922B29
:104AE0009CBD2DB582FB992790F9822F8E7F892B53
:104AF0008DBD0895F8940C947928FB01DC0102C067
:104B000001900D9241505040D8F70895FB01DC010F
:104B10008D91019080190110D9F3990B0895FB0133
:104B2000DC0101900D920020E1F708955058BB2759
:104B3000AA270E94AE250C9428270E941A2738F035
:104B40000E94212720F039F49F3F19F426F40C9499
:104B500017270EF4E095E7FB0C941127E92F0E942C
:104B6000392758F3BA17620773078407950720F0AF
:104B700079F4A6F50C945B270EF4E0950B2EBA2F72
:104B8000A02D0B01B90190010C01CA01A001112453
:104B9000FF27591B99F0593F50F4503E68F11A16FF
:104BA000F040A22F232F342F4427585FF3CF469590
:104BB00037952795A795F0405395C9F77EF41F16B2
:104BC000BA0B620B730B840BBAF09150A1F0FF0F7C
:104BD000BB1F661F771F881FC2F70EC0BA0F621F68
:104BE000731F841F48F4879577956795B795F79558
:104BF0009E3F08F0B0CF9395880F08F09927EE0FED
:104C00009795879508950E94ED2608F481E0089510
:104C10000E941C260C9428270E94212758F00E94ED
:104C20001A2740F029F45F3F29F00C941127511105
:104C30000C945C270C9417270E94392768F399235A
:104C4000B1F3552391F3951B550BBB27AA27621788
:104C50007307840738F09F5F5F4F220F331F441F95
:104C6000AA1FA9F335D00E2E3AF0E0E832D09150C9
:104C70005040E695001CCAF72BD0FE2F29D0660FB6
:104C8000771F881FBB1F261737074807AB07B0E8F9
:104C900009F0BB0B802DBF01FF2793585F4F3AF0FF
:104CA0009E3F510578F00C9411270C945C275F3FD0
:104CB000E4F3983ED4F3869577956795B795F79585
:104CC0009F5FC9F7880F911D9695879597F908956D
:104CD000E1E0660F771F881FBB1F62177307840709
:104CE000BA0720F0621B730B840BBA0BEE1F88F718
:104CF000E09508950E9481266894B1110C945C2778
:104D000008950E94412788F09F5798F0B92F99275E
:104D1000B751B0F0E1F0660F771F881F991F1AF0A6
:104D2000BA95C9F714C0B13091F00E945B27B1E089
:104D300008950C945B27672F782F8827B85F39F088
:104D4000B93FCCF3869577956795B395D9F73EF43F
:104D500090958095709561957F4F8F4F9F4F0895E7
:104D6000E89409C097FB3EF4909580957095619505
:104D70007F4F8F4F9F4F9923A9F0F92F96E9BB27BB
:104D80009395F695879577956795B795F111F8CF37
:104D9000FAF4BB0F11F460FF1BC06F5F7F4F8F4FA2
:104DA0009F4F16C0882311F096E911C0772321F098
:104DB0009EE8872F762F05C0662371F096E8862F30
:104DC00070E060E02AF09A95660F771F881FDAF787
:104DD000880F9695879597F90895990F0008550FB4
:104DE000AA0BE0E8FEEF16161706E807F907C0F071
:104DF00012161306E407F50798F0621B730B840B79
:104E0000950B39F40A2661F0232B242B252B21F452
:104E100008950A2609F4A140A6958FEF811D811DF2
:104E2000089597F99F6780E870E060E008959FEF2C
:104E300080EC089500240A94161617061806090631
:104E4000089500240A941216130614060506089500
:104E5000092E0394000C11F4882352F0BB0F40F488
:104E6000BF2B11F460FF04C06F5F7F4F8F4F9F4FC8
:104E7000089557FD9058440F551F59F05F3F71F04A
:104E80004795880F97FB991F61F09F3F79F08795B1
:104E90000895121613061406551FF2CF4695F1DF3A
:104EA00008C0161617061806991FF1CF86957105CA
:104EB000610508940895E894BB2766277727CB01FE
:104EC00097F908950E9475270C9428270E941A27A5
:104ED00038F00E94212720F0952311F00C9411271F
:104EE0000C94172711240C945C270E94392770F327
:104EF000959FC1F3950F50E0551F629FF001729F7F
:104F0000BB27F00DB11D639FAA27F00DB11DAA1F8D
:104F1000649F6627B00DA11D661F829F2227B00DDA
:104F2000A11D621F739FB00DA11D621F839FA00D65
:104F3000611D221F749F3327A00D611D231F849FB5
:104F4000600D211D822F762F6A2F11249F5750400C
:104F50009AF0F1F088234AF0EE0FFF1FBB1F661F87
:104F6000771F881F91505040A9F79E3F510580F050
:104F70000C9411270C945C275F3FE4F3983ED4F324
:104F8000869577956795B795F795E7959F5FC1F7F4
:104F9000FE2B880F911D9695879597F90895DB0153
:104FA0008F939F930E945A28BF91AF91A29F800D2B
:104FB000911DA39F900DB29F900D1124089597FB12
:104FC000072E16F4009407D077FD09D00E946528BB
:104FD00007FC05D03EF4909581959F4F08957095FC
:104FE00061957F4F0895A1E21A2EAA1BBB1BFD01FC
:104FF0000DC0AA1FBB1FEE1FFF1FA217B307E407B8
:10500000F50720F0A21BB30BE40BF50B661F771F0F
:10501000881F991F1A9469F76095709580959095EF
:105020009B01AC01BD01CF010895052E97FB1EF435
:1050300000940E942C2857FD07D00E94F32707FCFC
:1050400003D04EF40C942C28509540953095219522
:105050003F4F4F4F5F4F08959095809570956195A4
:105060007F4F8F4F9F4F0895EE0FFF1F881F8BBFFD
:105070000790F691E02D19940E944428332312F4EE
:105080008A1B9B0B0C945528A29FB001B39FC001B3
:10509000A39F700D811D1124911DB29F700D811D64
:1050A0001124911D08950E944428B7FF0895821B82
:1050B000930B08950E944428A59F900DB49F900DD6
:1050C000A49F800D911D11240895AA1BBB1B51E1C3
:1050D00007C0AA1FBB1FA617B70710F0A61BB70B68
:1050E000881F991F5A95A9F780959095BC01CD010D
:1050F000089513E0C4EFD3E000E006C0802FFE0166
:105100000E9434282196011DC53FD10780E0080781
:06511000A9F7F894FFCF9F
:105116001E0000000100007E0680004145414E450C
:10512600470041485350434F0041535046464B00B9
:105136004F424A4F414200494F544D554300525940
:105146005644454C004C5245495844004549554E35
:10515600455300574E47454548004C4E484E525A17
:1051660000545354495944004F57544F4154004535
:10517600525454594C00544F4553534900544552C8
:10518600574856004E5549484D5100534F4C5645C9
:1051960000455241534500454E5445520054494D31
:1051A6004500504F494E5453004E45570047414D18
:1051B6004500454E440000000000A011FE0E4911B6
:1051C60075115911951100000000531AFE0E481171
:1051D60008160916281610161C165F153816071815
:1051E600061839167E16C21613173117A7170000B0
:1051F6000000531AFE0E761B5E1C7220ED204F1B1C
:10520600631B5F15441B2E1F7A1FAC1BE61B201C5D
:0652160013173117A71762
:00000001FF
