:100000000C94F6030C9427040C9427040C942704F6
:100010000C9427040C9427040C9427040C942704B4
:100020000C9427040C9427040C9427040C942704A4
:100030000C9427040C9419170C9427040C9427048F
:100040000C9427040C9427040C9427040C94270484
:100050000C9427040C9427040C9427040C948D1101
:100060000C9427040C94A61A0C94721B0C9427046D
:100070000C9427040C9427040C9427040C94270454
:100080000C9427040C9427040C9427040C94270444
:100090000C94D91A0C94B11B0C9427040C942704CB
:1000A0000C9427040C9427040C9427040C94270424
:1000B0000C9427040C9427040C9427040C94270414
:1000C0000C9427040C9427040C9427040C940C1B08
:1000D0000C94F01B0C9427040C943F1B0C942F1CC5
:1000E0000C942704CC12CF12C212C6120613D312DC
:1000F000D712DD12E112E512EB12EF12F312061322
:10010000F912FD1201130C943F1A0C944A1A0C9424
:100110007D200C9429230C9439240C94DD200C941C
:10012000F21E0C94EB120C94CF120C94D3120C947C
:1001300079170C94E1120C94CC120C9448290C946D
:10014000F61C0C94E5120C9425240C94DC200C94E1
:10015000FD120C9401130C9404280C9482240C942A
:10016000F6240C94DE1E0C94C3290C94C2120C9439
:10017000031A0C94E91F0C94F3190C94DF1E0C94D1
:10018000C6120C940F1F0C94B5060C94F3120C9429
:10019000FE1E0C94EF120C9406130C941F1A0C9470
:1001A0004C240C94D7120C94E61E0C94541F0C94FF
:1001B00034250C940E1F0C94981F0C9450280C940A
:1001C000DD120C94351E0C94F2190C9407200C943B
:1001D0001A240C9435060C94BC240C94F9120000DB
:1001E000090A02080B0C0D070603040100000000B9
:1001F00000000000000000000000000000000000FF
:100200000000000000000000000011100F000000BE
:1002100000000000000000000000000000000000DE
:1002200000000000010210202008081020401020CB
:1002300040800201020108040201010204081020AA
:1002400040808040201008040201800402018040A8
:100250002010080402010804020101020408102011
:1002600040800102040810204080050505050705AF
:1002700008080808020202020A0A08080404040422
:10028000010101010101010103030303030303034E
:10029000040707070C0C0C0C0C0C0C0C02020202DD
:1002A00006060606060606060B0B0B0B0B0B0B0BC6
:1002B00000002200250028002B002E003100340011
:1002C00002010000050108010B01000021002400CB
:1002D00027002A002D003000330001010000040136
:1002E00007010A010200000000003E5B4F5B3E3E3A
:1002F0006B4F6B3E1C3E7C3E1C183C7E3C181C57D2
:100300007D571C1C5E7F5E1C00183C1800FFE7C375
:10031000E7FF0018241800FFE7DBE7FF30483A0644
:100320000E2629792926407F050507407F05253FB0
:100330005A3CE73C5A7F3E1C1C08081C1C3E7F149C
:10034000227F22145F5F005F5F06097F017F0066E6
:1003500089956A606060606094A2FFA29408047E40
:10036000040810207E201008082A1C08081C2A08EF
:10037000081E101010100C1E0C1E0C30383E3830A9
:10038000060E3E0E06000000000000005F000000A8
:1003900007000700147F147F14242A7F2A122313D6
:1003A00008646236495620500008070300001C22EA
:1003B00041000041221C002A1C7F1C2A08083E081C
:1003C000080080703000080808080800006060001D
:1003D00020100804023E5149453E00427F40007211
:1003E000494949462141494D331814127F10274588
:1003F0004545393C4A4949314121110907364949A6
:100400004936464949291E000014000000403400C6
:10041000000008142241141414141400412214087A
:1004200002015909063E415D594E7C1211127C7F32
:10043000494949363E414141227F4141413E7F4940
:100440004949417F090909013E414151737F08082B
:10045000087F00417F41002040413F017F08142276
:10046000417F404040407F021C027F7F0408107F94
:100470003E4141413E7F090909063E4151215E7FCF
:1004800009192946264949493203017F01033F40A2
:1004900040403F1F2040201F3F4038403F6314082A
:1004A000146303047804036159494D43007F4141BB
:1004B000410204081020004141417F04020102046E
:1004C0004040404040000307080020545478407FDB
:1004D000284444383844444428384444287F385415
:1004E00054541800087E090218A4A49C787F0804BC
:1004F000047800447D40002040403D007F102844A7
:100500000000417F40007C047804787C0804047873
:100510003844444438FC1824241818242418FC7C3B
:1005200008040408485454542404043F44243C4020
:1005300040207C1C2040201C3C4030403C44281083
:1005400028444C9090907C4464544C4400083641BC
:10055000000000770000004136080002010204029A
:100560003C2623263C1EA1A161123A4040207A3845
:1005700054545559215555794122545478422155A6
:1005800054784020545579400C1E527212395555FA
:100590005559395454545939555454580000457CD0
:1005A000410002457D420001457C407D1211127DD3
:1005B000F0282528F07C545545002054547C547C68
:1005C0000A097F4932494949323A4444443A324A55
:1005D0004848303A4141217A3A42402078009DA073
:1005E000A07D3D4242423D3D4040403D3C24FF24F1
:1005F00024487E4943662B2FFC2F2BFF0929F62028
:10060000C0887E090320545479410000447D413064
:1006100048484A32384040227A007A0A0A727D0DF0
:1006200019317D2629292F28262929292630484DA8
:100630004020380808080808080808382F10C8ACF7
:10064000BA2F102834FA00007B000008142A142264
:1006500022142A14085500550055AA55AA55AAFF78
:1006600055FF55FF000000FF00101010FF0014148C
:1006700014FF001010FF00FF1010F010F0141414FD
:10068000FC001414F700FF0000FF00FF1414F40432
:10069000FC141417101F10101F101F1414141F0027
:1006A000101010F0000000001F101010101F10108C
:1006B0001010F010000000FF10101010101010109B
:1006C00010FF10000000FF140000FF00FF00001FDB
:1006D00010170000FC04F414141710171414F40479
:1006E000F40000FF00F714141414141414F700F7A6
:1006F000141414171410101F101F141414F41410D1
:1007000010F010F000001F101F0000001F14000068
:1007100000FC140000F010F01010FF10FF1414146F
:10072000FF141010101F00000000F010FFFFFFFF6B
:10073000FFF0F0F0F0F0FFFFFF0000000000FFFF0F
:100740000F0F0F0F0F3844443844FC4A4A4A347E96
:1007500002020606027E027E026355494163384466
:10076000443C04407E201E2006027E020299A5E73A
:10077000A5991C2A492A1C4C7201724C304A4D4DD5
:10078000303048784830BC625A463D3E49494900BD
:100790007E0101017E2A2A2A2A2A44445F444440D9
:1007A000514A444040444A51400000FF0103E08068
:1007B000FF000008086B6B083612362436060F0956
:1007C0000F06000018180000001010003040FF0154
:1007D00001001F01011E00191D1712003C3C3C3C8A
:1007E0000000000000003506F61CB50611241FBEEF
:1007F000CFEFD1E2DEBFCDBF00E00CBF13E0A0E041
:10080000B2E0EEEFF3E600E00BBF02C007900D92FE
:10081000AA35B107D9F726E0AAE5B3E001C01D92D9
:10082000AC3FB207E1F713E0C5EFD3E000E006C04C
:1008300021970109802FFE010E94A031C33FD107FB
:1008400080E00807A9F70E9489110C94D12E0C941E
:1008500000002F923F924F925F926F927F928F9201
:100860009F92AF92BF92CF92DF92EF92FF920F933F
:100870001F93CF93DF93CDB7DEB72C970FB6F894C5
:10088000DEBF0FBECDBF8AE593E00E94322A2F83E0
:10089000388749875A876B877C876F80788469851A
:1008A0007A858B849C84C4010A978F3D934058F0CD
:1008B0001092A2031092A1031A8219821C821B8239
:1008C0009E828D8243C0072E000C880B990B1F92CD
:1008D0001F9221E02F9320E42F93A12CB12C6501CE
:1008E00018E9E12E13E0F12E00E010E024E630E0FC
:1008F00040E050E00E94F41D1B012C01B301770C75
:10090000880B990B1F921F921F9220EF2F9310E7D5
:10091000E12E13E0F12E00E010E020EA30E040E0AC
:1009200050E00E94F41D21E02093A1033A82298225
:1009300020EF30E0C901861B970B9C838B839E823E
:100940008D820FB6F894DEBF0FBECDBF29813A81EC
:100950004B815C816D817E8180E090E02C960FB6AA
:10096000F894DEBF0FBECDBFDF91CF911F910F91E5
:10097000FF90EF90DF90CF90BF90AF909F908F90BF
:100980007F906F905F904F903F902F9008952F929F
:100990003F924F925F926F927F928F929F92AF920F
:1009A000BF92CF92DF92EF92FF920F931F93CF935C
:1009B000DF93CDB7DEB727970FB6F894DEBF0FBE33
:1009C000CDBF8DE30E9490120E94C81D45E1642EA8
:1009D00044E0742E50E1252E312C412C512CA12CB9
:1009E000B12CC201B1010E94D01D6B017C0166E0F7
:1009F00070E080E090E00E94D01D47E04C9D9001A7
:100A00004D9D300D1124F901E455FC4F4F01CF01EC
:100A10000E94C419FC01608185EA93E00E9491194B
:100A20008501037011277501F594E794F594E79417
:100A3000B50185EA93E00E94C41997012F5F3F4FEB
:100A4000FAE0F29FA001F39F500D112468E26E9D21
:100A500090016F9D300D1124420F531F465F5F4F71
:100A600098012F5F3F4FF29FB001F39F700D11244B
:100A7000E8E2E09F9001E19F300D1124620F731FA7
:100A8000645F7F4F23E0C22EEE24EA94FE2C00E048
:100A900010E0FC0120818EE693E00E941321B40156
:100AA000CE0101960E944219B301C4010E942B1984
:100AB000BE016F5F7F4FC3010E942B19CE010196CB
:100AC0000E94A718FFEFAF1ABF0A41E0241A3108AD
:100AD0004108510857E0651A710860E1A616B10493
:100AE00009F07FCF27960FB6F894DEBF0FBECDBFBB
:100AF000DF91CF911F910F91FF90EF90DF90CF90FA
:100B0000BF90AF909F908F907F906F905F904F902D
:100B10003F902F900895CF93DF9300D000D0CDB7B2
:100B2000DEB749835A836B837C8389819A81EB8109
:100B3000FC81823D910544F5E23DF1052CF58F3CA9
:100B40002FEF92074CF0883C910544F462E370E08B
:100B50000E944B31262F03C020E001C023E0EF3C70
:100B60008FEFF8074CF0E83CF10544F4CF0162E365
:100B700070E00E944B3103C060E001C063E0862F4B
:100B8000880F880F820F01C080E126960FB6F89477
:100B9000DEBF0FBECDBFDF91CF910895FC0144238E
:100BA00009F43FC0DC0150E0CD018E1B9F0B841780
:100BB000950724F48D916813F7CF31C04E0F5F1F56
:100BC000FA0131978081262F237030E0982F93709F
:100BD000291B310937FF03C0319521953109223096
:100BE0003105ECF490E0262F2695269530E0AC01F7
:100BF0005595479555954795F901E41BF50BAF01C0
:100C000095958795959587951416150624F441308A
:100C1000510529F406C0821B930B029714F080E162
:100C20000895862F08958091A3039091A40342E82C
:100C300050E08A30910518F46FEF70E008C08436F8
:100C4000910518F469EF70E002C063EF70E08EE682
:100C500093E00E94FF236091A3037091A4034AE0F4
:100C600050E08EE693E00C94A118EF92FF920F9360
:100C700060E172E08CEA93E00E94151967E172E08E
:100C800083EB93E00E9415196EE172E08AEB93E02A
:100C90000E94151965E272E081EC93E00E9415193B
:100CA0006CE272E088EC93E00E94151963E372E055
:100CB0008FEC93E00E9415196AE372E086ED93E0F1
:100CC0000E94151961E472E08DED93E00E94151900
:100CD00068E472E084EE93E00E9415196FE472E01C
:100CE0008BEE93E00E94151966E572E082EF93E0C7
:100CF0000E9415196DE572E089EF93E00E941519C5
:100D000064E672E080E094E00E9415196BE672E000
:100D100087E094E00E94151962E772E08EE094E0AB
:100D20000E94151969E772E085E194E00E941519A7
:100D300063EE72E085EA93E00E9415192FEF49E017
:100D40006AE08EE693E00E944D258CE2E82EFF24B7
:100D5000F39405E029E348E364E08AE593E00E9428
:100D60008C2B0F91FF90EF900895CF93DF9385EA3E
:100D700093E00E94A718CCE1D4E02797CE010E940F
:100D8000A71883E0CC3AD807C1F7DF91CF91089537
:100D90000E942E1240E855E260E070E086EB94E09D
:100DA0000E946E1C86EB94E00E943F1A40E050E0E7
:100DB000BA018EE693E00E940E2661E08EE693E093
:100DC0000E94042860E08EE693E00E94172463E00E
:100DD0008EE693E00E94052460E070E08EE693E0EA
:100DE0000C94E91FAF92BF92CF92DF92EF92FF92E5
:100DF0000F931F93CF93DF93EC015B016A0160E0D7
:100E000070E08EE693E00E940B24EE24EA94FE2C20
:100E10000EE110E024E630E0A501BE018EE693E08D
:100E20000E94F624A5014C5F5F4FF60124813581B5
:100E300062E1629FC001639F900D112424E630E0BF
:100E4000281B390B36952795B9016C0F7D1F8EE64F
:100E500093E00E94FF23B6018EE693E0DF91CF91ED
:100E60001F910F91FF90EF90DF90CF90BF90AF90C8
:100E70000C94B6179F92AF92BF92CF92DF92EF92EF
:100E8000FF920F931F93CF93DF93982E362F3370DB
:100E9000832F90E001962AE0289FE001299FD00D42
:100EA000112488E2389FC00DD11D112466956695E6
:100EB000862F90E00196289F6001299FD00C112475
:100EC00088E2689FC00CD11C11247A0108E210E06E
:100ED00028E230E0A601BE018EE693E00E94F624EF
:100EE000A601465F5F4FBE01645F7F4F83E0C82E5F
:100EF00000E010E0292D8EE693E00E941321DF919F
:100F0000CF911F910F91FF90EF90DF90CF90BF9006
:100F1000AF909F900895EF92FF920F931F93CF93FE
:100F2000DF93EC01E12CF12C0EE511E022ED30E035
:100F300042ED50E060E070E08EE693E00E94F6241F
:100F400042ED50E06AE070E08EE693E00E94FF23FD
:100F5000BE018EE693E00E94B61740E050E06FEFCE
:100F60007FEF8EE693E0DF91CF911F910F91FF907D
:100F7000EF900C941124CF93DF93CDB7DEB7279772
:100F80000FB6F894DEBF0FBECDBF63E08EE693E0F0
:100F90000E94052460E872E0CE0101960E941519B6
:100FA000AE014F5F5F4F6AE070E082ED90E00E941B
:100FB000F206CE0101960E94A71866E872E0CE0103
:100FC00001960E941519AE014F5F5F4F60EA70E015
:100FD00082ED90E00E94F206CE0101960E94A718D1
:100FE0006AE872E0CE0101960E941519AE014F5FCA
:100FF0005F4F68EC70E082ED90E00E94F206CE0157
:1010000001960E94A71840E050E060E078EF8EE67D
:1010100093E00E9411246FE872E0CE0101960E94D5
:101020001519CE0101960E948B07CE0101960E94F0
:10103000A71827960FB6F894DEBF0FBECDBFDF917D
:10104000CF910895EF92FF920F931F93CF93DF9369
:10105000E12CF12C00EF10E022ED30E040E050E018
:1010600060E070E08EE693E00E94F624C0E0D0E0FD
:10107000BE0185EA93E00E94C4194FEF5FEF6C2F29
:10108000FC0180810E943A072196C031D10581F789
:10109000DF91CF911F910F91FF90EF900895EF9204
:1010A000FF920F931F93CF93DF93EC01E12CF12C70
:1010B00000E110E028E230E04AE550E06EE071E047
:1010C0008EE693E00E94F6244AE550E06EE071E07F
:1010D0008EE693E00E94FF234AE050E0BE018EE6D8
:1010E00093E0DF91CF911F910F91FF90EF900C94BF
:1010F000A1184F925F926F927F928F929F92AF92C0
:10110000BF92CF92DF92EF92FF920F931F93CF93F4
:10111000DF9300D01F92CDB7DEB74B015C010E9478
:10112000D71128EE33E040E050E00E945F31CA0161
:10113000B9010E941C302B013C0180910402909166
:101140000502A0910602B091070289839A83AB83BE
:10115000BC83BC01CD010E941C306B017C01C50128
:10116000B4010E941C309B01AC01C301B2010E947A
:10117000022F9B01AC01C701B6010E94022FA701FB
:1011800096010E946F2F882309F452C089819A81A9
:10119000AB81BC810B97A105B10528F040E550E07B
:1011A00069EF70E012C0E12CF12C00E110E028E1C1
:1011B00030E040E550E069EF70E08EE693E00E9499
:1011C000F62440E550E06EEF70E08EE693E00E947A
:1011D000FF23C0900402D0900502E0900602F09038
:1011E00007020E94D7118C0C9D1CAE1CBF1C28EE60
:1011F00033E040E050E00E945F31D501C401821B22
:10120000930BA40BB50BAC01BD018093040290932A
:101210000502A0930602B09307022AE030E08EE6B2
:1012200093E00E949418C301B2010E94ED2F02C006
:10123000B401C5010F900F900F900F90DF91CF91E7
:101240001F910F91FF90EF90DF90CF90BF90AF90E4
:101250009F908F907F906F905F904F900895DF9256
:10126000EF92FF920F931F93CF93DF93CDB7DEB72B
:1012700027970FB6F894DEBF0FBECDBFD82E63EE12
:1012800072E0CE0101960E941519CE0101960E94CE
:101290008B07CE0101960E94A71863E08EE693E0CB
:1012A0000E940524E12CF12C00EF10E024E630E050
:1012B00040E050E062ED70E08EE693E00E94F6249C
:1012C00060E872E0CE0101960E941519AE014F5FF1
:1012D0005F4F6AE070E082ED90E00E94F206CE017E
:1012E00001960E94A7186AE972E0CE0101960E9459
:1012F0001519AE014F5F5F4F60EA70E082ED90E03C
:101300000E94F206CE0101960E94A71860EA72E0E0
:10131000CE0101960E941519AE014F5F5F4F68EC38
:1013200070E082ED90E00E94F206CE0101960E94EC
:10133000A71862E08EE693E00E94052440E050E0AA
:101340006FEF7FEF8EE693E00E9411248CE390E034
:10135000A0E0B0E08093040290930502A0930602FF
:10136000B09307021092A4031092A3034CE350E041
:101370006DEE70E08EE693E00E94FF2366EA72E075
:101380008EE693E00E94EB1740E550E069EF70E0D5
:101390008EE693E00E94FF234091040250910502E3
:1013A00060910602709107022AE030E08EE693E039
:1013B0000E9494184EE650E061EE70E08EE693E0F5
:1013C0000E94FF236BEA72E08EE693E00E94EB1727
:1013D00042E850E06FEF70E08EE693E00E94FF235A
:1013E0006091A3037091A4034AE050E08EE693E07D
:1013F0000E94A118DD2099F00EE110E063EE72E08A
:1014000085EA93E00E944C190E94C704015011091B
:10141000A9F765EA73E086EB94E00E940818279626
:101420000FB6F894DEBF0FBECDBFDF91CF911F91F5
:101430000F91FF90EF90DF900895CF92DF92EF929F
:10144000FF920F931F93CF93DF932AE0C22ED12CEC
:10145000CAE0D0E0EE24EA94FE2C08E210E028E294
:1014600030E0AE01B6018EE693E00E94F624E296EB
:10147000C23DD10579F782E3C80ED11C82EDC816B2
:10148000D10431F7EE24EA94FE2C0CED10E024E6B2
:1014900030E04AE050E062ED70E08EE693E00E94BA
:1014A000F62440E650E06BEE70E08EE693E00E949A
:1014B000FF234FEF5FEF60E070E08EE693E00E9465
:1014C000112466E872E08EE693E00E94EB1744E890
:1014D00050E061EE70E08EE693E00E94FF2362EB45
:1014E00072E08EE693E0DF91CF911F910F91FF9014
:1014F000EF90DF90CF900C94EB174F925F926F922A
:101500007F928F929F92AF92BF92CF92DF92EF9293
:10151000FF920F931F93CF93DF937901A82FA370AE
:10152000B0E0E62FE370F0E08D01EA17FB070CF462
:101530008F01382F36953695262F26952695C32F61
:10154000231708F4C22F68276370D0E0C801019602
:101550006C01611138C0219682E38C9F50018D9FF0
:10156000B00C11248AE08C9DB0018D9D700D11246A
:10157000072E000C880B990B0E941E302B013C019A
:10158000B801110F880B990B0E941E3020E030E04B
:1015900040E05FE30E94032F20E030E040E252E4AD
:1015A0000E94CE309B01AC01C301B2010E94032F07
:1015B0000E94E62F87012AE030E0A5018EE693E045
:1015C0000E948224A4C023133AC0CE0101962AE0CF
:1015D000289FB001299F700D1124072E000C880B45
:1015E000990B0E941E304B015C01BE01DD0F880B80
:1015F000990B0E941E3020E030E040E05FE30E9443
:10160000032F20E030E040E252E40E94CE309B0104
:10161000AC01C501B4010E94032F0E94E62F22E312
:101620002C9DF0012D9DF00D112487012AE030E062
:10163000AB01BF018EE693E00E94BC2468C0AD01FF
:10164000AE17BF070CF4AF01832F321708F4822FB7
:10165000682F70E008E2809FC00111248A010F5FAB
:101660001F4F5801EA17FB0714F4231728F0AE1791
:10167000BF0734F5321720F56F5F7F4F3AE0369F92
:101680008001379F100D1124080F191F3A9DC001CA
:101690003B9D900D112468E2649F9001659F300D81
:1016A0001124280F391F219682E38C9FA0018D9F62
:1016B000500D11248C9DB0018D9D700D112423C0FF
:1016C0002196E2E3EC9F8001ED9F100D1124FAE0DA
:1016D000FA9DD001FB9DB00D1124C8E2C49F90017A
:1016E000C59F300D11242A0F3B1F6F5F7F4FF69F60
:1016F000A001F79F500D1124480F591FEC9DB00118
:10170000ED9D700D11248EE693E00E940720DF917D
:10171000CF911F910F91FF90EF90DF90CF90BF90EE
:10172000AF909F908F907F906F905F904F900895B3
:10173000AF92BF92CF92DF92EF92FF920F931F93DF
:10174000CF93DF93CDB7DEB727970FB6F894DEBF00
:101750000FBECDBF7C018B016A0163EE72E00E9477
:101760001519A12CB12CF801848195810197A81637
:10177000B90668F4B501C8010E94C419FC01608172
:10178000C7010E949119FFEFAF1ABF0AECCFB70152
:10179000CE0101960E944219CE0101960E948B074C
:1017A000CE0101960E94A718F801648175816150ED
:1017B0007109F601E60FF71FB080C8010E94C41935
:1017C0004FEF5FEF6B2DFC0180810E943A07F8011B
:1017D000448155814230510568F0C601840F951F40
:1017E000FC013197DC01129720E030E060818C91A0
:1017F0000E947D0AF80124813581F601E20FF31F72
:10180000319780E18083C70127960FB6F894DEBF39
:101810000FBECDBFDF91CF911F910F91FF90EF9041
:10182000DF90CF90BF90AF9008958F929F92AF922C
:10183000BF92CF92DF92EF92FF920F931F93CF93BD
:10184000DF93482F46954695242F30E02F5F3F4F7A
:101850009AE0929F5001939FB00C112428E2429F7E
:10186000A00CB11C11248370282F30E02F5F3F4F54
:10187000929F4001939F900C112498E2899F800CC5
:10188000911C112498E2C92ED12CC0E0D0E0AE0109
:101890004A0D5B1DBE01680D791DE12C88EFF82E05
:1018A000860196018EE693E00E947D20219622E03B
:1018B000C21AD108C530D10551F7DF91CF911F91E0
:1018C0000F91FF90EF90DF90CF90BF90AF909F90DF
:1018D0008F900895CF93DF93EC0163EE72E00E9446
:1018E000151986EB94E00E94031A8A97D1F386EBD0
:1018F00094E00E94F319892BA1F386EB94E00E94F7
:101900001F1A8A3029F0682FCE010E949119F5CF55
:101910006AE286EB94E00E942C1886EB94E00E9429
:101920003F1A6AE070E080E090E00E940812CE0169
:10193000DF91CF910895AF92BF92CF92DF92EF9255
:10194000FF920F931F93CF93DF93CDB7DEB72E9700
:101950000FB6F894DEBF0FBECDBFCE0101960E9438
:101960006A0CCE0101960E94E719C62ECE0101969F
:101970000E94A71863EE72E0CE0108960E94151926
:10198000E12CF12CD12CEC14FD04CCF5CE01019608
:101990000E946A0CCE0101960E94E719162FCE0113
:1019A00001960E94A718A12EB12CB50185EA93E0FB
:1019B0000E94C419FC016081CE0108960E94911911
:1019C000B50185EA93E00E94C41940EE57E0612F0B
:1019D000FC0180810E943A07E114F10421F4812F77
:1019E0000E94150C07C020EE37E04C85612F802F38
:1019F0000E947D0AFFEFEF1AFF0A012FC4CF40E0DB
:101A000050E06FEF7FEF8EE693E00E941124BE015D
:101A1000685F7F4FCE0101960E944219CE01019668
:101A20000E948B07CE0101960E94A718CE0108964E
:101A30000E94A7182E960FB6F894DEBF0FBECDBF3A
:101A4000DF91CF911F910F91FF90EF90DF90CF909A
:101A5000BF90AF9008958F929F92AF92BF92CF9216
:101A6000DF92EF92FF920F931F93CF93DF93CDB747
:101A7000DEB727970FB6F894DEBF0FBECDBFE12CBF
:101A8000F12C00EF10E024E630E040E050E062EDA1
:101A900070E08EE693E00E94F6240E94220863E044
:101AA0008EE693E00E94052467EB72E0CE0101967A
:101AB0000E941519AE014F5F5F4F6AE070E082ED42
:101AC00090E00E94F206CE0101960E94A7186CEBEE
:101AD00072E0CE0101960E941519AE014F5F5F4F73
:101AE00062E370E082ED90E00E94F206CE01019682
:101AF0000E94A71866E872E0CE0101960E941519AF
:101B0000AE014F5F5F4F60EA70E082ED90E00E94AF
:101B1000F206CE0101960E94A7186AE872E0CE0193
:101B200001960E941519AE014F5F5F4F68EC70E09F
:101B300082ED90E00E94F206CE0101960E94A71865
:101B40004AE550E062ED70E08EE693E00E94FF23EC
:101B500062E08EE693E00E94052440E050E06FEFE3
:101B60007FEF8EE693E00E94112461EC72E08EE636
:101B700093E00E94EB1781E090E00E944F084EE650
:101B800050E062ED70E08EE693E00E94FF2367EC88
:101B900072E08EE693E00E94EB17CE0101960E9460
:101BA0006A0CCE0101960E94E7196B017C01CE01FF
:101BB00001960E94A7184EE650E068EF70E08EE6AE
:101BC00093E00E94FF234AE050E0B6018EE693E0E6
:101BD0000E94A11840E050E060EE77E08EE693E0CE
:101BE0000E9411244CE850E062ED70E08EE693E034
:101BF0000E94FF236BEC72E08EE693E00E94EB17ED
:101C0000CE0101960E946A0CCE0101960E94E7194E
:101C10004B015C01CE0101960E94A7184CE850E0F0
:101C200068EF70E08EE693E00E94FF234AE050E008
:101C3000B4018EE693E00E94A118C60127960FB664
:101C4000F894DEBF0FBECDBFDF91CF911F910F91F2
:101C5000FF90EF90DF90CF90BF90AF909F908F90CC
:101C60000895BF92CF92DF92EF92FF920F931F934E
:101C7000CF93DF93CDB7DEB72E970FB6F894DEBFC4
:101C80000FBECDBF7C018B016A0186EB94E00E9400
:101C9000081886EB94E00E94031AC09731F086EB97
:101CA00094E00E94031AC197A1F786EB94E00E948A
:101CB0001F1AB82E81E3B81216C0F80124813581AD
:101CC000225031092730310510F026E030E08091B4
:101CD000A3039091A403280F391F3093A4032093EA
:101CE000A3030E94130663EE72E0C8010E94A519C7
:101CF00081111CC0B801CE0108960E944219A601AC
:101D0000BE01685F7F4FCE0101960E94980BBE0115
:101D10006F5F7F4FC8010E942B19CE0101960E9470
:101D2000A718CE0108960E94A718DDCFF1E340E086
:101D300050E0BF1209C060EE77E08EE693E00E94AB
:101D400011246FEC72E008C060E078EF8EE693E05B
:101D50000E9411246BED72E0CE0101960E941519CC
:101D6000CE0101960E948B07CE0101960E94A71812
:101D700064EE72E086EB94E00E941A18B801C70185
:101D80000E944219C7012E960FB6F894DEBF0FBE0F
:101D9000CDBFDF91CF911F910F91FF90EF90DF901A
:101DA000CF90BF900895CF92DF92EF92FF920F9362
:101DB0001F93CF93DF93CDB7DEB764970FB6F89438
:101DC000DEBF0FBECDBF6C012F87388B498B5A8B7E
:101DD00029893A898F859889833D91050CF44DC0F6
:101DE000293C31053CF1F80184819581892BD9F09A
:101DF000B801CE0108960E944219A701BE01685F92
:101E00007F4FCE0101960E94310EBE016F5F7F4F62
:101E1000C8010E942B19CE0101960E94A718CE017D
:101E200008960E94A71868EC70E080E090E00E949D
:101E3000081223C0213A31059CF0F8018481958174
:101E4000892B71F0B801CE0108960E944219A701B2
:101E5000BE01685F7F4FCE0101960E94980BD5CFDF
:101E60002832310504F766EE72E086EB94E00E94BA
:101E70001A180E9422080E94E010B801C6010E94B0
:101E80004219C60164960FB6F894DEBF0FBECDBFEF
:101E9000DF91CF911F910F91FF90EF90DF90CF9046
:101EA00008957F928F929F92AF92BF92CF92DF92CE
:101EB000EF92FF920F931F93CF93DF93CDB7DEB7CF
:101EC000AB970FB6F894DEBF0FBECDBF0E942F09AF
:101ED00080E19E012F5F3F4F6901F901282F119288
:101EE0002A95E9F7898363EE72E0CE014F960E944E
:101EF00015190E94D71128EE33E040E050E00E940F
:101F00005F31CA01B9010E941C304B015C01809114
:101F1000040290910502A0910602B0910702892B5C
:101F20008A2B8B2B09F499C0C501B4010E94ED2FB7
:101F30000E9479080E941C304B015C010E94290418
:101F4000F42FE52FCB012EA33FA3F8A7E9A76AA79B
:101F50009BA74091A1034423D1F24091A2034111D8
:101F6000D6CFA9016F2F7E2F0E948B05782EBE0140
:101F7000615E7F4FCE0148960E94421976018E0124
:101F8000085E1F4F2EA13FA148A559A56AA57BA5B4
:101F9000CE0141960E94D30EBE016F5E7F4FCE01EF
:101FA0004F960E942B19CE0141960E94A718C80196
:101FB0000E94A7184BA1672DC6010E94CE05182FBD
:101FC000803108F045C0682F70E085EA93E00E94F8
:101FD000C419FC016081CE014F960E949119EBA1BA
:101FE000FCA1EC0FFD1F1083BE01615E7F4FCE018F
:101FF00041960E944219CE0141960E948B07CE0164
:1020000041960E94A7188BA19CA1BC016150710947
:10201000CE014F960E94C41940EE57E0612FFC019B
:1020200080810E943A074BA15CA14230510568F0C3
:10203000EFEFFFEFEC0FFD1FE40FF51F20EE37E091
:10204000612F80810E947D0A03C0812F0E94150CA0
:102050008091A1038093A2035ACFBE01615E7F4F9E
:10206000CE0148960E944219A601BE01685E7F4FCC
:10207000CE0141960E94310EBE016F5E7F4FCE01B0
:102080004F960E942B19CE0141960E94A718CE01AF
:1020900048960E94A71828EE33E040E050E060E246
:1020A00073E083E00E94731368EE72E086EB94E0C5
:1020B0000E941A180E945911CE014F960E94A7182B
:1020C000AB960FB6F894DEBF0FBECDBFDF91CF91B8
:1020D0001F910F91FF90EF90DF90CF90BF90AF9046
:1020E0009F908F907F900895EF92FF920F931F9390
:1020F000CF93DF9300D000D0CDB7DEB749835A83AA
:102100006B837C8379018B819C8129813A81223D7B
:1021100031050CF447C0893C910554F063EF72E03F
:1021200086EB94E00E941A180E94220880E00CC0FE
:10213000813A910564F065EF72E086EB94E00E94CD
:102140001A180E94220881E00E94510F2BC0883289
:10215000910574F4E114F10459F08701015011095B
:10216000C7010E944F080E94220866EE72E013C069
:1021700089978797B8F401501109E016F10690F499
:1021800087010F5F1F4FC70102960E944F080E94F0
:10219000220867EF72E086EB94E00E941A180E9412
:1021A0009B0C7801C70126960FB6F894DEBF0FBED0
:1021B000CDBFDF91CF911F910F91FF90EF900895C8
:1021C000CF93DF9300D000D0CDB7DEB70E942B0DA8
:1021D0006C010E949B0CE12CF12C0E942904B22F6F
:1021E000A32FF42FE52FCB012091A1032223A9F3E4
:1021F0002091A2032111F1CF860197014B2F5A2F75
:102200006F2F7E2F0E9474107C01E7CFCF93DF9356
:1022100000D000D0CDB7DEB749835A836B837C836F
:102220008B819C8129813A81223D3105CCF14CE39F
:1022300050E060E070E04093040250930502609328
:102240000602709307021092A4031092A303893C24
:10225000910544F063EF72E086EB94E00E941A1857
:1022600080E00AC0813A91058CF065EF72E086EB60
:1022700094E00E941A1881E026960FB6F894DEBF0B
:102280000FBECDBFDF91CF910C94510F889744F4CE
:1022900066EE72E086EB94E00E941A180E94E0104D
:1022A00026960FB6F894DEBF0FBECDBFDF91CF915B
:1022B0000895CF93DF9300D000D0CDB7DEB70E9452
:1022C000BB070E942904F42FE52FCB014091A10305
:1022D0004423B9F34091A2034111F3CFA9016F2F19
:1022E0007E2F0E940611EDCFCF93DF9300D000D058
:1022F000CDB7DEB70E941D0A0E94290429833A83C4
:1023000089819A81833D9105BCF381E00E94510F40
:10231000F3CF0E94C8060E9474111F920F920FB64D
:102320000F9211242F933F938F939F93AF93BF935B
:1023300080911D0490911E04A0911F04B09120046F
:1023400030911C0423E0230F2D3720F40196A11DAA
:10235000B11D05C026E8230F0296A11DB11D2093D3
:102360001C0480931D0490931E04A0931F04B0933B
:1023700020048091210490912204A0912304B09123
:1023800024040196A11DB11D809321049093220481
:10239000A0932304B0932404BF91AF919F918F9198
:1023A0003F912F910F900FBE0F901F9018952FB750
:1023B000F89460911D0470911E0480911F04909107
:1023C00020042FBF08953FB7F89480912104909185
:1023D0002204A0912304B091240426B5A89B05C033
:1023E0002F3F19F00196A11DB11D3FBFBA2FA92F94
:1023F000982F8827820F911DA11DB11DBC01CD0111
:1024000042E0660F771F881F991F4A95D1F70895FC
:10241000CF92DF92EF92FF92CF93DF936B017C011B
:102420000E94E311EB01C114D104E104F10479F03D
:102430000E94E3116C1B7D0B683E7340A0F381E0AA
:10244000C81AD108E108F108C851DC4FECCFDF9180
:10245000CF91FF90EF90DF90CF900895789484B55E
:10246000826084BD84B5816084BD85B5826085BD90
:1024700085B5816085BDEEE6F0E080818160808376
:10248000E1E8F0E010828081826080838081816059
:102490008083E0E8F0E0808181608083E1EBF0E020
:1024A000808184608083E0EBF0E0808181608083C4
:1024B000E1E9F0E0808182608083808181608083B7
:1024C000E0E9F0E0808181608083E1EAF0E08081F2
:1024D00082608083808181608083E0EAF0E0808197
:1024E00081608083E1E2F1E080818260808380818D
:1024F00081608083E0E2F1E0808181608083EAE7AF
:10250000F0E080818460808380818260808380812C
:10251000816080838081806880831092C1000895EB
:10252000863308F0865390917B00282F2870977F80
:10253000922B90937B0087702091080290E4299F52
:1025400090011124822B80937C0080917A0080641A
:1025500080937A0080917A0086FDFCCF809178008C
:102560002091790090E0922B089590E0FC01319742
:10257000E131F10508F04AC08827EE58FF4F8F4F30
:102580000C94A031809180008F7703C080918000EF
:102590008F7D80938000089584B58F7702C084B5C5
:1025A0008F7D84BD08958091B0008F7703C08091A6
:1025B000B0008F7D8093B0000895809190008F7758
:1025C00007C0809190008F7D03C080919000877F2D
:1025D0008093900008958091A0008F7707C080912C
:1025E000A0008F7D03C08091A000877F8093A00012
:1025F0000895809120018F7707C0809120018F7D01
:1026000003C080912001877F809320010895CF939C
:10261000DF9390E0FC01EC5DFD4F2491FC01E65955
:10262000FD4F8491882361F190E0880F991FFC0190
:10263000E653FD4FC591D491FC01E055FD4FA591A6
:10264000B491611109C09FB7F894888120958223C5
:102650008883EC912E230BC0623061F49FB7F8940D
:102660003881822F809583238883EC912E2B2C93A5
:102670009FBF06C08FB7F894E8812E2B28838FBFA9
:10268000DF91CF9108951F93CF93DF93282F30E0F0
:10269000F901E252FE4F8491F901EC5DFD4FD491B6
:1026A000F901E659FD4FC491CC23C9F0162F8111D1
:1026B0000E94B512EC2FF0E0EE0FFF1FE055FD4F2A
:1026C000A591B4918FB7F894111105C09C91ED2F8D
:1026D000E095E92302C0EC91ED2BEC938FBFDF91E5
:1026E000CF911F9108953F924F925F926F927F9288
:1026F0008F929F92AF92BF92CF92DF92EF92FF9212
:102700000F931F93CF93DF9300D01F92CDB7DEB707
:1027100029013A0190910902981721F09F3F09F091
:102720002BC304C0E4EEF2E0349004C180930902AC
:10273000E4EEF2E0E491EF3F09F41EC3E23009F465
:1027400080C074F5EE2309F45BC0E13009F0F1C0FC
:102750001092800010928100909181009860909377
:10276000810090918100916090938100282F30E04A
:10277000F901E659FD4FE491F0E0EE0FFF1FE0553F
:10278000FD4F459154915093430440934204F90105
:10279000EC5DFD4FE491E093410433243394CCC0CD
:1027A000E43009F49EC00CF474C0E53009F0C1C0F7
:1027B0001092200110922101909121019860909334
:1027C000210190912101916090932101482F50E0C7
:1027D000FA01E659FD4FE491F0E0EE0FFF1FE055DE
:1027E000FD4F259134913093270420932604FA015C
:1027F000EC5DFD4FE491E0932504B5E03B2E9CC0D9
:1028000014BC15BC94B5926094BD95B5916095BD0E
:10281000282F30E0F901E659FD4FE491F0E0EE0F8A
:10282000FF1FE055FD4F4591549150934A0440934A
:102830004904F901EC5DFD4FE491E0934804312C2B
:102840007BC01092B0001092B1009091B0009260E5
:102850009093B0009091B10091609093B100282FB7
:1028600030E0F901E659FD4FE491F0E0EE0FFF1F73
:10287000E055FD4F4591549150933C0440933B04E7
:10288000F901EC5DFD4FE491E0933A0452E0352EFE
:1028900053C0109290001092910090919100986016
:1028A0009093910090919100916090939100282FC6
:1028B00030E0F901E659FD4FE491F0E0EE0FFF1F23
:1028C000E055FD4F459154915093350440933404A5
:1028D000F901EC5DFD4FE491E093330423E0322EE7
:1028E0002BC01092A0001092A1009091A1009860BE
:1028F0009093A1009091A10091609093A100282F46
:1029000030E0F901E659FD4FE491F0E0EE0FFF1FD2
:10291000E055FD4F4591549150932E0440932D0462
:10292000F901EC5DFD4FE491E0932C0404E0302EBE
:1029300003C03E2E37FC20C28B0161E00E940713CA
:102940004801A12CB12C832D8D7F09F0B4C060E02B
:1029500072E18AE790E0A50194010E948131298308
:102960003A834B835C8369017A0121E0C21AD10862
:10297000E108F1088FEFC816D104E104F10409F071
:1029800008F44CC060E472E48FE090E0A50194018B
:102990000E94813169017A0191E0C91AD108E108E8
:1029A000F108E2E03E1220C0FFEFCF16D104E104AF
:1029B000F10409F008F4DEC160E970ED83E090E015
:1029C000A50194010E94813169017A0181E0C81A50
:1029D000D108E108F1089FEFC916D104E104F10420
:1029E00009F0B8F583E064C0EFEFCE16D104E1043E
:1029F000F104B1F0A8F068E478EE81E090E0A50180
:102A000094010E94813169017A01F1E0CF1AD10865
:102A1000E108F108332009F453C1A3C181E001C0EA
:102A200082E03320A1F044C089819A81AB81BC81CE
:102A30002AE0B595A795979587952A95D1F76C01CA
:102A40007D01F1E0CF1AD108E108F10885E085BDEC
:102A5000A2C068E478EE81E090E0A50194010E94B4
:102A6000813169017A0181E0C81AD108E108F108D1
:102A70009FEFC916D104E104F10409F008F41EC166
:102A800064E274EF80E090E0A50194010E9481313E
:102A900069017A0181E0C81AD108E108F1089FEFC5
:102AA000C916D104E104F10411F008F02BC185E04E
:102AB0008093B10070C060E072E18AE790E0A50108
:102AC00094010E94813169017A01F1E0CF1AD108A5
:102AD000E108F108C114D10421E0E206F10488F014
:102AE00068E478EE81E090E0A50194010E948131D4
:102AF00069017A0181E0C81AD108E108F10883E090
:102B000001C081E091E0391210C090918100987F5E
:102B1000892B80938100411451046104710409F0F0
:102B20003FC02FEF3FEFA90171C0E3E03E120FC09D
:102B300090919100987F892B8093910041145104CA
:102B40006104710469F52FEF3FEFA90181C0F4E042
:102B50003F120FC09091A100987F892B8093A10014
:102B60004114510461047104D9F42FEF3FEFA9011E
:102B700081C025E032120FC090912101987F892BEE
:102B800080932101411451046104710449F42FEF31
:102B90003FEFA90181C0411451046104710471F037
:102BA000D801AA0FBB1FA30192010E94C63128EED3
:102BB00033E040E050E00E945F3103C02FEF3FEF71
:102BC000A90182E03816A1F1831534F0332079F0A1
:102BD00091E03916D9F0D0C0E4E03E1609F44AC0BD
:102BE0003E16B4F1F5E03F1609F456C0C5C0C7BCA7
:102BF00020934B0430934C0440934D0450934E0467
:102C000080916E00826080936E00B6C0D092890081
:102C1000C0928800209344043093450440934604B6
:102C20005093470480916F00826080936F00A4C02E
:102C3000C092B30020933D0430933E0440933F0480
:102C4000509340048091700082608093700094C023
:102C5000D0929900C09298002093360430933704A4
:102C600040933804509339048091710082608093BE
:102C7000710082C0D092A900C092A80020932F04B6
:102C800030933004409331045093320480917200A9
:102C900082608093720070C0D0922901C092280196
:102CA000209328043093290440932A0450932B0442
:102CB000809173008260809373005EC084E0F8CEE0
:102CC0002FEFC216D104E104F104D1F0C8F062E1A3
:102CD0007AE780E090E0A50194010E9481316901CA
:102CE0007A01E1E0CE1AD108E108F108FFEFCF1632
:102CF000D104E104F10411F008F096CE84E0A7CEEF
:102D000083E0A5CE62E17AE780E090E0A50194013E
:102D10000E94813169017A0181E0C81AD108E10875
:102D2000F1089FEFC916D104E104F104C1F0B8F035
:102D300089819A81AB81BC814AE0B595A795979529
:102D400087954A95D1F76C017D01E1E0CE1AD10853
:102D5000E108F108332009F479CE87E0A9CE86E0B6
:102D600060CEEFEFCE16D104E104F10409F050F685
:102D700084E057CE82E09CCE0F900F900F900F9082
:102D8000DF91CF911F910F91FF90EF90DF90CF9047
:102D9000BF90AF909F908F907F906F905F904F907B
:102DA0003F9008958230A9F028F4882349F08130BB
:102DB00051F00895843009F1E8F0853009F1089563
:102DC00010926E00089580916F008D7F80936F0048
:102DD0000895809170008D7F8093700081E08093D2
:102DE000B0008091B100887F84608093B100109220
:102DF000B300089510927100089510927200089522
:102E0000109273000895CF93C82F809109028C13FC
:102E100007C0E4EEF2E0E4918FEF8093090201C075
:102E2000EFEF8E2F0E94D21660E08C2FCF910C9482
:102E300043131F920F920FB60F9211240BB60F92ED
:102E40002F933F934F935F936F937F938F939F93B2
:102E5000AF93BF93EF93FF9380913D0490913E0415
:102E6000A0913F04B0914004892B8A2B8B2B51F108
:102E700080913A04E0913B04F0913C0490818927D1
:102E8000808380913D0490913E04A0913F04B091D5
:102E90004004181619061A061B06C4F480913D0456
:102EA00090913E04A0913F04B09140040197A10984
:102EB000B10980933D0490933E04A0933F04B093E6
:102EC000400404C0809109020E940317FF91EF9112
:102ED000BF91AF919F918F917F916F915F914F9132
:102EE0003F912F910F900BBE0F900FBE0F901F9030
:102EF0001895CF92DF92EF92FF920F931F93CF938B
:102F0000DF936C01EB017B01E40EF51E00E010E0A5
:102F1000CE15DF0561F06991D601ED91FC9101902C
:102F2000F081E02DC6011995080F191FF1CFC801D6
:102F3000DF91CF911F910F91FF90EF90DF90CF9095
:102F400008956115710579F0FB0101900020E9F702
:102F50003197AF01461B570BDC01ED91FC910280CC
:102F6000F381E02D199480E090E00895AF92BF9234
:102F7000CF92DF92EF92FF920F931F93CF93DF9345
:102F80006C017B01C0E0D0E000E010E0D7011496B6
:102F90008D919C911597C817D90788F4D601ED91AA
:102FA000FC91A080B180BE01C7010E94D619682F94
:102FB000C601F5011995080F191F2196E7CFC80121
:102FC000DF91CF911F910F91FF90EF90DF90CF9005
:102FD000BF90AF9008950C94A117DC01ED91FC9186
:102FE0000190F081E02D19940F931F93CF93DF93FD
:102FF000EC016DE00E94ED178C016AE0CE010E94A9
:10300000ED17800F911FDF91CF911F910F910895C0
:103010000F931F93CF93DF93EC010E94B6178C019F
:10302000CE010E94F417800F911FDF91CF911F9165
:103030000F9108950F931F93CF93DF93EC010E949C
:10304000A1178C01CE010E94F417800F911FDF9110
:10305000CF911F910F9108950F931F93CF93DF93FB
:10306000EC010E94ED178C01CE010E94F417800F35
:10307000911FDF91CF911F910F9108958F929F9291
:10308000AF92BF92CF92DF92EF92FF920F931F9376
:10309000CF93DF93CDB7DEB7A1970FB6F894DEBF1D
:1030A0000FBECDBF6C01142FE52FCB01022F19A24B
:1030B000223008F40AE07E0121E2E20EF11C802EAB
:1030C000912CA12CB12C612F7E2FA50194010E947F
:1030D0005F31029F1019112481E0E81AF1081A30BB
:1030E00014F4105D01C0195CF7011083122FE32F57
:1030F000CA01232B242B252B31F7B701C6010E94CF
:10310000A117A1960FB6F894DEBF0FBECDBFDF9119
:10311000CF911F910F91FF90EF90DF90CF90BF90D4
:10312000AF909F908F9008952115310541F4DC01F7
:10313000ED91FC910190F081E02D642F19940C9495
:103140003E189A01AB0160E070E00C949418FC0109
:10315000808191810C94852DCF93DF93EC01888140
:103160009981009711F00E94852D198218821D8285
:103170001C821B821A82DF91CF9108950F931F93B7
:10318000CF93DF93EC018B016F5F7F4F8881998133
:103190000E94072C009731F0998388831B830A8350
:1031A00081E001C080E0DF91CF911F910F910895E0
:1031B000CF93DF93EC0188819981892B29F08A8153
:1031C0009B818617970760F4CE010E94BE18882362
:1031D00041F08C819D81892B19F4E881F98110825D
:1031E00081E0DF91CF910895EF92FF920F931F93AB
:1031F000CF93DF93EC017B018A01BA010E94D818BA
:10320000811104C0CE010E94AC1807C01D830C833D
:10321000B701888199810E94E62ECE01DF91CF917E
:103220001F910F91FF90EF900895FC011182108281
:10323000138212821582148216826115710551F073
:10324000FB0101900020E9F73197AF01461B570BB6
:103250000C94F4180895CF93DF93EC01FB018617CB
:10326000970761F0608171816115710529F04481D2
:1032700055810E94F41802C00E94AC18CE01DF9163
:10328000CF910895FC01118210821382128215825F
:10329000148216820C942B19CF93DF93EC016115E5
:1032A000710559F0FB0101900020E9F73197AF015A
:1032B000461B570B0E94F41802C00E94AC18CE01A6
:1032C000DF91CF910895EF92FF920F931F93CF93C9
:1032D000DF93FC01248135816115710511F480E0D3
:1032E00019C041155105A9F07B01EC018A01020FBB
:1032F000131FB8010E94D818882389F328813981C7
:103300008C819D81B701820F931F0E94E62E1D8341
:103310000C8381E0DF91CF911F910F91FF90EF908F
:103320000895CF93DF931F921F92CDB7DEB76983C5
:103330001A8241E050E0BE016F5F7F4F0E94631927
:103340000F900F90DF91CF910895FC01248135817A
:10335000232B31F421E061157105A1F0FB0108C0B8
:10336000FC01808191816115710531F421E0FC013E
:103370008081882339F005C00E94DD2E21E0892B51
:1033800009F020E0822F0895FC0124813581621725
:10339000730720F480819181009729F410924F04E3
:1033A0008FE494E00895860F971F0895FC0124810F
:1033B00035816217730748F480819181009729F065
:1033C000FC01E60FF71F8081089580E00895FC015D
:1033D00080819181009711F00C94AA2E60E070E03A
:1033E000CB0108950895FC0124853585F901E05C41
:1033F000FF4F80819181329620813181821B930B16
:103400008F7399270895DC011C96ED91FC911D970F
:10341000DF01A05CBF4F2D913C91119712968D91C9
:103420009C9111972817390739F08D919C91E80FDD
:10343000F91F808190E008958FEF9FEF0895FC01C0
:10344000A485B585FD01E05CFF4F20813181329676
:10345000808191812817390779F080819181A80FA7
:10346000B91F8C91208131812F5F3F4F2F733327FC
:103470003183208390E008958FEF9FEF0895FC0142
:1034800081A1882329F0A489B5898C9186FFFBCF7F
:1034900011A208950F931F93CF93DF93FC01A6858C
:1034A000B7858D01005C1F4FE801888199810196E5
:1034B0008F739927AD014E5B5F4FEA0128813981F7
:1034C00082179307D1F3E80128813981A20FB31F36
:1034D0006C93A685B785A05CBF4F11969C938E9385
:1034E000A689B7892C9181E090E0078C02C0880FF3
:1034F000991F0A94E2F7822B8C9381E081A30488C0
:10350000F589E02D80818064808381E090E0DF9107
:10351000CF911F910F910895FB01E05CFF4F208137
:1035200031812F5F3F4F2F733327DB01AE5BBF4FDE
:103530004D915C912417350741F040815181DB01A9
:10354000A40FB51F8C933183208308951F920F928F
:103550000FB60F9211240BB60F922F933F934F93F8
:103560005F936F937F938F939F93AF93BF93EF93EB
:10357000FF938091C00082FD07C08091C60064EB7C
:1035800076E00E948C1A02C08091C600FF91EF91F4
:10359000BF91AF919F918F917F916F915F914F916B
:1035A0003F912F910F900BBE0F900FBE0F901F9069
:1035B00018951F920F920FB60F9211240BB60F920F
:1035C0002F933F934F935F936F937F938F939F932B
:1035D000AF93BF93EF93FF938091C80082FD07C024
:1035E0008091CE006CE276E00E948C1A02C080913D
:1035F000CE00FF91EF91BF91AF919F918F917F91FD
:103600006F915F914F913F912F910F900BBE0F9053
:103610000FBE0F901F9018951F920F920FB60F922A
:1036200011240BB60F922F933F934F935F936F9399
:103630007F938F939F93AF93BF93EF93FF9380916B
:10364000D00082FD07C08091D60064EA75E00E9438
:103650008C1A02C08091D600FF91EF91BF91AF917B
:103660009F918F917F916F915F914F913F912F919A
:103670000F900BBE0F900FBE0F901F9018951F92CA
:103680000F920FB60F9211240BB60F922F933F9308
:103690004F935F936F937F938F939F93AF93BF935A
:1036A000EF93FF938091300182FD07C08091360136
:1036B0006CE175E00E948C1A02C080913601FF9186
:1036C000EF91BF91AF919F918F917F916F915F919A
:1036D0004F913F912F910F900BBE0F900FBE0F9007
:1036E0001F9018951F920F920FB60F9211240BB6D0
:1036F0000F922F933F938F939F93EF93FF9320917C
:10370000B0063091B1068091B2069091B3062817A9
:10371000390731F48091C1008F7D8093C10014C0BE
:10372000E091B206F091B306E059F94F2081809103
:10373000B2069091B30601968F7399279093B306C2
:103740008093B2062093C600FF91EF919F918F91D5
:103750003F912F910F900BBE0F900FBE0F901F90B7
:1037600018951F920F920FB60F9211240BB60F925D
:103770002F933F938F939F93EF93FF93209128066E
:103780003091290680912A0690912B062817390737
:1037900031F48091C9008F7D8093C90014C0E091FD
:1037A0002A06F0912B06E851FA4F208180912A06D3
:1037B00090912B0601968F73992790932B068093F7
:1037C0002A062093CE00FF91EF919F918F913F9118
:1037D0002F910F900BBE0F900FBE0F901F9018955A
:1037E0001F920F920FB60F9211240BB60F922F93C8
:1037F0003F938F939F93EF93FF932091A005309178
:10380000A1058091A2059091A3052817390731F4ED
:103810008091D1008F7D8093D10014C0E091A205EA
:10382000F091A305E05AFA4F20818091A205909172
:10383000A30501968F7399279093A3058093A20502
:103840002093D600FF91EF919F918F913F912F91FF
:103850000F900BBE0F900FBE0F901F9018951F92E8
:103860000F920FB60F9211240BB60F922F933F9326
:103870008F939F93EF93FF93209118053091190533
:1038800080911A0590911B052817390731F4809112
:1038900031018F7D8093310114C0E0911A05F091C0
:1038A0001B05E852FB4F208180911A0590911B0562
:1038B00001968F73992790931B0580931A05209387
:1038C0003601FF91EF919F918F913F912F910F9032
:1038D0000BBE0F900FBE0F901F901895CF92DF92E6
:1038E000EF92FF920F931F93CF93DF93EC016A0146
:1038F0007B014115514E6105710509F1EC89FD8986
:1039000081E090E008A002C0880F991F0A94E2F7B6
:10391000808360E079E08DE390E0A70196010E944A
:103920005F3189019A010150110921093109369548
:10393000279517950795980101151041A8F0EC8976
:10394000FD89108260E874E88EE190E0A70196019D
:103950000E945F31DA01C9010197A109B109B69549
:10396000A795979587959C01E889F9893083EA891D
:10397000FB89208319A2EE89FF89408181E090E0D4
:103980009C010C8C02C0220F331F0A94E2F7242BF7
:103990002083EE89FF8940819C010D8C02C0220F9B
:1039A000331F0A94E2F7242B2083EE89FF8940819C
:1039B0009C010E8C02C0220F331F0A94E2F7242BC5
:1039C0002083EE89FF8920810F8C02C0880F991F08
:1039D0000A94E2F7809582238083DF91CF911F9133
:1039E0000F91FF90EF90DF90CF900895CF92DF92EC
:1039F000EF92FF92E6EBF4E01382128288EEC82E7B
:103A000083E0D82EE12CF12CC482D582E682F782A5
:103A10006DEF72E07183608384EB96E09587848715
:103A200080E796E09787868785EC90E0918B808B86
:103A300084EC90E0938B828B80EC90E0958B848B70
:103A400081EC90E0978B868B82EC90E0918F808F59
:103A500086EC90E0938F828F44E0448F33E0358F83
:103A600027E0268F95E0978F81E080A3E4E9F4E0DA
:103A700013821282C482D582E682F78271836083C8
:103A8000ACE2B6E0B587A487A8EEB5E0B787A68715
:103A9000ADECB0E0B18BA08BACECB0E0B38BA28B03
:103AA000A8ECB0E0B58BA48BA9ECB0E0B78BA68BEB
:103AB000AAECB0E0B18FA08FAEECB0E0B38FA28FD4
:103AC000448F358F268F978F80A3E2E7F4E013822F
:103AD0001282C482D582E682F78271836083A4EA6F
:103AE000B5E0B587A487A0E6B5E0B787A687A5EDC2
:103AF000B0E0B18BA08BA4EDB0E0B38BA28BA0EDB6
:103B0000B0E0B58BA48BA1EDB0E0B78BA68BA2ED96
:103B1000B0E0B18FA08FA6EDB0E0B38FA28F448F3D
:103B2000358F268F978F80A3E0E5F4E01382128211
:103B3000C482D582E682F782718360836CE175E08E
:103B40007587648768ED74E07787668765E371E061
:103B5000718B608B64E371E0738B628B60E371E067
:103B6000758B648B61E371E0778B668B62E371E048
:103B7000718F608F66E371E0738F628F448F358F32
:103B8000268F978F80A3FF90EF90DF90CF900895BE
:103B9000009729F0BC0180E090E00C94A12E0895DC
:103BA000CF93DF9300D01F92CDB7DEB761157105BB
:103BB0008105910579F09B01AC0169833A834B83C0
:103BC0005C830E949D2E29813A814B815C810E94F9
:103BD000813103C060E070E0CB010F900F900F9037
:103BE0000F90DF91CF9108954F925F926F927F92E5
:103BF000AF92BF92CF92DF92EF92FF920F931F93FB
:103C0000CF93DF93CDB7DEB729013A019B01AC0119
:103C100024193509460957098A899B89AC89BD89C8
:103C2000BC01CD016A197B098C099D090E943B31B9
:103C3000A801970124193509460957090E948131C5
:103C4000CA01B9016A0D7B1D8C1D9D1DDF91CF91AD
:103C50001F910F91FF90EF90DF90CF90BF90AF90AA
:103C60007F906F905F904F9008952F923F924F9268
:103C70005F926F927F928F929F92AF92BF92CF92FC
:103C8000DF92EF92FF920F931F93CF93DF9300D0B9
:103C9000CDB7DEB74C017B836A836A0159011701F6
:103CA0009801241B350B37FF03C03195219531094D
:103CB000C5014A815B81841B950B97FF03C09195D9
:103CC0008195910951E059838217930714F0198265
:103CD0000BC09A2D8B2D5801092F182F9A818B819B
:103CE000DB82CA82C92ED82E8A819B81A816B9068A
:103CF0005CF49C2D8D2D6801092F182F9A818B81E2
:103D0000BB82AA82A92EB82E2501AA81BB814A1A9C
:103D10005B0A38016C187D0877FE03C071946194CA
:103D20007108720157FE03C0BFEFEB1AFB0AF5944E
:103D3000E794C016D1061CF00FEF1FEF1FC001E083
:103D400010E01CC0D401ED91FC91B9810084F18593
:103D5000E02D9101BB23C1F04A815B81B601C40112
:103D60001995E618F708F7FE04C0C00ED11EE40C42
:103D7000F51CEA81FB813196FB83EA834A815B81F2
:103D8000A416B506FCF604C0A6016A817B81E7CFC4
:103D90000F900F900F90DF91CF911F910F91FF9097
:103DA000EF90DF90CF90BF90AF909F908F907F90DB
:103DB0006F905F904F903F902F9008950895DC0191
:103DC000ED91FC910480F581E02D19940F931F93E0
:103DD000DC01ED91FC91008CF18DE02D19951F9186
:103DE0000F9108950F931F93DC01ED91FC91028CCC
:103DF000F38DE02D19951F910F910895EF92FF9289
:103E00000F931F93DC01ED91FC91048CF58DE02D57
:103E100019951F910F91FF90EF9008950895AF921B
:103E2000BF92CF92DF92EF92FF920F931F93CF93A7
:103E3000DF9300D01F92CDB7DEB75C016901DC01D2
:103E4000ED91FC910680F781E02D4B835C836983C3
:103E50007A831995D501ED91FC914B815C81C40E5B
:103E6000D51EB1E0CB1AD1080088F189E02D780188
:103E7000860169817A819B01C5011995D501ED9172
:103E8000FC910288F389E02DC5010F900F900F90EF
:103E90000F90DF91CF911F910F91FF90EF90DF90E6
:103EA000CF90BF90AF901994AF92BF92CF92DF9214
:103EB000EF92FF920F931F93CF93DF9300D01F9247
:103EC000CDB7DEB75C016901DC01ED91FC910680A4
:103ED000F781E02D4B835C8369837A831995D50143
:103EE000ED91FC9169817A819B012C0D3D1D215042
:103EF00031090088F189E02D78014B815C818A01CC
:103F0000C5011995D501ED91FC910288F389E02D49
:103F1000C5010F900F900F900F90DF91CF911F91DF
:103F20000F91FF90EF90DF90CF90BF90AF901994DA
:103F30004F925F926F927F928F929F92AF92BF92B9
:103F4000CF92DF92EF92FF920F931F93CF93DF9365
:103F50001F921F92CDB7DEB76C015A01390148019B
:103F6000DC01ED91FC910680F781E02D69837A8375
:103F700019956981462E7A81572E640C751CD601DD
:103F8000ED91FC91461457046CF40484F585E02D02
:103F900087019401A501B201C6011995BFEF4B1A23
:103FA0005B0AEDCF0288F389E02DC6010F900F90D8
:103FB000DF91CF911F910F91FF90EF90DF90CF9005
:103FC000BF90AF909F908F907F906F905F904F9039
:103FD0001994EF92FF920F931F93DC01ED91FC91E6
:103FE00011971A960D911C911B9718962D913C9143
:103FF0001997048CF58DE02D7B0140E050E060E0E6
:1040000070E019951F910F91FF90EF900895CF9256
:10401000DF92EF92FF920F931F93CF93DF9300D025
:1040200000D0CDB7DEB76C01DC01ED91FC916217D9
:10403000730789F4041715072CF4942F852FA80112
:10404000092F182F041B150B98012F5F3F4F008C71
:10405000F18DE02D12C04017510709F526173707DB
:104060002CF4962F872FB901292F382F261B370BB9
:104070002F5F3F4F028CF38DE02D8701C60119950C
:1040800026960FB6F894DEBF0FBECDBFDF91CF915D
:104090001F910F91FF90EF90DF90CF9008950680D1
:1040A000F781E02D2D833E834B835C8369837A8384
:1040B0001995D601ED91FC910088F189E02D2D81B3
:1040C0003E814B815C8169817A81C6011995D60157
:1040D000ED91FC910288F389E02DC60126960FB67A
:1040E000F894DEBF0FBECDBFDF91CF911F910F912E
:1040F000FF90EF90DF90CF9019946F927F928F9204
:104100009F92AF92BF92CF92DF92EF92FF920F9366
:104110001F93CF93DF93EC014B015A0169013801E2
:10412000E881F9810680F781E02D1995E881F98110
:104130000684F785E02D87019601A501B401CE0123
:104140001995E881F981A501460D571D4150510986
:104150000684F785E02D9601B401CE011995E8811A
:10416000F9810484F585E02D9301A501B401CE0108
:104170001995E881F981C80CD91CB6016150710903
:104180000484F585E02D9301A501CE011995E88100
:10419000F9810288F389E02DCE01DF91CF911F9143
:1041A0000F91FF90EF90DF90CF90BF90AF909F90D6
:1041B0008F907F906F9019940895FC016370658BC8
:1041C0008481958126813781613039F0633029F00F
:1041D0009187808733872287089531872087938747
:1041E00082870895FC01138212828DE093E091830F
:1041F0008083758364835783468371876087538781
:104200004287158A158614861786168681E0848B68
:104210002FEF3FEF338B228B318B208B868B178ACE
:10422000118E108E08952F923F924F925F926F924F
:104230007F928F929F92AF92BF92CF92DF92EF9236
:10424000FF920F931F93CF93DF93CDB7DEB76C9799
:104250000FB6F894DEBF0FBECDBF9C8F8B8F5B0176
:104260001A011F830E833701C982DC0158964D91D4
:104270005C9159974115510509F0E5C018968D914B
:104280009C911997681779070CF0CAC11A968D91FD
:104290009C911B97281639060CF0C2C18C2C912CCE
:1042A000FB0136E0C39EE00DF11D1124FB87EA8778
:1042B0001E161F060CF0B4C1C40133E0880F991F0D
:1042C0003A95E1F79D878C87820D931D1816190684
:1042D0000CF0A6C157968C91811103C0203B08F0C9
:1042E0002F5FAB8DBC8DED91FC9111970680F7810E
:1042F000E02DCD012A8F19952A8DB5E02B9F9001D5
:104300001124F5013596FF87EE872501BB82AA822D
:10431000A9014A195B09598B488BC10108969B8BEF
:104320008A8BE889F989E40DF51DEB51FD4F9491D5
:1043300098873D822C826101A885A0FF13C0AB8DB8
:10434000BC8DED91FC91B981B13031F40084F185DF
:10435000E02D2E813F8116C00284F385E02DEE8092
:10436000FF801AC0EE81FF816E167F06F1F0AB8DE3
:10437000BC8DED91FC91B981B13051F40084F1858F
:10438000E02D9301A601B2018B8D9C8D19950DC076
:104390000284F385E02D7301840194014C815D81D9
:1043A0006A817B818B8D9C8D1995E885E695E887E0
:1043B0002C813D81280D391D3D832C833FEFC31A8D
:1043C000D30A4A895B89C416D50609F0B5CF8A811C
:1043D0009B81880D991D9B838A839FEF491A590AF7
:1043E000AE85BF854A165B0609F09BCFEE81FF8143
:1043F0006E167F0609F4F2C0EB8DFC8DA081B181B1
:10440000F981F13079F4B5016B5F7F4F1C96ED9126
:10441000FC911D97830128E030E0A1018B8D9C8DDC
:104420001995DCC06A857B85681979091A96ED9122
:10443000FC911B9773010C851D859401A1018B8D47
:104440009C8D1995CBC0FA01349694913297659161
:104450007491291BCB01B7E02B9F800D911D112476
:10446000FA01259134913B8B2A8BFC0145915491A3
:104470005B834A83FC013296C490319654915C87E9
:10448000329614913196D4908981823058F0612E01
:10449000012E000C7708AD2D0D2C000CBB0BB9873D
:1044A000A88704C019861886612C712CAB8DBC8D31
:1044B000ED91FC9111970680F781E02DCD011995C2
:1044C000B9818B2E912C689CC001699C900D789CC1
:1044D000900D1124FC01EA0DFB1DF98BE88B1C8269
:1044E000712C612CE12F110FFF0B95012E0F3F1F37
:1044F0003B872A87AC0CB11CA5014E0F5F1F5F8B59
:104500004E8BC1018D0D911DD7FC9A95998F888F87
:104510004C85641608F062C0862D90E04885598568
:10452000480F591F489D9001499D300D589D300DF1
:104530001124D901A20DB31DBF87AE87AA84BB8405
:1045400048885988DC80BA85DB1AE88DF98DE80F38
:10455000F91FFD8BEC8B8D2D8A0D2E893F89A216BC
:10456000B306B9F1877061F48A819B810196EA896B
:10457000FB89AA81BB81EA0FFB1F74909B838A830E
:1045800077FE20C0AB8DBC8DED91FC91B981B1302F
:1045900061F40084F185E02D2E813F814C895D8995
:1045A000B5018B8D9C8D19950DC00284F385E02D8E
:1045B000EE80FF80840194014E855F85B2018B8D72
:1045C0009C8D1995770C480C591CEFEFAE1ABE0A5A
:1045D000C2CF3C813C0D3C8363949ACFAB8DBC8DA4
:1045E000ED91FC9111970288F389E02DCD016C9635
:1045F0000FB6F894DEBF0FBECDBFDF91CF911F91F4
:104600000F91FF90EF90DF90CF90BF90AF909F9071
:104610008F907F906F905F904F903F902F90199464
:104620006C960FB6F894DEBF0FBECDBFDF91CF9171
:104630001F910F91FF90EF90DF90CF90BF90AF90C0
:104640009F908F907F906F905F904F903F902F90B2
:104650000895AF92BF92CF92EF92FF920F931F9364
:10466000CF93DF93EC01262F888D998D009709F069
:1046700040C06A3059F41D861C862C898E859F8522
:1046800038E0239F800D911D112441C06D3009F445
:10469000AAC08E898823C1F03C898C859D8546E01F
:1046A000349F800D911D112448855985481759075D
:1046B0005CF41D861C868E859F8548E0349F800DA6
:1046C000911D11249F878E87EA88FB8808891989A4
:1046D0004E855F856C857D85CC88CE010E94132137
:1046E0002C898C859D8536E0239F800D911D11249A
:1046F00042C06A3079F41D861C862C89FC013696EE
:10470000E4918E859F852E9F800D911D11249F879A
:104710008E8769C06D3009F466C0FC01349634910F
:10472000631708F460C03196E491E61708F45BC0A3
:10473000FC013296A590B490462F50E0431B5109DE
:1047400037E0349FB001359F700D1124A60EB71EBF
:10475000F501329634913196E491332311F0E11151
:104760000DC0F5013496E4912C898C859D85E29FDE
:10477000800D911D11249D878C8735C0F5013596DC
:1047800044915E89552311F16C89E32FF0E0E40F29
:10479000F11D47FDFA956E9FD0016F9FB00D11245A
:1047A0004C855D854A0F5B1FE885F985E417F507A1
:1047B0006CF41D861C86FC013696E4918E859F85DF
:1047C0006E9F800D911D11249F878E87EA88FB883C
:1047D000088919894E855F856C857D85CC88CE01D9
:1047E0000E941321BECF81E090E0DF91CF911F9115
:1047F0000F91FF90EF90CF90BF90AF900895FC0184
:1048000075876487578746870895611101C061E005
:10481000FC01648B0895FC01738B628B718B608B40
:104820000895FC01718B608B538B428B0895FC01C2
:10483000668B0895DC019C96ED91FC919D9790818B
:10484000D1968C91892B80830895EF92FF920F93DC
:104850001F93DC01ED91FC910284F385E02D78013A
:10486000890121E030E019951F910F91FF90EF90A1
:104870000895EF92FF920F931F93DC01ED91FC914D
:104880000284F385E02D780101E010E019951F9175
:104890000F91FF90EF9008950F931F93CF93DF93A5
:1048A00000D000D0CDB7DEB78C01DC01ED91FC91DA
:1048B0000680F781E02D2D833E834B835C836983E3
:1048C0007A831995D801ED91FC910084F185E02D52
:1048D0002D813E814B815C8169817A81C801199566
:1048E000D801ED91FC910288F389E02DC80126964C
:1048F0000FB6F894DEBF0FBECDBFDF91CF911F91F1
:104900000F911994EF92FF920F931F93CF93DF9320
:1049100000D000D0CDB7DEB77C01DC01ED91FC9179
:104920000680F781E02D2D833E834B835C83698372
:104930007A831995D701ED91FC910484F585E02DDA
:104940002D813E814B815C8169817A81C7011995F6
:10495000D701ED91FC910288F389E02DC7012696DD
:104960000FB6F894DEBF0FBECDBFDF91CF911F9180
:104970000F91FF90EF901994EF92FF920F931F9376
:10498000CF93DF9300D000D0CDB7DEB77C01DC0140
:10499000ED91FC910680F781E02D2D833E834B83C2
:1049A0005C8369837A831995D701ED91FC91068424
:1049B000F785E02D2D813E814B815C8169817A8173
:1049C000C7011995D701ED91FC910288F389E02D7B
:1049D000C70126960FB6F894DEBF0FBECDBFDF919C
:1049E000CF911F910F91FF90EF901994CF92DF928A
:1049F000EF92FF920F931F93CF93DF9300D000D0DD
:104A0000CDB7DEB76C01DC01ED91FC910680F7813A
:104A1000E02D2D833E834B835C8369837A831995D4
:104A2000D601ED91FC910284F385E02D2D813E812C
:104A30004B815C8169817A81C6011995D601ED911E
:104A4000FC910288F389E02DC60126960FB6F894F2
:104A5000DEBF0FBECDBFDF91CF911F910F91FF90B1
:104A6000EF90DF90CF901994CF93DF93EC0189A161
:104A700087FF09C084E00E94412E81E00E94332E0E
:104A800080E00E943C2EECA5FDA5908189A980952F
:104A900089238083DF91CF910895EF92FF920F9346
:104AA0001F93CF93DF931F92CDB7DEB77C01062F04
:104AB000142F40E451E060EF70E029830E94F2205F
:104AC00085E393E0D70111969C938E935E960C93A9
:104AD0005E975F961C935F97298190962C93909791
:104AE0008FEF91968C93919792968C939297939641
:104AF0008C939397F701128E138E148E158E602F60
:104B0000000F770BFB01E659FD4F8491E82FF0E091
:104B1000EE0FFF1FE055FD4F859194919D969C935C
:104B20008E939C97FB01EC5DFD4FE491D196EC9345
:104B3000D197412F110F550BFA01E659FD4FE49122
:104B4000F0E0EE0FFF1FE055FD4F85919491F701C6
:104B500093A782A7FA01EC5DFD4FE491D296EC9306
:104B6000D29799961C921E929897D0961C92D097A5
:104B700095961C921E9294979E961C929E9797963D
:104B80001C921E9296979F961C920F90DF91CF9148
:104B90001F910F91FF90EF900895FC0181A187FF75
:104BA00005C06EBD0DB407FEFDCF089528E030E0CE
:104BB00090E8A4A1B5A186A5492F462319F04C91F0
:104BC000842B03C04C91809584238C93A0A5B1A520
:104BD0004C9180A9809584238C93A0A5B1A54C917C
:104BE00080A9842B8C9396952150310911F7089553
:104BF000CF93DF93EC01EAA5FBA590818AA980956C
:104C000089238083CE010E94CD25EAA5FBA5908152
:104C10008AA9892B8083DF91CF910895CF93DF9369
:104C2000EC01411551056105710521F440E052E1A7
:104C30006AE770E04A8F5B8F6C8F7D8F61E08F8DAC
:104C40000E94071360E08F8D0E94431361E08E8DF8
:104C50000E94071361E08E8D0E94431389A187FD96
:104C600016C061E08AA10E94071360E08AA10E9439
:104C7000431361E089A10E94071361E089A10E94AA
:104C800043138BA187FD03C060E00E94071389A135
:104C900087FD0E941D2E88A187FD21C061E00E9432
:104CA000071361E088A10E94431364E670E080E08E
:104CB00090E00E94081260E088A10E94431364E61D
:104CC00070E080E090E00E94081261E088A10E94FC
:104CD000431368EC70E080E090E00E940812E881E5
:104CE000F9810680F781E02DCE0119956FEECE0196
:104CF0000E94F82563E0CE010E94CD2560E8CE0138
:104D00000E94CD2562E0CE010E94CD256FECCE0140
:104D10000E94F82560E0CE010E94CD2561ECCE0115
:104D20000E94CD2560E3CE010E94CD256DEECE011F
:104D30000E94F82564E6CE010E94CD2563E0CE01F5
:104D40000E94CD2562E1CE010E94CD2561E8CE0111
:104D50000E94CD2568EECE010E94F82565E8CE01BF
:104D60000E94CD2560E0CE010E94CD2568E7CE01EE
:104D70000E94CD256BECCE010E94F82569E3CE019F
:104D80000E94CD256CE2CE010E94CD2560E0CE01CF
:104D90000E94CD2564E3CE010E94CD2562E0CE01C4
:104DA0000E94CD2567EFCE010E94F82560E2CE017A
:104DB0000E94CD256AEECE010E94F82560E0CE016A
:104DC0000E94CD2560E0CE010E94CD2560ECCE0191
:104DD0000E94F82563E2CE010E94CD2561ECCE0150
:104DE0000E94F82560E1CE010E94CD2565ECCE0140
:104DF0000E94F8256EE3CE010E94CD2568E2CE0127
:104E00000E94CD2567ECCE010E94F82566E8CE0110
:104E10000E94CD2566E3CE010E94F82568E4CE010C
:104E20000E94CD2567E3CE010E94F82589A187FF66
:104E300009C01EBC0DB407FEFDCF1EBC0DB407FE9D
:104E4000FDCF08C060E0CE010E94CD2560E0CE011C
:104E50000E94CD256AE3CE010E94F82565E5CE01CA
:104E60000E94CD2561EBCE010E94F82560E0CE01C5
:104E70000E94CD2568E1CE010E94CD2566EBCE01D2
:104E80000E94F82568E0CE010E94CD2562E8CE019F
:104E90000E94CD2567E2CE010E94CD2562EFCE01B2
:104EA0000E94F82560E0CE010E94CD2566E2CE0189
:104EB0000E94F82561E0CE010E94CD2560EECE0172
:104EC0000E94F8256FE0CE010E94CD2561E3CE015E
:104ED0000E94CD256BE2CE010E94CD256CE0CE0173
:104EE0000E94CD256EE0CE010E94CD2568E0CE0166
:104EF0000E94CD256EE4CE010E94CD2561EFCE014A
:104F00000E94CD2567E3CE010E94CD2567E0CE014A
:104F10000E94CD2560E1CE010E94CD2563E0CE0147
:104F20000E94CD256EE0CE010E94CD2569E0CE0124
:104F30000E94CD2560E0CE010E94CD2561EECE011C
:104F40000E94F82560E0CE010E94CD256EE0CE01E2
:104F50000E94CD2564E1CE010E94CD2563E0CE0103
:104F60000E94CD2561E1CE010E94CD2567E0CE01F2
:104F70000E94CD2561E3CE010E94CD2561ECCE01DA
:104F80000E94CD2568E4CE010E94CD2568E0CE01C7
:104F90000E94CD256FE0CE010E94CD256CE0CE01B0
:104FA0000E94CD2561E3CE010E94CD2566E3CE01AE
:104FB0000E94CD256FE0CE010E94CD2561E1CE019A
:104FC0000E94F82568E770E080E090E00E940812F7
:104FD00069E2CE010E94F82568E770E080E090E089
:104FE0000E940812E881F9810288F389E02DCE0140
:104FF000199580EF90E09987888780E491E09B87FE
:105000008A87DF91CF9108951F93CF93DF93EC01AF
:1050100063706D8B6230C1F0633001F1613051F02B
:1050200080EF90E09987888780E491E09B878A876A
:1050300018E41DC080E491E09987888780EF90E0B4
:105040009B878A8718E213C080EF90E09987888752
:1050500080E491E09B878A8718E809C080E491E0AA
:105060009987888780EF90E09B878A8718EEE88190
:10507000F9810680F781E02DCE01199566E3CE0116
:105080000E94F825612FCE010E94CD25E881F9818B
:105090000288F389E02DCE01DF91CF911F91199401
:1050A0000F931F93CF93DF931F92CDB7DEB78C0181
:1050B000DC01ED91FC910680F781E02D6983199563
:1050C0006981611102C060E201C061E2C8010E9411
:1050D000F825D801ED91FC910288F389E02DC801F3
:1050E0000F90DF91CF911F910F9119948F929F9202
:1050F000AF92BF92CF92DF92EF92FF920F931F93E6
:10510000CF93DF93EC01490181E0881A9108860E64
:10511000971EC401A0E0B0E04B01A12CB12C5401BA
:1051200099248824882A992AAA2ABB2A680181E01E
:10513000C81AD108C40ED51EC601A0E0B0E06A01AD
:10514000E12CF12C7601DD24CC24C82AD92AEA2AC4
:10515000FB2A6AE2CE010E94F82529A16B2D772750
:105160008827992727FF18C06EBD0DB407FEFDCF15
:10517000C501AA27BB278EBD0DB407FEFDCFBB27F7
:10518000AB2D9A2D892D8EBD0DB407FEFDCF8EBCA3
:105190000DB407FEFDCF14C0CE010E94CD25B50190
:1051A00088279927CE010E94CD2599278B2D7A2D0E
:1051B000692DCE010E94CD25682DCE010E94CD25FE
:1051C0006BE2CE010E94F82529A16F2D7727882751
:1051D000992727FF18C06EBD0DB407FEFDCFC7018C
:1051E000AA27BB278EBD0DB407FEFDCFBB27AF2D71
:1051F0009E2D8D2D8EBD0DB407FEFDCFCEBC0DB402
:1052000007FEFDCF14C0CE010E94CD25B70188272F
:105210009927CE010E94CD2599278F2D7E2D6D2DAA
:10522000CE010E94CD256C2DCE010E94CD256CE2D1
:10523000CE01DF91CF911F910F91FF90EF90DF9002
:10524000CF90BF90AF909F908F900C94F8251F93B4
:10525000CF93DF93262FFC0131A137FF09C07EBD1C
:105260000DB407FEFDCF2EBD0DB407FEFDCF0CC063
:10527000672F122FEC010E94CD25612FCE01DF9107
:10528000CF911F910C94CD25DF91CF911F9108955F
:10529000EF92FF920F931F93CF93DF9377FD23C07D
:1052A000DC011896ED91FC9119976E177F07DCF4DD
:1052B00057FD19C01A96ED91FC911B974E175F0789
:1052C00094F47901EC0101E010E021E030E00E946B
:1052D0007628B701CE01DF91CF911F910F91FF90FA
:1052E000EF900C942729DF91CF911F910F91FF90A0
:1052F000EF900895EF92FF921F93CF93DF9300D02A
:105300001F921F92CDB7DEB77C01162FFC0181A141
:1053100087FF12C0211531054105510549F17EBDB8
:105320000DB407FEFDCF1EBD0DB407FEFDCF21500D
:10533000310941095109EECF2115310541055105CA
:10534000B9F0672FC70129833A834B835C837D8340
:105350000E94CD25612FC7010E94CD2529813A8168
:105360004B815C8121503109410951097D81E4CF94
:105370000F900F900F900F900F90DF91CF911F9192
:10538000FF90EF9008958F929F92AF92BF92CF922D
:10539000DF92EF92FF920F931F93CF93DF935C0105
:1053A000FB01E9014701DC0118962D913C91199709
:1053B000621773070CF049C01A968D919C911B9748
:1053C000481759070CF041C06B01CC0EDD1ED60109
:1053D00011977A01E00EF11EB70161507109B7FD16
:1053E00034C077FD32C0F7FF03C0E601E0E0F0E033
:1053F00057FF03C0870140E050E0A217B3071CF03D
:10540000E901CE1BDF0B681779071CF08C01041B28
:10541000150B9E01D8010E94A8316B017C01BF01D0
:10542000C5010E947628A7019601B401C501DF914C
:10543000CF911F910F91FF90EF90DF90CF90BF9091
:10544000AF909F908F900C947A29DF91CF911F910C
:105450000F91FF90EF90DF90CF90BF90AF909F9013
:105460008F9008954F925F926F927F929F92AF922A
:10547000BF92CF92DF92EF92FF920F931F93CF9341
:10548000DF9300D000D0CDB7DEB78C0160E0DC0147
:1054900012968C910E94071360E0F80183810E94AC
:1054A000071361E0D80115968C910E94071361E003
:1054B000F80184810E940713D80150968C9150976F
:1054C0001896ED91FC9119979081892B80835196C4
:1054D0009C9151971C96ED91FC911D978081282FEE
:1054E00030E0892F90E080959095822393238083EC
:1054F00012968C910E9490127C01F80182810E9488
:1055000090129701281B390B2C5F3F4F2930310532
:1055100048F4A701480F591FCA019595879599240A
:10552000939401C0912C2FEF33E07901E81AF90A26
:1055300060E0D80115968C910E94071360E0F80195
:1055400084810E94071361E0D80112968C910E9419
:10555000071361E0F80183810E940713D801539675
:105560009C9153971E96ED91FC911F978081282F57
:1055700030E0892F90E0809590958223932380835B
:1055800052968C9152971A96ED91FC911B979081AF
:10559000892B808314968C910E9490126C01F801E3
:1055A00084810E949012A601481B590B4C5F5F4FEB
:1055B0004930510538F49601280F391FC9019595D6
:1055C000879501C0912C4FEF53E06A01C81AD90AA0
:1055D00061E0D80115968C910E94071360E0F801F4
:1055E00082810E940713D80150969C91509718967B
:1055F000ED91FC9119978081282F30E0892F90E060
:105600008095909582239323808353968C91539712
:105610001E96ED91FC911F979081892B80831496A3
:105620008C910E9490125C01F80182810E9490127C
:10563000D80116960D911C9117970115110509F4C3
:105640003FC0BC01990F880B990B0E941E302B01A3
:105650003C01B501BB0C880B990B0E941E309B01CD
:10566000AC01C301B2010E94742F20E030E040E899
:105670005FE30E94022F2B013C01B7010F2C000CAD
:10568000880B990B0E941E309B01AC01C301B20133
:105690000E94CE302B013C01B80180E090E00E94D6
:1056A0001C309B01AC01C301B2010E94CE3020E04E
:1056B00030E040E85AE30E94CE300E94E62F05C059
:1056C000B501681B790B61507C4F911002C060E0FE
:1056D00070E0FA82E982DC82CB827E836D832E2D9C
:1056E0003A814C2D5C817E8180E090E026960FB659
:1056F000F894DEBF0FBECDBFDF91CF911F910F9108
:10570000FF90EF90DF90CF90BF90AF909F907F90F1
:105710006F905F904F900895EF92FF920F931F93B9
:10572000DC0112964C93129714962C9314971396AF
:105730000C93139715966C9315971796FC92EE920F
:10574000169770E0FB01E659FD4FE491F0E0EE0F93
:10575000FF1FE055FD4F8591949119969C938E9370
:10576000189750E0FA01E659FD4FE491F0E0EE0F92
:10577000FF1FE055FD4F859194911B969C938E934E
:105780001A9730E0F901E659FD4FE491F0E0EE0F91
:10579000FF1FE055FD4F859194911D969C938E932C
:1057A0001C9710E0F801E659FD4F849190E0880FB6
:1057B000991F80559D4FFC01859194911F969C9354
:1057C0008E931E97FB01EC5DFD4F649150966C9398
:1057D0005097FA01EC5DFD4F449152964C935297CD
:1057E000F901EC5DFD4F249151962C935197F801EE
:1057F000EC5DFD4F049153960C9353978AE090E033
:105800008D939C931F910F91FF90EF9008956F924D
:105810007F928F929F92AF92BF92CF92DF92EF9240
:10582000FF920F931F93CF93DF93EC01009789F4BE
:10583000CB01DF91CF911F910F91FF90EF90DF90FF
:10584000CF90BF90AF909F908F907F906F900C946F
:10585000F02CFC01E60FF71F9C0122503109E217E2
:10586000F30708F4ACC0D9010D911C9111970617EC
:105870001707B0F00530110508F49FC0C801049760
:105880008617970708F499C002501109061B170BD9
:10589000019311936D937C93CF010E94852D8DC050
:1058A0005B01A01AB10A4C01800E911EA091FA066C
:1058B000B091FB0640E050E0E12CF12C109709F488
:1058C0004AC0A815B905D1F56D907C901197630178
:1058D00082E0C80ED11CCA14DB0480F1A3014A196E
:1058E0005B096A0182E0C80ED11C1296BC90129727
:1058F0001396AC91B5E0CB16D10440F0B282A383ED
:1059000051834083D9016D937C930AC00E5F1F4F72
:10591000C301800F911FF90191838083EB2DFA2F32
:10592000E114F10431F0D7011396FC93EE93129732
:1059300044C0F093FB06E093FA063FC08D919C9122
:1059400011974817590708F4AC017D0112960D9084
:10595000BC91A02DB3CF8091F8069091F9068815DF
:105960009905E1F446175707C8F480910A0290910F
:105970000B02009741F48DB79EB740910E025091F3
:105980000F02841B950BE817F907C8F4F093F9068A
:10599000E093F806F901718360830FC0CB010E9488
:1059A000F02C7C01009759F0A801BE010E94D42E72
:1059B000CE010E94852DC70104C0CE0102C080E047
:1059C00090E0DF91CF911F910F91FF90EF90DF90CA
:1059D000CF90BF90AF909F908F907F906F900895E1
:1059E000CF93DF938230910510F482E090E0E09154
:1059F000FA06F091FB0620E030E0C0E0D0E03097FE
:105A000011F14081518148175907C0F048175907D3
:105A100061F482819381209719F09B838A832BC044
:105A20009093FB068093FA0626C02115310519F0E4
:105A30004217530718F49A01BE01DF01EF010280FB
:105A4000F381E02DDCCF2115310509F1281B390B3D
:105A50002430310590F412968D919C911397611525
:105A6000710521F0FB019383828304C09093FB06B0
:105A70008093FA06FD01329644C0FD01E20FF31F48
:105A800081939193225031092D933C933AC02091F8
:105A9000F8063091F906232B41F420910C02309145
:105AA0000D023093F9062093F80620910A023091F6
:105AB0000B022115310541F42DB73EB740910E027E
:105AC00050910F02241B350BE091F806F091F90676
:105AD000E217F307A0F42E1B3F0B2817390778F0C5
