:100000000C94F5030C9426040C9426040C942604FA
:100010000C9426040C9426040C9426040C942604B8
:100020000C9426040C9426040C9426040C942604A8
:100030000C9426040C9426040C9426040C94260498
:100040000C9426040C9426040C9426040C94260488
:100050000C9426040C9426040C9426040C945F1132
:100060000C9426040C9472160C943E170C942604DF
:100070000C9426040C9426040C9426040C94260458
:100080000C9426040C9426040C9426040C94260448
:100090000C94A5160C947D170C9426040C9426043D
:1000A0000C9426040C9426040C9426040C94260428
:1000B0000C9426040C9426040C9426040C94260418
:1000C0000C9426040C9426040C9426040C94D81644
:1000D0000C94BC170C9426040C940B170C94FB176F
:1000E0000C9426049E12A11294129812D812A512F2
:1000F000A912AF12B312B712BD12C112C512D81293
:10010000CB12CF12D3120C94E61F0C94BE150C9494
:1001100045130C94DB1A0C9418200C94011A0C94BF
:1001200005200C9488200C9400210C94BD120C9492
:10013000AA1A0C940B160C94A1120C94A5120C94F0
:10014000B3120C949E120C94BE1A0C94C8060C9414
:10015000C2180C94B7120C94AB1A0C9448060C9469
:10016000A81C0C94CF120C94D3120C9494120C94DF
:10017000CA1A0C94B51B0C94F11F0C94A91C0C9476
:10018000DA1A0C94C2200C9498120C94CF150C948B
:10019000C5120C94641B0C94C1120C94EB150C94B6
:1001A000D8120C94A9120C94B21A0C94D0230C946B
:1001B000201B0C948F250C941C240C94AF120C94CF
:1001C000D31B0C9414250C94F51E0C94BF150C94A1
:1001D00016160C94491C0C944E200C94CB12000063
:1001E000090A02080B0C0D070603040100000000B9
:1001F00000000000000000000000000000000000FF
:100200000000000000000000000011100F000000BE
:1002100000000000000000000000000000000000DE
:1002200000000000010210202008081020401020CB
:1002300040800201020108040201010204081020AA
:1002400040808040201008040201800402018040A8
:100250002010080402010804020101020408102011
:1002600040800102040810204080050505050705AF
:1002700008080808020202020A0A08080404040422
:10028000010101010101010103030303030303034E
:10029000040707070C0C0C0C0C0C0C0C02020202DD
:1002A00006060606060606060B0B0B0B0B0B0B0BC6
:1002B00000002200250028002B002E003100340011
:1002C00002010000050108010B01000021002400CB
:1002D00027002A002D003000330001010000040136
:1002E00007010A0100000000003E5B4F5B3E3E6BD1
:1002F0004F6B3E1C3E7C3E1C183C7E3C181C577DC0
:10030000571C1C5E7F5E1C00183C1800FFE7C3E70B
:10031000FF0018241800FFE7DBE7FF30483A060E1D
:100320002629792926407F050507407F05253F5A64
:100330003CE73C5A7F3E1C1C08081C1C3E7F1422D4
:100340007F22145F5F005F5F06097F017F0066897F
:10035000956A606060606094A2FFA29408047E04C5
:100360000810207E201008082A1C08081C2A0808EB
:100370001E101010100C1E0C1E0C30383E383006AB
:100380000E3E0E06000000000000005F00000007A7
:10039000000700147F147F14242A7F2A12231308D5
:1003A000646236495620500008070300001C2241B1
:1003B000000041221C002A1C7F1C2A08083E080855
:1003C0000080703000080808080800006060002005
:1003D000100804023E5149453E00427F40007249E8
:1003E0004949462141494D331814127F102745458C
:1003F00045393C4A494931412111090736494949A2
:1004000036464949291E000014000000403400000F
:100410000008142241141414141400412214080278
:10042000015909063E415D594E7C1211127C7F49EB
:100430004949363E414141227F4141413E7F494940
:1004400049417F090909013E414151737F0808086C
:100450007F00417F41002040413F017F081422413D
:100460007F404040407F021C027F7F0408107F3E97
:100470004141413E7F090909063E4151215E7F0904
:10048000192946264949493203017F01033F40406B
:10049000403F1F2040201F3F4038403F6314081456
:1004A0006303047804036159494D43007F4141418E
:1004B0000204081020004141417F0402010204406F
:1004C00040404040000307080020545478407F28F3
:1004D0004444383844444428384444287F385454E9
:1004E000541800087E090218A4A49C787F0804040C
:1004F0007800447D40002040403D007F10284400AB
:1005000000417F40007C047804787C08040478383B
:1005100044444438FC1824241818242418FC7C086B
:10052000040408485454542404043F44243C4040E8
:10053000207C1C2040201C3C4030403C442810289B
:10054000444C9090907C4464544C440008364100E4
:100550000000770000004136080002010204023C5E
:100560002623263C1EA1A161123A4040207A38542D
:1005700054555921555579412254547842215554A6
:10058000784020545579400C1E52721239555555F9
:1005900059395454545939555454580000457C41E4
:1005A0000002457D420001457C407D1211127DF024
:1005B000282528F07C545545002054547C547C0A4E
:1005C000097F4932494949323A4444443A324A4817
:1005D00048303A4141217A3A42402078009DA0A01B
:1005E0007D3D4242423D3D4040403D3C24FF24246D
:1005F000487E4943662B2FFC2F2BFF0929F620C08C
:10060000887E090320545479410000447D413048DC
:10061000484A32384040227A007A0A0A727D0D191F
:10062000317D2629292F28262929292630484D4081
:1006300020380808080808080808382F10C8ACBA7D
:100640002F102834FA00007B000008142A142222FC
:10065000142A14085500550055AA55AA55AAFF5545
:10066000FF55FF000000FF00101010FF00141414CD
:10067000FF001010FF00FF1010F010F0141414FC15
:10068000001414F700FF0000FF00FF1414F404FC32
:10069000141417101F10101F101F1414141F001013
:1006A0001010F0000000001F101010101F1010108C
:1006B00010F010000000FF1010101010101010109B
:1006C000FF10000000FF140000FF00FF00001F10DB
:1006D000170000FC04F414141710171414F404F495
:1006E0000000FF00F714141414141414F700F71486
:1006F0001414171410101F101F141414F4141010D5
:10070000F010F000001F101F0000001F1400000078
:10071000FC140000F010F01010FF10FF141414FF70
:10072000141010101F00000000F010FFFFFFFFFF6B
:10073000F0F0F0F0F0FFFFFF0000000000FFFF0FFF
:100740000F0F0F0F3844443844FC4A4A4A347E02A3
:10075000020606027E027E02635549416338444424
:100760003C04407E201E2006027E020299A5E7A5D9
:10077000991C2A492A1C4C7201724C304A4D4D304A
:100780003048784830BC625A463D3E494949007E6F
:100790000101017E2A2A2A2A2A44445F4444405106
:1007A0004A444040444A51400000FF0103E080FFBA
:1007B000000008086B6B083612362436060F090F46
:1007C00006000018180000001010003040FF010162
:1007D000001F01011E00191D1712003C3C3C3C008B
:1007E000000000004806C218C80611241FBECFEF43
:1007F000D1E2DEBFCDBF00E00CBF13E0A0E0B2E06D
:10080000E6E9FBE500E00BBF02C007900D92A635BC
:10081000B107D9F726E0A6E5B3E001C01D92AE3CD2
:10082000B207E1F713E0C4EFD3E000E006C0219780
:100830000109802FFE010E946C2DC23FD10780E08C
:100840000807A9F70E945B110C949D2A0C940000E4
:100850002F923F924F925F926F927F928F929F92D0
:10086000AF92BF92CF92DF92EF92FF920F931F93BE
:10087000CF93DF93CDB7DEB72C970FB6F894DEBFDA
:100880000FBECDBF86E593E00E94FE252F833887FB
:1008900049875A876B877C876F80788469857A85DA
:1008A0008B849C84C4010A978F3D934058F010922A
:1008B0009E0310929D031A8219821C821B829E82C3
:1008C0008D8243C0072E000C880B990B1F921F923C
:1008D00021E02F9320E42F93A12CB12C650118E97E
:1008E000E12E13E0F12E00E010E024E630E040E0DD
:1008F00050E00E94C0191B012C01B301770C880B3A
:10090000990B1F921F921F9220EF2F9310E7E12E59
:1009100013E0F12E00E010E020EA30E040E050E08B
:100920000E94C01921E020939D033A82298220EF82
:1009300030E0C901861B970B9C838B839E828D823E
:100940000FB6F894DEBF0FBECDBF29813A814B812F
:100950005C816D817E8180E090E02C960FB6F894EA
:10096000DEBF0FBECDBFDF91CF911F910F91FF90E2
:10097000EF90DF90CF90BF90AF909F908F907F903F
:100980006F905F904F903F902F900895CF93DF939B
:10099000EC014AE550E06EE071E08AE693E00E94E7
:1009A000CB1F4AE050E0BE018AE693E0DF91CF9191
:1009B0000C946D142F923F924F925F926F927F92A0
:1009C0008F929F92AF92BF92CF92DF92EF92FF925F
:1009D0000F931F93CF93DF93CDB7DEB727970FB653
:1009E000F894DEBF0FBECDBF8DE30E9462120E945D
:1009F000941941E1642E44E0742E50E1252E312CEF
:100A0000412C512CA12CB12CC201B1010E949C1986
:100A10006B017C0166E070E080E090E00E949C1930
:100A200047E04C9D90014D9D300D1124F901E85592
:100A3000FC4F4F01CF010E949015FC01608181EABB
:100A400093E00E945D158501037011277501F594EF
:100A5000E794F594E794B50181EA93E00E9490153C
:100A600097012F5F3F4FFAE0F29FA001F39F500DD7
:100A7000112468E26E9D90016F9D300D1124420F8C
:100A8000531F465F5F4F98012F5F3F4FF29FB001AA
:100A9000F39F700D1124E8E2E09F9001E19F300D7B
:100AA0001124620F731F645F7F4F23E0C22EEE2478
:100AB000EA94FE2C00E010E0FC0120818AE693E03D
:100AC0000E94DF1CB401CE0101960E940E15B301F5
:100AD000C4010E94F714BE016F5F7F4FC3010E94E3
:100AE000F714CE0101960E947314FFEFAF1ABF0AEC
:100AF00041E0241A31084108510857E0651A71088D
:100B000060E1A616B10409F07FCF27960FB6F894DE
:100B1000DEBF0FBECDBFDF91CF911F910F91FF9030
:100B2000EF90DF90CF90BF90AF909F908F907F908D
:100B30006F905F904F903F902F900895CF93DF93E9
:100B400000D000D0CDB7DEB749835A836B837C8356
:100B500089819A81EB81FC81823D910544F5E23DDA
:100B6000F1052CF58F3C2FEF92074CF0883C910556
:100B700044F462E370E00E94172D262F03C020E0AA
:100B800001C023E0EF3C8FEFF8074CF0E83CF105A3
:100B900044F4CF0162E370E00E94172D03C060E0CF
:100BA00001C063E0862F880F880F820F01C080E1AB
:100BB00026960FB6F894DEBF0FBECDBFDF91CF9162
:100BC0000895FC01442309F43FC0DC0150E0CD014D
:100BD0008E1B9F0B8417950724F48D916813F7CF14
:100BE00031C04E0F5F1FFA0131978081262F23708D
:100BF00030E0982F9370291B310937FF03C03195DE
:100C00002195310922303105ECF490E0262F26950C
:100C1000269530E0AC015595479555954795F901D6
:100C2000E41BF50BAF01959587959595879514165F
:100C3000150624F44130510529F406C0821B930B9C
:100C4000029714F080E10895862F089580919F0304
:100C50009091A00342E850E08A30910518F46FEFBC
:100C600070E008C08436910518F469EF70E002C0A6
:100C700063EF70E08AE693E00E94CB1F60919F03D0
:100C80007091A0034AE050E08AE693E00C946D1462
:100C9000EF92FF920F936FE072E088EA93E00E9478
:100CA000E11466E172E08FEA93E00E94E1146DE1E5
:100CB00072E086EB93E00E94E11464E272E08DEB57
:100CC00093E00E94E1146BE272E084EC93E00E94F6
:100CD000E11462E372E08BEC93E00E94E11469E3BB
:100CE00072E082ED93E00E94E11460E472E089ED2D
:100CF00093E00E94E11467E472E080EE93E00E94CA
:100D0000E1146EE472E087EE93E00E94E11465E581
:100D100072E08EEE93E00E94E1146CE572E085EFE4
:100D200093E00E94E11463E672E08CEF93E00E948E
:100D3000E1146AE672E083E094E00E94E11461E766
:100D400072E08AE094E00E94E11468E772E081E1D9
:100D500094E00E94E11462EE72E081EA93E00E9466
:100D6000E1142FEF49E06AE08AE693E00E9419213E
:100D70008CE2E82EFF24F39405E029E348E364E0E5
:100D800086E593E00E9458270F91FF90EF90089519
:100D9000CF93DF9381EA93E00E947314C8E1D4E01B
:100DA0002797CE010E94731483E0C83AD807C1F791
:100DB000DF91CF9108950E94001240E855E260E073
:100DC00070E088E894E00E943A1888E894E00E9475
:100DD0000B1640E050E0BA018AE693E00E94DA2167
:100DE00061E08AE693E00E94D02360E08AE693E027
:100DF0000E94E31F63E08AE693E00E94D11F60E057
:100E000070E08AE693E00C94B51BAF92BF92CF924C
:100E1000DF92EF92FF920F931F93CF93DF93EC013A
:100E20005B016A0160E070E08AE693E00E94D71FF0
:100E3000EE24EA94FE2C0EE110E024E630E0A50159
:100E4000BE018AE693E00E94C220A5014C5F5F4F7D
:100E5000F6012481358162E1629FC001639F900D9C
:100E6000112424E630E0281B390B36952795B9016B
:100E70006C0F7D1F8AE693E00E94CB1FB6018AE6C5
:100E800093E0DF91CF911F910F91FF90EF90DF9052
:100E9000CF90BF90AF900C9482139F92AF92BF926D
:100EA000CF92DF92EF92FF920F931F93CF93DF9336
:100EB000982E362F3370832F90E001962AE0289FDA
:100EC000E001299FD00D112488E2389FC00DD11D6B
:100ED000112466956695862F90E00196289F600103
:100EE000299FD00C112488E2689FC00CD11C1124CA
:100EF0007A0108E210E028E230E0A601BE018AE6AD
:100F000093E00E94C220A601465F5F4FBE01645F6E
:100F10007F4F83E0C82E00E010E0292D8AE693E0A1
:100F20000E94DF1CDF91CF911F910F91FF90EF90F6
:100F3000DF90CF90BF90AF909F900895EF92FF9277
:100F40000F931F93CF93DF93EC01E12CF12C0EE56F
:100F500011E022ED30E042ED50E060E070E08AE622
:100F600093E00E94C22042ED50E06AE070E08AE621
:100F700093E00E94CB1FBE018AE693E00E94821399
:100F800040E050E06FEF7FEF8AE693E0DF91CF9192
:100F90001F910F91FF90EF900C94DD1FCF93DF9383
:100FA000CDB7DEB727970FB6F894DEBF0FBECDBF23
:100FB00063E08AE693E00E94D11F6FE772E0CE0102
:100FC00001960E94E114AE014F5F5F4F6AE070E04E
:100FD00082ED90E00E940507CE0101960E947314F5
:100FE00065E872E0CE0101960E94E114AE014F5F08
:100FF0005F4F60EA70E082ED90E00E940507CE014D
:1010000001960E94731469E872E0CE0101960E9475
:10101000E114AE014F5F5F4F68EC70E082ED90E04D
:101020000E940507CE0101960E94731440E050E033
:1010300060E078EF8AE693E00E94DD1F6EE872E0E0
:10104000CE0101960E94E114CE0101960E949E07F6
:10105000CE0101960E94731427960FB6F894DEBF56
:101060000FBECDBFDF91CF910895EF92FF920F9306
:101070001F93CF93DF93E12CF12C00EF10E022EDD2
:1010800030E040E050E060E070E08AE693E00E94EB
:10109000C220C0E0D0E0BE0181EA93E00E9490153A
:1010A0004FEF5FEF6C2FFC0180810E944D0721966E
:1010B000C031D10581F7DF91CF911F910F91FF9042
:1010C000EF9008954F925F926F927F928F929F92CE
:1010D000AF92BF92CF92DF92EF92FF920F931F9346
:1010E000CF93DF9300D01F92CDB7DEB74B015C01E9
:1010F0000E94A91128EE33E040E050E00E942B2D21
:10110000CA01B9010E94E82B2B013C018091040225
:1011100090910502A0910602B091070289839A83FB
:10112000AB83BC83BC01CD010E94E82B6B017C0129
:10113000C501B4010E94E82B9B01AC01C301B201BF
:101140000E94CE2A9B01AC01C701B6010E94CE2AA3
:10115000A70196010E943B2B882309F452C0898184
:101160009A81AB81BC810B97A105B10528F040E5C0
:1011700050E069EF70E012C0E12CF12C00E110E0CA
:1011800028E130E040E550E069EF70E08AE693E066
:101190000E94C22040E550E06EEF70E08AE693E0E6
:1011A0000E94CB1FC0900402D0900502E09006027E
:1011B000F09007020E94A9118C0C9D1CAE1CBF1C54
:1011C00028EE33E040E050E00E942B2DD501C40111
:1011D000821B930BA40BB50BAC01BD0180930402E1
:1011E00090930502A0930602B09307022AE030E034
:1011F0008AE693E00E946014C301B2010E94B92BF9
:1012000002C0B401C5010F900F900F900F90DF91B5
:10121000CF911F910F91FF90EF90DF90CF90BF90F3
:10122000AF909F908F907F906F905F904F900895B8
:10123000DF92EF92FF920F931F93CF93DF93CDB77F
:10124000DEB727970FB6F894DEBF0FBECDBFD82EFE
:1012500062EE72E0CE0101960E94E114CE01019689
:101260000E949E07CE0101960E94731463E08AE6F5
:1012700093E00E94D11FE12CF12C00EF10E024E656
:1012800030E040E050E062ED70E08AE693E00E94DA
:10129000C2206FE772E0CE0101960E94E114AE0118
:1012A0004F5F5F4F6AE070E082ED90E00E940507BB
:1012B000CE0101960E94731469E972E0CE01019695
:1012C0000E94E114AE014F5F5F4F60EA70E082ED73
:1012D00090E00E940507CE0101960E9473146FE909
:1012E00072E0CE0101960E94E114AE014F5F5F4FA4
:1012F00068EC70E082ED90E00E940507CE01019657
:101300000E94731462E08AE693E00E94D11F40E0DD
:1013100050E06FEF7FEF8AE693E00E94DD1F8CE3E1
:1013200090E0A0E0B0E08093040290930502A093C7
:101330000602B09307021092A00310929F034CE3A1
:1013400050E06DEE70E08AE693E00E94CB1F65EA04
:1013500072E08AE693E00E94B71340E550E069EF3F
:1013600070E08AE693E00E94CB1F40910402509106
:10137000050260910602709107022AE030E08AE6D9
:1013800093E00E9460144EE650E061EE70E08AE661
:1013900093E00E94CB1F6AEA72E08AE693E00E9423
:1013A000B71342E850E06FEF70E08AE693E00E94E6
:1013B000CB1F60919F037091A0034AE050E08AE642
:1013C00093E00E946D14DD2099F00EE110E062EED2
:1013D00072E081EA93E00E9418150E94DA0401503D
:1013E0001109A9F761EA73E088E894E00E94D41338
:1013F00027960FB6F894DEBF0FBECDBFDF91CF9119
:101400001F910F91FF90EF90DF900895CF92DF92A0
:10141000EF92FF920F931F93CF93DF932AE0C22E98
:10142000D12CCAE0D0E0EE24EA94FE2C08E210E0D1
:1014300028E230E0AE01B6018AE693E00E94C220C5
:10144000E296C23DD10579F782E3C80ED11C82ED48
:10145000C816D10431F7EE24EA94FE2C0CED10E00E
:1014600024E630E04AE050E062ED70E08AE693E086
:101470000E94C22040E650E06BEE70E08AE693E006
:101480000E94CB1F4FEF5FEF60E070E08AE693E0D1
:101490000E94DD1F65E872E08AE693E00E94B713C0
:1014A00044E850E061EE70E08AE693E00E94CB1FD2
:1014B00061EB72E08AE693E0DF91CF911F910F918B
:1014C000FF90EF90DF90CF900C94B7134F925F9204
:1014D0006F927F928F929F92AF92BF92CF92DF9244
:1014E000EF92FF920F931F93CF93DF937901A82F71
:1014F000A370B0E0E62FE370F0E08D01EA17FB0780
:101500000CF48F01382F36953695262F2695269583
:10151000C32F231708F4C22F68276370D0E0C801D7
:1015200001966C01611138C0219682E38C9F5001B5
:101530008D9FB00C11248AE08C9DB0018D9D700DA3
:101540001124072E000C880B990B0E94EA2B2B010B
:101550003C01B801110F880B990B0E94EA2B20E087
:1015600030E040E05FE30E94CF2A20E030E040E23C
:1015700052E40E949A2C9B01AC01C301B2010E946B
:10158000CF2A0E94B22B87012AE030E0A5018AE62B
:1015900093E00E944E20A4C023133AC0CE010196CE
:1015A0002AE0289FB001299F700D1124072E000CFE
:1015B000880B990B0E94EA2B4B015C01BE01DD0FE9
:1015C000880B990B0E94EA2B20E030E040E05FE3BB
:1015D0000E94CF2A20E030E040E252E40E949A2CA0
:1015E0009B01AC01C501B4010E94CF2A0E94B22B1D
:1015F00022E32C9DF0012D9DF00D112487012AE09E
:1016000030E0AB01BF018AE693E00E94882068C009
:10161000AD01AE17BF070CF4AF01832F321708F4EA
:10162000822F682F70E008E2809FC00111248A0198
:101630000F5F1F4F5801EA17FB0714F4231728F018
:10164000AE17BF0734F5321720F56F5F7F4F3AE0D2
:10165000369F8001379F100D1124080F191F3A9DE6
:10166000C0013B9D900D112468E2649F9001659F2D
:10167000300D1124280F391F219682E38C9FA00181
:101680008D9F500D11248C9DB0018D9D700D1124E6
:1016900023C02196E2E3EC9F8001ED9F100D112401
:1016A000FAE0FA9DD001FB9DB00D1124C8E2C49F61
:1016B0009001C59F300D11242A0F3B1F6F5F7F4F94
:1016C000F69FA001F79F500D1124480F591FEC9D64
:1016D000B001ED9D700D11248AE693E00E94D31BAA
:1016E000DF91CF911F910F91FF90EF90DF90CF90FE
:1016F000BF90AF909F908F907F906F905F904F9032
:101700000895AF92BF92CF92DF92EF92FF920F9324
:101710001F93CF93DF93CDB7DEB727970FB6F8941B
:10172000DEBF0FBECDBF7C018B016A0162EE72E0AD
:101730000E94E114A12CB12CF801848195810197BC
:10174000A816B90668F4B501C8010E949015FC01FD
:101750006081C7010E945D15FFEFAF1ABF0AECCF91
:10176000B701CE0101960E940E15CE0101960E948E
:101770009E07CE0101960E947314F8016481758161
:1017800061507109F601E60FF71FB080C8010E9491
:1017900090154FEF5FEF6B2DFC0180810E944D078C
:1017A000F801448155814230510568F0C601840F2B
:1017B000951FFC013197DC01129720E030E0608139
:1017C0008C910E94660AF80124813581F601E20FAE
:1017D000F31F319780E18083C70127960FB6F894F5
:1017E000DEBF0FBECDBFDF91CF911F910F91FF9054
:1017F000EF90DF90CF90BF90AF9008958F929F921F
:10180000AF92BF92CF92DF92EF92FF920F931F930E
:10181000CF93DF93482F46954695242F30E02F5FD6
:101820003F4F9AE0929F5001939FB00C112428E201
:10183000429FA00CB11C11248370282F30E02F5F31
:101840003F4F929F4001939F900C112498E2899FF3
:10185000800C911C112498E2C92ED12CC0E0D0E05C
:10186000AE014A0D5B1DBE01680D791DE12C88EFAC
:10187000F82E860196018AE693E00E94491C219683
:1018800022E0C21AD108C530D10551F7DF91CF91BE
:101890001F910F91FF90EF90DF90CF90BF90AF908E
:1018A0009F908F900895CF93DF93EC0162EE72E0EA
:1018B0000E94E11488E894E00E94CF158A97D1F342
:1018C00088E894E00E94EB158A3029F0682FCE0159
:1018D0000E945D15F5CF6AE288E894E00E94F81353
:1018E00064E670E080E090E00E94DA11CE01DF91C2
:1018F000CF910895AF92BF92CF92DF92EF92FF9275
:101900000F931F93CF93DF93CDB7DEB765970FB6D5
:10191000F894DEBF0FBECDBFCE010F960E94530CD0
:10192000CE0101960E94530CCE0101960E94B31580
:10193000C62ECE0101960E94731462EE72E0CE01B3
:1019400008960E94E114E12CF12CD12CEC14FD043A
:10195000CCF5CE0101960E94530CCE0101960E9457
:10196000B315162FCE0101960E947314A12EB12C2F
:10197000B50181EA93E00E949015FC016081CE01DF
:1019800008960E945D15B50181EA93E00E949015CA
:1019900040EE57E0612FFC0180810E944D07E11469
:1019A000F10421F4812F0E94FE0B07C020EE37E0E6
:1019B0004C85612F802F0E94660AFFEFEF1AFF0A05
:1019C000012FC4CF40E050E06FEF7FEF8AE693E055
:1019D0000E94DD1FBE01685F7F4FCE0101960E940D
:1019E0000E15CE0101960E949E07CE0101960E941F
:1019F0007314CE0108960E947314CE010F960E94B4
:101A0000731465960FB6F894DEBF0FBECDBFDF919D
:101A1000CF911F910F91FF90EF90DF90CF90BF90EB
:101A2000AF9008958F929F92AF92BF92CF92DF9224
:101A3000EF92FF920F931F93CF93DF93CDB7DEB753
:101A400027970FB6F894DEBF0FBECDBFE12CF12C67
:101A500000EF10E024E630E040E050E062ED70E09E
:101A60008AE693E00E94C2200E94350863E08AE67D
:101A700093E00E94D11F66EB72E0CE0101960E94B6
:101A8000E114AE014F5F5F4F6AE070E082ED90E0DD
:101A90000E940507CE0101960E9473146BEB72E061
:101AA000CE0101960E94E114AE014F5F5F4F62E3E9
:101AB00070E082ED90E00E940507CE0101960E9441
:101AC000731465E872E0CE0101960E94E114AE0144
:101AD0004F5F5F4F60EA70E082ED90E00E94050783
:101AE000CE0101960E94731469E872E0CE0101965E
:101AF0000E94E114AE014F5F5F4F68EC70E082ED31
:101B000090E00E940507CE0101960E9473144AE5F9
:101B100050E062ED70E08AE693E00E94CB1F62E045
:101B20008AE693E00E94D11F40E050E06FEF7FEF24
:101B30008AE693E00E94DD1F60EC72E08AE693E0A3
:101B40000E94B71381E090E00E94C6044EE650E088
:101B500062ED70E08AE693E00E94CB1F66EC72E0D3
:101B60008AE693E00E94B713CE0101960E94530CBF
:101B7000CE0101960E94B3156B017C01CE01019646
:101B80000E9473144EE650E068EF70E08AE693E03E
:101B90000E94CB1F4AE050E0B6018AE693E00E9423
:101BA0006D1440E050E060EE77E08AE693E00E943A
:101BB000DD1F4CE850E062ED70E08AE693E00E94A1
:101BC000CB1F6AEC72E08AE693E00E94B713CE0165
:101BD00001960E94530CCE0101960E94B3154B0151
:101BE0005C01CE0101960E9473144CE850E068EF4E
:101BF00070E08AE693E00E94CB1F4AE050E0B40117
:101C00008AE693E00E946D14C60127960FB6F894F9
:101C1000DEBF0FBECDBFDF91CF911F910F91FF901F
:101C2000EF90DF90CF90BF90AF909F908F900895EE
:101C3000BF92CF92DF92EF92FF920F931F93CF93B9
:101C4000DF93CDB7DEB72E970FB6F894DEBF0FBE89
:101C5000CDBF7C018B016A0188E894E00E94D41317
:101C600088E894E00E94BF150197D1F788E894E0D6
:101C70000E94EB15B82E81E3B81216C0F80124813A
:101C80003581225031092730310510F026E030E04F
:101C900080919F039091A003280F391F3093A003D8
:101CA00020939F030E94260662EE72E0C8010E9404
:101CB000711581111CC0B801CE0108960E940E1545
:101CC000A601BE01685F7F4FCE0101960E94810B85
:101CD000BE016F5F7F4FC8010E94F714CE010196CD
:101CE0000E947314CE0108960E947314DDCFF1E3B5
:101CF00040E050E0BF1209C060EE77E08AE693E072
:101D00000E94DD1F6EEC72E008C060E078EF8AE6AA
:101D100093E00E94DD1F6AED72E0CE0101960E9401
:101D2000E114CE0101960E949E07CE0101960E9409
:101D30007314B801C7010E940E15C7012E960FB685
:101D4000F894DEBF0FBECDBFDF91CF911F910F91F1
:101D5000FF90EF90DF90CF90BF900895CF92DF92E9
:101D6000EF92FF920F931F93CF93DF93CDB7DEB720
:101D700064970FB6F894DEBF0FBECDBF6C012F87FE
:101D8000388B498B5A8B29893A898F859889833D6D
:101D900091050CF44DC0293C31053CF1F8018481DA
:101DA0009581892BD9F0B801CE0108960E940E15B5
:101DB000A701BE01685F7F4FCE0101960E94180EF9
:101DC000BE016F5F7F4FC8010E94F714CE010196DC
:101DD0000E947314CE0108960E94731468EC70E0A0
:101DE00080E090E00E94DA1123C0213A31059CF096
:101DF000F80184819581892B71F0B801CE01089694
:101E00000E940E15A701BE01685F7F4FCE010196AB
:101E10000E94810BD5CF2832310504F763EE72E0C2
:101E200088E894E00E94E6130E9435080E94B210F0
:101E3000B801C6010E940E15C60164960FB6F8944B
:101E4000DEBF0FBECDBFDF91CF911F910F91FF90ED
:101E5000EF90DF90CF9008957F928F929F92AF92F4
:101E6000BF92CF92DF92EF92FF920F931F93CF9387
:101E7000DF93CDB7DEB7AB970FB6F894DEBF0FBEDA
:101E8000CDBF0E94180980E19E012F5F3F4F69017D
:101E9000F901282F11922A95E9F7898362EE72E001
:101EA000CE014F960E94E1140E94A91128EE33E062
:101EB00040E050E00E942B2DCA01B9010E94E82B9E
:101EC0004B015C018091040290910502A0910602F1
:101ED000B0910702892B8A2B8B2B09F499C0C5017D
:101EE000B4010E94B92B0E9462080E94E82B4B01AA
:101EF0005C010E942804F42FE52FCB012EA33FA301
:101F0000F8A7E9A76AA79BA740919D034423D1F2B4
:101F100040919E034111D6CFA9016F2F7E2F0E94C1
:101F20009E05782EBE01615E7F4FCE0148960E94CD
:101F30000E1576018E01085E1F4F2EA13FA148A508
:101F400059A56AA57BA5CE0141960E94AE0EBE01A1
:101F50006F5E7F4FCE014F960E94F714CE014196DF
:101F60000E947314C8010E9473144BA1672DC6010F
:101F70000E94E105182F803108F045C0682F70E0FD
:101F800081EA93E00E949015FC016081CE014F969A
:101F90000E945D15EBA1FCA1EC0FFD1F1083BE019B
:101FA000615E7F4FCE0141960E940E15CE01419693
:101FB0000E949E07CE0141960E9473148BA19CA1A2
:101FC000BC0161507109CE014F960E94901540EE00
:101FD00057E0612FFC0180810E944D074BA15CA15D
:101FE0004230510568F0EFEFFFEFEC0FFD1FE40FFB
:101FF000F51F20EE37E0612F80810E94660A03C042
:10200000812F0E94FE0B80919D0380939E035ACFE7
:10201000BE01615E7F4FCE0148960E940E15A6015B
:10202000BE01685E7F4FCE0141960E94180EBE0130
:102030006F5E7F4FCE014F960E94F714CE014196FE
:102040000E947314CE0148960E94731465EE72E0EC
:1020500088E894E00E94E6130E942B11CE014F966F
:102060000E947314AB960FB6F894DEBF0FBECDBFBF
:10207000DF91CF911F910F91FF90EF90DF90CF9064
:10208000BF90AF909F908F907F900895EF92FF92B6
:102090000F931F93CF93DF9300D000D0CDB7DEB75F
:1020A00049835A836B837C8379018B819C8129814D
:1020B0003A81223D31050CF447C0893C910554F02A
:1020C00060EF72E088E894E00E94E6130E94350811
:1020D00080E00CC0813A910564F062EF72E088E81C
:1020E00094E00E94E6130E94350881E00E942C0FC4
:1020F0002BC08832910574F4E114F10459F0870182
:1021000001501109C7010E94C6040E94350863EE00
:1021100072E013C089978797B8F401501109E0164F
:10212000F10690F487010F5F1F4FC70102960E94CE
:10213000C6040E94350864EF72E088E894E00E94CB
:10214000E6130E947A0C7801C70126960FB6F89420
:10215000DEBF0FBECDBFDF91CF911F910F91FF90DA
:10216000EF900895CF93DF9300D000D0CDB7DEB7C6
:102170000E94120D6C010E947A0CE12CF12C0E943D
:102180002804B22FA32FF42FE52FCB0120919D031C
:102190002223A9F320919E032111F1CF86019701FB
:1021A0004B2F5A2F6F2F7E2F0E9446107C01E7CFB6
:1021B000CF93DF9300D000D0CDB7DEB749835A83E9
:1021C0006B837C838B819C8129813A81223D3105FF
:1021D000CCF14CE350E060E070E040930402509397
:1021E000050260930602709307021092A0031092FA
:1021F0009F03893C910544F060EF72E088E894E029
:102200000E94E61380E00AC0813A91058CF062EFEB
:1022100072E088E894E00E94E61381E026960FB60B
:10222000F894DEBF0FBECDBFDF91CF910C942C0F81
:10223000889744F463EE72E088E894E00E94E61325
:102240000E94B21026960FB6F894DEBF0FBECDBF27
:10225000DF91CF910895CF93DF9300D000D0CDB719
:10226000DEB70E94CE070E942804F42FE52FCB0191
:1022700040919D034423B9F340919E034111F3CF54
:10228000A9016F2F7E2F0E94D810EDCFCF93DF933F
:1022900000D000D0CDB7DEB70E94060A0E94280405
:1022A00029833A8389819A81833D9105BCF381E03A
:1022B0000E942C0FF3CF0E94DB060E9446111F9252
:1022C0000F920FB60F9211242F933F938F939F93EA
:1022D000AF93BF938091190490911A04A0911B04AD
:1022E000B0911C043091180423E0230F2D3720F403
:1022F0000196A11DB11D05C026E8230F0296A11D60
:10230000B11D209318048093190490931A04A0938C
:102310001B04B0931C0480911D0490911E04A09195
:102320001F04B09120040196A11DB11D80931D04CE
:1023300090931E04A0931F04B0932004BF91AF910B
:102340009F918F913F912F910F900FBE0F901F90F3
:1023500018952FB7F8946091190470911A04809120
:102360001B0490911C042FBF08953FB7F8948091EF
:102370001D0490911E04A0911F04B091200426B565
:10238000A89B05C02F3F19F00196A11DB11D3FBFAD
:10239000BA2FA92F982F8827820F911DA11DB11D3B
:1023A000BC01CD0142E0660F771F881F991F4A9537
:1023B000D1F70895CF92DF92EF92FF92CF93DF9300
:1023C0006B017C010E94B511EB01C114D104E10441
:1023D000F10479F00E94B5116C1B7D0B683E7340CF
:1023E000A0F381E0C81AD108E108F108C851DC4F18
:1023F000ECCFDF91CF91FF90EF90DF90CF900895D9
:10240000789484B5826084BD84B5816084BD85B5CF
:10241000826085BD85B5816085BDEEE6F0E0808196
:1024200081608083E1E8F0E01082808182608083B7
:10243000808181608083E0E8F0E08081816080833A
:10244000E1EBF0E0808184608083E0EBF0E080816C
:1024500081608083E1E9F0E0808182608083808117
:1024600081608083E0E9F0E0808181608083E1EA3F
:10247000F0E0808182608083808181608083E0EAF7
:10248000F0E0808181608083E1E2F1E08081826020
:102490008083808181608083E0E2F1E080818160DF
:1024A0008083EAE7F0E080818460808380818260BD
:1024B00080838081816080838081806880831092A6
:1024C000C1000895863308F0865390917B00282F31
:1024D0002870977F922B90937B0087702091080241
:1024E00090E4299F90011124822B80937C0080919D
:1024F0007A00806480937A0080917A0086FDFCCF18
:10250000809178002091790090E0922B089590E0DE
:10251000FC013197E131F10508F04AC08827EE58F7
:10252000FF4F8F4F0C946C2D809180008F7703C0EC
:10253000809180008F7D80938000089584B58F778F
:1025400002C084B58F7D84BD08958091B0008F77DF
:1025500003C08091B0008F7D8093B000089580917A
:1025600090008F7707C0809190008F7D03C080918D
:102570009000877F8093900008958091A0008F77CE
:1025800007C08091A0008F7D03C08091A000877F4D
:102590008093A0000895809120018F7707C08091DB
:1025A00020018F7D03C080912001877F80932001CF
:1025B0000895CF93DF9390E0FC01EC5DFD4F2491F3
:1025C000FC01E659FD4F8491882361F190E0880F6A
:1025D000991FFC01E653FD4FC591D491FC01E055D4
:1025E000FD4FA591B491611109C09FB7F8948881FE
:1025F000209582238883EC912E230BC0623061F4F6
:102600009FB7F8943881822F809583238883EC913B
:102610002E2B2C939FBF06C08FB7F894E8812E2BEA
:1026200028838FBFDF91CF9108951F93CF93DF93BE
:10263000282F30E0F901E252FE4F8491F901EC5D60
:10264000FD4FD491F901E659FD4FC491CC23C9F057
:10265000162F81110E948712EC2FF0E0EE0FFF1F62
:10266000E055FD4FA591B4918FB7F894111105C0B5
:102670009C91ED2FE095E92302C0EC91ED2BEC93BA
:102680008FBFDF91CF911F910895CF92DF92EF928C
:10269000FF920F931F93CF93DF936C01EB017B01AC
:1026A000E40EF51E00E010E0CE15DF0561F0699143
:1026B000D601ED91FC910190F081E02DC6011995B4
:1026C000080F191FF1CFC801DF91CF911F910F9112
:1026D000FF90EF90DF90CF9008956115710579F02C
:1026E000FB0101900020E9F73197AF01461B570B22
:1026F000DC01ED91FC910280F381E02D199480E0E2
:1027000090E00895AF92BF92CF92DF92EF92FF9246
:102710000F931F93CF93DF936C017B01C0E0D0E058
:1027200000E010E0D70114968D919C911597C81781
:10273000D90788F4D601ED91FC91A080B180BE014B
:10274000C7010E94A215682FC601F5011995080F4F
:10275000191F2196E7CFC801DF91CF911F910F91EB
:10276000FF90EF90DF90CF90BF90AF9008950C94C2
:102770006D13DC01ED91FC910190F081E02D199435
:102780000F931F93CF93DF93EC016DE00E94B91379
:102790008C016AE0CE010E94B913800F911FDF9176
:1027A000CF911F910F9108950F931F93CF93DF93B4
:1027B000EC010E9482138C01CE010E94C013800F95
:1027C000911FDF91CF911F910F9108950F931F9348
:1027D000CF93DF93EC010E946D138C01CE010E9418
:1027E000C013800F911FDF91CF911F910F9108951A
:1027F0000F931F93CF93DF93EC010E94B9138C01C9
:10280000CE010E94C013800F911FDF91CF911F91C5
:102810000F9108958F929F92AF92BF92CF92DF92C5
:10282000EF92FF920F931F93CF93DF93CDB7DEB755
:10283000A1970FB6F894DEBF0FBECDBF6C01142F69
:10284000E52FCB01022F19A2223008F40AE07E0105
:1028500021E2E20EF11C802E912CA12CB12C612FD3
:102860007E2FA50194010E942B2D029F1019112487
:1028700081E0E81AF1081A3014F4105D01C0195C07
:10288000F7011083122FE32FCA01232B242B252BB2
:1028900031F7B701C6010E946D13A1960FB6F894E7
:1028A000DEBF0FBECDBFDF91CF911F910F91FF9083
:1028B000EF90DF90CF90BF90AF909F908F90089552
:1028C0002115310541F4DC01ED91FC910190F0817D
:1028D000E02D642F19940C940A149A01AB0160E066
:1028E00070E00C946014FC01808191810C9451295A
:1028F000CF93DF93EC0188819981009711F00E94BA
:102900005129198218821D821C821B821A82DF9132
:10291000CF9108950F931F93CF93DF93EC018B0119
:102920006F5F7F4F888199810E94D327009731F094
:10293000998388831B830A8381E001C080E0DF9153
:10294000CF911F910F910895CF93DF93EC01888170
:102950009981892B29F08A819B818617970760F4DA
:10296000CE010E948A14882341F08C819D81892B9D
:1029700019F4E881F981108281E0DF91CF91089507
:10298000EF92FF920F931F93CF93DF93EC017B01A4
:102990008A01BA010E94A414811104C0CE010E94D0
:1029A000781407C01D830C83B701888199810E9428
:1029B000B22ACE01DF91CF911F910F91FF90EF903E
:1029C0000895FC01118210821382128215821482F2
:1029D00016826115710551F0FB0101900020E9F7A5
:1029E0003197AF01461B570B0C94C0140895CF9339
:1029F000DF93EC01FB018617970761F0608171811D
:102A00006115710529F0448155810E94C01402C0EE
:102A10000E947814CE01DF91CF910895FC011182BC
:102A20001082138212821582148216820C94F7147B
:102A3000CF93DF93EC016115710559F0FB01019013
:102A40000020E9F73197AF01461B570B0E94C014D5
:102A500002C00E947814CE01DF91CF910895EF92C9
:102A6000FF920F931F93CF93DF93FC012481358155
:102A70006115710511F480E019C041155105A9F0E7
:102A80007B01EC018A01020F131FB8010E94A414FC
:102A9000882389F3288139818C819D81B701820F38
:102AA000931F0E94B22A1D830C8381E0DF91CF9196
:102AB0001F910F91FF90EF900895CF93DF931F9296
:102AC0001F92CDB7DEB769831A8241E050E0BE01A4
:102AD0006F5F7F4F0E942F150F900F90DF91CF9166
:102AE0000895FC0124813581232B31F421E0611507
:102AF0007105A1F0FB0108C0FC0180819181611585
:102B0000710531F421E0FC018081882339F005C092
:102B10000E94A92A21E0892B09F020E0822F089544
:102B2000FC01248135816217730720F48081918133
:102B3000009729F41092210481E294E00895860F11
:102B4000971F0895FC01248135816217730748F4AB
:102B500080819181009729F0FC01E60FF71F8081A9
:102B6000089580E00895FC0180819181009711F023
:102B70000C94762A60E070E0CB0108950895FC0182
:102B800024853585F901E05CFF4F80819181329683
:102B900020813181821B930B8F7399270895DC016B
:102BA0001C96ED91FC911D97DF01A05CBF4F2D910C
:102BB0003C91119712968D919C9111972817390786
:102BC00039F08D919C91E80FF91F808190E0089574
:102BD0008FEF9FEF0895FC01A485B585FD01E05CB2
:102BE000FF4F2081318132968081918128173907EA
:102BF00079F080819181A80FB91F8C91208131815A
:102C00002F5F3F4F2F7333273183208390E0089548
:102C10008FEF9FEF0895FC0181A1882329F0A489FB
:102C2000B5898C9186FFFBCF11A208950F931F9356
:102C3000CF93DF93FC01A685B7858D01005C1F4F04
:102C4000E8018881998101968F739927AD014E5BC8
:102C50005F4FEA012881398182179307D1F3E80198
:102C600028813981A20FB31F6C93A685B785A05C1C
:102C7000BF4F11969C938E93A689B7892C9181E0C2
:102C800090E0078C02C0880F991F0A94E2F7822B0C
:102C90008C9381E081A30488F589E02D8081806494
:102CA000808381E090E0DF91CF911F910F91089593
:102CB000FB01E05CFF4F208131812F5F3F4F2F737D
:102CC0003327DB01AE5BBF4F4D915C912417350775
:102CD00041F040815181DB01A40FB51F8C933183FA
:102CE000208308951F920F920FB60F9211240BB6F6
:102CF0000F922F933F934F935F936F937F938F9395
:102D00009F93AF93BF93EF93FF938091C00082FD99
:102D100007C08091C60066E876E00E94581602C09F
:102D20008091C600FF91EF91BF91AF919F918F91DC
:102D30007F916F915F914F913F912F910F900BBEBB
:102D40000F900FBE0F901F9018951F920F920FB605
:102D50000F9211240BB60F922F933F934F935F93D3
:102D60006F937F938F939F93AF93BF93EF93FF9353
:102D70008091C80082FD07C08091CE006EEF75E0A3
:102D80000E94581602C08091CE00FF91EF91BF9132
:102D9000AF919F918F917F916F915F914F913F91F3
:102DA0002F910F900BBE0F900FBE0F901F90189594
:102DB0001F920F920FB60F9211240BB60F922F9302
:102DC0003F934F935F936F937F938F939F93AF93B3
:102DD000BF93EF93FF938091D00082FD07C0809155
:102DE000D60066E775E00E94581602C08091D600B2
:102DF000FF91EF91BF91AF919F918F917F916F91D3
:102E00005F914F913F912F910F900BBE0F900FBE8E
:102E10000F901F9018951F920F920FB60F921124CA
:102E20000BB60F922F933F934F935F936F937F93C4
:102E30008F939F93AF93BF93EF93FF938091300154
:102E400082FD07C0809136016EEE74E00E94581634
:102E500002C080913601FF91EF91BF91AF919F9198
:102E60008F917F916F915F914F913F912F910F9033
:102E70000BBE0F900FBE0F901F9018951F920F92D0
:102E80000FB60F9211240BB60F922F933F938F938F
:102E90009F93EF93FF932091820630918306809158
:102EA0008406909185062817390731F48091C10076
:102EB0008F7D8093C10014C0E0918406F091850657
:102EC000EE5BF94F208180918406909185060196F2
:102ED0008F73992790938506809384062093C6006C
:102EE000FF91EF919F918F913F912F910F900BBE8A
:102EF0000F900FBE0F901F9018951F920F920FB654
:102F00000F9211240BB60F922F933F938F939F93A1
:102F1000EF93FF932091FA053091FB058091FC051A
:102F20009091FD052817390731F48091C9008F7DF4
:102F30008093C90014C0E091FC05F091FD05E654B2
:102F4000FA4F20818091FC059091FD0501968F73C9
:102F500099279093FD058093FC052093CE00FF9167
:102F6000EF919F918F913F912F910F900BBE0F90FA
:102F70000FBE0F901F9018951F920F920FB60F92D1
:102F800011240BB60F922F933F938F939F93EF9340
:102F9000FF93209172053091730580917405909193
:102FA00075052817390731F48091D1008F7D809302
:102FB000D10014C0E0917405F0917505EE5CFA4FF4
:102FC0002081809174059091750501968F739927E2
:102FD00090937505809374052093D600FF91EF912F
:102FE0009F918F913F912F910F900BBE0F900FBE2D
:102FF0000F901F9018951F920F920FB60F921124E9
:103000000BB60F922F933F938F939F93EF93FF9362
:103010002091EA043091EB048091EC049091ED044E
:103020002817390731F4809131018F7D8093310168
:1030300014C0E091EC04F091ED04E655FB4F2081C3
:103040008091EC049091ED0401968F7399279093F1
:10305000ED048093EC0420933601FF91EF919F9152
:103060008F913F912F910F900BBE0F900FBE0F903D
:103070001F901895CF92DF92EF92FF920F931F93BC
:10308000CF93DF93EC016A017B014115514E61053D
:10309000710509F1EC89FD8981E090E008A002C08A
:1030A000880F991F0A94E2F7808360E079E08DE34E
:1030B00090E0A70196010E942B2D89019A010150F1
:1030C000110921093109369527951795079598011A
:1030D00001151041A8F0EC89FD89108260E874E8C0
:1030E0008EE190E0A70196010E942B2DDA01C90123
:1030F0000197A109B109B695A795979587959C0168
:10310000E889F9893083EA89FB89208319A2EE894D
:10311000FF89408181E090E09C010C8C02C0220F6D
:10312000331F0A94E2F7242B2083EE89FF89408124
:103130009C010D8C02C0220F331F0A94E2F7242B4E
:103140002083EE89FF8940819C010E8C02C0220FF2
:10315000331F0A94E2F7242B2083EE89FF89208114
:103160000F8C02C0880F991F0A94E2F78095822382
:103170008083DF91CF911F910F91FF90EF90DF90AF
:10318000CF900895CF92DF92EF92FF92E8E8F4E0BB
:103190001382128288EEC82E83E0D82EE12CF12C07
:1031A000C482D582E682F7826AEF72E0718360831F
:1031B00086E896E09587848782E496E097878687FD
:1031C00085EC90E0918B808B84EC90E0938B828BEC
:1031D00080EC90E0958B848B81EC90E0978B868BD4
:1031E00082EC90E0918F808F86EC90E0938F828FBD
:1031F00044E0448F33E0358F27E0268F95E0978FAA
:1032000081E080A3E6E6F4E013821282C482D582D4
:10321000E682F78271836083AEEFB5E0B587A4875D
:10322000AAEBB5E0B787A687ADECB0E0B18BA08B79
:10323000ACECB0E0B38BA28BA8ECB0E0B58BA48B68
:10324000A9ECB0E0B78BA68BAAECB0E0B18FA08F51
:10325000AEECB0E0B38FA28F448F358F268F978F5F
:1032600080A3E4E4F4E013821282C482D582E68271
:10327000F78271836083A6E7B5E0B587A487A2E3F0
:10328000B5E0B787A687A5EDB0E0B18BA08BA4ED24
:10329000B0E0B38BA28BA0EDB0E0B58BA48BA1ED19
:1032A000B0E0B78BA68BA2EDB0E0B18FA08FA6EDFA
:1032B000B0E0B38FA28F448F358F268F978F80A376
:1032C000E2E2F4E013821282C482D582E682F782BF
:1032D000718360836EEE74E0758764876AEA74E0D8
:1032E0007787668765E371E0718B608B64E371E0DB
:1032F000738B628B60E371E0758B648B61E371E0CB
:10330000778B668B62E371E0718F608F66E371E0AB
:10331000738F628F448F358F268F978F80A3FF9096
:10332000EF90DF90CF900895009729F0BC0180E0E6
:1033300090E00C946D2A0895CF93DF9300D01F92F4
:10334000CDB7DEB7611571058105910579F09B0157
:10335000AC0169833A834B835C830E94692A29818B
:103360003A814B815C810E944D2D03C060E070E08A
:10337000CB010F900F900F900F90DF91CF91089598
:103380004F925F926F927F92AF92BF92CF92DF92F5
:10339000EF92FF920F931F93CF93DF93CDB7DEB7DA
:1033A00029013A019B01AC01241935094609570945
:1033B0008A899B89AC89BD89BC01CD016A197B09C9
:1033C0008C099D090E94072DA80197012419350930
:1033D000460957090E944D2DCA01B9016A0D7B1D8E
:1033E0008C1D9D1DDF91CF911F910F91FF90EF904C
:1033F000DF90CF90BF90AF907F906F905F904F9095
:1034000008952F923F924F925F926F927F928F9288
:103410009F92AF92BF92CF92DF92EF92FF920F9363
:103420001F93CF93DF9300D0CDB7DEB74C017B83E2
:103430006A836A01590117019801241B350B37FF74
:1034400003C0319521953109C5014A815B81841BF7
:10345000950B97FF03C091958195910951E0598390
:103460008217930714F019820BC09A2D8B2D5801E7
:10347000092F182F9A818B81DB82CA82C92ED82E00
:103480008A819B81A816B9065CF49C2D8D2D68015C
:10349000092F182F9A818B81BB82AA82A92EB82E60
:1034A0002501AA81BB814A1A5B0A38016C187D0884
:1034B00077FE03C0719461947108720157FE03C0D6
:1034C000BFEFEB1AFB0AF594E794C016D1061CF087
:1034D0000FEF1FEF1FC001E010E01CC0D401ED9101
:1034E000FC91B9810084F185E02D9101BB23C1F0ED
:1034F0004A815B81B601C4011995E618F708F7FE09
:1035000004C0C00ED11EE40CF51CEA81FB8131968B
:10351000FB83EA834A815B81A416B506FCF604C0EE
:10352000A6016A817B81E7CF0F900F900F90DF910A
:10353000CF911F910F91FF90EF90DF90CF90BF90B0
:10354000AF909F908F907F906F905F904F903F9043
:103550002F9008950895DC01ED91FC910480F58190
:10356000E02D19940F931F93DC01ED91FC91008CD9
:10357000F18DE02D19951F910F9108950F931F93D1
:10358000DC01ED91FC91028CF38DE02D19951F91DA
:103590000F910895EF92FF920F931F93DC01ED912D
:1035A000FC91048CF58DE02D19951F910F91FF90E2
:1035B000EF9008950895AF92BF92CF92DF92EF926D
:1035C000FF920F931F93CF93DF9300D01F92CDB73D
:1035D000DEB75C016901DC01ED91FC910680F781A9
:1035E000E02D4B835C8369837A831995D501ED9136
:1035F000FC914B815C81C40ED51EB1E0CB1AD10881
:103600000088F189E02D7801860169817A819B012A
:10361000C5011995D501ED91FC910288F389E02D42
:10362000C5010F900F900F900F90DF91CF911F91D8
:103630000F91FF90EF90DF90CF90BF90AF901994D3
:10364000AF92BF92CF92DF92EF92FF920F931F93B0
:10365000CF93DF9300D01F92CDB7DEB75C01690135
:10366000DC01ED91FC910680F781E02D4B835C83BA
:1036700069837A831995D501ED91FC9169817A81ED
:103680009B012C0D3D1D215031090088F189E02D51
:1036900078014B815C818A01C5011995D501ED91B5
:1036A000FC910288F389E02DC5010F900F900F90D7
:1036B0000F90DF91CF911F910F91FF90EF90DF90CE
:1036C000CF90BF90AF9019944F925F926F927F927C
:1036D0008F929F92AF92BF92CF92DF92EF92FF9222
:1036E0000F931F93CF93DF931F921F92CDB7DEB737
:1036F0006C015A0139014801DC01ED91FC91068011
:10370000F781E02D69837A8319956981462E7A8144
:10371000572E640C751CD601ED91FC91461457048C
:103720006CF40484F585E02D87019401A501B201B4
:10373000C6011995BFEF4B1A5B0AEDCF0288F389DA
:10374000E02DC6010F900F90DF91CF911F910F9147
:10375000FF90EF90DF90CF90BF90AF909F908F90B1
:103760007F906F905F904F901994EF92FF920F931C
:103770001F93DC01ED91FC9111971A960D911C910C
:103780001B9718962D913C911997048CF58DE02D7F
:103790007B0140E050E060E070E019951F910F91CF
:1037A000FF90EF900895CF92DF92EF92FF920F93E8
:1037B0001F93CF93DF9300D000D0CDB7DEB76C015D
:1037C000DC01ED91FC916217730789F4041715076A
:1037D0002CF4942F852FA801092F182F041B150BEB
:1037E00098012F5F3F4F008CF18DE02D12C04017E4
:1037F000510709F5261737072CF4962F872FB901A3
:10380000292F382F261B370B2F5F3F4F028CF38D4C
:10381000E02D8701C601199526960FB6F894DEBFF4
:103820000FBECDBFDF91CF911F910F91FF90EF9011
:10383000DF90CF9008950680F781E02D2D833E83A1
:103840004B835C8369837A831995D601ED91FC9152
:103850000088F189E02D2D813E814B815C81698159
:103860007A81C6011995D601ED91FC910288F38900
:10387000E02DC60126960FB6F894DEBF0FBECDBF71
:10388000DF91CF911F910F91FF90EF90DF90CF903C
:1038900019946F927F928F929F92AF92BF92CF9224
:1038A000DF92EF92FF920F931F93CF93DF93EC0180
:1038B0004B015A0169013801E881F9810680F781DD
:1038C000E02D1995E881F9810684F785E02D8701BF
:1038D0009601A501B401CE011995E881F981A501F0
:1038E000460D571D415051090684F785E02D96017C
:1038F000B401CE011995E881F9810484F585E02DA4
:103900009301A501B401CE011995E881F981C80C94
:10391000D91CB601615071090484F585E02D93012D
:10392000A501CE011995E881F9810288F389E02D7E
:10393000CE01DF91CF911F910F91FF90EF90DF901B
:10394000CF90BF90AF909F908F907F906F90199481
:103950000895FC016370658B848195812681378190
:10396000613039F0633029F091878087338722876F
:10397000089531872087938782870895FC011382F9
:1039800012828AE093E091838083758364835783F6
:1039900046837187608753874287158A1586148608
:1039A0001786168681E0848B2FEF3FEF338B228BB7
:1039B000318B208B868B178A118E108E08952F9253
:1039C0003F924F925F926F927F928F929F92AF92AF
:1039D000BF92CF92DF92EF92FF920F931F93CF93FC
:1039E000DF93CDB7DEB76C970FB6F894DEBF0FBE8E
:1039F000CDBF9C8F8B8F5B011A011F830E83370114
:103A0000C982DC0158964D915C9159974115510539
:103A100009F0E5C018968D919C9119976817790760
:103A20000CF0CAC11A968D919C911B9728163906E5
:103A30000CF0C2C18C2C912CFB0136E0C39EE00D32
:103A4000F11D1124FB87EA871E161F060CF0B4C176
:103A5000C40133E0880F991F3A95E1F79D878C8761
:103A6000820D931D181619060CF0A6C157968C915D
:103A7000811103C0203B08F02F5FAB8DBC8DED9111
:103A8000FC9111970680F781E02DCD012A8F1995C1
:103A90002A8DB5E02B9F90011124F5013596FF8703
:103AA000EE872501BB82AA82A9014A195B09598BBD
:103AB000488BC10108969B8B8A8BE889F989E40DB4
:103AC000F51DEC51FD4F949198873D822C82610148
:103AD000A885A0FF13C0AB8DBC8DED91FC91B98181
:103AE000B13031F40084F185E02D2E813F8116C084
:103AF0000284F385E02DEE80FF801AC0EE81FF8105
:103B00006E167F06F1F0AB8DBC8DED91FC91B98105
:103B1000B13051F40084F185E02D9301A601B2018A
:103B20008B8D9C8D19950DC00284F385E02D73015A
:103B3000840194014C815D816A817B818B8D9C8D98
:103B40001995E885E695E8872C813D81280D391D7A
:103B50003D832C833FEFC31AD30A4A895B89C4167D
:103B6000D50609F0B5CF8A819B81880D991D9B836D
:103B70008A839FEF491A590AAE85BF854A165B06AC
:103B800009F09BCFEE81FF816E167F0609F4F2C02B
:103B9000EB8DFC8DA081B181F981F13079F4B50113
:103BA0006B5F7F4F1C96ED91FC911D97830128E080
:103BB00030E0A1018B8D9C8D1995DCC06A857B85D9
:103BC000681979091A96ED91FC911B9773010C8580
:103BD0001D859401A1018B8D9C8D1995CBC0FA0197
:103BE00034969491329765917491291BCB01B7E07B
:103BF0002B9F800D911D1124FA01259134913B8B4F
:103C00002A8BFC01459154915B834A83FC013296D7
:103C1000C490319654915C87329614913196D49029
:103C20008981823058F0612E012E000C7708AD2D6D
:103C30000D2C000CBB0BB987A88704C01986188609
:103C4000612C712CAB8DBC8DED91FC911197068090
:103C5000F781E02DCD011995B9818B2E912C689CAF
:103C6000C001699C900D789C900D1124FC01EA0D17
:103C7000FB1DF98BE88B1C82712C612CE12F110F3D
:103C8000FF0B95012E0F3F1F3B872A87AC0CB11C01
:103C9000A5014E0F5F1F5F8B4E8BC1018D0D911DD6
:103CA000D7FC9A95998F888F4C85641608F062C06E
:103CB000862D90E048855985480F591F489D9001F1
:103CC000499D300D589D300D1124D901A20DB31D11
:103CD000BF87AE87AA84BB8448885988DC80BA85B0
:103CE000DB1AE88DF98DE80FF91FFD8BEC8B8D2D1C
:103CF0008A0D2E893F89A216B306B9F1877061F447
:103D00008A819B810196EA89FB89AA81BB81EA0F9E
:103D1000FB1F74909B838A8377FE20C0AB8DBC8D84
:103D2000ED91FC91B981B13061F40084F185E02D11
:103D30002E813F814C895D89B5018B8D9C8D1995B4
:103D40000DC00284F385E02DEE80FF808401940194
:103D50004E855F85B2018B8D9C8D1995770C480C33
:103D6000591CEFEFAE1ABE0AC2CF3C813C0D3C831A
:103D700063949ACFAB8DBC8DED91FC911197028825
:103D8000F389E02DCD016C960FB6F894DEBF0FBE1F
:103D9000CDBFDF91CF911F910F91FF90EF90DF90FA
:103DA000CF90BF90AF909F908F907F906F905F90DB
:103DB0004F903F902F9019946C960FB6F894DEBFF9
:103DC0000FBECDBFDF91CF911F910F91FF90EF906C
:103DD000DF90CF90BF90AF909F908F907F906F902B
:103DE0005F904F903F902F900895AF92BF92CF92E7
:103DF000EF92FF920F931F93CF93DF93EC01262F47
:103E0000888D998D009709F040C06A3059F41D865D
:103E10001C862C898E859F8538E0239F800D911DFF
:103E2000112441C06D3009F4AAC08E898823C1F0E5
:103E30003C898C859D8546E0349F800D911D112421
:103E400048855985481759075CF41D861C868E8560
:103E50009F8548E0349F800D911D11249F878E8798
:103E6000EA88FB88088919894E855F856C857D8580
:103E7000CC88CE010E94DF1C2C898C859D8536E084
:103E8000239F800D911D112442C06A3079F41D8654
:103E90001C862C89FC013696E4918E859F852E9F89
:103EA000800D911D11249F878E8769C06D3009F4A4
:103EB00066C0FC0134963491631708F460C03196F3
:103EC000E491E61708F45BC0FC013296A590B4902B
:103ED000462F50E0431B510937E0349FB001359F16
:103EE000700D1124A60EB71EF5013296349131964D
:103EF000E491332311F0E1110DC0F5013496E49102
:103F00002C898C859D85E29F800D911D11249D87B4
:103F10008C8735C0F501359644915E89552311F1A2
:103F20006C89E32FF0E0E40FF11D47FDFA956E9FD9
:103F3000D0016F9FB00D11244C855D854A0F5B1F2A
:103F4000E885F985E417F5076CF41D861C86FC01ED
:103F50003696E4918E859F856E9F800D911D11246C
:103F60009F878E87EA88FB88088919894E855F8537
:103F70006C857D85CC88CE010E94DF1CBECF81E0A0
:103F800090E0DF91CF911F910F91FF90EF90CF9034
:103F9000BF90AF900895FC01758764875787468767
:103FA0000895611101C061E0FC01648B0895FC017A
:103FB000738B628B718B608B0895FC01718B608BAE
:103FC000538B428B0895FC01668B0895DC019C960F
:103FD000ED91FC919D979081D1968C91892B808356
:103FE0000895EF92FF920F931F93DC01ED91FC91E6
:103FF0000284F385E02D7801890121E030E01995F4
:104000001F910F91FF90EF900895EF92FF920F9301
:104010001F93DC01ED91FC910284F385E02D780182
:1040200001E010E019951F910F91FF90EF90089516
:104030000F931F93CF93DF9300D000D0CDB7DEB79F
:104040008C01DC01ED91FC910680F781E02D2D8340
:104050003E834B835C8369837A831995D801ED9104
:10406000FC910084F185E02D2D813E814B815C81A6
:1040700069817A81C8011995D801ED91FC91028876
:10408000F389E02DC80126960FB6F894DEBF0FBE67
:10409000CDBFDF91CF911F910F911994EF92FF92B5
:1040A0000F931F93CF93DF9300D000D0CDB7DEB72F
:1040B0007C01DC01ED91FC910680F781E02D2D83E0
:1040C0003E834B835C8369837A831995D701ED9195
:1040D000FC910484F585E02D2D813E814B815C812E
:1040E00069817A81C7011995D701ED91FC91028808
:1040F000F389E02DC70126960FB6F894DEBF0FBEF8
:10410000CDBFDF91CF911F910F91FF90EF90199448
:10411000EF92FF920F931F93CF93DF9300D000D0C5
:10412000CDB7DEB77C01DC01ED91FC910680F78113
:10413000E02D2D833E834B835C8369837A831995BD
:10414000D701ED91FC910684F785E02D2D813E810C
:104150004B815C8169817A81C7011995D701ED9105
:10416000FC910288F389E02DC70126960FB6F894DA
:10417000DEBF0FBECDBFDF91CF911F910F91FF909A
:10418000EF901994CF92DF92EF92FF920F931F93CB
:10419000CF93DF9300D000D0CDB7DEB76C01DC0148
:1041A000ED91FC910680F781E02D2D833E834B83BA
:1041B0005C8369837A831995D601ED91FC91028421
:1041C000F385E02D2D813E814B815C8169817A816F
:1041D000C6011995D601ED91FC910288F389E02D75
:1041E000C60126960FB6F894DEBF0FBECDBFDF9195
:1041F000CF911F910F91FF90EF90DF90CF90199486
:10420000CF93DF93EC0189A187FF09C084E00E946E
:104210000D2A81E00E94FF2980E00E94082AECA577
:10422000FDA5908189A9809589238083DF91CF9115
:104230000895EF92FF920F931F93CF93DF931F92F6
:10424000CDB7DEB77C01062F142F40E451E060EFBC
:1042500070E029830E94BE1C82E393E0D70111968F
:104260009C938E935E960C935E975F961C935F97DC
:10427000298190962C9390978FEF91968C9391979C
:1042800092968C93929793968C939397F701128EB4
:10429000138E148E158E602F000F770BFB01E659DD
:1042A000FD4F8491E82FF0E0EE0FFF1FE055FD4F2A
:1042B000859194919D969C938E939C97FB01EC5DC8
:1042C000FD4FE491D196EC93D197412F110F550BEF
:1042D000FA01E659FD4FE491F0E0EE0FFF1FE055C3
:1042E000FD4F85919491F70193A782A7FA01EC5DA8
:1042F000FD4FE491D296EC93D29799961C921E9220
:104300009897D0961C92D09795961C921E9294974F
:104310009E961C929E9797961C921E9296979F9699
:104320001C920F90DF91CF911F910F91FF90EF9012
:104330000895FC0181A187FF05C06EBD0DB407FE85
:10434000FDCF089528E030E090E8A4A1B5A186A5AE
:10435000492F462319F04C91842B03C04C91809532
:1043600084238C93A0A5B1A54C9180A9809584232A
:104370008C93A0A5B1A54C9180A9842B8C93969584
:104380002150310911F70895CF93DF93EC01EAA58D
:10439000FBA590818AA9809589238083CE010E9404
:1043A0009921EAA5FBA590818AA9892B8083DF91B9
:1043B000CF910895CF93DF93EC014115510561052D
:1043C000710521F440E052E16AE770E04A8F5B8FAB
:1043D0006C8F7D8F61E08F8D0E94D91260E08F8D90
:1043E0000E94151361E08E8D0E94D91261E08E8DBE
:1043F0000E94151389A187FD16C061E08AA10E9461
:10440000D91260E08AA10E94151361E089A10E947F
:10441000D91261E089A10E9415138BA187FD03C009
:1044200060E00E94D91289A187FD0E94E92988A134
:1044300087FD21C061E00E94D91261E088A10E943D
:10444000151364E670E080E090E00E94DA1160E00D
:1044500088A10E94151364E670E080E090E00E945D
:10446000DA1161E088A10E94151368EC70E080E029
:1044700090E00E94DA11E881F9810680F781E02D51
:10448000CE0119956FEECE010E94C42163E0CE01EA
:104490000E94992160E8CE010E94992162E0CE013C
:1044A0000E9499216FECCE010E94C42160E0CE01F0
:1044B0000E94992161ECCE010E94992160E3CE0116
:1044C0000E9499216DEECE010E94C42164E6CE01C6
:1044D0000E94992163E0CE010E94992162E1CE0100
:1044E0000E94992161E8CE010E94992168EECE01D7
:1044F0000E94C42165E8CE010E94992160E0CE01AE
:104500000E94992168E7CE010E9499216BECCE01AF
:104510000E94C42169E3CE010E9499216CE2CE0180
:104520000E94992160E0CE010E94992164E3CE01AE
:104530000E94992162E0CE010E94992167EFCE018D
:104540000E94C42160E2CE010E9499216AEECE0150
:104550000E94C42160E0CE010E94992160E0CE015A
:104560000E94992160ECCE010E94C42163E2CE0139
:104570000E94992161ECCE010E94C42160E1CE012C
:104580000E94992165ECCE010E94C4216EE3CE0108
:104590000E94992168E2CE010E94992167ECCE0128
:1045A0000E94C42166E8CE010E94992166E3CE01F3
:1045B0000E94C42168E4CE010E94992167E3CE01E4
:1045C0000E94C42189A187FF09C01EBC0DB407FE4B
:1045D000FDCF1EBC0DB407FEFDCF08C060E0CE01CC
:1045E0000E94992160E0CE010E9499216AE3CE01E8
:1045F0000E94C42165E5CE010E94992161EBCE01A4
:104600000E94C42160E0CE010E94992168E1CE01A0
:104610000E94992166EBCE010E94C42168E0CE0180
:104620000E94992162E8CE010E94992167E2CE01A1
:104630000E94992162EFCE010E94C42160E0CE0168
:104640000E94992166E2CE010E94C42161E0CE0160
:104650000E94992160EECE010E94C4216FE0CE013C
:104660000E94992161E3CE010E9499216BE2CE0163
:104670000E9499216CE0CE010E9499216EE0CE014A
:104680000E94992168E0CE010E9499216EE4CE013A
:104690000E94992161EFCE010E94992167E3CE012A
:1046A0000E94992167E0CE010E94992160E1CE012C
:1046B0000E94992163E0CE010E9499216EE0CE0113
:1046C0000E94992169E0CE010E94992160E0CE010B
:1046D0000E94992161EECE010E94C42160E0CE01CA
:1046E0000E9499216EE0CE010E94992164E1CE01E1
:1046F0000E94992163E0CE010E94992161E1CE01DF
:104700000E94992167E0CE010E94992161E3CE01C8
:104710000E94992161ECCE010E94992168E4CE01AA
:104720000E94992168E0CE010E9499216FE0CE019C
:104730000E9499216CE0CE010E94992161E3CE0193
:104740000E94992166E3CE010E9499216FE0CE017B
:104750000E94992161E1CE010E94C42168E770E0C6
:1047600080E090E00E94DA1169E2CE010E94C4214B
:1047700068E770E080E090E00E94DA11E881F9815A
:104780000288F389E02DCE01199580EF90E099879A
:10479000888780E491E09B878A87DF91CF91089595
:1047A0001F93CF93DF93EC0163706D8B6230C1F088
:1047B000633001F1613051F080EF90E09987888794
:1047C00080E491E09B878A8718E41DC080E491E033
:1047D0009987888780EF90E09B878A8718E213C0CB
:1047E00080EF90E09987888780E491E09B878A87B3
:1047F00018E809C080E491E09987888780EF90E00D
:104800009B878A8718EEE881F9810680F781E02D81
:10481000CE01199566E3CE010E94C421612FCE011D
:104820000E949921E881F9810288F389E02DCE0167
:10483000DF91CF911F9119940F931F93CF93DF9323
:104840001F92CDB7DEB78C01DC01ED91FC910680A3
:10485000F781E02D698319956981611102C060E2D9
:1048600001C061E2C8010E94C421D801ED91FC9110
:104870000288F389E02DC8010F90DF91CF911F913D
:104880000F9119948F929F92AF92BF92CF92DF9225
:10489000EF92FF920F931F93CF93DF93EC014901A7
:1048A00081E0881A9108860E971EC401A0E0B0E04E
:1048B0004B01A12CB12C540199248824882A992ACF
:1048C000AA2ABB2A680181E0C81AD108C40ED51EE5
:1048D000C601A0E0B0E06A01E12CF12C7601DD24F4
:1048E000CC24C82AD92AEA2AFB2A6AE2CE010E94ED
:1048F000C42129A16B2D77278827992727FF18C066
:104900006EBD0DB407FEFDCFC501AA27BB278EBD26
:104910000DB407FEFDCFBB27AB2D9A2D892D8EBD83
:104920000DB407FEFDCF8EBC0DB407FEFDCF14C045
:10493000CE010E949921B50188279927CE010E94B6
:10494000992199278B2D7A2D692DCE010E949921CD
:10495000682DCE010E9499216BE2CE010E94C421F4
:1049600029A16F2D77278827992727FF18C06EBDAB
:104970000DB407FEFDCFC701AA27BB278EBD0DB41E
:1049800007FEFDCFBB27AF2D9E2D8D2D8EBD0DB407
:1049900007FEFDCFCEBC0DB407FEFDCF14C0CE0187
:1049A0000E949921B70188279927CE010E94992159
:1049B00099278F2D7E2D6D2DCE010E9499216C2D72
:1049C000CE010E9499216CE2CE01DF91CF911F911F
:1049D0000F91FF90EF90DF90CF90BF90AF909F909E
:1049E0008F900C94C4211F93CF93DF93262FFC014B
:1049F00031A137FF09C07EBD0DB407FEFDCF2EBD2E
:104A00000DB407FEFDCF0CC0672F122FEC010E94E2
:104A10009921612FCE01DF91CF911F910C949921A3
:104A2000DF91CF911F910895EF92FF920F931F9303
:104A3000CF93DF9377FD23C0DC011896ED91FC91B5
:104A400019976E177F07DCF457FD19C01A96ED9180
:104A5000FC911B974E175F0794F47901EC0101E07C
:104A600010E021E030E00E944224B701CE01DF9146
:104A7000CF911F910F91FF90EF900C94F324DF9151
:104A8000CF911F910F91FF90EF900895EF92FF92B9
:104A90001F93CF93DF9300D01F921F92CDB7DEB745
:104AA0007C01162FFC0181A187FF12C02115310561
:104AB0004105510549F17EBD0DB407FEFDCF1EBD78
:104AC0000DB407FEFDCF2150310941095109EECF48
:104AD0002115310541055105B9F0672FC70129831B
:104AE0003A834B835C837D830E949921612FC701A8
:104AF0000E94992129813A814B815C8121503109A1
:104B0000410951097D81E4CF0F900F900F900F90D4
:104B10000F90DF91CF911F91FF90EF9008958F92AA
:104B20009F92AF92BF92CF92DF92EF92FF920F933C
:104B30001F93CF93DF935C01FB01E9014701DC0187
:104B400018962D913C911997621773070CF049C084
:104B50001A968D919C911B97481759070CF041C0EC
:104B60006B01CC0EDD1ED60111977A01E00EF11E0D
:104B7000B70161507109B7FD34C077FD32C0F7FF4E
:104B800003C0E601E0E0F0E057FF03C0870140E02A
:104B900050E0A217B3071CF0E901CE1BDF0B68172A
:104BA00079071CF08C01041B150B9E01D8010E9493
:104BB000742D6B017C01BF01C5010E944224A70135
:104BC0009601B401C501DF91CF911F910F91FF9024
:104BD000EF90DF90CF90BF90AF909F908F900C940C
:104BE0004625DF91CF911F910F91FF90EF90DF90BD
:104BF000CF90BF90AF909F908F9008954F925F920B
:104C00006F927F929F92AF92BF92CF92DF92EF927C
:104C1000FF920F931F93CF93DF9300D000D0CDB7B7
:104C2000DEB78C0160E0DC0112968C910E94D912F3
:104C300060E0F80183810E94D91261E0D8011596E5
:104C40008C910E94D91261E0F80184810E94D912EE
:104C5000D80150968C9150971896ED91FC91199728
:104C60009081892B808351969C9151971C96ED9150
:104C7000FC911D978081282F30E0892F90E080954E
:104C8000909582239323808312968C910E946212C6
:104C90007C01F80182810E9462129701281B390B66
:104CA0002C5F3F4F2930310548F4A701480F591FA9
:104CB000CA01959587959924939401C0912C2FEF63
:104CC00033E07901E81AF90A60E0D80115968C9171
:104CD0000E94D91260E0F80184810E94D91261E03B
:104CE000D80112968C910E94D91261E0F80183815B
:104CF0000E94D912D80153969C9153971E96ED911C
:104D0000FC911F978081282F30E0892F90E08095BB
:104D1000909582239323808352968C9152971A9672
:104D2000ED91FC911B979081892B808314968C9137
:104D30000E9462126C01F80184810E946212A60135
:104D4000481B590B4C5F5F4F4930510538F49601B1
:104D5000280F391FC9019595879501C0912C4FEFF8
:104D600053E06A01C81AD90A61E0D80115968C91FE
:104D70000E94D91260E0F80182810E94D912D80104
:104D800050969C9150971896ED91FC9119978081BF
:104D9000282F30E0892F90E08095909582239323EF
:104DA000808353968C9153971E96ED91FC911F979B
:104DB0009081892B808314968C910E9462125C01F1
:104DC000F80182810E946212D80116960D911C9101
:104DD00017970115110509F43FC0BC01990F880B05
:104DE000990B0E94EA2B2B013C01B501BB0C880BEF
:104DF000990B0E94EA2B9B01AC01C301B2010E94F6
:104E0000402B20E030E040E85FE30E94CE2A2B01F7
:104E10003C01B7010F2C000C880B990B0E94EA2B68
:104E20009B01AC01C301B2010E949A2C2B013C01F1
:104E3000B80180E090E00E94E82B9B01AC01C30127
:104E4000B2010E949A2C20E030E040E85AE30E9430
:104E50009A2C0E94B22B05C0B501681B790B6150DA
:104E60007C4F911002C060E070E0FA82E982DC823F
:104E7000CB827E836D832E2D3A814C2D5C817E8189
:104E800080E090E026960FB6F894DEBF0FBECDBF4F
:104E9000DF91CF911F910F91FF90EF90DF90CF9016
:104EA000BF90AF909F907F906F905F904F900895CC
:104EB000EF92FF920F931F93DC0112964C9312977F
:104EC00014962C93149713960C93139715966C9332
:104ED00015971796FC92EE92169770E0FB01E65933
:104EE000FD4FE491F0E0EE0FFF1FE055FD4F85917F
:104EF000949119969C938E93189750E0FA01E65975
:104F0000FD4FE491F0E0EE0FFF1FE055FD4F85915E
:104F100094911B969C938E931A9730E0F901E65971
:104F2000FD4FE491F0E0EE0FFF1FE055FD4F85913E
:104F300094911D969C938E931C9710E0F801E6596E
:104F4000FD4F849190E0880F991F80559D4FFC0183
:104F5000859194911F969C938E931E97FB01EC5D17
:104F6000FD4F649150966C935097FA01EC5DFD4FA4
:104F7000449152964C935297F901EC5DFD4F249168
:104F800051962C935197F801EC5DFD4F0491539687
:104F90000C9353978AE090E08D939C931F910F910F
:104FA000FF90EF9008956F927F928F929F92AF92B1
:104FB000BF92CF92DF92EF92FF920F931F93CF9306
:104FC000DF93EC01009789F4CB01DF91CF911F9122
:104FD0000F91FF90EF90DF90CF90BF90AF909F9098
:104FE0008F907F906F900C94BC28FC01E60FF71F08
:104FF0009C0122503109E217F30708F4ACC0D90133
:105000000D911C91119706171707B0F00530110587
:1050100008F49FC0C80104978617970708F499C041
:1050200002501109061B170B019311936D937C938A
:10503000CF010E9451298DC05B01A01AB10A4C0119
:10504000800E911EA091CC06B091CD0640E050E0BC
:10505000E12CF12C109709F44AC0A815B905D1F537
:105060006D907C901197630182E0C80ED11CCA1428
:10507000DB0480F1A3014A195B096A0182E0C80ED2
:10508000D11C1296BC9012971396AC91B5E0CB163A
:10509000D10440F0B282A38351834083D9016D9340
:1050A0007C930AC00E5F1F4FC301800F911FF9014F
:1050B00091838083EB2DFA2FE114F10431F0D701B5
:1050C0001396FC93EE93129744C0F093CD06E093B1
:1050D000CC063FC08D919C9111974817590708F451
:1050E000AC017D0112960D90BC91A02DB3CF8091A3
:1050F000CA069091CB0688159905E1F44617570723
:10510000C8F48091090290910A02009741F48DB78A
:105110009EB740910D0250910E02841B950BE8172B
:10512000F907C8F4F093CB06E093CA06F90171833E
:1051300060830FC0CB010E94BC287C01009759F00E
:10514000A801BE010E94A02ACE010E945129C701D8
:1051500004C0CE0102C080E090E0DF91CF911F91AA
:105160000F91FF90EF90DF90CF90BF90AF909F9006
:105170008F907F906F900895CF93DF938230910549
:1051800010F482E090E0E091CC06F091CD0620E0B2
:1051900030E0C0E0D0E0309711F1408151814817F4
:1051A0005907C0F04817590761F48281938120970D
:1051B00019F09B838A832BC09093CD068093CC06F5
:1051C00026C02115310519F04217530718F49A012A
:1051D000BE01DF01EF010280F381E02DDCCF21155C
:1051E000310509F1281B390B2430310590F4129652
:1051F0008D919C9113976115710521F0FB019383AB
:10520000828304C09093CD068093CC06FD01329634
:1052100044C0FD01E20FF31F8193919322503109A5
:105220002D933C933AC02091CA063091CB06232B94
:1052300041F420910B0230910C023093CB06209365
:10524000CA062091090230910A022115310541F464
:105250002DB73EB740910D0250910E02241B350B25
:10526000E091CA06F091CB06E217F307A0F42E1BDB
:105270003F0B2817390778F0AC014E5F5F4F2417BA
:10528000350748F04E0F5F1F5093CB064093CA0678
:105290008193919302C0E0E0F0E0CF01DF91CF91E4
:1052A00008950F931F93CF93DF93009709F48CC059
:1052B000FC013297138212820091CC061091CD0628
:1052C0000115110581F420813181820F931F2091F6
:1052D000CA063091CB062817390779F5F093CB062B
:1052E000E093CA0671C0D80140E050E0AE17BF0796
:1052F00050F412962D913C911397AD012115310573
:1053000009F1D901F3CF9D01DA0133832283608152
:105310007181860F971F8217930769F4EC0128812A
:105320003981260F371F2E5F3F4F318320838A81BB
:105330009B8193838283452B29F4F093CD06E093E0
:10534000CC0642C01396FC93EE931297ED0149915F
:1053500059919E01240F351FE217F30771F48081E4
:105360009181840F951F029611969C938E93828152
:10537000938113969C938E931297E0E0F0E0D8010E
:1053800012968D919C911397009719F0F8018C015A
:10539000F6CF8D919C9198012E5F3F4F820F931F06
:1053A0002091CA063091CB062817390769F4309747
:1053B00029F41092CD061092CC0602C013821282FC
:1053C0001093CB060093CA06DF91CF911F910F91E6
:1053D000089561E085E30E94151361E085E30E9472
:1053E000D9128CB580618CBD8CB580648CBD61E0B8
:1053F00084E30E94D91261E083E30C94D9128111F5
:1054000003C08CB5806202C08CB58F7D8CBD0895C1
:105410009CB5937F892B8CBD08959CB5282F237054
:105420009C7F922B9CBD2DB582FB992790F9822FF2
:105430008E7F892B8DBD08958F929F92AF92BF92E0
:10544000CF92DF92EF92FF92CF93DF93EC016881CE
:1054500079818A819B81611571058105910521F40E
:1054600064E279ED8BE597E02DE133EF41E050E028
:105470000E944D2D49015A019B01AC01A7EAB1E4FC
:105480000E94922D6B017C01ACEEB4EFA50194015A
:105490000E94A02DDC01CB018C0D9D1DAE1DBF1DFA
:1054A000B7FF03C00197A109B04888839983AA83F5
:1054B000BB83BC01CD019F77DF91CF91FF90EF902F
:1054C000DF90CF90BF90AF909F908F9008950C94F5
:1054D0001C2A80E092E00C941C2A609300027093D6
:1054E0000102809302029093030208951F93FC012E
:1054F00099278827BC01E89411911032E9F31930FB
:1055000010F01E30C8F31B3251F01D3249F468947C
:1055100006C00E94B92A610F711D811D911D119154
:1055200010531A30B0F33EF49095809570956195C4
:105530007F4F8F4F9F4F1F910895F8940C94B92D72
:10554000FB01DC0102C001900D9241505040D8F7A0
:105550000895FB01DC018D91019080190110D9F3B0
:10556000990B0895FB01DC0101900D920020E1F7F9
:105570000895592F482F372F262F660F771F881F22
:10558000991F660F771F881F991F620F731F841F53
:10559000951F660F771F881F991F08955058BB27C6
:1055A000AA270E94E62A0C94602C0E94522C38F004
:1055B0000E94592C20F039F49F3F19F426F40C94E2
:1055C0004F2C0EF4E095E7FB0C94492CE92F0E9438
:1055D000712C58F3BA17620773078407950720F0F8
:1055E00079F4A6F50C94932C0EF4E0950B2EBA2FBB
:1055F000A02D0B01B90190010C01CA01A0011124D9
:10560000FF27591B99F0593F50F4503E68F11A1684
:10561000F040A22F232F342F4427585FF3CF469515
:1056200037952795A795F0405395C9F77EF41F1637
:10563000BA0B620B730B840BBAF09150A1F0FF0F01
:10564000BB1F661F771F881FC2F70EC0BA0F621FED
:10565000731F841F48F4879577956795B795F795DD
:105660009E3F08F0B0CF9395880F08F09927EE0F72
:105670009795879508950E94252C08F481E0089558
:105680000E94542B0C94602C0E94592C58F00E94BC
:10569000522C40F029F45F3F29F00C94492C511111
:1056A0000C94942C0C944F2C0E94712C68F3992329
:1056B000B1F3552391F3951B550BBB27AA2762170E
:1056C0007307840738F09F5F5F4F220F331F441F1B
:1056D000AA1FA9F335D00E2E3AF0E0E832D091504F
:1056E0005040E695001CCAF72BD0FE2F29D0660F3C
:1056F000771F881FBB1F261737074807AB07B0E87F
:1057000009F0BB0B802DBF01FF2793585F4F3AF084
:105710009E3F510578F00C94492C0C94942C5F3FDB
:10572000E4F3983ED4F3869577956795B795F7950A
:105730009F5FC9F7880F911D9695879597F90895F2
:10574000E1E0660F771F881FBB1F6217730784078E
:10575000BA0720F0621B730B840BBA0BEE1F88F79D
:10576000E09508950E94B92B6894B1110C94942C83
:1057700008950E94792C88F09F5798F0B92F9927A7
:10578000B751B0F0E1F0660F771F881F991F1AF02C
:10579000BA95C9F714C0B13091F00E94932CB1E0D2
:1057A00008950C94932C672F782F8827B85F39F0D1
:1057B000B93FCCF3869577956795B395D9F73EF4C5
:1057C00090958095709561957F4F8F4F9F4F08956D
:1057D000E89409C097FB3EF490958095709561958B
:1057E0007F4F8F4F9F4F9923A9F0F92F96E9BB2741
:1057F0009395F695879577956795B795F111F8CFBD
:10580000FAF4BB0F11F460FF1BC06F5F7F4F8F4F27
:105810009F4F16C0882311F096E911C0772321F01D
:105820009EE8872F762F05C0662371F096E8862FB5
:1058300070E060E02AF09A95660F771F881FDAF70C
:10584000880F9695879597F90895990F0008550F39
:10585000AA0BE0E8FEEF16161706E807F907C0F0F6
:1058600012161306E407F50798F0621B730B840BFE
:10587000950B39F40A2661F0232B242B252B21F4D8
:1058800008950A2609F4A140A6958FEF811D811D78
:10589000089597F99F6780E870E060E008959FEFB2
:1058A00080EC089500240A941616170618060906B7
:1058B000089500240A941216130614060506089586
:1058C000092E0394000C11F4882352F0BB0F40F40E
:1058D000BF2B11F460FF04C06F5F7F4F8F4F9F4F4E
:1058E000089557FD9058440F551F59F05F3F71F0D0
:1058F0004795880F97FB991F61F09F3F79F0879537
:105900000895121613061406551FF2CF4695F1DFBF
:1059100008C0161617061806991FF1CF869571054F
:10592000610508940895E894BB2766277727CB0183
:1059300097F908950E94AD2C0C94602C0E94522C73
:1059400038F00E94592C20F0952311F00C94492C2A
:105950000C944F2C11240C94942C0E94712C70F3F5
:10596000959FC1F3950F50E0551F629FF001729F04
:10597000BB27F00DB11D639FAA27F00DB11DAA1F13
:10598000649F6627B00DA11D661F829F2227B00D60
:10599000A11D621F739FB00DA11D621F839FA00DEB
:1059A000611D221F749F3327A00D611D231F849F3B
:1059B000600D211D822F762F6A2F11249F57504092
:1059C0009AF0F1F088234AF0EE0FFF1FBB1F661F0D
:1059D000771F881F91505040A9F79E3F510580F0D6
:1059E0000C94492C0C94942C5F3FE4F3983ED4F330
:1059F000869577956795B795F795E7959F5FC1F77A
:105A0000FE2B880F911D9695879597F90895DB01D8
:105A10008F939F930E94922DBF91AF91A29F800D73
:105A2000911DA39F900DB29F900D1124089597FB97
:105A3000072E16F4009407D077FD09D00E94A52DFB
:105A400007FC05D03EF4909581959F4F0895709581
:105A500061957F4F0895A1E21A2EAA1BBB1BFD0181
:105A60000DC0AA1FBB1FEE1FFF1FA217B307E4073D
:105A7000F50720F0A21BB30BE40BF50B661F771F95
:105A8000881F991F1A9469F7609570958095909575
:105A90009B01AC01BD01CF010895052E97FB1EF4BB
:105AA00000940E94642D57FD07D00E942B2D07FC07
:105AB00003D04EF40C94642D50954095309521956B
:105AC0003F4F4F4F5F4F089590958095709561952A
:105AD0007F4F8F4F9F4F0895EE0FFF1F881F8BBF83
