:100000000C94F5030C9426040C9426040C942604FA
:100010000C9426040C9426040C9426040C942604B8
:100020000C9426040C9426040C9426040C942604A8
:100030000C9426040C9426040C9426040C94260498
:100040000C9426040C9426040C9426040C94260488
:100050000C9426040C9426040C9426040C948B1007
:100060000C9426040C949E150C946A160C94260489
:100070000C9426040C9426040C9426040C94260458
:100080000C9426040C9426040C9426040C94260448
:100090000C94D1150C94A9160C9426040C942604E7
:1000A0000C9426040C9426040C9426040C94260428
:1000B0000C9426040C9426040C9426040C94260418
:1000C0000C9426040C9426040C9426040C94041618
:1000D0000C94E8160C9426040C9437160C942717ED
:1000E0000C942604CA11CD11C011C4110412D111EF
:1000F000D511DB11DF11E311E911ED11F11104123A
:10010000F711FB11FF110C94311F0C94901A0C94F1
:10011000B41F0C94D7190C94CD110C947A1F0C9425
:10012000BB240C94C0110C942C200C94D6190C9464
:10013000E3110C94DE190C94F1110C94CA110C9477
:10014000061A0C94B4060C9440240C94EA190C94EE
:1001500034060C94EA140C94ED110C94071A0C94C8
:10016000751B0C94441F0C94211E0C944C1A0C9477
:1001700048230C94D1110C9437150C94FF1A0C944D
:1001800071120C9442150C94FB110C94DF110C9419
:10019000DB110C94121F0C942D190C94F6190C946D
:1001A000E11A0C94FC220C94EE170C94F7110C94A9
:1001B000EB140C94D41B0C94C4110C94FB140C94ED
:1001C00017150C94FF110C9404120C94E9110C9463
:1001D000EE1F0C94D5110C941D1F0C94D51B000020
:1001E000090A02080B0C0D070603040100000000B9
:1001F00000000000000000000000000000000000FF
:100200000000000000000000000011100F000000BE
:1002100000000000000000000000000000000000DE
:1002200000000000010210202008081020401020CB
:1002300040800201020108040201010204081020AA
:1002400040808040201008040201800402018040A8
:100250002010080402010804020101020408102011
:1002600040800102040810204080050505050705AF
:1002700008080808020202020A0A08080404040422
:10028000010101010101010103030303030303034E
:10029000040707070C0C0C0C0C0C0C0C02020202DD
:1002A00006060606060606060B0B0B0B0B0B0B0BC6
:1002B00000002200250028002B002E003100340011
:1002C00002010000050108010B01000021002400CB
:1002D00027002A002D003000330001010000040136
:1002E00007010A0100000000003E5B4F5B3E3E6BD1
:1002F0004F6B3E1C3E7C3E1C183C7E3C181C577DC0
:10030000571C1C5E7F5E1C00183C1800FFE7C3E70B
:10031000FF0018241800FFE7DBE7FF30483A060E1D
:100320002629792926407F050507407F05253F5A64
:100330003CE73C5A7F3E1C1C08081C1C3E7F1422D4
:100340007F22145F5F005F5F06097F017F0066897F
:10035000956A606060606094A2FFA29408047E04C5
:100360000810207E201008082A1C08081C2A0808EB
:100370001E101010100C1E0C1E0C30383E383006AB
:100380000E3E0E06000000000000005F00000007A7
:10039000000700147F147F14242A7F2A12231308D5
:1003A000646236495620500008070300001C2241B1
:1003B000000041221C002A1C7F1C2A08083E080855
:1003C0000080703000080808080800006060002005
:1003D000100804023E5149453E00427F40007249E8
:1003E0004949462141494D331814127F102745458C
:1003F00045393C4A494931412111090736494949A2
:1004000036464949291E000014000000403400000F
:100410000008142241141414141400412214080278
:10042000015909063E415D594E7C1211127C7F49EB
:100430004949363E414141227F4141413E7F494940
:1004400049417F090909013E414151737F0808086C
:100450007F00417F41002040413F017F081422413D
:100460007F404040407F021C027F7F0408107F3E97
:100470004141413E7F090909063E4151215E7F0904
:10048000192946264949493203017F01033F40406B
:10049000403F1F2040201F3F4038403F6314081456
:1004A0006303047804036159494D43007F4141418E
:1004B0000204081020004141417F0402010204406F
:1004C00040404040000307080020545478407F28F3
:1004D0004444383844444428384444287F385454E9
:1004E000541800087E090218A4A49C787F0804040C
:1004F0007800447D40002040403D007F10284400AB
:1005000000417F40007C047804787C08040478383B
:1005100044444438FC1824241818242418FC7C086B
:10052000040408485454542404043F44243C4040E8
:10053000207C1C2040201C3C4030403C442810289B
:10054000444C9090907C4464544C440008364100E4
:100550000000770000004136080002010204023C5E
:100560002623263C1EA1A161123A4040207A38542D
:1005700054555921555579412254547842215554A6
:10058000784020545579400C1E52721239555555F9
:1005900059395454545939555454580000457C41E4
:1005A0000002457D420001457C407D1211127DF024
:1005B000282528F07C545545002054547C547C0A4E
:1005C000097F4932494949323A4444443A324A4817
:1005D00048303A4141217A3A42402078009DA0A01B
:1005E0007D3D4242423D3D4040403D3C24FF24246D
:1005F000487E4943662B2FFC2F2BFF0929F620C08C
:10060000887E090320545479410000447D413048DC
:10061000484A32384040227A007A0A0A727D0D191F
:10062000317D2629292F28262929292630484D4081
:1006300020380808080808080808382F10C8ACBA7D
:100640002F102834FA00007B000008142A142222FC
:10065000142A14085500550055AA55AA55AAFF5545
:10066000FF55FF000000FF00101010FF00141414CD
:10067000FF001010FF00FF1010F010F0141414FC15
:10068000001414F700FF0000FF00FF1414F404FC32
:10069000141417101F10101F101F1414141F001013
:1006A0001010F0000000001F101010101F1010108C
:1006B00010F010000000FF1010101010101010109B
:1006C000FF10000000FF140000FF00FF00001F10DB
:1006D000170000FC04F414141710171414F404F495
:1006E0000000FF00F714141414141414F700F71486
:1006F0001414171410101F101F141414F4141010D5
:10070000F010F000001F101F0000001F1400000078
:10071000FC140000F010F01010FF10FF141414FF70
:10072000141010101F00000000F010FFFFFFFFFF6B
:10073000F0F0F0F0F0FFFFFF0000000000FFFF0FFF
:100740000F0F0F0F3844443844FC4A4A4A347E02A3
:10075000020606027E027E02635549416338444424
:100760003C04407E201E2006027E020299A5E7A5D9
:10077000991C2A492A1C4C7201724C304A4D4D304A
:100780003048784830BC625A463D3E494949007E6F
:100790000101017E2A2A2A2A2A44445F4444405106
:1007A0004A444040444A51400000FF0103E080FFBA
:1007B000000008086B6B083612362436060F090F46
:1007C00006000018180000001010003040FF010162
:1007D000001F01011E00191D1712003C3C3C3C008B
:1007E000000000003406EE17B40611241FBECFEF40
:1007F000D1E2DEBFCDBF00E00CBF13E0A0E0B2E06D
:10080000EEEEF9E500E00BBF02C007900D92A435B3
:10081000B107D9F726E0A4E5B3E001C01D92AC3CD6
:10082000B207E1F713E0C4EFD3E000E006C0219780
:100830000109802FFE010E94982CC23FD10780E061
:100840000807A9F70E9487100C94C9290C9400008E
:100850002F923F924F925F926F927F928F929F92D0
:10086000AF92BF92CF92DF92EF92FF920F931F93BE
:10087000CF93DF93CDB7DEB72C970FB6F894DEBFDA
:100880000FBECDBF84E593E00E942A252F833887D1
:1008900049875A876B877C876F80788469857A85DA
:1008A0008B849C84C4010A978F3D934058F010922A
:1008B0009C0310929B031A8219821C821B829E82C7
:1008C0008D8243C0072E000C880B990B1F921F923C
:1008D00021E02F9320E42F93A12CB12C650118E97E
:1008E000E12E13E0F12E00E010E024E630E040E0DD
:1008F00050E00E94EC181B012C01B301770C880B0F
:10090000990B1F921F921F9220EF2F9310E7E12E59
:1009100013E0F12E00E010E020EA30E040E050E08B
:100920000E94EC1821E020939B033A82298220EF59
:1009300030E0C901861B970B9C838B839E828D823E
:100940000FB6F894DEBF0FBECDBF29813A814B812F
:100950005C816D817E8180E090E02C960FB6F894EA
:10096000DEBF0FBECDBFDF91CF911F910F91FF90E2
:10097000EF90DF90CF90BF90AF909F908F907F903F
:100980006F905F904F903F902F9008952F923F92DD
:100990004F925F926F927F928F929F92AF92BF928F
:1009A000CF92DF92EF92FF920F931F93CF93DF933B
:1009B000CDB7DEB727970FB6F894DEBF0FBECDBF19
:1009C0008DE30E948E110E94C0184FE0642E44E017
:1009D000742E50E1252E312C412C512CA12CB12C00
:1009E000C201B1010E94C8186B017C0166E070E091
:1009F00080E090E00E94C81847E04C9D90014D9D1A
:100A0000300D1124F901EA55FC4F4F01CF010E942E
:100A1000BC14FC0160818FE993E00E948914850178
:100A2000037011277501F594E794F594E794B501E7
:100A30008FE993E00E94BC1497012F5F3F4FFAE0CB
:100A4000F29FA001F39F500D112468E26E9D90016A
:100A50006F9D300D1124420F531F465F5F4F980169
:100A60002F5F3F4FF29FB001F39F700D1124E8E21A
:100A7000E09F9001E19F300D1124620F731F645FAE
:100A80007F4F23E0C22EEE24EA94FE2C00E010E01B
:100A9000FC01208188E693E00E940B1CB401CE018A
:100AA00001960E943A14B301C4010E942314BE01AE
:100AB0006F5F7F4FC3010E942314CE0101960E94F5
:100AC0009F13FFEFAF1ABF0A41E0241A3108410813
:100AD000510857E0651A710860E1A616B10409F0E3
:100AE0007FCF27960FB6F894DEBF0FBECDBFDF9144
:100AF000CF911F910F91FF90EF90DF90CF90BF901B
:100B0000AF909F908F907F906F905F904F903F90AD
:100B10002F900895CF93DF9300D000D0CDB7DEB7EC
:100B200049835A836B837C8389819A81EB81FC8121
:100B3000823D910544F5E23DF1052CF58F3C2FEF08
:100B400092074CF0883C910544F462E370E00E9407
:100B5000432C262F03C020E001C023E0EF3C8FEFA1
:100B6000F8074CF0E83CF10544F4CF0162E370E093
:100B70000E94432C03C060E001C063E0862F880F11
:100B8000880F820F01C080E126960FB6F894DEBF71
:100B90000FBECDBFDF91CF910895FC01442309F42E
:100BA0003FC0DC0150E0CD018E1B9F0B84179507E1
:100BB00024F48D916813F7CF31C04E0F5F1FFA01F7
:100BC00031978081262F237030E0982F9370291B56
:100BD000310937FF03C031952195310922303105A4
:100BE000ECF490E0262F2695269530E0AC01559543
:100BF000479555954795F901E41BF50BAF01959580
:100C00008795959587951416150624F4413051055E
:100C100029F406C0821B930B029714F080E108951B
:100C2000862F089580919D0390919E0342E850E0A5
:100C30008A30910518F46FEF70E008C08436910592
:100C400018F469EF70E002C063EF70E088E693E0AB
:100C50000E94F71E60919D0370919E034AE050E050
:100C600088E693E00C949913EF92FF920F936FE054
:100C700072E086EA93E00E940D1466E172E08DEA6C
:100C800093E00E940D146DE172E084EB93E00E940A
:100C90000D1464E272E08BEB93E00E940D146BE2A2
:100CA00072E082EC93E00E940D1462E372E089EC42
:100CB00093E00E940D1469E372E080ED93E00E94DE
:100CC0000D1460E472E087ED93E00E940D1467E478
:100CD00072E08EED93E00E940D146EE472E085EEFA
:100CE00093E00E940D1465E572E08CEE93E00E94A3
:100CF0000D146CE572E083EF93E00E940D1463E63F
:100D000072E08AEF93E00E940D146AE672E081E0DF
:100D100094E00E940D1461E772E088E094E00E9484
:100D20000D1468E772E08FE094E00E940D1462EE0B
:100D300072E08FE993E00E940D142FEF49E06AE022
:100D400088E693E00E9445208CE2E82EFF24F3948D
:100D500005E029E348E364E084E593E00E9484260B
:100D60000F91FF90EF900895CF93DF938FE993E079
:100D70000E949F13C6E1D4E02797CE010E949F13E3
:100D800083E0C63AD807C1F7DF91CF9108950E945A
:100D90002C1140E855E260E070E086E894E00E94A3
:100DA000661786E894E00E94371540E050E0BA01EB
:100DB00088E693E00E94062161E088E693E00E94C5
:100DC000FC2260E088E693E00E940F1F63E088E663
:100DD00093E00E94FD1E60E070E088E693E00C94D2
:100DE000E11AAF92BF92CF92DF92EF92FF920F93F0
:100DF0001F93CF93DF93EC015B016A0160E070E029
:100E000088E693E00E94031FEE24EA94FE2C0EE194
:100E100010E024E630E0A501BE0188E693E00E94E0
:100E2000EE1FA5014C5F5F4FF6012481358162E121
:100E3000629FC001639F900D112424E630E0281BBF
:100E4000390B36952795B9016C0F7D1F88E693E025
:100E50000E94F71EB60188E693E0DF91CF911F91C3
:100E60000F91FF90EF90DF90CF90BF90AF900C94D8
:100E7000AE129F92AF92BF92CF92DF92EF92FF920B
:100E80000F931F93CF93DF93982E362F3370832FBA
:100E900090E001962AE0289FE001299FD00D1124BF
:100EA00088E2389FC00DD11D112466956695862F66
:100EB00090E00196289F6001299FD00C112488E2C0
:100EC000689FC00CD11C11247A0108E210E028E2CE
:100ED00030E0A601BE0188E693E00E94EE1FA60165
:100EE000465F5F4FBE01645F7F4F83E0C82E00E026
:100EF00010E0292D88E693E00E940B1CDF91CF9132
:100F00001F910F91FF90EF90DF90CF90BF90AF9027
:100F10009F900895EF92FF920F931F93CF93DF93CB
:100F2000EC01E12CF12C0EE511E022ED30E042ED78
:100F300050E060E070E088E693E00E94EE1F42ED32
:100F400050E06AE070E088E693E00E94F71EBE0180
:100F500088E693E00E94AE1240E050E06FEF7FEF32
:100F600088E693E0DF91CF911F910F91FF90EF9072
:100F70000C94091FCF93DF93CDB7DEB727970FB639
:100F8000F894DEBF0FBECDBF63E088E693E00E9419
:100F9000FD1E6FE772E0CE0101960E940D14AE01B6
:100FA0004F5F5F4F6AE070E082ED90E00E94F106D3
:100FB000CE0101960E949F1365E872E0CE01019672
:100FC0000E940D14AE014F5F5F4F60EA70E082ED4A
:100FD00090E00E94F106CE0101960E949F1369E8FD
:100FE00072E0CE0101960E940D14AE014F5F5F4F7B
:100FF00068EC70E082ED90E00E94F106CE0101966F
:101000000E949F1340E050E060E078EF88E693E0B4
:101010000E94091F6EE872E0CE0101960E940D1435
:10102000CE0101960E948A07CE0101960E949F136D
:1010300027960FB6F894DEBF0FBECDBFDF91CF91DC
:1010400008954F925F926F927F928F929F92AF928C
:10105000BF92CF92DF92EF92FF920F931F93CF93A5
:10106000DF9300D01F92CDB7DEB74B015C010E9429
:10107000D51028EE33E040E050E00E94572CCA0122
:10108000B9010E94142B2B013C0180910402909124
:101090000502A0910602B091070289839A83AB836F
:1010A000BC83BC01CD010E94142B6B017C01C501E6
:1010B000B4010E94142B9B01AC01C301B2010E9438
:1010C000FA299B01AC01C701B6010E94FA29A701C8
:1010D00096010E94672A882309F452C089819A8167
:1010E000AB81BC810B97A105B10528F040E550E02C
:1010F00069EF70E012C0E12CF12C00E110E028E172
:1011000030E040E550E069EF70E088E693E00E944F
:10111000EE1F40E550E06EEF70E088E693E00E943D
:10112000F71EC0900402D0900502E0900602F090F5
:1011300007020E94D5108C0C9D1CAE1CBF1C28EE13
:1011400033E040E050E00E94572CD501C401821BDF
:10115000930BA40BB50BAC01BD01809304029093DB
:101160000502A0930602B09307022AE030E088E669
:1011700093E00E948C13C301B2010E94E52A02C0D1
:10118000B401C5010F900F900F900F90DF91CF9198
:101190001F910F91FF90EF90DF90CF90BF90AF9095
:1011A0009F908F907F906F905F904F900895DF9207
:1011B000EF92FF920F931F93CF93DF93CDB7DEB7DC
:1011C00027970FB6F894DEBF0FBECDBFD82E62EEC4
:1011D00072E0CE0101960E940D14CE0101960E948C
:1011E0008A07CE0101960E949F13E12CF12C00EF9B
:1011F00010E024E630E040E050E062ED70E088E688
:1012000093E00E94EE1F6FE772E0CE0101960E940C
:101210000D14AE014F5F5F4F6AE070E082ED90E029
:101220000E94F106CE0101960E949F1369E972E0C7
:10123000CE0101960E940D14AE014F5F5F4F60EA30
:1012400070E082ED90E00E94F106CE0101960E94CE
:101250009F136FE972E0CE0101960E940D14AE015A
:101260004F5F5F4F68EC70E082ED90E00E94F10606
:10127000CE0101960E949F1362E088E693E00E94EF
:10128000FD1E40E050E06FEF7FEF88E693E00E94A4
:10129000091F4CE350E06DEE70E088E693E00E9499
:1012A000F71E65EA72E088E693E00E94E31240E5EB
:1012B00050E069EF70E088E693E00E94F71E4091ED
:1012C00004025091050260910602709107022AE023
:1012D00030E088E693E00E948C134EE650E061EE29
:1012E00070E088E693E00E94F71E6AEA72E088E602
:1012F00093E00E94E31242E850E06FEF70E088E66E
:1013000093E00E94F71E60919D0370919E034AE056
:1013100050E088E693E00E949913DD2099F00EE1F9
:1013200010E062EE72E08FE993E00E9444140E94A4
:10133000C60401501109A9F76FE973E086E894E04B
:101340000E94001327960FB6F894DEBF0FBECDBFE4
:10135000DF91CF911F910F91FF90EF90DF90089553
:10136000CF92DF92EF92FF920F931F93CF93DF9371
:101370002AE0C22ED12CCAE0D0E0EE24EA94FE2C62
:1013800008E210E028E230E0AE01B60188E693E022
:101390000E94EE1FE296C23DD10579F782E3C80EA6
:1013A000D11C82EDC816D10431F7EE24EA94FE2C4C
:1013B0000CED10E024E630E04AE050E062ED70E031
:1013C00088E693E00E94EE1F40E650E06BEE70E08E
:1013D00088E693E00E94F71E4FEF5FEF60E070E059
:1013E00088E693E00E94091F65E872E088E693E0D2
:1013F0000E94E31244E850E061EE70E088E693E07A
:101400000E94F71E61EB72E088E693E0DF91CF91D6
:101410001F910F91FF90EF90DF90CF900C94E3120B
:101420004F925F926F927F928F929F92AF92BF92F4
:10143000CF92DF92EF92FF920F931F93CF93DF93A0
:101440007901A82FA370B0E0E62FE370F0E08D01E2
:10145000EA17FB070CF48F01382F36953695262FA7
:1014600026952695C32F231708F4C22F682763708B
:10147000D0E0C80101966C01611138C0219682E369
:101480008C9F50018D9FB00C11248AE08C9DB0017F
:101490008D9D700D1124072E000C880B990B0E9456
:1014A000162B2B013C01B801110F880B990B0E94E0
:1014B000162B20E030E040E05FE30E94FB2920E0B3
:1014C00030E040E252E40E94C62B9B01AC01C30114
:1014D000B2010E94FB290E94DE2A87012AE030E047
:1014E000A50188E693E00E947A1FA4C023133AC0A6
:1014F000CE0101962AE0289FB001299F700D11248A
:10150000072E000C880B990B0E94162B4B015C01D7
:10151000BE01DD0F880B990B0E94162B20E030E0F6
:1015200040E05FE30E94FB2920E030E040E252E42B
:101530000E94C62B9B01AC01C501B4010E94FB298E
:101540000E94DE2A22E32C9DF0012D9DF00D112436
:1015500087012AE030E0AB01BF0188E693E00E94FA
:10156000B41F68C0AD01AE17BF070CF4AF01832FE5
:10157000321708F4822F682F70E008E2809FC001C4
:1015800011248A010F5F1F4F5801EA17FB0714F45B
:10159000231728F0AE17BF0734F5321720F56F5F19
:1015A0007F4F3AE0369F8001379F100D1124080FBE
:1015B000191F3A9DC0013B9D900D112468E2649F64
:1015C0009001659F300D1124280F391F219682E369
:1015D0008C9FA0018D9F500D11248C9DB0018D9D7D
:1015E000700D112423C02196E2E3EC9F8001ED9F52
:1015F000100D1124FAE0FA9DD001FB9DB00D1124CD
:10160000C8E2C49F9001C59F300D11242A0F3B1FD3
:101610006F5F7F4FF69FA001F79F500D1124480F79
:10162000591FEC9DB001ED9D700D112488E693E0EB
:101630000E94FF1ADF91CF911F910F91FF90EF90C1
:10164000DF90CF90BF90AF909F908F907F906F90E2
:101650005F904F900895AF92BF92CF92DF92EF923A
:10166000FF920F931F93CF93DF93CDB7DEB72797EA
:101670000FB6F894DEBF0FBECDBF7C018B016A01AF
:1016800062EE72E00E940D14A12CB12CF80184814D
:1016900095810197A816B90668F4B501C8010E94A2
:1016A000BC14FC016081C7010E948914FFEFAF1ACE
:1016B000BF0AECCFB701CE0101960E943A14CE01C9
:1016C00001960E948A07CE0101960E949F13F8019D
:1016D0006481758161507109F601E60FF71FB080D2
:1016E000C8010E94BC144FEF5FEF6B2DFC0180819D
:1016F0000E943907F801448155814230510568F054
:10170000C601840F951FFC013197DC01129720E080
:1017100030E060818C910E94100AF80124813581AB
:10172000F601E20FF31F319780E18083C70127960E
:101730000FB6F894DEBF0FBECDBFDF91CF911F91E2
:101740000F91FF90EF90DF90CF90BF90AF900895F2
:10175000EF92FF920F931F93CF93DF93CDB7DEB736
:101760002E970FB6F894DEBF0FBECDBF8C017B0164
:1017700062EE72E0C8010E949D1481111CC0B80184
:10178000CE0108960E943A14A701BE01685F7F4F00
:10179000CE0101960E942B0BBE016F5F7F4FC801E7
:1017A0000E942314CE0101960E949F13CE01089639
:1017B0000E949F13DDCF2E960FB6F894DEBF0FBEAA
:1017C000CDBFDF91CF911F910F91FF90EF900895C2
:1017D0008F929F92AF92BF92CF92DF92EF92FF9241
:1017E0000F931F93CF93DF93482F46954695242F51
:1017F00030E02F5F3F4F9AE0929F5001939FB00CD3
:10180000112428E2429FA00CB11C11248370282FC0
:1018100030E02F5F3F4F929F4001939F900C112427
:1018200098E2899F800C911C112498E2C92ED12C3A
:10183000C0E0D0E0AE014A0D5B1DBE01680D791D10
:10184000E12C88EFF82E8601960188E693E00E944D
:10185000751B219622E0C21AD108C530D10551F777
:10186000DF91CF911F910F91FF90EF90DF90CF907C
:10187000BF90AF909F908F900895CF93DF93EC012E
:1018800062EE72E00E940D1486E894E00E94FB1460
:101890008A97D1F386E894E00E9417158A3029F0E0
:1018A000682FCE010E948914F5CF6AE286E894E0A1
:1018B0000E94241386E894E00E94371562E370E0EA
:1018C00080E090E00E940611CE01DF91CF91089553
:1018D0004F925F926F927F928F929F92AF92BF9240
:1018E000DF92EF92FF920F931F93CF93DF93CDB7C9
:1018F000DEB72E970FB6F894DEBF0FBECDBFE12C3A
:10190000F12C00EF10E024E630E040E050E062ED22
:1019100070E088E693E00E94EE1F63E088E693E0C3
:101920000E94FD1E66EB72E0CE0101960E940D142E
:10193000AE014F5F5F4F6AE070E082ED90E00E9481
:10194000F106CE0101960E949F136BEB72E0CE016F
:1019500001960E940D14AE014F5F5F4F62E370E08D
:1019600082ED90E00E94F106CE0101960E949F1345
:1019700065E872E0CE0101960E940D14AE014F5F42
:101980005F4F60EA70E082ED90E00E94F106CE01C8
:1019900001960E949F1369E872E0CE0101960E94B1
:1019A0000D14AE014F5F5F4F68EC70E082ED90E088
:1019B0000E94F106CE0101960E949F134AE550E075
:1019C00062ED70E088E693E00E94F71E62E088E630
:1019D00093E00E94FD1E40E050E06FEF7FEF88E64D
:1019E00093E00E94091F60EC72E088E693E00E9499
:1019F000E3124EE650E062ED70E088E693E00E946C
:101A0000F71E66EC72E088E693E00E94E312CE01D6
:101A100001960E943D0CCE0101960E94DF144B01FD
:101A20005C01CE0101960E949F134EE650E068EFE4
:101A300070E088E693E00E94F71E4AE050E0B401AF
:101A400088E693E00E94991340E050E060EE77E072
:101A500088E693E00E94091F4CE850E062ED70E0D8
:101A600088E693E00E94F71E6AEC72E088E693E055
:101A70000E94E312CE0101960E943D0CCE01019618
:101A80000E94DF142B013C01CE0101960E949F139E
:101A90004CE850E068EF70E088E693E00E94F71EA3
:101AA0004AE050E0B20188E693E00E949913CE012B
:101AB00008960E943D0C2C853D85E216F30668F5DC
:101AC000CE0101960E943D0CCE0101960E94DF14CA
:101AD000162FCE0101960E949F13612F70E08FE9AF
:101AE00093E00E94BC1440EE57E0612FFC0180811E
:101AF0000E943907E114F10421F4812F0E94E80BC0
:101B000007C020EE37E04C85612F8D2D0E94100A12
:101B1000FFEFEF1AFF0AD12ECECF40E050E06FEF7B
:101B20007FEF88E693E00E94091FBE01685F7F4F48
:101B3000CE0101960E943A14CE0101960E948A07B6
:101B4000CE0101960E949F13CE0108960E949F131A
:101B5000C4012E960FB6F894DEBF0FBECDBFDF9145
:101B6000CF911F910F91FF90EF90DF90BF90AF90BA
:101B70009F908F907F906F905F904F900895CF933C
:101B8000DF9300D000D0CDB7DEB70E94680C0E9472
:101B90002804FDCFBF92CF92DF92EF92FF920F9376
:101BA0001F93CF93DF93CDB7DEB72E970FB6F89480
:101BB000DEBF0FBECDBF7C018B016A0186E894E0D9
:101BC0000E94001386E894E00E94EB140197D1F77D
:101BD00086E894E00E941715B82E81E3B81216C06B
:101BE000F80124813581225031092730310510F068
:101BF00026E030E080919D0390919E03280F391FCD
:101C000030939E0320939D030E94120662EE72E0C1
:101C1000C8010E949D1481111CC0B801CE01089614
:101C20000E943A14A601BE01685F7F4FCE01019663
:101C30000E942B0BBE016F5F7F4FC8010E942314CF
:101C4000CE0101960E949F13CE0108960E949F1319
:101C5000DDCFF1E340E050E0BF1209C060EE77E075
:101C600088E693E00E94091F6EEC72E008C060E015
:101C700078EF88E693E00E94091F6AED72E0CE01DA
:101C800001960E940D14CE0101960E948A07CE0192
:101C900001960E949F13B801C7010E943A14C70120
:101CA0002E960FB6F894DEBF0FBECDBFDF91CF9159
:101CB0001F910F91FF90EF90DF90CF90BF9008950C
:101CC000CF92DF92EF92FF920F931F93CF93DF9308
:101CD000CDB7DEB764970FB6F894DEBF0FBECDBFA9
:101CE0006C012F87388B498B5A8B29893A898F85CC
:101CF0009889833D91050CF459C0293C31053CF18C
:101D0000F80184819581892BD9F0B801CE0108961C
:101D10000E943A14A701BE01685F7F4FCE01019671
:101D20000E94CA0DBE016F5F7F4FC8010E9423143D
:101D3000CE0101960E949F13CE0108960E949F1328
:101D400068EC70E080E090E00E9406112FC0213A1C
:101D500031059CF0F80184819581892B71F0B801DF
:101D6000CE0108960E943A14A701BE01685F7F4F1A
:101D7000CE0101960E942B0BD5CF2832310504F7F6
:101D800063EE72E086E894E00E941213B801CE017F
:101D900001960E943A14B701CE0101960E94A80B49
:101DA000CE0101960E949F130E94BF0DB801C6018B
:101DB0000E943A14C60164960FB6F894DEBF0FBEB7
:101DC000CDBFDF91CF911F910F91FF90EF90DF90EA
:101DD000CF9008957F928F929F92AF92BF92CF92B1
:101DE000DF92EF92FF920F931F93CF93DF93CDB7C4
:101DF000DEB7AB970FB6F894DEBF0FBECDBF0E9423
:101E0000D70880E19E012F5F3F4F6901F901282F1C
:101E100011922A95E9F7898362EE72E0CE014F961E
:101E20000E940D140E94D51028EE33E040E050E0EF
:101E30000E94572CCA01B9010E94142B4B015C016E
:101E40008091040290910502A0910602B0910702D0
:101E5000892B8A2B8B2B09F499C0C501B4010E94F0
:101E6000E52A0E9421080E94142B4B015C010E946C
:101E70002804F42FE52FCB012EA33FA3F8A7E9A751
:101E80006AA79BA740919B034423D1F240919C03F6
:101E90004111D6CFA9016F2F7E2F0E948A05782E7F
:101EA000BE01615E7F4FCE0148960E943A147601D2
:101EB0008E01085E1F4F2EA13FA148A559A56AA516
:101EC0007BA5CE0141960E94600EBE016F5E7F4FE2
:101ED000CE014F960E942314CE0141960E949F137B
:101EE000C8010E949F134BA1672DC6010E94CD051A
:101EF000182F803108F045C0682F70E08FE993E01B
:101F00000E94BC14FC016081CE014F960E9489148E
:101F1000EBA1FCA1EC0FFD1F1083BE01615E7F4FA2
:101F2000CE0141960E943A14CE0141960E948A0742
:101F3000CE0141960E949F138BA19CA1BC016150D0
:101F40007109CE014F960E94BC1440EE57E0612FFC
:101F5000FC0180810E9439074BA15CA142305105F0
:101F600068F0EFEFFFEFEC0FFD1FE40FF51F20EE21
:101F700037E0612F80810E94100A03C0812F0E94E8
:101F8000E80B80919B0380939C035ACFBE01615E56
:101F90007F4FCE0148960E943A14A601BE01685EAA
:101FA0007F4FCE0141960E94CA0DBE016F5E7F4FEA
:101FB000CE014F960E942314CE0141960E949F139A
:101FC000CE0148960E949F1365EE72E086E894E089
:101FD0000E9412130E945710CE014F960E949F1329
:101FE000AB960FB6F894DEBF0FBECDBFDF91CF9199
:101FF0001F910F91FF90EF90DF90CF90BF90AF9027
:102000009F908F907F900895CF93DF9300D000D062
:10201000CDB7DEB749835A836B837C838B819C81E8
:1020200029813A81223D3105CCF14CE350E060E05A
:1020300070E040930402509305026093060270938F
:10204000070210929E0310929D03893C910544F073
:1020500060EF72E086E894E00E94121380E00AC00C
:10206000813A91058CF062EF72E086E894E00E947C
:10207000121381E026960FB6F894DEBF0FBECDBFD7
:10208000DF91CF910C94EA0E889744F463EE72E0EE
:1020900086E894E00E9412130E94BF0D26960FB6A8
:1020A000F894DEBF0FBECDBFDF91CF910895CF93DF
:1020B000DF9300D000D0CDB7DEB70E94BA070E94F0
:1020C0002804F42FE52FCB0140919B034423B9F35F
:1020D00040919C034111F3CFA9016F2F7E2F0E94E5
:1020E0000410EDCFCF93DF9300D000D0CDB7DEB793
:1020F0000E94B0090E94280429833A8389819A8129
:10210000833D9105BCF381E00E94EA0EF3CF0E946B
:10211000C7060E9472101F920F920FB60F921124E1
:102120002F933F938F939F93AF93BF938091170407
:1021300090911804A0911904B0911A0430911604DA
:1021400023E0230F2D3720F40196A11DB11D05C0FA
:1021500026E8230F0296A11DB11D2093160480933B
:10216000170490931804A0931904B0931A04809153
:102170001B0490911C04A0911D04B0911E040196B3
:10218000A11DB11D80931B0490931C04A0931D04FA
:10219000B0931E04BF91AF919F918F913F912F916A
:1021A0000F900FBE0F901F9018952FB7F894609165
:1021B0001704709118048091190490911A042FBF8C
:1021C00008953FB7F89480911B0490911C04A0914E
:1021D0001D04B0911E0426B5A89B05C02F3F19F021
:1021E0000196A11DB11D3FBFBA2FA92F982F882797
:1021F000820F911DA11DB11DBC01CD0142E0660FF2
:10220000771F881F991F4A95D1F70895CF92DF92C3
:10221000EF92FF92CF93DF936B017C010E94E1105C
:10222000EB01C114D104E104F10479F00E94E11042
:102230006C1B7D0B683E7340A0F381E0C81AD10887
:10224000E108F108C851DC4FECCFDF91CF91FF904E
:10225000EF90DF90CF900895789484B5826084BD2C
:1022600084B5816084BD85B5826085BD85B581609A
:1022700085BDEEE6F0E0808181608083E1E8F0E0FA
:102280001082808182608083808181608083E0E829
:10229000F0E0808181608083E1EBF0E08081846008
:1022A0008083E0EBF0E0808181608083E1E9F0E011
:1022B000808182608083808181608083E0E9F0E0BA
:1022C000808181608083E1EAF0E0808182608083A8
:1022D000808181608083E0EAF0E08081816080839A
:1022E000E1E2F1E08081826080838081816080838F
:1022F000E0E2F1E0808181608083EAE7F0E08081C4
:10230000846080838081826080838081816080831B
:102310008081806880831092C1000895863308F020
:10232000865390917B00282F2870977F922B909353
:102330007B0087702091080290E4299F900111246E
:10234000822B80937C0080917A00806480937A0055
:1023500080917A0086FDFCCF8091780020917900F1
:1023600090E0922B089590E0FC013197E131F10566
:1023700008F04AC08827EE58FF4F8F4F0C94982CD6
:10238000809180008F7703C0809180008F7D809343
:102390008000089584B58F7702C084B58F7D84BD99
:1023A00008958091B0008F7703C08091B0008F7D39
:1023B0008093B0000895809190008F7707C080913E
:1023C00090008F7D03C080919000877F8093900064
:1023D00008958091A0008F7707C08091A0008F7D25
:1023E00003C08091A000877F8093A0000895809112
:1023F00020018F7707C0809120018F7D03C08091DD
:102400002001877F809320010895CF93DF9390E090
:10241000FC01EC5DFD4F2491FC01E659FD4F8491D8
:10242000882361F190E0880F991FFC01E653FD4F6E
:10243000C591D491FC01E055FD4FA591B491611176
:1024400009C09FB7F8948881209582238883EC91F6
:102450002E230BC0623061F49FB7F8943881822F2D
:10246000809583238883EC912E2B2C939FBF06C0ED
:102470008FB7F894E8812E2B28838FBFDF91CF91FF
:1024800008951F93CF93DF93282F30E0F901E25294
:10249000FE4F8491F901EC5DFD4FD491F901E659AD
:1024A000FD4FC491CC23C9F0162F81110E94B311A6
:1024B000EC2FF0E0EE0FFF1FE055FD4FA591B4911A
:1024C0008FB7F894111105C09C91ED2FE095E92389
:1024D00002C0EC91ED2BEC938FBFDF91CF911F9158
:1024E0000895CF92DF92EF92FF920F931F93CF93B5
:1024F000DF936C01EB017B01E40EF51E00E010E0C0
:10250000CE15DF0561F06991D601ED91FC91019046
:10251000F081E02DC6011995080F191FF1CFC801F0
:10252000DF91CF911F910F91FF90EF90DF90CF90AF
:1025300008956115710579F0FB0101900020E9F71C
:102540003197AF01461B570BDC01ED91FC910280E6
:10255000F381E02D199480E090E00895AF92BF924E
:10256000CF92DF92EF92FF920F931F93CF93DF935F
:102570006C017B01C0E0D0E000E010E0D7011496D0
:102580008D919C911597C817D90788F4D601ED91C4
:10259000FC91A080B180BE01C7010E94CE14682FBB
:1025A000C601F5011995080F191F2196E7CFC8013B
:1025B000DF91CF911F910F91FF90EF90DF90CF901F
:1025C000BF90AF9008950C949912DC01ED91FC91AD
:1025D0000190F081E02D19940F931F93CF93DF9317
:1025E000EC016DE00E94E5128C016AE0CE010E94D0
:1025F000E512800F911FDF91CF911F910F910895E8
:102600000F931F93CF93DF93EC010E94AE128C01C6
:10261000CE010E94EC12800F911FDF91CF911F918C
:102620000F9108950F931F93CF93DF93EC010E94B6
:1026300099128C01CE010E94EC12800F911FDF9144
:10264000CF911F910F9108950F931F93CF93DF9315
:10265000EC010E94E5128C01CE010E94EC12800F69
:10266000911FDF91CF911F910F9108958F929F92AB
:10267000AF92BF92CF92DF92EF92FF920F931F9390
:10268000CF93DF93CDB7DEB7A1970FB6F894DEBF37
:102690000FBECDBF6C01142FE52FCB01022F19A265
:1026A000223008F40AE07E0121E2E20EF11C802EC5
:1026B000912CA12CB12C612F7E2FA50194010E9499
:1026C000572C029F1019112481E0E81AF1081A30E2
:1026D00014F4105D01C0195CF7011083122FE32F71
:1026E000CA01232B242B252B31F7B701C6010E94E9
:1026F0009912A1960FB6F894DEBF0FBECDBFDF9141
:10270000CF911F910F91FF90EF90DF90CF90BF90EE
:10271000AF909F908F9008952115310541F4DC0111
:10272000ED91FC910190F081E02D642F19940C94AF
:1027300036139A01AB0160E070E00C948C13FC013D
:10274000808191810C947D28CF93DF93EC01888167
:102750009981009711F00E947D28198218821D82AC
:102760001C821B821A82DF91CF9108950F931F93D1
:10277000CF93DF93EC018B016F5F7F4F888199814D
:102780000E94FF26009731F0998388831B830A8378
:1027900081E001C080E0DF91CF911F910F910895FA
:1027A000CF93DF93EC0188819981892B29F08A816D
:1027B0009B818617970760F4CE010E94B613882389
:1027C00041F08C819D81892B19F4E881F981108277
:1027D00081E0DF91CF910895EF92FF920F931F93C5
:1027E000CF93DF93EC017B018A01BA010E94D013E1
:1027F000811104C0CE010E94A41307C01D830C8365
:10280000B701888199810E94DE29CE01DF91CF91A5
:102810001F910F91FF90EF900895FC01118210829B
:10282000138212821582148216826115710551F08D
:10283000FB0101900020E9F73197AF01461B570BD0
:102840000C94EC130895CF93DF93EC01FB018617F2
:10285000970761F0608171816115710529F04481EC
:1028600055810E94EC1302C00E94A413CE01DF9197
:10287000CF910895FC011182108213821282158279
:10288000148216820C942314CF93DF93EC0161150C
:10289000710559F0FB0101900020E9F73197AF0174
:1028A000461B570B0E94EC1302C00E94A413CE01DA
:1028B000DF91CF910895EF92FF920F931F93CF93E3
:1028C000DF93FC01248135816115710511F480E0ED
:1028D00019C041155105A9F07B01EC018A01020FD5
:1028E000131FB8010E94D013882389F328813981EE
:1028F0008C819D81B701820F931F0E94DE291D8369
:102900000C8381E0DF91CF911F910F91FF90EF90A9
:102910000895CF93DF931F921F92CDB7DEB76983DF
:102920001A8241E050E0BE016F5F7F4F0E945B144E
:102930000F900F90DF91CF910895FC012481358194
:10294000232B31F421E061157105A1F0FB0108C0D2
:10295000FC01808191816115710531F421E0FC0158
:102960008081882339F005C00E94D52921E0892B78
:1029700009F020E0822F0895FC012481358162173F
:10298000730720F480819181009729F410921F042D
:102990008FE194E00895860F971F0895FC0124812C
:1029A00035816217730748F480819181009729F07F
:1029B000FC01E60FF71F8081089580E00895FC0177
:1029C00080819181009711F00C94A22960E070E061
:1029D000CB0108950895FC0124853585F901E05C5B
:1029E000FF4F80819181329620813181821B930B30
:1029F0008F7399270895DC011C96ED91FC911D972A
:102A0000DF01A05CBF4F2D913C91119712968D91E3
:102A10009C9111972817390739F08D919C91E80FF7
:102A2000F91F808190E008958FEF9FEF0895FC01DA
:102A3000A485B585FD01E05CFF4F20813181329690
:102A4000808191812817390779F080819181A80FC1
:102A5000B91F8C91208131812F5F3F4F2F73332716
:102A60003183208390E008958FEF9FEF0895FC015C
:102A700081A1882329F0A489B5898C9186FFFBCF99
:102A800011A208950F931F93CF93DF93FC01A685A6
:102A9000B7858D01005C1F4FE801888199810196FF
:102AA0008F739927AD014E5B5F4FEA012881398111
:102AB00082179307D1F3E80128813981A20FB31F50
:102AC0006C93A685B785A05CBF4F11969C938E939F
:102AD000A689B7892C9181E090E0078C02C0880F0D
:102AE000991F0A94E2F7822B8C9381E081A30488DA
:102AF000F589E02D80818064808381E090E0DF9122
:102B0000CF911F910F910895FB01E05CFF4F208151
:102B100031812F5F3F4F2F733327DB01AE5BBF4FF8
:102B20004D915C912417350741F040815181DB01C3
:102B3000A40FB51F8C933183208308951F920F92A9
:102B40000FB60F9211240BB60F922F933F934F9312
:102B50005F936F937F938F939F93AF93BF93EF9305
:102B6000FF938091C00082FD07C08091C60064E899
:102B700076E00E94841502C08091C600FF91EF911B
:102B8000BF91AF919F918F917F916F915F914F9185
:102B90003F912F910F900BBE0F900FBE0F901F9083
:102BA00018951F920F920FB60F9211240BB60F9229
:102BB0002F933F934F935F936F937F938F939F9345
:102BC000AF93BF93EF93FF938091C80082FD07C03E
:102BD0008091CE006CEF75E00E94841502C0809158
:102BE000CE00FF91EF91BF91AF919F918F917F9117
:102BF0006F915F914F913F912F910F900BBE0F906E
:102C00000FBE0F901F9018951F920F920FB60F9244
:102C100011240BB60F922F933F934F935F936F93B3
:102C20007F938F939F93AF93BF93EF93FF93809185
:102C3000D00082FD07C08091D60064E775E00E9455
:102C4000841502C08091D600FF91EF91BF91AF91A2
:102C50009F918F917F916F915F914F913F912F91B4
:102C60000F900BBE0F900FBE0F901F9018951F92E4
:102C70000F920FB60F9211240BB60F922F933F9322
:102C80004F935F936F937F938F939F93AF93BF9374
:102C9000EF93FF938091300182FD07C08091360150
:102CA0006CEE74E00E94841502C080913601FF91A1
:102CB000EF91BF91AF919F918F917F916F915F91B4
:102CC0004F913F912F910F900BBE0F900FBE0F9021
:102CD0001F9018951F920F920FB60F9211240BB6EA
:102CE0000F922F933F938F939F93EF93FF93209196
:102CF0008006309181068091820690918306281784
:102D0000390731F48091C1008F7D8093C10014C0D8
:102D1000E0918206F0918306E05CF94F208180917A
:102D200082069091830601968F739927909383066C
:102D3000809382062093C600FF91EF919F918F911F
:102D40003F912F910F900BBE0F900FBE0F901F90D1
:102D500018951F920F920FB60F9211240BB60F9277
:102D60002F933F938F939F93EF93FF932091F805B9
:102D70003091F9058091FA059091FB0528173907E4
:102D800031F48091C9008F7D8093C90014C0E09117
:102D9000FA05F091FB05E854FA4F20818091FA057D
:102DA0009091FB0501968F7399279093FB05809373
:102DB000FA052093CE00FF91EF919F918F913F9163
:102DC0002F910F900BBE0F900FBE0F901F90189574
:102DD0001F920F920FB60F9211240BB60F922F93E2
:102DE0003F938F939F93EF93FF93209170053091C2
:102DF000710580917205909173052817390731F498
:102E00008091D1008F7D8093D10014C0E091720534
:102E1000F0917305E05DFA4F2081809172059091E9
:102E2000730501968F7399279093730580937205AC
:102E30002093D600FF91EF919F918F913F912F9119
:102E40000F900BBE0F900FBE0F901F9018951F9202
:102E50000F920FB60F9211240BB60F922F933F9340
:102E60008F939F93EF93FF932091E8043091E904AF
:102E70008091EA049091EB042817390731F480918E
:102E800031018F7D8093310114C0E091EA04F0910B
:102E9000EB04E855FB4F20818091EA049091EB040C
:102EA00001968F7399279093EB048093EA04209303
:102EB0003601FF91EF919F918F913F912F910F904C
:102EC0000BBE0F900FBE0F901F901895CF92DF9200
:102ED000EF92FF920F931F93CF93DF93EC016A0160
:102EE0007B014115514E6105710509F1EC89FD89A0
:102EF00081E090E008A002C0880F991F0A94E2F7D1
:102F0000808360E079E08DE390E0A70196010E9464
:102F1000572C89019A01015011092109310936956F
:102F2000279517950795980101151041A8F0EC8990
:102F3000FD89108260E874E88EE190E0A7019601B7
:102F40000E94572CDA01C9010197A109B109B69570
:102F5000A795979587959C01E889F9893083EA8937
:102F6000FB89208319A2EE89FF89408181E090E0EE
:102F70009C010C8C02C0220F331F0A94E2F7242B11
:102F80002083EE89FF8940819C010D8C02C0220FB5
:102F9000331F0A94E2F7242B2083EE89FF894081B6
:102FA0009C010E8C02C0220F331F0A94E2F7242BDF
:102FB0002083EE89FF8920810F8C02C0880F991F22
:102FC0000A94E2F7809582238083DF91CF911F914D
:102FD0000F91FF90EF90DF90CF900895CF92DF9206
:102FE000EF92FF92E6E8F4E01382128288EEC82E98
:102FF00083E0D82EE12CF12CC482D582E682F782C0
:1030000068EF72E07183608384E896E09587848737
:1030100080E496E09787868785EC90E0918B808BA3
:1030200084EC90E0938B828B80EC90E0958B848B8A
:1030300081EC90E0978B868B82EC90E0918F808F73
:1030400086EC90E0938F828F44E0448F33E0358F9D
:1030500027E0268F95E0978F81E080A3E4E6F4E0F7
:1030600013821282C482D582E682F78271836083E2
:10307000ACEFB5E0B587A487A8EBB5E0B787A68726
:10308000ADECB0E0B18BA08BACECB0E0B38BA28B1D
:10309000A8ECB0E0B58BA48BA9ECB0E0B78BA68B05
:1030A000AAECB0E0B18FA08FAEECB0E0B38FA28FEE
:1030B000448F358F268F978F80A3E2E4F4E013824C
:1030C0001282C482D582E682F78271836083A4E78C
:1030D000B5E0B587A487A0E3B5E0B787A687A5EDDF
:1030E000B0E0B18BA08BA4EDB0E0B38BA28BA0EDD0
:1030F000B0E0B58BA48BA1EDB0E0B78BA68BA2EDB1
:10310000B0E0B18FA08FA6EDB0E0B38FA28F448F57
:10311000358F268F978F80A3E0E2F4E0138212822E
:10312000C482D582E682F782718360836CEE74E09C
:103130007587648768EA74E07787668765E371E07E
:10314000718B608B64E371E0738B628B60E371E081
:10315000758B648B61E371E0778B668B62E371E062
:10316000718F608F66E371E0738F628F448F358F4C
:10317000268F978F80A3FF90EF90DF90CF900895D8
:10318000009729F0BC0180E090E00C949929089503
:10319000CF93DF9300D01F92CDB7DEB761157105D5
:1031A0008105910579F09B01AC0169833A834B83DA
:1031B0005C830E94952929813A814B815C810E9420
:1031C000792C03C060E070E0CB010F900F900F905E
:1031D0000F90DF91CF9108954F925F926F927F92FF
:1031E000AF92BF92CF92DF92EF92FF920F931F9315
:1031F000CF93DF93CDB7DEB729013A019B01AC0134
:1032000024193509460957098A899B89AC89BD89E2
:10321000BC01CD016A197B098C099D090E94332CE0
:10322000A801970124193509460957090E94792CEC
:10323000CA01B9016A0D7B1D8C1D9D1DDF91CF91C7
:103240001F910F91FF90EF90DF90CF90BF90AF90C4
:103250007F906F905F904F9008952F923F924F9282
:103260005F926F927F928F929F92AF92BF92CF9216
:10327000DF92EF92FF920F931F93CF93DF9300D0D3
:10328000CDB7DEB74C017B836A836A015901170110
:103290009801241B350B37FF03C031952195310967
:1032A000C5014A815B81841B950B97FF03C09195F3
:1032B0008195910951E059838217930714F019827F
:1032C0000BC09A2D8B2D5801092F182F9A818B81B5
:1032D000DB82CA82C92ED82E8A819B81A816B906A4
:1032E0005CF49C2D8D2D6801092F182F9A818B81FC
:1032F000BB82AA82A92EB82E2501AA81BB814A1AB7
:103300005B0A38016C187D0877FE03C071946194E4
:103310007108720157FE03C0BFEFEB1AFB0AF59468
:10332000E794C016D1061CF00FEF1FEF1FC001E09D
:1033300010E01CC0D401ED91FC91B9810084F185AD
:10334000E02D9101BB23C1F04A815B81B601C4012C
:103350001995E618F708F7FE04C0C00ED11EE40C5C
:10336000F51CEA81FB813196FB83EA834A815B810C
:10337000A416B506FCF604C0A6016A817B81E7CFDE
:103380000F900F900F90DF91CF911F910F91FF90B1
:10339000EF90DF90CF90BF90AF909F908F907F90F5
:1033A0006F905F904F903F902F9008950895DC01AB
:1033B000ED91FC910480F581E02D19940F931F93FA
:1033C000DC01ED91FC91008CF18DE02D19951F91A0
:1033D0000F9108950F931F93DC01ED91FC91028CE6
:1033E000F38DE02D19951F910F910895EF92FF92A3
:1033F0000F931F93DC01ED91FC91048CF58DE02D72
:1034000019951F910F91FF90EF9008950895AF9235
:10341000BF92CF92DF92EF92FF920F931F93CF93C1
:10342000DF9300D01F92CDB7DEB75C016901DC01EC
:10343000ED91FC910680F781E02D4B835C836983DD
:103440007A831995D501ED91FC914B815C81C40E75
:10345000D51EB1E0CB1AD1080088F189E02D7801A2
:10346000860169817A819B01C5011995D501ED918C
:10347000FC910288F389E02DC5010F900F900F9009
:103480000F90DF91CF911F910F91FF90EF90DF9000
:10349000CF90BF90AF901994AF92BF92CF92DF922E
:1034A000EF92FF920F931F93CF93DF9300D01F9261
:1034B000CDB7DEB75C016901DC01ED91FC910680BE
:1034C000F781E02D4B835C8369837A831995D5015D
:1034D000ED91FC9169817A819B012C0D3D1D21505C
:1034E00031090088F189E02D78014B815C818A01E6
:1034F000C5011995D501ED91FC910288F389E02D64
:10350000C5010F900F900F900F90DF91CF911F91F9
:103510000F91FF90EF90DF90CF90BF90AF901994F4
:103520004F925F926F927F928F929F92AF92BF92D3
:10353000CF92DF92EF92FF920F931F93CF93DF937F
:103540001F921F92CDB7DEB76C015A0139014801B5
:10355000DC01ED91FC910680F781E02D69837A838F
:1035600019956981462E7A81572E640C751CD601F7
:10357000ED91FC91461457046CF40484F585E02D1C
:1035800087019401A501B201C6011995BFEF4B1A3D
:103590005B0AEDCF0288F389E02DC6010F900F90F2
:1035A000DF91CF911F910F91FF90EF90DF90CF901F
:1035B000BF90AF909F908F907F906F905F904F9053
:1035C0001994EF92FF920F931F93DC01ED91FC9100
:1035D00011971A960D911C911B9718962D913C915D
:1035E0001997048CF58DE02D7B0140E050E060E000
:1035F00070E019951F910F91FF90EF900895CF9271
:10360000DF92EF92FF920F931F93CF93DF9300D03F
:1036100000D0CDB7DEB76C01DC01ED91FC916217F3
:10362000730789F4041715072CF4942F852FA8012C
:10363000092F182F041B150B98012F5F3F4F008C8B
:10364000F18DE02D12C04017510709F526173707F5
:103650002CF4962F872FB901292F382F261B370BD3
:103660002F5F3F4F028CF38DE02D8701C601199526
:1036700026960FB6F894DEBF0FBECDBFDF91CF9177
:103680001F910F91FF90EF90DF90CF9008950680EB
:10369000F781E02D2D833E834B835C8369837A839E
:1036A0001995D601ED91FC910088F189E02D2D81CD
:1036B0003E814B815C8169817A81C6011995D60171
:1036C000ED91FC910288F389E02DC60126960FB694
:1036D000F894DEBF0FBECDBFDF91CF911F910F9148
:1036E000FF90EF90DF90CF9019946F927F928F921E
:1036F0009F92AF92BF92CF92DF92EF92FF920F9381
:103700001F93CF93DF93EC014B015A0169013801FC
:10371000E881F9810680F781E02D1995E881F9812A
:103720000684F785E02D87019601A501B401CE013D
:103730001995E881F981A501460D571D41505109A0
:103740000684F785E02D9601B401CE011995E88134
:10375000F9810484F585E02D9301A501B401CE0122
:103760001995E881F981C80CD91CB601615071091D
:103770000484F585E02D9301A501CE011995E8811A
:10378000F9810288F389E02DCE01DF91CF911F915D
:103790000F91FF90EF90DF90CF90BF90AF909F90F0
:1037A0008F907F906F9019940895FC016370658BE2
:1037B0008481958126813781613039F0633029F029
:1037C0009187808733872287089531872087938761
:1037D00082870895FC011382128288E093E091832E
:1037E000808375836483578346837187608753879B
:1037F0004287158A158614861786168681E0848B83
:103800002FEF3FEF338B228B318B208B868B178AE8
:10381000118E108E08952F923F924F925F926F9269
:103820007F928F929F92AF92BF92CF92DF92EF9250
:10383000FF920F931F93CF93DF93CDB7DEB76C97B3
:103840000FB6F894DEBF0FBECDBF9C8F8B8F5B0190
:103850001A011F830E833701C982DC0158964D91EE
:103860005C9159974115510509F0E5C018968D9165
:103870009C911997681779070CF0CAC11A968D9117
:103880009C911B97281639060CF0C2C18C2C912CE8
:10389000FB0136E0C39EE00DF11D1124FB87EA8792
:1038A0001E161F060CF0B4C1C40133E0880F991F27
:1038B0003A95E1F79D878C87820D931D181619069E
:1038C0000CF0A6C157968C91811103C0203B08F0E3
:1038D0002F5FAB8DBC8DED91FC9111970680F78128
:1038E000E02DCD012A8F19952A8DB5E02B9F9001EF
:1038F0001124F5013596FF87EE872501BB82AA8248
:10390000A9014A195B09598B488BC10108969B8B09
:103910008A8BE889F989E40DF51DEC51FD4F9491EE
:1039200098873D822C826101A885A0FF13C0AB8DD2
:10393000BC8DED91FC91B981B13031F40084F185F9
:10394000E02D2E813F8116C00284F385E02DEE80AC
:10395000FF801AC0EE81FF816E167F06F1F0AB8DFD
:10396000BC8DED91FC91B981B13051F40084F185A9
:10397000E02D9301A601B2018B8D9C8D19950DC090
:103980000284F385E02D7301840194014C815D81F3
:103990006A817B818B8D9C8D1995E885E695E887FA
:1039A0002C813D81280D391D3D832C833FEFC31AA7
:1039B000D30A4A895B89C416D50609F0B5CF8A8136
:1039C0009B81880D991D9B838A839FEF491A590A11
:1039D000AE85BF854A165B0609F09BCFEE81FF815D
:1039E0006E167F0609F4F2C0EB8DFC8DA081B181CB
:1039F000F981F13079F4B5016B5F7F4F1C96ED9141
:103A0000FC911D97830128E030E0A1018B8D9C8DF6
:103A10001995DCC06A857B85681979091A96ED913C
:103A2000FC911B9773010C851D859401A1018B8D61
:103A30009C8D1995CBC0FA0134969491329765917B
:103A40007491291BCB01B7E02B9F800D911D112490
:103A5000FA01259134913B8B2A8BFC0145915491BD
:103A60005B834A83FC013296C490319654915C8703
:103A7000329614913196D4908981823058F0612E1B
:103A8000012E000C7708AD2D0D2C000CBB0BB98757
:103A9000A88704C019861886612C712CAB8DBC8D4B
:103AA000ED91FC9111970680F781E02DCD011995DC
:103AB000B9818B2E912C689CC001699C900D789CDB
:103AC000900D1124FC01EA0DFB1DF98BE88B1C8283
:103AD000712C612CE12F110FFF0B95012E0F3F1F51
:103AE0003B872A87AC0CB11CA5014E0F5F1F5F8B73
:103AF0004E8BC1018D0D911DD7FC9A95998F888FA2
:103B00004C85641608F062C0862D90E04885598582
:103B1000480F591F489D9001499D300D589D300D0B
:103B20001124D901A20DB31DBF87AE87AA84BB841F
:103B300048885988DC80BA85DB1AE88DF98DE80F52
:103B4000F91FFD8BEC8B8D2D8A0D2E893F89A216D6
:103B5000B306B9F1877061F48A819B810196EA8985
:103B6000FB89AA81BB81EA0FFB1F74909B838A8328
:103B700077FE20C0AB8DBC8DED91FC91B981B13049
:103B800061F40084F185E02D2E813F814C895D89AF
:103B9000B5018B8D9C8D19950DC00284F385E02DA8
:103BA000EE80FF80840194014E855F85B2018B8D8C
:103BB0009C8D1995770C480C591CEFEFAE1ABE0A74
:103BC000C2CF3C813C0D3C8363949ACFAB8DBC8DBE
:103BD000ED91FC9111970288F389E02DCD016C964F
:103BE0000FB6F894DEBF0FBECDBFDF91CF911F910E
:103BF0000F91FF90EF90DF90CF90BF90AF909F908C
:103C00008F907F906F905F904F903F902F9019947E
:103C10006C960FB6F894DEBF0FBECDBFDF91CF918B
:103C20001F910F91FF90EF90DF90CF90BF90AF90DA
:103C30009F908F907F906F905F904F903F902F90CC
:103C40000895AF92BF92CF92EF92FF920F931F937E
:103C5000CF93DF93EC01262F888D998D009709F083
:103C600040C06A3059F41D861C862C898E859F853C
:103C700038E0239F800D911D112441C06D3009F45F
:103C8000AAC08E898823C1F03C898C859D8546E039
:103C9000349F800D911D1124488559854817590777
:103CA0005CF41D861C868E859F8548E0349F800DC0
:103CB000911D11249F878E87EA88FB8808891989BE
:103CC0004E855F856C857D85CC88CE010E940B1C5E
:103CD0002C898C859D8536E0239F800D911D1124B4
:103CE00042C06A3079F41D861C862C89FC01369608
:103CF000E4918E859F852E9F800D911D11249F87B5
:103D00008E8769C06D3009F466C0FC013496349129
:103D1000631708F460C03196E491E61708F45BC0BD
:103D2000FC013296A590B490462F50E0431B5109F8
:103D300037E0349FB001359F700D1124A60EB71ED9
:103D4000F501329634913196E491332311F0E1116B
:103D50000DC0F5013496E4912C898C859D85E29FF8
:103D6000800D911D11249D878C8735C0F5013596F6
:103D700044915E89552311F16C89E32FF0E0E40F43
:103D8000F11D47FDFA956E9FD0016F9FB00D112474
:103D90004C855D854A0F5B1FE885F985E417F507BB
:103DA0006CF41D861C86FC013696E4918E859F85F9
:103DB0006E9F800D911D11249F878E87EA88FB8856
:103DC000088919894E855F856C857D85CC88CE01F3
:103DD0000E940B1CBECF81E090E0DF91CF911F913C
:103DE0000F91FF90EF90CF90BF90AF900895FC019E
:103DF00075876487578746870895611101C061E020
:103E0000FC01648B0895FC01738B628B718B608B5A
:103E10000895FC01718B608B538B428B0895FC01DC
:103E2000668B0895DC019C96ED91FC919D979081A5
:103E3000D1968C91892B80830895EF92FF920F93F6
:103E40001F93DC01ED91FC910284F385E02D780154
:103E5000890121E030E019951F910F91FF90EF90BB
:103E60000895EF92FF920F931F93DC01ED91FC9167
:103E70000284F385E02D780101E010E019951F918F
:103E80000F91FF90EF9008950F931F93CF93DF93BF
:103E900000D000D0CDB7DEB78C01DC01ED91FC91F4
:103EA0000680F781E02D2D833E834B835C836983FD
:103EB0007A831995D801ED91FC910084F185E02D6C
:103EC0002D813E814B815C8169817A81C801199580
:103ED000D801ED91FC910288F389E02DC801269666
:103EE0000FB6F894DEBF0FBECDBFDF91CF911F910B
:103EF0000F911994EF92FF920F931F93CF93DF933B
:103F000000D000D0CDB7DEB77C01DC01ED91FC9193
:103F10000680F781E02D2D833E834B835C8369838C
:103F20007A831995D701ED91FC910484F585E02DF4
:103F30002D813E814B815C8169817A81C701199510
:103F4000D701ED91FC910288F389E02DC7012696F7
:103F50000FB6F894DEBF0FBECDBFDF91CF911F919A
:103F60000F91FF90EF901994EF92FF920F931F9390
:103F7000CF93DF9300D000D0CDB7DEB77C01DC015A
:103F8000ED91FC910680F781E02D2D833E834B83DC
:103F90005C8369837A831995D701ED91FC9106843E
:103FA000F785E02D2D813E814B815C8169817A818D
:103FB000C7011995D701ED91FC910288F389E02D95
:103FC000C70126960FB6F894DEBF0FBECDBFDF91B6
:103FD000CF911F910F91FF90EF901994CF92DF92A4
:103FE000EF92FF920F931F93CF93DF9300D000D0F7
:103FF000CDB7DEB76C01DC01ED91FC910680F78155
:10400000E02D2D833E834B835C8369837A831995EE
:10401000D601ED91FC910284F385E02D2D813E8146
:104020004B815C8169817A81C6011995D601ED9138
:10403000FC910288F389E02DC60126960FB6F8940C
:10404000DEBF0FBECDBFDF91CF911F910F91FF90CB
:10405000EF90DF90CF901994CF93DF93EC0189A17B
:1040600087FF09C084E00E94392981E00E942B2942
:1040700080E00E943429ECA5FDA5908189A9809556
:1040800089238083DF91CF910895EF92FF920F9360
:104090001F93CF93DF931F92CDB7DEB77C01062F1E
:1040A000142F40E451E060EF70E029830E94EA1B86
:1040B00080E393E0D70111969C938E935E960C93C8
:1040C0005E975F961C935F97298190962C939097AB
:1040D0008FEF91968C93919792968C93929793965B
:1040E0008C939397F701128E138E148E158E602F7A
:1040F000000F770BFB01E659FD4F8491E82FF0E0AC
:10410000EE0FFF1FE055FD4F859194919D969C9376
:104110008E939C97FB01EC5DFD4FE491D196EC935F
:10412000D197412F110F550BFA01E659FD4FE4913C
:10413000F0E0EE0FFF1FE055FD4F85919491F701E0
:1041400093A782A7FA01EC5DFD4FE491D296EC9320
:10415000D29799961C921E929897D0961C92D097BF
:1041600095961C921E9294979E961C929E97979657
:104170001C921E9296979F961C920F90DF91CF9162
:104180001F910F91FF90EF900895FC0181A187FF8F
:1041900005C06EBD0DB407FEFDCF089528E030E0E8
:1041A00090E8A4A1B5A186A5492F462319F04C910A
:1041B000842B03C04C91809584238C93A0A5B1A53A
:1041C0004C9180A9809584238C93A0A5B1A54C9196
:1041D00080A9842B8C9396952150310911F708956D
:1041E000CF93DF93EC01EAA5FBA590818AA9809586
:1041F00089238083CE010E94C520EAA5FBA590817A
:104200008AA9892B8083DF91CF910895CF93DF9383
:10421000EC01411551056105710521F440E052E1C1
:104220006AE770E04A8F5B8F6C8F7D8F61E08F8DC6
:104230000E94051260E08F8D0E94411261E08E8D18
:104240000E94051261E08E8D0E94411289A187FDB6
:1042500016C061E08AA10E94051260E08AA10E9456
:10426000411261E089A10E94051261E089A10E94CA
:1042700041128BA187FD03C060E00E94051289A155
:1042800087FD0E94152988A187FD21C061E00E9459
:10429000051261E088A10E94411264E670E080E0AE
:1042A00090E00E94061160E088A10E94411264E63D
:1042B00070E080E090E00E94061161E088A10E9419
:1042C000411268EC70E080E090E00E940611E88105
:1042D000F9810680F781E02DCE0119956FEECE01B0
:1042E0000E94F02063E0CE010E94C52060E8CE016C
:1042F0000E94C52062E0CE010E94C5206FECCE0175
:104300000E94F02060E0CE010E94C52061ECCE0149
:104310000E94C52060E3CE010E94C5206DEECE0153
:104320000E94F02064E6CE010E94C52063E0CE0129
:104330000E94C52062E1CE010E94C52061E8CE0145
:104340000E94C52068EECE010E94F02065E8CE01F3
:104350000E94C52060E0CE010E94C52068E7CE0122
:104360000E94C5206BECCE010E94F02069E3CE01D3
:104370000E94C5206CE2CE010E94C52060E0CE0103
:104380000E94C52064E3CE010E94C52062E0CE01F8
:104390000E94C52067EFCE010E94F02060E2CE01AE
:1043A0000E94C5206AEECE010E94F02060E0CE019E
:1043B0000E94C52060E0CE010E94C52060ECCE01C5
:1043C0000E94F02063E2CE010E94C52061ECCE0184
:1043D0000E94F02060E1CE010E94C52065ECCE0174
:1043E0000E94F0206EE3CE010E94C52068E2CE015B
:1043F0000E94C52067ECCE010E94F02066E8CE0145
:104400000E94C52066E3CE010E94F02068E4CE0140
:104410000E94C52067E3CE010E94F02089A187FF9A
:1044200009C01EBC0DB407FEFDCF1EBC0DB407FEB7
:10443000FDCF08C060E0CE010E94C52060E0CE0143
:104440000E94C5206AE3CE010E94F02065E5CE01FE
:104450000E94C52061EBCE010E94F02060E0CE01F9
:104460000E94C52068E1CE010E94C52066EBCE0106
:104470000E94F02068E0CE010E94C52062E8CE01D3
:104480000E94C52067E2CE010E94C52062EFCE01E6
:104490000E94F02060E0CE010E94C52066E2CE01BD
:1044A0000E94F02061E0CE010E94C52060EECE01A6
:1044B0000E94F0206FE0CE010E94C52061E3CE0192
:1044C0000E94C5206BE2CE010E94C5206CE0CE01A7
:1044D0000E94C5206EE0CE010E94C52068E0CE019A
:1044E0000E94C5206EE4CE010E94C52061EFCE017E
:1044F0000E94C52067E3CE010E94C52067E0CE017F
:104500000E94C52060E1CE010E94C52063E0CE017B
:104510000E94C5206EE0CE010E94C52069E0CE0158
:104520000E94C52060E0CE010E94C52061EECE0150
:104530000E94F02060E0CE010E94C5206EE0CE0116
:104540000E94C52064E1CE010E94C52063E0CE0137
:104550000E94C52061E1CE010E94C52067E0CE0126
:104560000E94C52061E3CE010E94C52061ECCE010E
:104570000E94C52068E4CE010E94C52068E0CE01FB
:104580000E94C5206FE0CE010E94C5206CE0CE01E4
:104590000E94C52061E3CE010E94C52066E3CE01E2
:1045A0000E94C5206FE0CE010E94C52061E1CE01CE
:1045B0000E94F02068E770E080E090E00E94061121
:1045C00069E2CE010E94F02068E770E080E090E0B0
:1045D0000E940611E881F9810288F389E02DCE015D
:1045E000199580EF90E09987888780E491E09B8718
:1045F0008A87DF91CF9108951F93CF93DF93EC01CA
:1046000063706D8B6230C1F0633001F1613051F045
:1046100080EF90E09987888780E491E09B878A8784
:1046200018E41DC080E491E09987888780EF90E0CE
:104630009B878A8718E213C080EF90E0998788876C
:1046400080E491E09B878A8718E809C080E491E0C4
:104650009987888780EF90E09B878A8718EEE881AA
:10466000F9810680F781E02DCE01199566E3CE0130
:104670000E94F020612FCE010E94C520E881F981BF
:104680000288F389E02DCE01DF91CF911F9119941B
:104690000F931F93CF93DF931F92CDB7DEB78C019B
:1046A000DC01ED91FC910680F781E02D698319957D
:1046B0006981611102C060E201C061E2C8010E942B
:1046C000F020D801ED91FC910288F389E02DC8011A
:1046D0000F90DF91CF911F910F9119948F929F921C
:1046E000AF92BF92CF92DF92EF92FF920F931F9300
:1046F000CF93DF93EC01490181E0881A9108860E7F
:10470000971EC401A0E0B0E04B01A12CB12C5401D4
:1047100099248824882A992AAA2ABB2A680181E038
:10472000C81AD108C40ED51EC601A0E0B0E06A01C7
:10473000E12CF12C7601DD24CC24C82AD92AEA2ADE
:10474000FB2A6AE2CE010E94F02029A16B2D772777
:104750008827992727FF18C06EBD0DB407FEFDCF2F
:10476000C501AA27BB278EBD0DB407FEFDCFBB2711
:10477000AB2D9A2D892D8EBD0DB407FEFDCF8EBCBD
:104780000DB407FEFDCF14C0CE010E94C520B501B7
:1047900088279927CE010E94C52099278B2D7A2D35
:1047A000692DCE010E94C520682DCE010E94C52032
:1047B0006BE2CE010E94F02029A16F2D7727882778
:1047C000992727FF18C06EBD0DB407FEFDCFC701A6
:1047D000AA27BB278EBD0DB407FEFDCFBB27AF2D8B
:1047E0009E2D8D2D8EBD0DB407FEFDCFCEBC0DB41C
:1047F00007FEFDCF14C0CE010E94C520B701882757
:104800009927CE010E94C52099278F2D7E2D6D2DD1
:10481000CE010E94C5206C2DCE010E94C5206CE205
:10482000CE01DF91CF911F910F91FF90EF90DF901C
:10483000CF90BF90AF909F908F900C94F0201F93DB
:10484000CF93DF93262FFC0131A137FF09C07EBD36
:104850000DB407FEFDCF2EBD0DB407FEFDCF0CC07D
:10486000672F122FEC010E94C520612FCE01DF912E
:10487000CF911F910C94C520DF91CF911F91089586
:10488000EF92FF920F931F93CF93DF9377FD23C097
:10489000DC011896ED91FC9119976E177F07DCF4F7
:1048A00057FD19C01A96ED91FC911B974E175F07A3
:1048B00094F47901EC0101E010E021E030E00E9485
:1048C0006E23B701CE01DF91CF911F910F91FF9021
:1048D000EF900C941F24DF91CF911F910F91FF90C7
:1048E000EF900895EF92FF921F93CF93DF9300D044
:1048F0001F921F92CDB7DEB77C01162FFC0181A15C
:1049000087FF12C0211531054105510549F17EBDD2
:104910000DB407FEFDCF1EBD0DB407FEFDCF215027
:10492000310941095109EECF2115310541055105E4
:10493000B9F0672FC70129833A834B835C837D835A
:104940000E94C520612FC7010E94C52029813A819C
:104950004B815C8121503109410951097D81E4CFAE
:104960000F900F900F900F900F90DF91CF911F91AC
:10497000FF90EF9008958F929F92AF92BF92CF9247
:10498000DF92EF92FF920F931F93CF93DF935C011F
:10499000FB01E9014701DC0118962D913C91199723
:1049A000621773070CF049C01A968D919C911B9762
:1049B000481759070CF041C06B01CC0EDD1ED60123
:1049C00011977A01E00EF11EB70161507109B7FD30
:1049D00034C077FD32C0F7FF03C0E601E0E0F0E04D
:1049E00057FF03C0870140E050E0A217B3071CF057
:1049F000E901CE1BDF0B681779071CF08C01041B43
:104A0000150B9E01D8010E94A02C6B017C01BF01F7
:104A1000C5010E946E23A7019601B401C501DF9173
:104A2000CF911F910F91FF90EF90DF90CF90BF90AB
:104A3000AF909F908F900C947224DF91CF911F9133
:104A40000F91FF90EF90DF90CF90BF90AF909F902D
:104A50008F9008954F925F926F927F929F92AF9244
:104A6000BF92CF92DF92EF92FF920F931F93CF935B
:104A7000DF9300D000D0CDB7DEB78C0160E0DC0161
:104A800012968C910E94051260E0F80183810E94C9
:104A9000051261E0D80115968C910E94051261E023
:104AA000F80184810E940512D80150968C9150978C
:104AB0001896ED91FC9119979081892B80835196DE
:104AC0009C9151971C96ED91FC911D978081282F08
:104AD00030E0892F90E08095909582239323808306
:104AE00012968C910E948E117C01F80182810E94A5
:104AF0008E119701281B390B2C5F3F4F2930310550
:104B000048F4A701480F591FCA0195958795992424
:104B1000939401C0912C2FEF33E07901E81AF90A40
:104B200060E0D80115968C910E94051260E0F801B2
:104B300084810E94051261E0D80112968C910E9436
:104B4000051261E0F80183810E940512D801539695
:104B50009C9153971E96ED91FC911F978081282F71
:104B600030E0892F90E08095909582239323808375
:104B700052968C9152971A96ED91FC911B979081C9
:104B8000892B808314968C910E948E116C01F80100
:104B900084810E948E11A601481B590B4C5F5F4F08
:104BA0004930510538F49601280F391FC9019595F0
:104BB000879501C0912C4FEF53E06A01C81AD90ABA
:104BC00061E0D80115968C910E94051260E0F80111
:104BD00082810E940512D80150969C915097189698
:104BE000ED91FC9119978081282F30E0892F90E07A
:104BF0008095909582239323808353968C9153972D
:104C00001E96ED91FC911F979081892B80831496BD
:104C10008C910E948E115C01F80182810E948E119C
:104C2000D80116960D911C9117970115110509F4DD
:104C30003FC0BC01990F880B990B0E94162B2B01CA
:104C40003C01B501BB0C880B990B0E94162B9B01F4
:104C5000AC01C301B2010E946C2A20E030E040E8C0
:104C60005FE30E94FA292B013C01B7010F2C000CD5
:104C7000880B990B0E94162B9B01AC01C301B2015A
:104C80000E94C62B2B013C01B80180E090E00E94FD
:104C9000142B9B01AC01C301B2010E94C62B20E082
:104CA00030E040E85AE30E94C62B0E94DE2A05C08D
:104CB000B501681B790B61507C4F911002C060E018
:104CC00070E0FA82E982DC82CB827E836D832E2DB6
:104CD0003A814C2D5C817E8180E090E026960FB673
:104CE000F894DEBF0FBECDBFDF91CF911F910F9122
:104CF000FF90EF90DF90CF90BF90AF909F907F900C
:104D00006F905F904F900895EF92FF920F931F93D3
:104D1000DC0112964C93129714962C9314971396C9
:104D20000C93139715966C9315971796FC92EE9229
:104D3000169770E0FB01E659FD4FE491F0E0EE0FAD
:104D4000FF1FE055FD4F8591949119969C938E938A
:104D5000189750E0FA01E659FD4FE491F0E0EE0FAC
:104D6000FF1FE055FD4F859194911B969C938E9368
:104D70001A9730E0F901E659FD4FE491F0E0EE0FAB
:104D8000FF1FE055FD4F859194911D969C938E9346
:104D90001C9710E0F801E659FD4F849190E0880FD0
:104DA000991F80559D4FFC01859194911F969C936E
:104DB0008E931E97FB01EC5DFD4F649150966C93B2
:104DC0005097FA01EC5DFD4F449152964C935297E7
:104DD000F901EC5DFD4F249151962C935197F80108
:104DE000EC5DFD4F049153960C9353978AE090E04D
:104DF0008D939C931F910F91FF90EF9008956F9268
:104E00007F928F929F92AF92BF92CF92DF92EF925A
:104E1000FF920F931F93CF93DF93EC01009789F4D8
:104E2000CB01DF91CF911F910F91FF90EF90DF9019
:104E3000CF90BF90AF909F908F907F906F900C9489
:104E4000E827FC01E60FF71F9C0122503109E21709
:104E5000F30708F4ACC0D9010D911C911197061706
:104E60001707B0F00530110508F49FC0C80104977A
:104E70008617970708F499C002501109061B170BF3
:104E8000019311936D937C93CF010E947D288DC077
:104E90005B01A01AB10A4C01800E911EA091CA06B6
:104EA000B091CB0640E050E0E12CF12C109709F4D2
:104EB0004AC0A815B905D1F56D907C901197630192
:104EC00082E0C80ED11CCA14DB0480F1A3014A1988
:104ED0005B096A0182E0C80ED11C1296BC90129741
:104EE0001396AC91B5E0CB16D10440F0B282A38307
:104EF00051834083D9016D937C930AC00E5F1F4F8D
:104F0000C301800F911FF90191838083EB2DFA2F4C
:104F1000E114F10431F0D7011396FC93EE9312974C
:104F200044C0F093CB06E093CA063FC08D919C919C
:104F300011974817590708F4AC017D0112960D909E
:104F4000BC91A02DB3CF8091C8069091C906881559
:104F50009905E1F446175707C8F48091090290912A
:104F60000A02009741F48DB79EB740910D0250910F
:104F70000E02841B950BE817F907C8F4F093C906D5
:104F8000E093C806F901718360830FC0CB010E94D2
:104F9000E8277C01009759F0A801BE010E94CC29A6
:104FA000CE010E947D28C70104C0CE0102C080E06E
:104FB00090E0DF91CF911F910F91FF90EF90DF90E4
:104FC000CF90BF90AF909F908F907F906F900895FB
:104FD000CF93DF938230910510F482E090E0E0916E
:104FE000CA06F091CB0620E030E0C0E0D0E0309778
:104FF00011F14081518148175907C0F048175907EE
:1050000061F482819381209719F09B838A832BC05E
:105010009093CB068093CA0626C02115310519F05E
:105020004217530718F49A01BE01DF01EF01028015
:10503000F381E02DDCCF2115310509F1281B390B57
:105040002430310590F412968D919C91139761153F
:10505000710521F0FB019383828304C09093CB06FA
:105060008093CA06FD01329644C0FD01E20FF31F92
:1050700081939193225031092D933C933AC0209112
:10508000C8063091C906232B41F420910B023091C0
:105090000C023093C9062093C80620910902309172
:1050A0000A022115310541F42DB73EB740910D029A
:1050B00050910E02241B350BE091C806F091C906F1
:1050C000E217F307A0F42E1B3F0B2817390778F0DF
:1050D000AC014E5F5F4F2417350748F04E0F5F1F3E
:1050E0005093C9064093C8068193919302C0E0E0B3
:1050F000F0E0CF01DF91CF9108950F931F93CF93ED
:10510000DF93009709F48CC0FC013297138212825E
:105110000091CA061091CB060115110581F420817A
:105120003181820F931F2091C8063091C90628173C
:10513000390779F5F093C906E093C80671C0D80124
:1051400040E050E0AE17BF0750F412962D913C910D
:105150001397AD012115310509F1D901F3CF9D0157
:10516000DA013383228360817181860F971F821752
:10517000930769F4EC0128813981260F371F2E5FD0
:105180003F4F318320838A819B8193838283452B88
:1051900029F4F093CB06E093CA0642C01396FC9321
:1051A000EE931297ED01499159919E01240F351FFD
:1051B000E217F30771F480819181840F951F0296A5
:1051C00011969C938E938281938113969C938E93D8
:1051D0001297E0E0F0E0D80112968D919C91139720
:1051E000009719F0F8018C01F6CF8D919C919801F0
:1051F0002E5F3F4F820F931F2091C8063091C90642
:105200002817390769F4309729F41092CB061092C9
:10521000CA0602C0138212821093C9060093C80600
:10522000DF91CF911F910F91089561E085E30E9476
:10523000411261E085E30E9405128CB580618CBD4E
:105240008CB580648CBD61E084E30E94051261E04E
:1052500083E30C940512811103C08CB5806202C0F7
:105260008CB58F7D8CBD08959CB5937F892B8CBDAB
:1052700008959CB5282F23709C7F922B9CBD2DB543
:1052800082FB992790F9822F8E7F892B8DBD0895FF
:105290008F929F92AF92BF92CF92DF92EF92FF9246
:1052A000CF93DF93EC01688179818A819B816115BD
:1052B00071058105910521F464E279ED8BE597E0B4
:1052C0002DE133EF41E050E00E94792C49015A0171
:1052D0009B01AC01A7EAB1E40E94BE2C6B017C01EA
:1052E000ACEEB4EFA50194010E94CC2CDC01CB0103
:1052F0008C0D9D1DAE1DBF1DB7FF03C00197A109F9
:10530000B04888839983AA83BB83BC01CD019F7772
:10531000DF91CF91FF90EF90DF90CF90BF90AF9053
:105320009F908F9008950C94482980E092E00C940F
:1053300048296093000270930102809302029093C7
:10534000030208951F93FC0199278827BC01E89464
:1053500011911032E9F3193010F01E30C8F31B32EE
:1053600051F01D3249F4689406C00E94E529610F8E
:10537000711D811D911D119110531A30B0F33EF42F
:1053800090958095709561957F4F8F4F9F4F1F919E
:105390000895F8940C94E52CFB01DC0102C0019007
:1053A0000D9241505040D8F70895FB01DC018D91DA
:1053B000019080190110D9F3990B0895FB01DC01CC
:1053C00001900D920020E1F70895592F482F372FB3
:1053D000262F660F771F881F991F660F771F881F5C
:1053E000991F620F731F841F951F660F771F881FF9
:1053F000991F08955058BB27AA270E94122A0C947F
:105400008C2B0E947E2B38F00E94852B20F039F4E3
:105410009F3F19F426F40C947B2B0EF4E095E7FBE8
:105420000C94752BE92F0E949D2B58F3BA17620735
:1054300073078407950720F079F4A6F50C94BF2B29
:105440000EF4E0950B2EBA2FA02D0B01B90190019F
:105450000C01CA01A0011124FF27591B99F0593FE3
:1054600050F4503E68F11A16F040A22F232F342F2B
:105470004427585FF3CF469537952795A795F04079
:105480005395C9F77EF41F16BA0B620B730B840B8E
:10549000BAF09150A1F0FF0FBB1F661F771F881F46
:1054A000C2F70EC0BA0F621F731F841F48F487959E
:1054B00077956795B795F7959E3F08F0B0CF939590
:1054C000880F08F09927EE0F9795879508950E9409
:1054D000512B08F481E008950E94802A0C948C2BB3
:1054E0000E94852B58F00E947E2B40F029F45F3FEC
:1054F00029F00C94752B51110C94C02B0C947B2B20
:105500000E949D2B68F39923B1F3552391F3951BCA
:10551000550BBB27AA2762177307840738F09F5FD4
:105520005F4F220F331F441FAA1FA9F335D00E2E41
:105530003AF0E0E832D091505040E695001CCAF7AE
:105540002BD0FE2F29D0660F771F881FBB1F261771
:1055500037074807AB07B0E809F0BB0B802DBF0148
:10556000FF2793585F4F3AF09E3F510578F00C9417
:10557000752B0C94C02B5F3FE4F3983ED4F38695D3
:1055800077956795B795F7959F5FC9F7880F911D38
:105590009695879597F90895E1E0660F771F881F24
:1055A000BB1F621773078407BA0720F0621B730BD7
:1055B000840BBA0BEE1F88F7E09508950E94E52A48
:1055C0006894B1110C94C02B08950E94A52B88F00B
:1055D0009F5798F0B92F9927B751B0F0E1F0660FB7
:1055E000771F881F991F1AF0BA95C9F714C0B130F8
:1055F00091F00E94BF2BB1E008950C94BF2B672F50
:10560000782F8827B85F39F0B93FCCF38695779526
:105610006795B395D9F73EF490958095709561950F
:105620007F4F8F4F9F4F0895E89409C097FB3EF43A
:1056300090958095709561957F4F8F4F9F4F9923DF
:10564000A9F0F92F96E9BB279395F695879577955D
:105650006795B795F111F8CFFAF4BB0F11F460FF1D
:105660001BC06F5F7F4F8F4F9F4F16C0882311F075
:1056700096E911C0772321F09EE8872F762F05C089
:10568000662371F096E8862F70E060E02AF09A9524
:10569000660F771F881FDAF7880F9695879597F919
:1056A0000895990F0008550FAA0BE0E8FEEF1616B3
:1056B0001706E807F907C0F012161306E407F50706
:1056C00098F0621B730B840B950B39F40A2661F07A
:1056D000232B242B252B21F408950A2609F4A1401D
:1056E000A6958FEF811D811D089597F99F6780E82A
:1056F00070E060E008959FEF80EC089500240A9424
:105700001616170618060906089500240A9412169C
:105710001306140605060895092E0394000C11F4CF
:10572000882352F0BB0F40F4BF2B11F460FF04C07C
:105730006F5F7F4F8F4F9F4F089557FD9058440FD5
:10574000551F59F05F3F71F04795880F97FB991FE0
:1057500061F09F3F79F0879508951216130614069D
:10576000551FF2CF4695F1DF08C01616170618062A
:10577000991FF1CF86957105610508940895E89405
:10578000BB2766277727CB0197F908950E94D92B6D
:105790000C948C2B0E947E2B38F00E94852B20F0DD
:1057A000952311F00C94752B0C947B2B11240C94E5
:1057B000C02B0E949D2B70F3959FC1F3950F50E075
:1057C000551F629FF001729FBB27F00DB11D639FB3
:1057D000AA27F00DB11DAA1F649F6627B00DA11D59
:1057E000661F829F2227B00DA11D621F739FB00DFF
:1057F000A11D621F839FA00D611D221F749F33276F
:10580000A00D611D231F849F600D211D822F762F07
:105810006A2F11249F5750409AF0F1F088234AF0E4
:10582000EE0FFF1FBB1F661F771F881F9150504050
:10583000A9F79E3F510580F00C94752B0C94C02B5A
:105840005F3FE4F3983ED4F3869577956795B795D7
:10585000F795E7959F5FC1F7FE2B880F911D9695F1
:10586000879597F90895DB018F939F930E94BE2C33
:10587000BF91AF91A29F800D911DA39F900DB29FEC
:10588000900D1124089597FB072E16F4009407D06D
:1058900077FD09D00E94D12C07FC05D03EF49095ED
:1058A00081959F4F0895709561957F4F0895A1E26E
:1058B0001A2EAA1BBB1BFD010DC0AA1FBB1FEE1F8A
:1058C000FF1FA217B307E407F50720F0A21BB30BD5
:1058D000E40BF50B661F771F881F991F1A9469F751
:1058E00060957095809590959B01AC01BD01CF01AD
:1058F0000895052E97FB1EF400940E94902C57FDEE
:1059000007D00E94572C07FC03D04EF40C94902C27
:1059100050954095309521953F4F4F4F5F4F0895DB
:1059200090958095709561957F4F8F4F9F4F08950B
:10593000EE0FFF1F881F8BBF0790F691E02D199483
:105940000E94A82C332312F48A1B9B0B0C94B92CB5
:10595000A29FB001B39FC001A39F700D811D1124B0
:10596000911DB29F700D811D1124911D08950E94FB
:10597000A82CB7FF0895821B930B08950E94A82CB2
:10598000A59F900DB49F900DA49F800D911D112493
:105990000895B7FF0C94BE2C0E94BE2C821B930B63
:1059A0000895AA1BBB1B51E107C0AA1FBB1FA61766
:1059B000B70710F0A61BB70B881F991F5A95A9F7B8
:1059C00080959095BC01CD01089513E0C4EFD3E01C
:1059D00000E006C0802FFE010E94982C2196011D38
:0E59E000C53FD10780E00807A9F7F894FFCF74
:1059EE00010000003C000000010000CC06800041D8
:1059FE0045414E45470041485350434F0041535097
:105A0E0046464B004F424A4F414200494F544D5576
:105A1E00430052595644454C004C52454958440097
:105A2E004549554E455300574E47454548004C4E47
:105A3E00484E525A00545354495944004F57544FEC
:105A4E0041540045525454594C00544F45535349F8
:105A5E0000544552574856004E5549484D51005333
:105A6E004F4C5645004E45570053414D450047415A
:105A7E004D45204F56455221004552415345004554
:105A8E004E5445520054494D4500504F494E5453C3
:105A9E000047414D450050524556004E4558540062
:105AAE00574F52443A004F463A0050503A00564132
:105ABE004C494420574F52442100494E56414C49BF
:105ACE0044210032004E4558542050484153450061
