:100000000C94F6030C9427040C9427040C942704F6
:100010000C9427040C9427040C9427040C942704B4
:100020000C9427040C9427040C9427040C942704A4
:100030000C9427040C9471170C9427040C94270437
:100040000C9427040C9427040C9427040C94270484
:100050000C9427040C9427040C9427040C94E511A9
:100060000C9427040C94591B0C94251C0C94270405
:100070000C9427040C9427040C9427040C94270454
:100080000C9427040C9427040C9427040C94270444
:100090000C948C1B0C94641C0C9427040C94270463
:1000A0000C9427040C9427040C9427040C94270424
:1000B0000C9427040C9427040C9427040C94270414
:1000C0000C9427040C9427040C9427040C94BF1B55
:1000D0000C94A31C0C9427040C94F21B0C94E21CAB
:1000E0000C942704241327131A131E135E132B13C7
:1000F0002F13351339133D13431347134B135E135B
:100100005113551359130C9451130C94FD1A0C945C
:10011000762A0C94FB290C948F210C94FF240C94C8
:10012000B11F0C94DC230C9439130C94CD240C9443
:100130002B130C944B130C945E130C9459130C94C6
:1001400024130C94B7280C94EC240C9443130C94B3
:10015000D1170C943D130C9403290C946F250C9427
:100160001E130C94E7250C941A130C94921F0C94F4
:10017000D21A0C94BA200C94B61A0C94991F0C94B1
:1001800007200C94E6060C9427130C94C11F0C94C2
:10019000F21A0C9435250C94A51F0C944B200C944A
:1001A000C21F0C949C200C94A61A0C9447130C9418
:1001B000E81E0C94A51A0C9455130C94911F0C94E2
:1001C000A91D0C9430210C94D8240C94C6060C94D0
:1001D000A9250C9490210C9435130C942F13000036
:1001E000090A02080B0C0D070603040100000000B9
:1001F00000000000000000000000000000000000FF
:100200000000000000000000000011100F000000BE
:1002100000000000000000000000000000000000DE
:1002200000000000010210202008081020401020CB
:1002300040800201020108040201010204081020AA
:1002400040808040201008040201800402018040A8
:100250002010080402010804020101020408102011
:1002600040800102040810204080050505050705AF
:1002700008080808020202020A0A08080404040422
:10028000010101010101010103030303030303034E
:10029000040707070C0C0C0C0C0C0C0C02020202DD
:1002A00006060606060606060B0B0B0B0B0B0B0BC6
:1002B00000002200250028002B002E003100340011
:1002C00002010000050108010B01000021002400CB
:1002D00027002A002D003000330001010000040136
:1002E00007010A010200000000003E5B4F5B3E3E3A
:1002F0006B4F6B3E1C3E7C3E1C183C7E3C181C57D2
:100300007D571C1C5E7F5E1C00183C1800FFE7C375
:10031000E7FF0018241800FFE7DBE7FF30483A0644
:100320000E2629792926407F050507407F05253FB0
:100330005A3CE73C5A7F3E1C1C08081C1C3E7F149C
:10034000227F22145F5F005F5F06097F017F0066E6
:1003500089956A606060606094A2FFA29408047E40
:10036000040810207E201008082A1C08081C2A08EF
:10037000081E101010100C1E0C1E0C30383E3830A9
:10038000060E3E0E06000000000000005F000000A8
:1003900007000700147F147F14242A7F2A122313D6
:1003A00008646236495620500008070300001C22EA
:1003B00041000041221C002A1C7F1C2A08083E081C
:1003C000080080703000080808080800006060001D
:1003D00020100804023E5149453E00427F40007211
:1003E000494949462141494D331814127F10274588
:1003F0004545393C4A4949314121110907364949A6
:100400004936464949291E000014000000403400C6
:10041000000008142241141414141400412214087A
:1004200002015909063E415D594E7C1211127C7F32
:10043000494949363E414141227F4141413E7F4940
:100440004949417F090909013E414151737F08082B
:10045000087F00417F41002040413F017F08142276
:10046000417F404040407F021C027F7F0408107F94
:100470003E4141413E7F090909063E4151215E7FCF
:1004800009192946264949493203017F01033F40A2
:1004900040403F1F2040201F3F4038403F6314082A
:1004A000146303047804036159494D43007F4141BB
:1004B000410204081020004141417F04020102046E
:1004C0004040404040000307080020545478407FDB
:1004D000284444383844444428384444287F385415
:1004E00054541800087E090218A4A49C787F0804BC
:1004F000047800447D40002040403D007F102844A7
:100500000000417F40007C047804787C0804047873
:100510003844444438FC1824241818242418FC7C3B
:1005200008040408485454542404043F44243C4020
:1005300040207C1C2040201C3C4030403C44281083
:1005400028444C9090907C4464544C4400083641BC
:10055000000000770000004136080002010204029A
:100560003C2623263C1EA1A161123A4040207A3845
:1005700054545559215555794122545478422155A6
:1005800054784020545579400C1E527212395555FA
:100590005559395454545939555454580000457CD0
:1005A000410002457D420001457C407D1211127DD3
:1005B000F0282528F07C545545002054547C547C68
:1005C0000A097F4932494949323A4444443A324A55
:1005D0004848303A4141217A3A42402078009DA073
:1005E000A07D3D4242423D3D4040403D3C24FF24F1
:1005F00024487E4943662B2FFC2F2BFF0929F62028
:10060000C0887E090320545479410000447D413064
:1006100048484A32384040227A007A0A0A727D0DF0
:1006200019317D2629292F28262929292630484DA8
:100630004020380808080808080808382F10C8ACF7
:10064000BA2F102834FA00007B000008142A142264
:1006500022142A14085500550055AA55AA55AAFF78
:1006600055FF55FF000000FF00101010FF0014148C
:1006700014FF001010FF00FF1010F010F0141414FD
:10068000FC001414F700FF0000FF00FF1414F40432
:10069000FC141417101F10101F101F1414141F0027
:1006A000101010F0000000001F101010101F10108C
:1006B0001010F010000000FF10101010101010109B
:1006C00010FF10000000FF140000FF00FF00001FDB
:1006D00010170000FC04F414141710171414F40479
:1006E000F40000FF00F714141414141414F700F7A6
:1006F000141414171410101F101F141414F41410D1
:1007000010F010F000001F101F0000001F14000068
:1007100000FC140000F010F01010FF10FF1414146F
:10072000FF141010101F00000000F010FFFFFFFF6B
:10073000FFF0F0F0F0F0FFFFFF0000000000FFFF0F
:100740000F0F0F0F0F3844443844FC4A4A4A347E96
:1007500002020606027E027E026355494163384466
:10076000443C04407E201E2006027E020299A5E73A
:10077000A5991C2A492A1C4C7201724C304A4D4DD5
:10078000303048784830BC625A463D3E49494900BD
:100790007E0101017E2A2A2A2A2A44445F444440D9
:1007A000514A444040444A51400000FF0103E08068
:1007B000FF000008086B6B083612362436060F0956
:1007C0000F06000018180000001010003040FF0154
:1007D00001001F01011E00191D1712003C3C3C3C8A
:1007E000000000000000C606A91DE60611241FBE79
:1007F000CFEFD1E2DEBFCDBF00E00CBF13E0A0E041
:10080000B2E0E8E2F6E600E00BBF02C007900D920E
:10081000AA34B107D9F726E0AAE4B3E001C01D92DB
:10082000A038B207E1F713E0C5EFD3E000E006C05F
:1008300021970109802FFE010E94B532C33FD107E5
:1008400080E00807A9F70E94E1110C94842F0C9412
:1008500000002F923F924F925F926F927F928F9201
:100860009F92AF92BF92CF92DF92EF92FF920F933F
:100870001F93CF93DF93CDB7DEB72C970FB6F894C5
:10088000DEBF0FBECDBF8AE493E00E94E52A2F832E
:10089000388749875A876B877C876F80788469851A
:1008A0007A858B849C84C4010A978F3D934058F0CD
:1008B00010929203109291031A8219821C821B8259
:1008C0009E828D8243C0072E000C880B990B1F92CD
:1008D0001F9221E02F9320E42F93A12CB12C6501CE
:1008E00018E9E12E13E0F12E00E010E024E630E0FC
:1008F00040E050E00E94A71E1B012C01B301770CC1
:10090000880B990B1F921F921F9220EF2F9310E7D5
:10091000E12E13E0F12E00E010E020EA30E040E0AC
:1009200050E00E94A71E21E0209391033A82298281
:1009300020EF30E0C901861B970B9C838B839E823E
:100940008D820FB6F894DEBF0FBECDBF29813A81EC
:100950004B815C816D817E8180E090E02C960FB6AA
:10096000F894DEBF0FBECDBFDF91CF911F910F91E5
:10097000FF90EF90DF90CF90BF90AF909F908F90BF
:100980007F906F905F904F903F902F9008952F929F
:100990003F924F925F926F927F928F929F92AF920F
:1009A000BF92CF92DF92EF92FF920F931F93CF935C
:1009B000DF93CDB7DEB7C957D1090FB6F894DEBFC4
:1009C0000FBECDBF6CE072E09E012F5F3F4FEA96F5
:1009D0003FAF2EAFEA97C9010E946D1963E172E043
:1009E000CE0108960E946D196AE172E0CE010F9661
:1009F0000E946D1961E272E0CE0146960E946D1967
:100A000068E272E0CE014D960E946D196FE272E0CD
:100A1000CE0184960E946D1966E372E0CE018B963A
:100A20000E946D196DE372E0CE01C2960E946D19AD
:100A300064E472E0CE01C9960E946D196BE472E025
:100A4000CE01805C9F4F0E946D1962E572E0CE017D
:100A5000895B9F4F0E946D1969E572E0CE01825B50
:100A60009F4F0E946D1960E672E0CE018B5A9F4F36
:100A70000E946D1967E672E0CE01845A9F4F0E9472
:100A80006D196EE672E0CE018D599F4F0E946D196F
:100A900065E772E0CE0186599F4F0E946D198DE384
:100AA0000E94E8128C010E942F12C801860F971F26
:100AB0000E947B1ECE0186599F4F5C0140E1242E8F
:100AC000312C412C512C812C912CC201B1010E945E
:100AD000831E6B017C0166E070E080E090E00E9484
:100AE000831EE7E0EC9D3001ED9D700C112421E0A8
:100AF00030E02C0F3D1F620E731EC3010E94771A57
:100B0000FC01608189E993E00E94441A840103702A
:100B100011277401F594E794F594E794B40189E9F9
:100B200093E00E94771A97012F5F3F4FFAE0F29F00
:100B3000A001F39F500D112468E26E9D90016F9DFE
:100B4000300D1124420F531F465F5F4F98012F5FF6
:100B50003F4FF29FB001F39F700D1124E8E2E09F38
:100B60009001E19F300D1124620F731F645F7F4F6E
:100B700023E0C22EEE24EA94FE2C00E010E0FC01FB
:100B800020818EE593E00E94C621B301CE018F58EB
:100B90009F4F0E949A19B501C3010E948319BE019B
:100BA0006F587F4FC5010E948319CE018F589F4F08
:100BB0000E94FF18FFEF8F1A9F0A21E0221A3108C6
:100BC0004108510837E0A31AB10860E18616910484
:100BD00009F07BCFCE018F589F4F5C0197E0A91A97
:100BE000B108C5010E94FF18EA96EEADFFADEA9785
:100BF000AE16BF0699F7C758DF4F0FB6F894DEBFA1
:100C00000FBECDBFDF91CF911F910F91FF90EF905D
:100C1000DF90CF90BF90AF909F908F907F906F901C
:100C20005F904F903F902F900895CF93DF9300D027
:100C300000D0CDB7DEB749835A836B837C8389812B
:100C40009A81EB81FC81823D910544F5E23DF105FD
:100C50002CF58F3C2FEF92074CF0883C910544F423
:100C600062E370E00E946032262F03C020E001C0E2
:100C700023E0EF3C8FEFF8074CF0E83CF10544F43B
:100C8000CF0162E370E00E94603203C060E001C007
:100C900063E0862F880F880F820F01C080E12696BF
:100CA0000FB6F894DEBF0FBECDBFDF91CF91089590
:100CB000FC01442371F1DC0150E0CD018E1B9F0B40
:100CC0008417950724F48D916813F7CF24C04E0F35
:100CD0005F1FFA0131972081862F837090E0322FB9
:100CE0003370831B910997FF03C0919581959109FA
:100CF00002978CF4862F8695869590E0269526950A
:100D0000821B910997FF03C09195819591090297E4
:100D100014F4862F089580E108951F93CF93DF93F5
:100D2000CDB7DEB727970FB6F894DEBF0FBECDBFA5
:100D300060919703709198034AE0CE0101960E945A
:100D4000BB191D81CE0101960E94FF182AEF2103D5
:100D5000B00111246B5F7E4F42E850E08EE593E0D6
:100D60000E94B22460919703709198034AE050E08A
:100D70008EE593E00E94F91827960FB6F894DEBF2F
:100D80000FBECDBFDF91CF911F910895EF92FF92DB
:100D90000F936FED72E089E993E00E946D192FEFD8
:100DA00049E06AE08EE593E00E9400268CE2E82E9E
:100DB000FF24F39405E029E348E364E08AE493E048
:100DC0000E943F2C0F91FF90EF90089589E993E0E6
:100DD0000C94FF180E94861240E855E260E070E033
:100DE0008AE394E00E94211D8AE394E00E94F21AB3
:100DF00040E050E0BA018EE593E00E94C12661E038
:100E00008EE593E00E94B72860E08EE593E00E94B3
:100E1000CA2463E08EE593E00E94B82460E070E0AD
:100E20008EE593E00C949C20AF92BF92CF92DF921C
:100E3000EF92FF920F931F93CF93DF936C015B01AF
:100E4000EA01EE24EA94FE2C0EE110E024E630E004
:100E5000AB01B6018EE593E00E94A92560E070E049
:100E60008EE593E00E94BE24A5014C5F5F4F2C816C
:100E70003D8162E1629FC001639F900D112424E6D1
:100E800030E0281B390B36952795B9016C0D7D1D77
:100E90008EE593E00E94B224BE018EE593E0DF91DF
:100EA000CF911F910F91FF90EF90DF90CF90BF9067
:100EB000AF900C940E189F92AF92BF92CF92DF9298
:100EC000EF92FF920F931F93CF93DF93982E362FBD
:100ED0003370832F90E001962AE0289FE001299F3C
:100EE000D00D112488E2389FC00DD11D11246695C4
:100EF0006695862F90E00196289F6001299FD00C6F
:100F0000112488E2689FC00CD11C11247A0108E2E8
:100F100010E028E230E0A601BE018EE593E00E94D9
:100F2000A925A601465F5F4FBE01645F7F4F83E046
:100F3000C82E00E010E0292D8EE593E00E94C62126
:100F4000DF91CF911F910F91FF90EF90DF90CF90A5
:100F5000BF90AF909F900895EF92FF920F931F93D1
:100F6000CF93DF93EC01E12CF12C0EE511E022EDA3
:100F700030E042ED50E060E070E08EE593E00E94EA
:100F8000A92542ED50E06AE070E08EE593E00E9412
:100F9000B224BE018EE593E00E940E1840E050E0BE
:100FA0006FEF7FEF8EE593E0DF91CF911F910F916F
:100FB000FF90EF900C94C424CF93DF93CDB7DEB7AE
:100FC00027970FB6F894DEBF0FBECDBF63E08EE566
:100FD00093E00E94B8246CE772E0CE0101960E9473
:100FE0006D19AE014F5F5F4F6AE070E082ED90E0F7
:100FF0000E941407CE0101960E94FF1862E872E079
:10100000CE0101960E946D19AE014F5F5F4F60EAFD
:1010100070E082ED90E00E941407CE0101960E94DC
:10102000FF1866E872E0CE0101960E946D19AE01CC
:101030004F5F5F4F68EC70E082ED90E00E94140714
:10104000CE0101960E94FF1840E050E060E078EF8A
:101050008EE593E00E94C4246BE872E0CE01019615
:101060000E946D19CE0101960E94AC07CE01019637
:101070000E94FF1827960FB6F894DEBF0FBECDBFB3
:10108000DF91CF910895EF92FF920F931F93CF932B
:10109000DF93E12CF12C00EF10E022ED30E040E096
:1010A00050E060E070E08EE593E00E94A925C0E08A
:1010B000D0E0BE0189E993E00E94771A4FEF5FEF1D
:1010C0006C2FFC0180810E945B072196C031D10505
:1010D00081F7DF91CF911F910F91FF90EF900895CD
:1010E000EF92FF920F931F93CF93DF93EC01E12CCC
:1010F000F12C00E110E028E230E04AE550E06EE03B
:1011000071E08EE593E00E94A9254AE550E06EE08B
:1011100071E08EE593E00E94B2244AE050E0BE0107
:101120008EE593E0DF91CF911F910F91FF90EF90AB
:101130000C94F9182F923F924F925F926F927F9288
:101140008F929F92AF92BF92CF92DF92EF92FF92D7
:101150000F931F93CF93DF93CDB7DEB727970FB6CB
:10116000F894DEBF0FBECDBF1B018C010E942F1271
:1011700028EE33E040E050E00E947432CA01B90129
:101180000E9421314B015C014090930350909403E5
:101190006090950370909603C301B2010E942131C3
:1011A0006B017C01B101C8010E9421319B01AC019E
:1011B000C501B4010E9407309B01AC01C701B60113
:1011C0000E940730A70196010E947430882309F419
:1011D0007AC02AE0B301A201CE0101960E94E8196B
:1011E0000D811E81CE0101960E94FF18409193034C
:1011F0005091940360919503709196034150510969
:10120000610971094093930350939403609395038C
:10121000709396032AE0CE0101960E94E8196D8032
:101220007E807801FF24CE0101960E94FF186E1483
:101230007F0448F58AEF9FEFE89EB001E99E700DAC
:10124000F89E700D11246B5F7E4FE12CF12C00E1B4
:1012500010E024E630E040E550E08EE593E00E94A7
:10126000A925409193035091940360919503709147
:1012700096032AE0CE0101960E94E8190D81CE0165
:1012800001960E94FF182AEF200380011124B80163
:101290006B5F7E4F40E550E08EE593E00E94B22404
:1012A000409193035091940360919503709196033C
:1012B0002AE030E08EE593E00E94EC18C501B4010D
:1012C0000E94F23002C0B101C80127960FB6F8940F
:1012D000DEBF0FBECDBFDF91CF911F910F91FF9069
:1012E000EF90DF90CF90BF90AF909F908F907F90C6
:1012F0006F905F904F903F902F900895DF92EF9204
:10130000FF920F931F93CF93DF93CDB7DEB727974D
:101310000FB6F894DEBF0FBECDBFD82E6FED72E0D2
:10132000CE0101960E946D19CE0101960E94AC0774
:10133000CE0101960E94FF1863E08EE593E00E94C3
:10134000B824E12CF12C00EF10E024E630E040E07E
:1013500050E062ED70E08EE593E00E94A9256CE715
:1013600072E0CE0101960E946D19AE014F5F5F4F92
:101370006AE070E082ED90E00E941407CE010196D1
:101380000E94FF1866E972E0CE0101960E946D1975
:10139000AE014F5F5F4F60EA70E082ED90E00E9427
:1013A0001407CE0101960E94FF186CE972E0CE018D
:1013B00001960E946D19AE014F5F5F4F68EC70E0BF
:1013C00082ED90E00E941407CE0101960E94FF1862
:1013D00062E08EE593E00E94B82440E050E06FEFB9
:1013E0007FEF8EE593E00E94C42484E690E0A0E0C5
:1013F000B0E08093930390939403A0939503B093EC
:10140000960310929803109297032AE044E650E066
:1014100060E070E0CE0101960E94E8191D81CE01C6
:1014200001960E94FF184CE350E06DEE70E08EE5EF
:1014300093E00E94B22462EA72E08EE593E00E949B
:1014400043182AEF2103B00111246B5F7E4F40E562
:1014500050E08EE593E00E94B224409193035091B6
:10146000940360919503709196032AE030E08EE535
:1014700093E00E94EC184EE650E061EE70E08EE5DD
:1014800093E00E94B22467EA72E08EE593E00E9446
:10149000431842E850E06FEF70E08EE593E00E9461
:1014A000B22460919703709198034AE050E08EE572
:1014B00093E00E94F918DD2099F00EE110E06FED45
:1014C00072E089E993E00E94A4190E94C7040150C8
:1014D0001109A9F769E973E08AE394E00E946018B2
:1014E00027960FB6F894DEBF0FBECDBFDF91CF9128
:1014F0001F910F91FF90EF90DF900895CF92DF92B0
:10150000EF92FF920F931F93CF93DF932AE0C22EA7
:10151000D12CCAE0D0E0EE24EA94FE2C08E210E0E0
:1015200028E230E0AE01B6018EE593E00E94A925E5
:10153000E296C23DD10579F782E3C80ED11C82ED57
:10154000C816D10431F7EE24EA94FE2C0CED10E01D
:1015500024E630E04AE050E062ED70E08EE593E092
:101560000E94A9254FEF5FEF60E070E08EE593E009
:101570000E94C42440E650E06BEE70E08EE593E0FC
:101580000E94B22462E872E08EE593E00E94431864
:1015900044E850E061EE70E08EE593E00E94B224F2
:1015A0006EEA72E08EE593E0DF91CF911F910F918B
:1015B000FF90EF90DF90CF900C9443184F925F9282
:1015C0006F927F928F929F92AF92BF92CF92DF9253
:1015D000EF92FF920F931F93CF93DF937A01E82F3F
:1015E000E370F0E0262F237030E04F012E173F0705
:1015F0000CF44901B82EB694B694162F169516958C
:10160000CB2D1B1508F4C12F68276370D0E0C401EF
:1016100001966C01611138C0219682E38C9F5001C4
:101620008D9FB00C11248AE08C9DB0018D9D700DB2
:101630001124072E000C880B990B0E9423312B01DB
:101640003C01B401990C880B990B0E94233120E0D6
:1016500030E040E05FE30E94083020E030E040E20C
:1016600052E40E94D3319B01AC01C301B2010E943C
:1016700008300E94EB3087012AE030E0A5018EE5BA
:1016800093E00E943525A3C01B113AC0CE010196FC
:101690002AE0289FB001299F700D1124072E000C0D
:1016A000880B990B0E9423314B015C01BE01DD0FB9
:1016B000880B990B0E94233120E030E040E05FE38B
:1016C0000E94083020E030E040E252E40E94D33132
:1016D0009B01AC01C501B4010E9408300E94EB30AF
:1016E00022E32C9DF0012D9DF00D112487012AE0AD
:1016F00030E0AB01BF018EE593E00E946F2567C02B
:10170000DF01E217F3070CF4D9018B2DB11608F4B1
:10171000812F682F70E048E2849FC0011124AD0141
:101720004F5F5F4F2E173F0714F41B1528F0E21789
:10173000F30734F5B11620F56F5F7F4F3AE0369F1F
:101740008001379F100D1124080F191F349FC0010D
:10175000359F900D112448E24A9F90014B9F300D18
:101760001124280F391F219682E38C9FA0018D9FA1
:10177000500D11248C9DB0018D9D700D112423C03E
:101780002196E2E3EC9F8001ED9F100D1124FAE019
:10179000F49FE001F59FD00D112448E24A9F90018B
:1017A0004B9F300D11242C0F3D1F6F5F7F4FF69F15
:1017B000A001F79F500D1124480F591FEC9DB00157
:1017C000ED9D700D11248EE593E00E94BA20DF910B
:1017D000CF911F910F91FF90EF90DF90CF90BF902E
:1017E000AF909F908F907F906F905F904F900895F3
:1017F000AF92BF92CF92DF92EF92FF920F931F931F
:10180000CF93DF93CDB7DEB727970FB6F894DEBF3F
:101810000FBECDBF7C018B016A016FED72E00E94AB
:101820006D19A12CB12CF801848195810197A8161E
:10183000B90668F4B501C8010E94771ADC016C9101
:10184000C7010E94441ABFEFAB1ABB0AECCFB70125
:10185000CE0101960E949A19CE0101960E94AC0712
:10186000CE0101960E94FF18D80114966D917C91CB
:10187000159761507109F601E60FF71FB080C80196
:101880000E94771A4FEF5FEF6B2DFC0180810E9461
:101890005B07D80114962D913C91159722303105A4
:1018A00060F02C0D3D1DF9013197D901129740E0F0
:1018B00050E060818C910E94DE0AD8011496ED916F
:1018C000FC911597CE0EDF1EF601319780E18083E3
:1018D000C70127960FB6F894DEBF0FBECDBFDF91CC
:1018E000CF911F910F91FF90EF90DF90CF90BF901D
:1018F000AF9008958F929F92AF92BF92CF92DF9256
:10190000EF92FF920F931F93CF93DF93482F46954B
:101910004695242F30E02F5F3F4F9AE0929F500171
:10192000939FB00C112428E2429FA00CB11C1124FB
:101930008370282F30E02F5F3F4F929F4001939F8D
:10194000900C112498E2899F800C911C112498E23C
:10195000C92ED12CC0E0D0E0AE014A0D5B1DBE0106
:10196000680D791DE12C88EFF82E860196018EE531
:1019700093E00E943021219622E0C21AD108C5309E
:10198000D10551F7DF91CF911F910F91FF90EF900B
:10199000DF90CF90BF90AF909F908F900895CF939E
:1019A000DF93EC016FED72E00E946D198AE394E021
:1019B0000E94B61A8A97D1F38AE394E00E94A61A8D
:1019C000892BA1F38AE394E00E94D21A8A3029F08D
:1019D000682FCE010E94441AF5CF6AE28AE394E0B0
:1019E0000E9484188AE394E00E94F21A6AE070E090
:1019F00080E090E00E946012CE01DF91CF910895C7
:101A0000AF92BF92CF92DF92EF92FF920F931F930C
:101A1000CF93DF93CDB7DEB72E970FB6F894DEBF26
:101A20000FBECDBFCE0101960E94CF0CCE01019614
:101A30000E949A1AC62ECE0101960E94FF186FEDE1
:101A400072E0CE0108960E946D19E12CF12CD12C88
:101A5000EC14FD04C4F5CE0101960E94CF0CCE011A
:101A600001960E949A1A162FCE0101960E94FF1825
:101A7000A12EB12CB50189E993E00E94771AFC01EF
:101A80006081CE0108960E94441AB50189E993E06D
:101A90000E94771A40EE57E0612FFC0180810E947E
:101AA0005B07E114F10421F4812F0E947A0C06C037
:101AB00040EE57E0612F802F0E94DE0AFFEFEF1A01
:101AC000FF0A012FC5CF40E050E06FEF7FEF8EE5BA
:101AD00093E00E94C424BE01685F7F4FCE0101964F
:101AE0000E949A19CE0101960E94AC07CE01019680
:101AF0000E94FF18CE0108960E94FF182E960FB67E
:101B0000F894DEBF0FBECDBFDF91CF911F910F9133
:101B1000FF90EF90DF90CF90BF90AF9008958F929D
:101B20009F92AF92BF92CF92DF92EF92FF920F936C
:101B30001F93CF93DF93CDB7DEB727970FB6F894F7
:101B4000DEBF0FBECDBFE12CF12C00EF10E024E68C
:101B500030E040E050E062ED70E08EE593E00E94FE
:101B6000A9250E94430863E08EE593E00E94B82413
:101B700063EB72E0CE0101960E946D19AE014F5FDA
:101B80005F4F6AE070E082ED90E00E941407CE01A2
:101B900001960E94FF1868EB72E0CE0101960E9448
:101BA0006D19AE014F5F5F4F62E370E082ED90E030
:101BB0000E941407CE0101960E94FF1862E872E0AD
:101BC000CE0101960E946D19AE014F5F5F4F60EA32
:101BD00070E082ED90E00E941407CE0101960E9411
:101BE000FF1866E872E0CE0101960E946D19AE0101
:101BF0004F5F5F4F68EC70E082ED90E00E94140749
:101C0000CE0101960E94FF1862E08EE593E00E94EB
:101C1000B82440E050E06FEF7FEF8EE593E00E9444
:101C2000C4244AE550E062ED70E08EE593E00E9446
:101C3000B2246DEB72E08EE593E00E94431881E0E0
:101C400090E00E9470084EE650E062ED70E08EE594
:101C500093E00E94B22463EC72E08EE593E00E9470
:101C60004318CE0101960E94CF0CCE0101960E942E
:101C70009A1A6B017C01CE0101960E94FF184EE674
:101C800050E068EF70E08EE593E00E94B2244AE0F5
:101C900050E0B6018EE593E00E94F91840E050E074
:101CA00060EE77E08EE593E00E94C4244CE850E0BB
:101CB00062ED70E08EE593E00E94B22467EC72E082
:101CC0008EE593E00E944318CE0101960E94CF0C4E
:101CD000CE0101960E949A1A4B015C01CE01019639
:101CE0000E94FF184CE850E068EF70E08EE593E04A
:101CF0000E94B2244AE050E0B4018EE593E00E94D5
:101D0000F918C60127960FB6F894DEBF0FBECDBFF7
:101D1000DF91CF911F910F91FF90EF90DF90CF90C7
:101D2000BF90AF909F908F900895AF92BF92CF9247
:101D3000DF92EF92FF920F931F93CF93DF93CDB774
:101D4000DEB72E970FB6F894DEBF0FBECDBF6C0185
:101D50007B015A018AE394E00E9460188AE394E0D0
:101D60000E94B61AC09731F08AE394E00E94B61A36
:101D7000C197A1F7F701048115816FED72E0C701EA
:101D80000E94581A81111CC0B701CE0108960E940A
:101D90009A19A501BE01685F7F4FCE0101960E948E
:101DA000F80BBE016F5F7F4FC7010E948319CE0100
:101DB00001960E94FF18CE0108960E94FF18DDCF01
:101DC0008AE394E00E94D21A813339F58091970317
:101DD00090919803980133272230310530F0293053
:101DE000310530F42250310905C020E030E002C056
:101DF00026E030E0280F391F309398032093970393
:101E00000E948D0640E050E060EE77E08EE593E0C2
:101E10000E94C4246BEC72E00CC08033B1F440E04B
:101E200050E060E078EF8EE593E00E94C42467ED17
:101E300072E0CE0101960E946D19CE0101960E94BA
:101E4000AC07CE0101960E94FF1860EE72E08AE3B3
:101E500094E00E9472186FED72E0C6010E946D1945
:101E6000C6012E960FB6F894DEBF0FBECDBFDF9130
:101E7000CF911F910F91FF90EF90DF90CF90BF9087
:101E8000AF900895CF92DF92EF92FF920F931F933E
:101E9000CF93DF93CDB7DEB764970FB6F894DEBF6C
:101EA0000FBECDBF6C012F87388B498B5A8B898928
:101EB0009A892F853889223D31054CF1893C91055D
:101EC000D4F1F80184819581892BD9F0B801CE0134
:101ED00008960E949A19A701BE01685F7F4FCE0144
:101EE00001960E94950EBE016F5F7F4FC8010E9450
:101EF0008319CE0101960E94FF18CE0108960E9418
:101F0000FF1868EC70E080E090E00E946012B80179
:101F1000C6010E949A19C60164960FB6F894DEBFF6
:101F20000FBECDBFDF91CF911F910F91FF90EF902A
:101F3000DF90CF900895813A91052CF0F80124812B
:101F40003581232B61F48897E4F662EE72E08AE330
:101F500094E00E9472180E9443080E944711B80141
:101F6000CE0108960E949A19A701BE01685F7F4FB3
:101F7000CE0101960E94F80BB6CF7F928F929F926E
:101F8000AF92BF92CF92DF92EF92FF920F931F9387
:101F9000CF93DF93CDB7DEB7AB970FB6F894DEBF24
:101FA0000FBECDBF0E947E0980E19E012F5F3F4F93
:101FB0006901F901282F11922A95E9F789836FEDBC
:101FC00072E0CE014F960E946D190E942F1228EEEA
:101FD00033E040E050E00E947432CA01B9010E942F
:101FE00021314B015C018091930390919403A09166
:101FF0009503B0919603892B8A2B8B2B09F498C0FB
:10200000C501B4010E94F2300E949A080E94213159
:102010004B015C010E942904F42FE52FCB012EA374
:102020003FA3F8A7E9A76AA79BA740919103442380
:10203000D1F2409192034111D6CFA9016F2F7E2F8B
:102040000E941506782EBE01615E7F4FCE01489634
:102050000E949A1976018E01085E1F4F2EA13FA1A2
:1020600048A559A56AA57BA5CE0141960E94420FBD
:10207000BE016F5E7F4FCE014F960E948319CE0145
:1020800041960E94FF18C8010E94FF184BA1672DBE
:10209000C6010E945806182F803108F044C0682FEE
:1020A00070E089E993E00E94771AFC016081CE011B
:1020B0004F960E94441AEBA1FCA1EC0FFD1F108368
:1020C000BE01615E7F4FCE0141960E949A19CE01FA
:1020D00041960E94AC07CE0141960E94FF186BA169
:1020E0007CA161507109CE014F960E94771A40EE93
:1020F00057E0612FFC0180810E945B078BA19CA1AE
:102100008230910568F0EFEFFFEFEC0FFD1FE80F55
:10211000F91F40EE57E0612F80810E94DE0A03C064
:10212000812F0E947A0C80919103809392035BCF60
:10213000BE01615E7F4FCE0148960E949A19A601AA
:10214000BE01685E7F4FCE0141960E94950EBE0192
:102150006F5E7F4FCE014F960E948319CE0141964C
:102160000E94FF18CE0148960E94FF1828EE33E027
:1021700040E050E060E273E083E00E94CB1364EE45
:1021800072E08AE394E00E9472180E94B111CE01BD
:102190004F960E94FF18AB960FB6F894DEBF0FBEA5
:1021A000CDBFDF91CF911F910F91FF90EF90DF9006
:1021B000CF90BF90AF909F908F907F900895EF92B7
:1021C000FF920F931F93CF93DF9300D000D0CDB732
:1021D000DEB749835A836B837C8379018B819C8131
:1021E00029813A81223D31050CF443C0893C910597
:1021F00054F066EE72E08AE394E00E9472180E9446
:10220000430880E00CC0813A910564F064EE72E00E
:102210008AE394E00E9472180E94430881E00E94C1
:10222000BD0F27C08832910574F4E114F10459F010
:1022300081E0E81AF108C7010E9470080E94430873
:1022400062EE72E010C08997879798F4E016F10665
:1022500080F48FEFE81AF80AC7010E9470080E9404
:10226000430868EE72E08AE394E00E9472180E94CC
:10227000000DC70126960FB6F894DEBF0FBECDBF86
:10228000DF91CF911F910F91FF90EF900895CF9321
:10229000DF9300D000D0CDB7DEB70E948F0D6C0168
:1022A0000E94000DEE24E394F12C0E942904B22F29
:1022B000A32FF42FE52FCB01209191032223A9F323
:1022C000209192032111F1CF860197014B2F5A2FB4
:1022D0006F2F7E2F0E94DF107C01E7CFCF93DF931B
:1022E00000D000D0CDB7DEB749835A836B837C839F
:1022F0008B819C8129813A81223D31054CF1893CB9
:10230000910544F066EE72E08AE394E00E94721850
:1023100080E00AC0813A91058CF064EE72E08AE3B5
:1023200094E00E94721881E026960FB6F894DEBF02
:102330000FBECDBFDF91CF910C94BD0F889744F4B1
:1023400062EE72E08AE394E00E9472180E944711E4
:1023500026960FB6F894DEBF0FBECDBFDF91CF91AA
:102360000895CF93DF9300D000D0CDB7DEB70E94A1
:10237000DC070E942904F42FE52FCB014091910343
:102380004423B9F3409192034111F3CFA9016F2F78
:102390007E2F0E946E11EDCFCF93DF9300D000D03F
:1023A000CDB7DEB70E947E0A0E94290429833A83B2
:1023B00089819A81833D9105BCF381E00E94BD0F24
:1023C000F3CF0E94EA060E94CC111F920F920FB623
:1023D0000F9211242F933F938F939F93AF93BF93AB
:1023E0008091A1039091A203A091A303B091A403B3
:1023F0003091A00323E0230F2D3720F40196A11D77
:10240000B11D05C026E8230F0296A11DB11D209322
:10241000A0038093A1039093A203A093A303B0937E
:10242000A4038091A5039091A603A091A703B09166
:10243000A8030196A11DB11D8093A5039093A60347
:10244000A093A703B093A803BF91AF919F918F91E1
:102450003F912F910F900FBE0F901F9018952FB79F
:10246000F8946091A1037091A2038091A3039091CD
:10247000A4032FBF08953FB7F8948091A5039091CE
:10248000A603A091A703B091A80326B5A89B05C0F9
:102490002F3F19F00196A11DB11D3FBFBA2FA92FE3
:1024A000982F8827820F911DA11DB11DBC01CD0160
:1024B00042E0660F771F881F991F4A95D1F708954C
:1024C000CF92DF92EF92FF92CF93DF936B017C016B
:1024D0000E943B12EB01C114D104E104F10479F034
:1024E0000E943B126C1B7D0B683E7340A0F381E0A1
:1024F000C81AD108E108F108C851DC4FECCFDF91D0
:10250000CF91FF90EF90DF90CF900895789484B5AD
:10251000826084BD84B5816084BD85B5826085BDDF
:1025200085B5816085BDEEE6F0E0808181608083C5
:10253000E1E8F0E0108280818260808380818160A8
:102540008083E0E8F0E0808181608083E1EBF0E06F
:10255000808184608083E0EBF0E080818160808313
:10256000E1E9F0E080818260808380818160808306
:10257000E0E9F0E0808181608083E1EAF0E0808141
:1025800082608083808181608083E0EAF0E08081E6
:1025900081608083E1E2F1E08081826080838081DC
:1025A00081608083E0E2F1E0808181608083EAE7FE
:1025B000F0E080818460808380818260808380817C
:1025C000816080838081806880831092C10008953B
:1025D000863308F0865390917B00282F2870977FD0
:1025E000922B90937B0087702091040290E4299FA6
:1025F00090011124822B80937C0080917A0080646A
:1026000080937A0080917A0086FDFCCF80917800DB
:102610002091790090E0922B089590E0FC01319791
:10262000E131F10508F04AC08827EE58FF4F8F4F7F
:102630000C94B532809180008F7703C08091800028
:102640008F7D80938000089584B58F7702C084B514
:102650008F7D84BD08958091B0008F7703C08091F5
:10266000B0008F7D8093B0000895809190008F77A7
:1026700007C0809190008F7D03C080919000877F7C
:102680008093900008958091A0008F7707C080917B
:10269000A0008F7D03C08091A000877F8093A00061
:1026A0000895809120018F7707C0809120018F7D50
:1026B00003C080912001877F809320010895CF93EC
:1026C000DF9390E0FC01EC5DFD4F2491FC01E659A5
:1026D000FD4F8491882361F190E0880F991FFC01E0
:1026E000E653FD4FC591D491FC01E055FD4FA591F6
:1026F000B491611109C09FB7F89488812095822315
:102700008883EC912E230BC0623061F49FB7F8945C
:102710003881822F809583238883EC912E2B2C93F4
:102720009FBF06C08FB7F894E8812E2B28838FBFF8
:10273000DF91CF9108951F93CF93DF93282F30E03F
:10274000F901E252FE4F8491F901EC5DFD4FD49105
:10275000F901E659FD4FC491CC23C9F0162F811120
:102760000E940D13EC2FF0E0EE0FFF1FE055FD4F20
:10277000A591B4918FB7F894111105C09C91ED2FDC
:10278000E095E92302C0EC91ED2BEC938FBFDF9134
:10279000CF911F9108953F924F925F926F927F92D7
:1027A0008F929F92AF92BF92CF92DF92EF92FF9261
:1027B0000F931F93CF93DF9300D01F92CDB7DEB757
:1027C00029013A0190910502981721F09F3F09F0E5
:1027D0002BC304C0E4EEF2E0349004C18093050200
:1027E000E4EEF2E0E491EF3F09F41EC3E23009F4B5
:1027F00080C074F5EE2309F45BC0E13009F0F1C04C
:1028000010928000109281009091810098609093C6
:10281000810090918100916090938100282F30E099
:10282000F901E659FD4FE491F0E0EE0FFF1FE0558E
:10283000FD4F459154915093C7034093C603F9014E
:10284000EC5DFD4FE491E093C50333243394CCC099
:10285000E43009F49EC00CF474C0E53009F0C1C046
:102860001092200110922101909121019860909383
:10287000210190912101916090932101482F50E016
:10288000FA01E659FD4FE491F0E0EE0FFF1FE0552D
:10289000FD4F259134913093AB032093AA03FA01A5
:1028A000EC5DFD4FE491E093A903B5E03B2E9CC0A5
:1028B00014BC15BC94B5926094BD95B5916095BD5E
:1028C000282F30E0F901E659FD4FE491F0E0EE0FDA
:1028D000FF1FE055FD4F459154915093CE03409317
:1028E000CD03F901EC5DFD4FE491E093CC03312C75
:1028F0007BC01092B0001092B1009091B000926035
:102900009093B0009091B10091609093B100282F06
:1029100030E0F901E659FD4FE491F0E0EE0FFF1FC2
:10292000E055FD4F459154915093C0034093BF0330
:10293000F901EC5DFD4FE491E093BE0352E0352ECA
:1029400053C0109290001092910090919100986065
:102950009093910090919100916090939100282F15
:1029600030E0F901E659FD4FE491F0E0EE0FFF1F72
:10297000E055FD4F459154915093B9034093B803EE
:10298000F901EC5DFD4FE491E093B70323E0322EB3
:102990002BC01092A0001092A1009091A10098600D
:1029A0009093A1009091A10091609093A100282F95
:1029B00030E0F901E659FD4FE491F0E0EE0FFF1F22
:1029C000E055FD4F459154915093B2034093B103AC
:1029D000F901EC5DFD4FE491E093B00304E0302E8B
:1029E00003C03E2E37FC20C28B0161E00E945F13C2
:1029F0004801A12CB12C832D8D7F09F0B4C060E07B
:102A000072E18AE790E0A50194010E949632298341
:102A10003A834B835C8369017A0121E0C21AD108B1
:102A2000E108F1088FEFC816D104E104F10409F0C0
:102A300008F44CC060E472E48FE090E0A5019401DA
:102A40000E94963269017A0191E0C91AD108E10821
:102A5000F108E2E03E1220C0FFEFCF16D104E104FE
:102A6000F10409F008F4DEC160E970ED83E090E064
:102A7000A50194010E94963269017A0181E0C81A89
:102A8000D108E108F1089FEFC916D104E104F1046F
:102A900009F0B8F583E064C0EFEFCE16D104E1048D
:102AA000F104B1F0A8F068E478EE81E090E0A501CF
:102AB00094010E94963269017A01F1E0CF1AD1089F
:102AC000E108F108332009F453C1A3C181E001C03A
:102AD00082E03320A1F044C089819A81AB81BC811E
:102AE0002AE0B595A795979587952A95D1F76C011A
:102AF0007D01F1E0CF1AD108E108F10885E085BD3C
:102B0000A2C068E478EE81E090E0A50194010E9403
:102B1000963269017A0181E0C81AD108E108F1080A
:102B20009FEFC916D104E104F10409F008F41EC1B5
:102B300064E274EF80E090E0A50194010E94963277
:102B400069017A0181E0C81AD108E108F1089FEF14
:102B5000C916D104E104F10411F008F02BC185E09D
:102B60008093B10070C060E072E18AE790E0A50157
:102B700094010E94963269017A01F1E0CF1AD108DE
:102B8000E108F108C114D10421E0E206F10488F063
:102B900068E478EE81E090E0A50194010E9496320D
:102BA00069017A0181E0C81AD108E108F10883E0DF
:102BB00001C081E091E0391210C090918100987FAE
:102BC000892B80938100411451046104710409F040
:102BD0003FC02FEF3FEFA90171C0E3E03E120FC0ED
:102BE00090919100987F892B80939100411451041A
:102BF0006104710469F52FEF3FEFA90181C0F4E092
:102C00003F120FC09091A100987F892B8093A10063
:102C10004114510461047104D9F42FEF3FEFA9016D
:102C200081C025E032120FC090912101987F892B3D
:102C300080932101411451046104710449F42FEF80
:102C40003FEFA90181C0411451046104710471F086
:102C5000D801AA0FBB1FA30192010E94DB3228EE0C
:102C600033E040E050E00E94743203C02FEF3FEFAA
:102C7000A90182E03816A1F1831534F0332079F0F0
:102C800091E03916D9F0D0C0E4E03E1609F44AC00C
:102C90003E16B4F1F5E03F1609F456C0C5C0C7BCF6
:102CA0002093CF033093D0034093D1035093D203AA
:102CB00080916E00826080936E00B6C0D0928900D1
:102CC000C09288002093C8033093C9034093CA037D
:102CD0005093CB0380916F00826080936F00A4C0FB
:102CE000C092B3002093C1033093C2034093C30347
:102CF0005093C4038091700082608093700094C0F0
:102D0000D0929900C09298002093BA033093BB03ED
:102D10004093BC035093BD03809171008260809307
:102D2000710082C0D092A900C092A8002093B30382
:102D30003093B4034093B5035093B603809172006F
:102D400082608093720070C0D0922901C0922801E5
:102D50002093AC033093AD034093AE035093AF0385
:102D6000809173008260809373005EC084E0F8CE2F
:102D70002FEFC216D104E104F104D1F0C8F062E1F2
:102D80007AE780E090E0A50194010E949632690103
:102D90007A01E1E0CE1AD108E108F108FFEFCF1681
:102DA000D104E104F10411F008F096CE84E0A7CE3E
:102DB00083E0A5CE62E17AE780E090E0A50194018E
:102DC0000E94963269017A0181E0C81AD108E108AF
:102DD000F1089FEFC916D104E104F104C1F0B8F085
:102DE00089819A81AB81BC814AE0B595A795979579
:102DF00087954A95D1F76C017D01E1E0CE1AD108A3
:102E0000E108F108332009F479CE87E0A9CE86E005
:102E100060CEEFEFCE16D104E104F10409F050F6D4
:102E200084E057CE82E09CCE0F900F900F900F90D1
:102E3000DF91CF911F910F91FF90EF90DF90CF9096
:102E4000BF90AF909F908F907F906F905F904F90CA
:102E50003F9008958230A9F028F4882349F081300A
:102E600051F00895843009F1E8F0853009F10895B2
:102E700010926E00089580916F008D7F80936F0097
:102E80000895809170008D7F8093700081E0809321
:102E9000B0008091B100887F84608093B10010926F
:102EA000B300089510927100089510927200089571
:102EB000109273000895CF93C82F809105028C1350
:102EC00007C0E4EEF2E0E4918FEF8093050201C0C9
:102ED000EFEF8E2F0E942A1760E08C2FCF910C9479
:102EE0009B131F920F920FB60F9211240BB60F92E5
:102EF0002F933F934F935F936F937F938F939F9302
:102F0000AF93BF93EF93FF938091C1039091C2035E
:102F1000A091C303B091C403892B8A2B8B2B51F151
:102F20008091BE03E091BF03F091C0039081892797
:102F300080838091C1039091C203A091C303B0919B
:102F4000C403181619061A061B06C4F48091C1039F
:102F50009091C203A091C303B091C4030197A1094A
:102F6000B1098093C1039093C203A093C303B093AC
:102F7000C40304C0809105020E945B17FF91EF918A
:102F8000BF91AF919F918F917F916F915F914F9181
:102F90003F912F910F900BBE0F900FBE0F901F907F
:102FA0001895CF92DF92EF92FF920F931F93CF93DA
:102FB000DF936C01EB017B01E40EF51E00E010E0F5
:102FC000CE15DF0561F06991D601ED91FC9101907C
:102FD000F081E02DC6011995080F191FF1CFC80126
:102FE000DF91CF911F910F91FF90EF90DF90CF90E5
:102FF00008956115710579F0FB0101900020E9F752
:103000003197AF01461B570BDC01ED91FC9102801B
:10301000F381E02D199480E090E00895AF92BF9283
:10302000CF92DF92EF92FF920F931F93CF93DF9394
:103030006C017B01C0E0D0E000E010E0D701149605
:103040008D919C911597C817D90788F4D601ED91F9
:10305000FC91A080B180BE01C7010E94891A682F2F
:10306000C601F5011995080F191F2196E7CFC80170
:10307000DF91CF911F910F91FF90EF90DF90CF9054
:10308000BF90AF9008950C94F917DC01ED91FC917D
:103090000190F081E02D19940F931F93CF93DF934C
:1030A000EC016DE00E9445188C016AE0CE010E949F
:1030B0004518800F911FDF91CF911F910F910895B7
:1030C0000F931F93CF93DF93EC010E940E188C0196
:1030D000CE010E944C18800F911FDF91CF911F915C
:1030E0000F9108950F931F93CF93DF93EC010E94EC
:1030F000F9178C01CE010E944C18800F911FDF91AF
:10310000CF911F910F9108950F931F93CF93DF934A
:10311000EC010E9445188C01CE010E944C18800FD2
:10312000911FDF91CF911F910F9108958F929F92E0
:10313000AF92BF92CF92DF92EF92FF920F931F93C5
:10314000CF93DF93CDB7DEB7A1970FB6F894DEBF6C
:103150000FBECDBF6C01142FE52FCB01022F19A29A
:10316000223008F40AE07E0121E2E20EF11C802EFA
:10317000912CA12CB12C612F7E2FA50194010E94CE
:103180007432029F1019112481E0E81AF1081A30F4
:1031900014F4105D01C0195CF7011083122FE32FA6
:1031A000CA01232B242B252B31F7B701C6010E941E
:1031B000F917A1960FB6F894DEBF0FBECDBFDF9111
:1031C000CF911F910F91FF90EF90DF90CF90BF9024
:1031D000AF909F908F9008952115310541F4DC0147
:1031E000ED91FC910190F081E02D642F19940C94E5
:1031F00096189A01AB0160E070E00C94EC18FC01A9
:10320000808191810C94382ECF93DF93EC018881DB
:103210009981009711F00E94382E198218821D8220
:103220001C821B821A82DF91CF9108950F931F9306
:10323000CF93DF93EC018B016F5F7F4F8881998182
:103240000E94BA2C009731F0998388831B830A83EC
:1032500081E001C080E0DF91CF911F910F9108952F
:10326000CF93DF93EC0188819981892B29F08A81A2
:103270009B818617970760F4CE010E941619882358
:1032800041F08C819D81892B19F4E881F9811082AC
:1032900081E0DF91CF910895EF92FF920F931F93FA
:1032A000CF93DF93EC017B018A01BA010E943019B0
:1032B000811104C0CE010E94041907C01D830C8334
:1032C000B701888199810E94992FCE01DF91CF911A
:1032D0001F910F91FF90EF900895FC0111821082D1
:1032E000138212821582148216826115710551F0C3
:1032F000FB0101900020E9F73197AF01461B570B06
:103300000C944C190895CF93DF93EC01FB018617C1
:10331000970761F0608171816115710529F0448121
:1033200055810E944C1902C00E940419CE01DF9100
:10333000CF910895FC0111821082138212821582AE
:10334000148216820C948319CF93DF93EC016115DC
:10335000710559F0FB0101900020E9F73197AF01A9
:10336000461B570B0E944C1902C00E940419CE0143
:10337000DF91CF9108950F931F93CF93DF93CDB734
:10338000DEB761970FB6F894DEBF0FBECDBF8C01DC
:10339000CB01F801118210821382128215821482ED
:1033A000168250E0BE016F5F7F4F0E94E22FBE0188
:1033B0006F5F7F4FC8010E94A41961960FB6F89401
:1033C000DEBF0FBECDBFDF91CF911F910F9108954A
:1033D0000F931F93CF93DF93CDB7DEB7A1970FB6AF
:1033E000F894DEBF0FBECDBF8C01CB01BA01F8014E
:1033F000118210821382128215821482168230E0AA
:10340000AE014F5F5F4F0E94B52FBE016F5F7F4FD0
:10341000C8010E94A419A1960FB6F894DEBF0FBE92
:10342000CDBFDF91CF911F910F910895EF92FF9241
:103430000F931F93CF93DF93FC0124813581611596
:10344000710511F480E019C041155105A9F07B0107
:10345000EC018A01020F131FB8010E943019882362
:1034600089F3288139818C819D81B701820F931F57
:103470000E94992F1D830C8381E0DF91CF911F91D2
:103480000F91FF90EF900895CF93DF931F921F92BB
:10349000CDB7DEB769831A8241E050E0BE016F5FAD
:1034A0007F4F0E94161A0F900F90DF91CF910895D1
:1034B000FC0124813581232B31F421E06115710554
:1034C000A1F0FB0108C0FC018081918161157105AB
:1034D00031F421E0FC018081882339F005C00E948D
:1034E000902F21E0892B09F020E0822F0895FC0124
:1034F000248135816217730720F4808191810097C0
:1035000029F41092D30383ED93E00895860F971F5B
:103510000895FC01248135816217730748F4808186
:103520009181009729F0FC01E60FF71F8081089533
:1035300080E00895FC0180819181009711F00C9446
:103540005D2F60E070E0CB0108950895FC012485B3
:103550003585F901E05CFF4F8081918132962081B1
:103560003181821B930B8F7399270895DC011C9680
:10357000ED91FC911D97DF01A05CBF4F2D913C9117
:10358000119712968D919C9111972817390739F050
:103590008D919C91E80FF91F808190E008958FEF45
:1035A0009FEF0895FC01A485B585FD01E05CFF4F08
:1035B000208131813296808191812817390779F0F5
:1035C00080819181A80FB91F8C91208131812F5F5B
:1035D0003F4F2F7333273183208390E008958FEF7F
:1035E0009FEF0895FC0181A1882329F0A489B58962
:1035F0008C9186FFFBCF11A208950F931F93CF9359
:10360000DF93FC01A685B7858D01005C1F4FE801A3
:103610008881998101968F739927AD014E5B5F4F29
:10362000EA012881398182179307D1F3E8012881C3
:103630003981A20FB31F6C93A685B785A05CBF4FDD
:1036400011969C938E93A689B7892C9181E090E086
:10365000078C02C0880F991F0A94E2F7822B8C9383
:1036600081E081A30488F589E02D808180648083D6
:1036700081E090E0DF91CF911F910F910895FB01C0
:10368000E05CFF4F208131812F5F3F4F2F73332745
:10369000DB01AE5BBF4F4D915C912417350741F0C4
:1036A00040815181DB01A40FB51F8C9331832083AE
:1036B00008951F920F920FB60F9211240BB60F921E
:1036C0002F933F934F935F936F937F938F939F932A
:1036D000AF93BF93EF93FF938091C00082FD07C02B
:1036E0008091C60068E376E00E943F1B02C0809193
:1036F000C600FF91EF91BF91AF919F918F917F9104
:103700006F915F914F913F912F910F900BBE0F9052
:103710000FBE0F901F9018951F920F920FB60F9229
:1037200011240BB60F922F933F934F935F936F9398
:103730007F938F939F93AF93BF93EF93FF9380916A
:10374000C80082FD07C08091CE0060EB75E00E944A
:103750003F1B02C08091CE00FF91EF91BF91AF91CE
:103760009F918F917F916F915F914F913F912F9199
:103770000F900BBE0F900FBE0F901F9018951F92C9
:103780000F920FB60F9211240BB60F922F933F9307
:103790004F935F936F937F938F939F93AF93BF9359
:1037A000EF93FF938091D00082FD07C08091D600F7
:1037B00068E275E00E943F1B02C08091D600FF9135
:1037C000EF91BF91AF919F918F917F916F915F9199
:1037D0004F913F912F910F900BBE0F900FBE0F9006
:1037E0001F9018951F920F920FB60F9211240BB6CF
:1037F0000F922F933F934F935F936F937F938F938A
:103800009F93AF93BF93EF93FF938091300182FD1D
:1038100007C08091360160EA74E00E943F1B02C03D
:1038200080913601FF91EF91BF91AF919F918F9160
:103830007F916F915F914F913F912F910F900BBEB0
:103840000F900FBE0F901F9018951F920F920FB6FA
:103850000F9211240BB60F922F933F938F939F9348
:10386000EF93FF9320913406309135068091360610
:10387000909137062817390731F48091C1008F7D68
:103880008093C10014C0E0913606F0913706EC50E9
:10389000FA4F2081809136069091370601968F73FA
:1038A000992790933706809336062093C600FF91A0
:1038B000EF919F918F913F912F910F900BBE0F90A1
:1038C0000FBE0F901F9018951F920F920FB60F9278
:1038D00011240BB60F922F933F938F939F93EF93E7
:1038E000FF932091AC053091AD058091AE0590918C
:1038F000AF052817390731F48091C9008F7D809377
:10390000C90014C0E091AE05F091AF05E459FA4F3B
:1039100020818091AE059091AF0501968F73992714
:103920009093AF058093AE052093CE00FF91EF9169
:103930009F918F913F912F910F900BBE0F900FBED3
:103940000F901F9018951F920F920FB60F9211248F
:103950000BB60F922F933F938F939F93EF93FF9309
:103960002091240530912505809126059091270509
:103970002817390731F48091D1008F7D8093D100D1
:1039800014C0E0912605F0912705EC51FB4F2081F2
:10399000809126059091270501968F739927909322
:1039A0002705809326052093D600FF91EF919F91E4
:1039B0008F913F912F910F900BBE0F900FBE0F90E4
:1039C0001F9018951F920F920FB60F9211240BB6ED
:1039D0000F922F933F938F939F93EF93FF93209199
:1039E0009C0430919D0480919E0490919F0428171F
:1039F000390731F4809131018F7D8093310114C0FA
:103A0000E0919E04F0919F04E45AFB4F2081809145
:103A10009E0490919F0401968F73992790939F0421
:103A200080939E0420933601FF91EF919F918F9197
:103A30003F912F910F900BBE0F900FBE0F901F90D4
:103A40001895CF92DF92EF92FF920F931F93CF932F
:103A5000DF93EC016A017B014115514E610571054F
:103A600009F1EC89FD8981E090E008A002C0880F8F
:103A7000991F0A94E2F7808360E079E08DE390E09B
:103A8000A70196010E94743289019A01015011091F
:103A90002109310936952795179507959801011544
:103AA0001041A8F0EC89FD89108260E874E88EE18D
:103AB00090E0A70196010E947432DA01C9010197D2
:103AC000A109B109B695A795979587959C01E889B5
:103AD000F9893083EA89FB89208319A2EE89FF895D
:103AE000408181E090E09C010C8C02C0220F331FCA
:103AF0000A94E2F7242B2083EE89FF8940819C0100
:103B00000D8C02C0220F331F0A94E2F7242B20836E
:103B1000EE89FF8940819C010E8C02C0220F331F69
:103B20000A94E2F7242B2083EE89FF8920810F8CF1
:103B300002C0880F991F0A94E2F780958223808340
:103B4000DF91CF911F910F91FF90EF90DF90CF9079
:103B50000895CF92DF92EF92FF92EAE3F4E01382AE
:103B6000128288EEC82E83E0D82EE12CF12CC4827C
:103B7000D582E682F7826EEE72E07183608388E31D
:103B800096E09587848784EF95E09787868785EC14
:103B900090E0918B808B84EC90E0938B828B80EC17
:103BA00090E0958B848B81EC90E0978B868B82ECF8
:103BB00090E0918F808F86EC90E0938F828F44E02D
:103BC000448F33E0358F27E0268F95E0978F81E093
:103BD00080A3E8E1F4E013821282C482D582E682F7
:103BE000F78271836083A0EBB5E0B587A487ACE66C
:103BF000B5E0B787A687ADECB0E0B18BA08BACEC9D
:103C0000B0E0B38BA28BA8ECB0E0B58BA48BA9EC91
:103C1000B0E0B78BA68BAAECB0E0B18FA08FAEEC72
:103C2000B0E0B38FA28F448F358F268F978F80A3FC
:103C3000E6EFF3E013821282C482D582E682F78235
:103C400071836083A8E2B5E0B587A487A4EEB4E0F1
:103C5000B787A687A5EDB0E0B18BA08BA4EDB0E04F
:103C6000B38BA28BA0EDB0E0B58BA48BA1EDB0E03F
:103C7000B78BA68BA2EDB0E0B18FA08FA6EDB0E020
:103C8000B38FA28F448F358F268F978F80A3E4ED5B
:103C9000F3E013821282C482D582E682F7827183B6
:103CA000608360EA74E0758764876CE574E0778709
:103CB000668765E371E0718B608B64E371E0738B01
:103CC000628B60E371E0758B648B61E371E0778BED
:103CD000668B62E371E0718F608F66E371E0738FD2
:103CE000628F448F358F268F978F80A3FF90EF9040
:103CF000DF90CF900895009729F0BC0180E090E01C
:103D00000C94542F0895CF93DF9300D01F92CDB71A
:103D1000DEB7611571058105910579F09B01AC0154
:103D200069833A834B835C830E94502F29813A81B7
:103D30004B815C810E94963203C060E070E0CB0151
:103D40000F900F900F900F90DF91CF9108954F92A9
:103D50005F926F927F92AF92BF92CF92DF92EF927B
:103D6000FF920F931F93CF93DF93CDB7DEB7290157
:103D70003A019B01AC0124193509460957098A8982
:103D80009B89AC89BD89BC01CD016A197B098C096D
:103D90009D090E945032A80197012419350946094E
:103DA00057090E949632CA01B9016A0D7B1D8C1D0C
:103DB0009D1DDF91CF911F910F91FF90EF90DF90AC
:103DC000CF90BF90AF907F906F905F904F9008958D
:103DD0002F923F924F925F926F927F928F929F921B
:103DE000AF92BF92CF92DF92EF92FF920F931F9309
:103DF000CF93DF9300D0CDB7DEB74C017B836A83CE
:103E00006A01590117019801241B350B37FF03C0C4
:103E1000319521953109C5014A815B81841B950B40
:103E200097FF03C091958195910951E059838217BD
:103E3000930714F019820BC09A2D8B2D5801092F6E
:103E4000182F9A818B81DB82CA82C92ED82E8A8153
:103E50009B81A816B9065CF49C2D8D2D6801092F55
:103E6000182F9A818B81BB82AA82A92EB82E250198
:103E7000AA81BB814A1A5B0A38016C187D0877FE5B
:103E800003C0719461947108720157FE03C0BFEFC3
:103E9000EB1AFB0AF594E794C016D1061CF00FEF5D
:103EA0001FEF1FC001E010E01CC0D401ED91FC9198
:103EB000B9810084F185E02D9101BB23C1F04A81D5
:103EC0005B81B601C4011995E618F708F7FE04C036
:103ED000C00ED11EE40CF51CEA81FB813196FB83F8
:103EE000EA834A815B81A416B506FCF604C0A601EC
:103EF0006A817B81E7CF0F900F900F90DF91CF9178
:103F00001F910F91FF90EF90DF90CF90BF90AF90F7
:103F10009F908F907F906F905F904F903F902F90E9
:103F200008950895DC01ED91FC910480F581E02D68
:103F300019940F931F93DC01ED91FC91008CF18D8E
:103F4000E02D19951F910F9108950F931F93DC0198
:103F5000ED91FC91028CF38DE02D19951F910F913D
:103F60000895EF92FF920F931F93DC01ED91FC9166
:103F7000048CF58DE02D19951F910F91FF90EF9016
:103F800008950895AF92BF92CF92DF92EF92FF9281
:103F90000F931F93CF93DF9300D01F92CDB7DEB75F
:103FA0005C016901DC01ED91FC910680F781E02D57
:103FB0004B835C8369837A831995D501ED91FC91DC
:103FC0004B815C81C40ED51EB1E0CB1AD1080088AC
:103FD000F189E02D7801860169817A819B01C50113
:103FE0001995D501ED91FC910288F389E02DC50169
:103FF0000F900F900F900F90DF91CF911F910F9125
:10400000FF90EF90DF90CF90BF90AF901994AF9258
:10401000BF92CF92DF92EF92FF920F931F93CF93B5
:10402000DF9300D01F92CDB7DEB75C016901DC01E0
:10403000ED91FC910680F781E02D4B835C836983D1
:104040007A831995D501ED91FC9169817A819B0163
:104050002C0D3D1D215031090088F189E02D78019A
:104060004B815C818A01C5011995D501ED91FC91C7
:104070000288F389E02DC5010F900F900F900F90EB
:10408000DF91CF911F910F91FF90EF90DF90CF9034
:10409000BF90AF9019944F925F926F927F928F92E0
:1040A0009F92AF92BF92CF92DF92EF92FF920F93C7
:1040B0001F93CF93DF931F921F92CDB7DEB76C0192
:1040C0005A0139014801DC01ED91FC910680F7812C
:1040D000E02D69837A8319956981462E7A81572E5E
:1040E000640C751CD601ED91FC91461457046CF4D8
:1040F0000484F585E02D87019401A501B201C60174
:104100001995BFEF4B1A5B0AEDCF0288F389E02DBA
:10411000C6010F900F90DF91CF911F910F91FF90EB
:10412000EF90DF90CF90BF90AF909F908F907F9057
:104130006F905F904F901994EF92FF920F931F939F
:10414000DC01ED91FC9111971A960D911C911B9732
:1041500018962D913C911997048CF58DE02D7B01DB
:1041600040E050E060E070E019951F910F91FF90E2
:10417000EF900895CF92DF92EF92FF920F931F93EB
:10418000CF93DF9300D000D0CDB7DEB76C01DC0158
:10419000ED91FC916217730789F4041715072CF44D
:1041A000942F852FA801092F182F041B150B980198
:1041B0002F5F3F4F008CF18DE02D12C0401751074B
:1041C00009F5261737072CF4962F872FB901292FC9
:1041D000382F261B370B2F5F3F4F028CF38DE02DBE
:1041E0008701C601199526960FB6F894DEBF0FBE5B
:1041F000CDBFDF91CF911F910F91FF90EF90DF9096
:10420000CF9008950680F781E02D2D833E834B8368
:104210005C8369837A831995D601ED91FC910088BE
:10422000F189E02D2D813E814B815C8169817A810C
:10423000C6011995D601ED91FC910288F389E02D14
:10424000C60126960FB6F894DEBF0FBECDBFDF9134
:10425000CF911F910F91FF90EF90DF90CF90199425
:104260006F927F928F929F92AF92BF92CF92DF9286
:10427000EF92FF920F931F93CF93DF93EC014B01CB
:104280005A0169013801E881F9810680F781E02D42
:104290001995E881F9810684F785E02D870196015B
:1042A000A501B401CE011995E881F981A501460D5A
:1042B000571D415051090684F785E02D9601B40140
:1042C000CE011995E881F9810484F585E02D9301EB
:1042D000A501B401CE011995E881F981C80CD91C5A
:1042E000B601615071090484F585E02D9301A501A3
:1042F000CE011995E881F9810288F389E02DCE017C
:10430000DF91CF911F910F91FF90EF90DF90CF90B1
:10431000BF90AF909F908F907F906F901994089569
:10432000FC016370658B84819581268137816130C2
:1043300039F0633029F09187808733872287089589
:1043400031872087938782870895FC011382128228
:104350008EEF92E0918380837583648357834683D5
:104360007187608753874287158A1586148617865A
:10437000168681E0848B2FEF3FEF338B228B318BBE
:10438000208B868B178A118E108E08952F923F9264
:104390004F925F926F927F928F929F92AF92BF9255
:1043A000CF92DF92EF92FF920F931F93CF93DF9301
:1043B000CDB7DEB76C970FB6F894DEBF0FBECDBF9A
:1043C0009C8F8B8F5B011A011F830E833701C9827B
:1043D000DC0158964D915C9159974115510509F0B2
:1043E000E5C018968D919C911997681779070CF084
:1043F000CAC11A968D919C911B97281639060CF00C
:10440000C2C18C2C912CFB0136E0C39EE00DF11D46
:104410001124FB87EA871E161F060CF0B4C1C401E5
:1044200033E0880F991F3A95E1F79D878C87820DBD
:10443000931D181619060CF0A6C157968C91811180
:1044400003C0203B08F02F5FAB8DBC8DED91FC913C
:1044500011970680F781E02DCD012A8F19952A8DBD
:10446000B5E02B9F90011124F5013596FF87EE876B
:104470002501BB82AA82A9014A195B09598B488B85
:10448000C10108969B8B8A8BE889F989E40DF51D9B
:10449000EB51FD4F949198873D822C826101A88554
:1044A000A0FF13C0AB8DBC8DED91FC91B981B130F3
:1044B00031F40084F185E02D2E813F8116C0028405
:1044C000F385E02DEE80FF801AC0EE81FF816E162D
:1044D0007F06F1F0AB8DBC8DED91FC91B981B130CF
:1044E00051F40084F185E02D9301A601B2018B8D7A
:1044F0009C8D19950DC00284F385E02D7301840114
:1045000094014C815D816A817B818B8D9C8D199595
:10451000E885E695E8872C813D81280D391D3D838E
:104520002C833FEFC31AD30A4A895B89C416D50688
:1045300009F0B5CF8A819B81880D991D9B838A8361
:104540009FEF491A590AAE85BF854A165B0609F0E6
:104550009BCFEE81FF816E167F0609F4F2C0EB8DD2
:10456000FC8DA081B181F981F13079F4B5016B5FE7
:104570007F4F1C96ED91FC911D97830128E030E060
:10458000A1018B8D9C8D1995DCC06A857B8568198E
:1045900079091A96ED91FC911B9773010C851D8585
:1045A0009401A1018B8D9C8D1995CBC0FA01349695
:1045B0009491329765917491291BCB01B7E02B9FA1
:1045C000800D911D1124FA01259134913B8B2A8B8A
:1045D000FC01459154915B834A83FC013296C4905F
:1045E000319654915C87329614913196D49089819A
:1045F000823058F0612E012E000C7708AD2D0D2C65
:10460000000CBB0BB987A88704C019861886612CDB
:10461000712CAB8DBC8DED91FC9111970680F781CB
:10462000E02DCD011995B9818B2E912C689CC0018C
:10463000699C900D789C900D1124FC01EA0DFB1DE6
:10464000F98BE88B1C82712C612CE12F110FFF0B71
:1046500095012E0F3F1F3B872A87AC0CB11CA5018B
:104660004E0F5F1F5F8B4E8BC1018D0D911DD7FCCF
:104670009A95998F888F4C85641608F062C0862DB4
:1046800090E048855985480F591F489D9001499DE4
:10469000300D589D300D1124D901A20DB31DBF87D7
:1046A000AE87AA84BB8448885988DC80BA85DB1A27
:1046B000E88DF98DE80FF91FFD8BEC8B8D2D8A0DA0
:1046C0002E893F89A216B306B9F1877061F48A81F9
:1046D0009B810196EA89FB89AA81BB81EA0FFB1FB6
:1046E00074909B838A8377FE20C0AB8DBC8DED9147
:1046F000FC91B981B13061F40084F185E02D2E8107
:104700003F814C895D89B5018B8D9C8D19950DC0BC
:104710000284F385E02DEE80FF80840194014E85B4
:104720005F85B2018B8D9C8D1995770C480C591CB7
:10473000EFEFAE1ABE0AC2CF3C813C0D3C836394BE
:104740009ACFAB8DBC8DED91FC9111970288F389C6
:10475000E02DCD016C960FB6F894DEBF0FBECDBF35
:10476000DF91CF911F910F91FF90EF90DF90CF904D
:10477000BF90AF909F908F907F906F905F904F9081
:104780003F902F9019946C960FB6F894DEBF0FBE31
:10479000CDBFDF91CF911F910F91FF90EF90DF90F0
:1047A000CF90BF90AF909F908F907F906F905F90D1
:1047B0004F903F902F900895AF92BF92CF92EF927B
:1047C000FF920F931F93CF93DF93EC01262F888DD9
:1047D000998D009709F040C06A3059F41D861C86F7
:1047E0002C898E859F8538E0239F800D911D112493
:1047F00041C06D3009F4AAC08E898823C1F03C897C
:104800008C859D8546E0349F800D911D112448853F
:104810005985481759075CF41D861C868E859F852F
:1048200048E0349F800D911D11249F878E87EA8870
:10483000FB88088919894E855F856C857D85CC88C4
:10484000CE010E94C6212C898C859D8536E0239F50
:10485000800D911D112442C06A3079F41D861C869A
:104860002C89FC013696E4918E859F852E9F800DC4
:10487000911D11249F878E8769C06D3009F466C031
:10488000FC0134963491631708F460C03196E491CA
:10489000E61708F45BC0FC013296A590B490462F51
:1048A00050E0431B510937E0349FB001359F700D34
:1048B0001124A60EB71EF501329634913196E4917B
:1048C000332311F0E1110DC0F5013496E4912C89E8
:1048D0008C859D85E29F800D911D11249D878C877D
:1048E00035C0F501359644915E89552311F16C89E7
:1048F000E32FF0E0E40FF11D47FDFA956E9FD00124
:104900006F9FB00D11244C855D854A0F5B1FE885B4
:10491000F985E417F5076CF41D861C86FC013696B4
:10492000E4918E859F856E9F800D911D11249F8738
:104930008E87EA88FB88088919894E855F856C8592
:104940007D85CC88CE010E94C621BECF81E090E05B
:10495000DF91CF911F910F91FF90EF90CF90BF907B
:10496000AF900895FC01758764875787468708953F
:10497000611101C061E0FC01648B0895FC01738B3F
:10498000628B718B608B0895FC01718B608B538BF4
:10499000428B0895FC01668B0895DC019C96ED9195
:1049A000FC919D979081D1968C91892B808308955D
:1049B000EF92FF920F931F93DC01ED91FC91028423
:1049C000F385E02D7801890121E030E019951F91F0
:1049D0000F91FF90EF900895EF92FF920F931F9326
:1049E000DC01ED91FC910284F385E02D780101E07A
:1049F00010E019951F910F91FF90EF9008950F937C
:104A00001F93CF93DF9300D000D0CDB7DEB78C01DA
:104A1000DC01ED91FC910680F781E02D2D833E8332
:104A20004B835C8369837A831995D801ED91FC915E
:104A30000084F185E02D2D813E814B815C8169816F
:104A40007A81C8011995D801ED91FC910288F3890A
:104A5000E02DC80126960FB6F894DEBF0FBECDBF7D
:104A6000DF91CF911F910F911994EF92FF920F93C5
:104A70001F93CF93DF9300D000D0CDB7DEB77C017A
:104A8000DC01ED91FC910680F781E02D2D833E83C2
:104A90004B835C8369837A831995D701ED91FC91EF
:104AA0000484F585E02D2D813E814B815C816981F7
:104AB0007A81C7011995D701ED91FC910288F3899C
:104AC000E02DC70126960FB6F894DEBF0FBECDBF0E
:104AD000DF91CF911F910F91FF90EF901994EF927A
:104AE000FF920F931F93CF93DF9300D000D0CDB7E9
:104AF000DEB77C01DC01ED91FC910680F781E02DB1
:104B00002D833E834B835C8369837A831995D70118
:104B1000ED91FC910684F785E02D2D813E814B813E
:104B20005C8169817A81C7011995D701ED91FC916A
:104B30000288F389E02DC70126960FB6F894DEBFF0
:104B40000FBECDBFDF91CF911F910F91FF90EF90DE
:104B50001994CF92DF92EF92FF920F931F93CF930E
:104B6000DF9300D000D0CDB7DEB76C01DC01ED9152
:104B7000FC910680F781E02D2D833E834B835C837F
:104B800069837A831995D601ED91FC910284F385AE
:104B9000E02D2D813E814B815C8169817A81C60146
:104BA0001995D601ED91FC910288F389E02DC6019B
:104BB00026960FB6F894DEBF0FBECDBFDF91CF9122
:104BC0001F910F91FF90EF90DF90CF901994CF93AA
:104BD000DF93EC0189A187FF09C084E00E94F42ED5
:104BE00081E00E94E62E80E00E94EF2EECA5FDA55C
:104BF000908189A9809589238083DF91CF91089541
:104C0000EF92FF920F931F93CF93DF931F92CDB735
:104C1000DEB77C01062F142F40E451E060EF70E016
:104C200029830E94A52186E293E0D70111969C93E7
:104C30008E935E960C935E975F961C935F97298187
:104C400090962C9390978FEF91968C939197929644
:104C50008C93929793968C939397F701128E138E61
:104C6000148E158E602F000F770BFB01E659FD4F58
:104C70008491E82FF0E0EE0FFF1FE055FD4F859186
:104C800094919D969C938E939C97FB01EC5DFD4FB8
:104C9000E491D196EC93D197412F110F550BFA0166
:104CA000E659FD4FE491F0E0EE0FFF1FE055FD4F98
:104CB00085919491F70193A782A7FA01EC5DFD4FCE
:104CC000E491D296EC93D29799961C921E92989763
:104CD000D0961C92D09795961C921E9294979E9671
:104CE0001C929E9797961C921E9296979F961C9246
:104CF0000F90DF91CF911F910F91FF90EF9008954A
:104D0000FC0181A187FF05C06EBD0DB407FEFDCF7C
:104D1000089528E030E090E8A4A1B5A186A5492F28
:104D2000462319F04C91842B03C04C918095842329
:104D30008C93A0A5B1A54C9180A9809584238C93D8
:104D4000A0A5B1A54C9180A9842B8C939695215058
:104D5000310911F70895CF93DF93EC01EAA5FBA584
:104D600090818AA9809589238083CE010E94802624
:104D7000EAA5FBA590818AA9892B8083DF91CF9139
:104D80000895CF93DF93EC0141155105610571053D
:104D900021F440E052E16AE770E04A8F5B8F6C8F4C
:104DA0007D8F61E08F8D0E945F1360E08F8D0E9488
:104DB0009B1361E08E8D0E945F1361E08E8D0E94D7
:104DC0009B1389A187FD16C061E08AA10E945F1331
:104DD00060E08AA10E949B1361E089A10E945F1399
:104DE00061E089A10E949B138BA187FD03C060E055
:104DF0000E945F1389A187FD0E94D02E88A187FDA4
:104E000021C061E00E945F1361E088A10E949B13B2
:104E100064E670E080E090E00E94601260E088A1AB
:104E20000E949B1364E670E080E090E00E946012B4
:104E300061E088A10E949B1368EC70E080E090E044
:104E40000E946012E881F9810680F781E02DCE0191
:104E500019956FEECE010E94AB2663E0CE010E9451
:104E6000802660E8CE010E94802662E0CE010E948A
:104E700080266FECCE010E94AB2660E0CE010E943E
:104E8000802661ECCE010E94802660E3CE010E9464
:104E900080266DEECE010E94AB2664E6CE010E9414
:104EA000802663E0CE010E94802662E1CE010E944E
:104EB000802661E8CE010E94802668EECE010E9425
:104EC000AB2665E8CE010E94802660E0CE010E94FC
:104ED000802668E7CE010E9480266BECCE010E94FE
:104EE000AB2669E3CE010E9480266CE2CE010E94CF
:104EF000802660E0CE010E94802664E3CE010E94FD
:104F0000802662E0CE010E94802667EFCE010E94DB
:104F1000AB2660E2CE010E9480266AEECE010E949E
:104F2000AB2660E0CE010E94802660E0CE010E94A8
:104F3000802660ECCE010E94AB2663E2CE010E9487
:104F4000802661ECCE010E94AB2660E1CE010E947A
:104F5000802665ECCE010E94AB266EE3CE010E9456
:104F6000802668E2CE010E94802667ECCE010E9476
:104F7000AB2666E8CE010E94802666E3CE010E9441
:104F8000AB2668E4CE010E94802667E3CE010E9432
:104F9000AB2689A187FF09C01EBC0DB407FEFDCF5B
:104FA0001EBC0DB407FEFDCF08C060E0CE010E941C
:104FB000802660E0CE010E9480266AE3CE010E9436
:104FC000AB2665E5CE010E94802661EBCE010E94F2
:104FD000AB2660E0CE010E94802668E1CE010E94EF
:104FE000802666EBCE010E94AB2668E0CE010E94CF
:104FF000802662E8CE010E94802667E2CE010E94F0
:10500000802662EFCE010E94AB2660E0CE010E94B6
:10501000802666E2CE010E94AB2661E0CE010E94AE
:10502000802660EECE010E94AB266FE0CE010E948A
:10503000802661E3CE010E9480266BE2CE010E94B1
:1050400080266CE0CE010E9480266EE0CE010E9498
:10505000802668E0CE010E9480266EE4CE010E9488
:10506000802661EFCE010E94802667E3CE010E9478
:10507000802667E0CE010E94802660E1CE010E947A
:10508000802663E0CE010E9480266EE0CE010E9461
:10509000802669E0CE010E94802660E0CE010E9459
:1050A000802661EECE010E94AB2660E0CE010E9418
:1050B00080266EE0CE010E94802664E1CE010E942F
:1050C000802663E0CE010E94802661E1CE010E942D
:1050D000802667E0CE010E94802661E3CE010E9417
:1050E000802661ECCE010E94802668E4CE010E94F9
:1050F000802668E0CE010E9480266FE0CE010E94EB
:1051000080266CE0CE010E94802661E3CE010E94E1
:10511000802666E3CE010E9480266FE0CE010E94C9
:10512000802661E1CE010E94AB2668E770E080E056
:1051300090E00E94601269E2CE010E94AB2668E70F
:1051400070E080E090E00E946012E881F9810288BE
:10515000F389E02DCE01199580EF90E0998788873B
:1051600080E491E09B878A87DF91CF9108951F9318
:10517000CF93DF93EC0163706D8B6230C1F06330CD
:1051800001F1613051F080EF90E09987888780E4E9
:1051900091E09B878A8718E41DC080E491E099879D
:1051A000888780EF90E09B878A8718E213C080EFA2
:1051B00090E09987888780E491E09B878A8718E848
:1051C00009C080E491E09987888780EF90E09B8711
:1051D0008A8718EEE881F9810680F781E02DCE01FB
:1051E000199566E3CE010E94AB26612FCE010E9485
:1051F0008026E881F9810288F389E02DCE01DF91D4
:10520000CF911F9119940F931F93CF93DF931F9208
:10521000CDB7DEB78C01DC01ED91FC910680F78102
:10522000E02D698319956981611102C060E201C0B6
:1052300061E2C8010E94AB26D801ED91FC91028881
:10524000F389E02DC8010F90DF91CF911F910F914D
:1052500019948F929F92AF92BF92CF92DF92EF926A
:10526000FF920F931F93CF93DF93EC01490181E0ED
:10527000881A9108860E971EC401A0E0B0E04B0189
:10528000A12CB12C540199248824882A992AAA2A6D
:10529000BB2A680181E0C81AD108C40ED51EC60118
:1052A000A0E0B0E06A01E12CF12C7601DD24CC24F1
:1052B000C82AD92AEA2AFB2A6AE2CE010E94AB2632
:1052C00029A16B2D77278827992727FF18C06EBD46
:1052D0000DB407FEFDCFC501AA27BB278EBD0DB4B7
:1052E00007FEFDCFBB27AB2D9A2D892D8EBD0DB4AA
:1052F00007FEFDCF8EBC0DB407FEFDCF14C0CE015E
:105300000E948026B50188279927CE010E94802619
:1053100099278B2D7A2D692DCE010E948026682D2C
:10532000CE010E9480266BE2CE010E94AB2629A10D
:105330006F2D77278827992727FF18C06EBD0DB4DA
:1053400007FEFDCFC701AA27BB278EBD0DB407FE00
:10535000FDCFBB27AF2D9E2D8D2D8EBD0DB407FE2D
:10536000FDCFCEBC0DB407FEFDCF14C0CE010E9410
:105370008026B70188279927CE010E948026992789
:105380008F2D7E2D6D2DCE010E9480266C2DCE019D
:105390000E9480266CE2CE01DF91CF911F910F9188
:1053A000FF90EF90DF90CF90BF90AF909F908F9045
:1053B0000C94AB261F93CF93DF93262FFC0131A1D2
:1053C00037FF09C07EBD0DB407FEFDCF2EBD0DB465
:1053D00007FEFDCF0CC0672F122FEC010E94802624
:1053E000612FCE01DF91CF911F910C948026DF9128
:1053F000CF911F910895EF92FF920F931F93CF9338
:10540000DF9377FD23C0DC011896ED91FC9119978D
:105410006E177F07DCF457FD19C01A96ED91FC91C9
:105420001B974E175F0794F47901EC0101E010E03F
:1054300021E030E00E942929B701CE01DF91CF9110
:105440001F910F91FF90EF900C94DA29DF91CF918B
:105450001F910F91FF90EF900895EF92FF921F938D
:10546000CF93DF9300D01F921F92CDB7DEB77C01A0
:10547000162FFC0181A187FF12C0211531054105BE
:10548000510549F17EBD0DB407FEFDCF1EBD0DB423
:1054900007FEFDCF2150310941095109EECF2115F9
:1054A000310541055105B9F0672FC70129833A83BA
:1054B0004B835C837D830E948026612FC7010E94FD
:1054C000802629813A814B815C8121503109410933
:1054D00051097D81E4CF0F900F900F900F900F90A6
:1054E000DF91CF911F91FF90EF9008958F929F923F
:1054F000AF92BF92CF92DF92EF92FF920F931F93E2
:10550000CF93DF935C01FB01E9014701DC011896B1
:105510002D913C911997621773070CF049C01A96A8
:105520008D919C911B97481759070CF041C06B0156
:10553000CC0EDD1ED60111977A01E00EF11EB701E7
:1055400061507109B7FD34C077FD32C0F7FF03C069
:10555000E601E0E0F0E057FF03C0870140E050E0E3
:10556000A217B3071CF0E901CE1BDF0B6817790700
:105570001CF08C01041B150B9E01D8010E94BD324A
:105580006B017C01BF01C5010E942929A701960179
:10559000B401C501DF91CF911F910F91FF90EF9062
:1055A000DF90CF90BF90AF909F908F900C942D2A5A
:1055B000DF91CF911F910F91FF90EF90DF90CF90EF
:1055C000BF90AF909F908F9008954F925F926F928F
:1055D0007F929F92AF92BF92CF92DF92EF92FF9213
:1055E0000F931F93CF93DF9300D000D0CDB7DEB7DA
:1055F0008C0160E0DC0112968C910E945F1360E0E8
:10560000F80183810E945F1361E0D80115968C91A7
:105610000E945F1361E0F80184810E945F13D8014A
:1056200050968C9150971896ED91FC911997908116
:10563000892B808351969C9151971C96ED91FC91FA
:105640001D978081282F30E0892F90E080959095DC
:1056500082239323808312968C910E94E8127C010E
:10566000F80182810E94E8129701281B390B2C5FF8
:105670003F4F2930310548F4A701480F591FCA018F
:10568000959587959924939401C0912C2FEF33E041
:105690007901E81AF90A60E0D80115968C910E9408
:1056A0005F1360E0F80184810E945F1361E0D8011C
:1056B00012968C910E945F1361E0F80183810E9431
:1056C0005F13D80153969C9153971E96ED91FC91D0
:1056D0001F978081282F30E0892F90E0809590954A
:1056E00082239323808352968C9152971A96ED9140
:1056F000FC911B979081892B808314968C910E943A
:10570000E8126C01F80184810E94E812A601481B8E
:10571000590B4C5F5F4F4930510538F49601280F03
:10572000391FC9019595879501C0912C4FEF53E022
:105730006A01C81AD90A61E0D80115968C910E94B5
:105740005F1360E0F80182810E945F13D8015096D8
:105750009C9150971896ED91FC9119978081282F74
:1057600030E0892F90E08095909582239323808369
:1057700053968C9153971E96ED91FC911F979081B3
:10578000892B808314968C910E94E8125C01F801A9
:1057900082810E94E812D80116960D911C911797EC
:1057A0000115110509F43FC0BC01990F880B990B35
:1057B0000E9423312B013C01B501BB0C880B990BD6
:1057C0000E9423319B01AC01C301B2010E947930D8
:1057D00020E030E040E85FE30E9407302B013C010D
:1057E000B7010F2C000C880B990B0E9423319B01F1
:1057F000AC01C301B2010E94D3312B013C01B801BD
:1058000080E090E00E9421319B01AC01C301B20114
:105810000E94D33120E030E040E85AE30E94D331C7
:105820000E94EB3005C0B501681B790B61507C4FBD
:10583000911002C060E070E0FA82E982DC82CB82E3
:105840007E836D832E2D3A814C2D5C817E8180E09C
:1058500090E026960FB6F894DEBF0FBECDBFDF9165
:10586000CF911F910F91FF90EF90DF90CF90BF905D
:10587000AF909F907F906F905F904F900895EF92C0
:10588000FF920F931F93DC0112964C93129714967C
:105890002C93149713960C93139715966C93159756
:1058A0001796FC92EE92169770E0FB01E659FD4FB9
:1058B000E491F0E0EE0FFF1FE055FD4F85919491CC
:1058C00019969C938E93189750E0FA01E659FD4F74
:1058D000E491F0E0EE0FFF1FE055FD4F85919491AC
:1058E0001B969C938E931A9730E0F901E659FD4F71
:1058F000E491F0E0EE0FFF1FE055FD4F859194918C
:105900001D969C938E931C9710E0F801E659FD4F6D
:10591000849190E0880F991F80559D4FFC018591DF
:1059200094911F969C938E931E97FB01EC5DFD4F07
:10593000649150966C935097FA01EC5DFD4F449141
:1059400052964C935297F901EC5DFD4F249151967C
:105950002C935197F801EC5DFD4F049153960C93F5
:1059600053978AE090E08D939C931F910F91FF9045
:10597000EF9008956F927F928F929F92AF92BF9215
:10598000CF92DF92EF92FF920F931F93CF93DF930B
:10599000EC01009789F4CB01DF91CF911F910F911A
:1059A000FF90EF90DF90CF90BF90AF909F908F903F
:1059B0007F906F900C94A32DFC01E60FF71F9C01C4
:1059C00022503109E217F30708F4ACC0D9010D9158
:1059D0001C91119706171707B0F00530110508F450
:1059E0009FC0C80104978617970708F499C0025012
:1059F0001109061B170B019311936D937C93CF0133
:105A00000E94382E8DC05B01A01AB10A4C01800E95
:105A1000911EA0917E06B0917F0640E050E0E12CFF
:105A2000F12C109709F44AC0A815B905D1F56D906D
:105A30007C901197630182E0C80ED11CCA14DB046C
:105A400080F1A3014A195B096A0182E0C80ED11CEA
:105A50001296BC9012971396AC91B5E0CB16D10478
:105A600040F0B282A38351834083D9016D937C932C
:105A70000AC00E5F1F4FC301800F911FF901918370
:105A80008083EB2DFA2FE114F10431F0D701139646
:105A9000FC93EE93129744C0F0937F06E0937E064A
:105AA0003FC08D919C9111974817590708F4AC019C
:105AB0007D0112960D90BC91A02DB3CF80917C06F4
:105AC00090917D0688159905E1F446175707C8F4AB
:105AD0008091060290910702009741F48DB79EB71E
